{
	"data": {
		"bytecode": {
			"linkReferences": {},
			"object": "608060405234801561001057600080fd5b50610297806100206000396000f3fe608060405234801561001057600080fd5b50600436106101215760003560e01c80636233be5d116100ad578063cd779d2111610071578063cd779d2114610212578063d50748831461021b578063daa77ea21461022c578063db78dd2814610235578063efe222661461025857600080fd5b80636233be5d146101bc5780638ae53dbd146101c5578063be645692146101d4578063c967f90f146101e4578063cad0ebf11461020057600080fd5b8063182637b8116100f4578063182637b81461016f5780631b5e358c1461019057806332dc3b94146101995780633a061bd3146101aa57806342127ee7146101b357600080fd5b80630976c65d146101265780630a0b5e51146101265780630e15561a14610149578063158ef93e14610152575b600080fd5b61013668d5f7a0e3e5d2cc000081565b6040519081526020015b60405180910390f35b61013660025481565b60005461015f9060ff1681565b6040519015158152602001610140565b61017861f00781565b6040516001600160a01b039091168152602001610140565b61017861f00181565b61013669085be3cbc1c8d988000081565b61017861f00081565b61013661ea6081565b61017861f00281565b610136670de0b6b3a764000081565b6101366801bc16d674ec80000081565b6101ed61271081565b60405161ffff9091168152602001610140565b6101366a0343e33f80dc000ca0000081565b61013661753081565b610136695396bc536dbd8924000081565b61013661271081565b61023f6201518081565b60405167ffffffffffffffff9091168152602001610140565b6101366001548156fea2646970667358221220bc02a9898f51b063308b4232191009915894a958e0a907378ddf4c9c5e4939b964736f6c63430008110033",
			"opcodes": "PUSH1 0x80 PUSH1 0x40 MSTORE CALLVALUE DUP1 ISZERO PUSH2 0x10 JUMPI PUSH1 0x0 DUP1 REVERT JUMPDEST POP PUSH2 0x297 DUP1 PUSH2 0x20 PUSH1 0x0 CODECOPY PUSH1 0x0 RETURN INVALID PUSH1 0x80 PUSH1 0x40 MSTORE CALLVALUE DUP1 ISZERO PUSH2 0x10 JUMPI PUSH1 0x0 DUP1 REVERT JUMPDEST POP PUSH1 0x4 CALLDATASIZE LT PUSH2 0x121 JUMPI PUSH1 0x0 CALLDATALOAD PUSH1 0xE0 SHR DUP1 PUSH4 0x6233BE5D GT PUSH2 0xAD JUMPI DUP1 PUSH4 0xCD779D21 GT PUSH2 0x71 JUMPI DUP1 PUSH4 0xCD779D21 EQ PUSH2 0x212 JUMPI DUP1 PUSH4 0xD5074883 EQ PUSH2 0x21B JUMPI DUP1 PUSH4 0xDAA77EA2 EQ PUSH2 0x22C JUMPI DUP1 PUSH4 0xDB78DD28 EQ PUSH2 0x235 JUMPI DUP1 PUSH4 0xEFE22266 EQ PUSH2 0x258 JUMPI PUSH1 0x0 DUP1 REVERT JUMPDEST DUP1 PUSH4 0x6233BE5D EQ PUSH2 0x1BC JUMPI DUP1 PUSH4 0x8AE53DBD EQ PUSH2 0x1C5 JUMPI DUP1 PUSH4 0xBE645692 EQ PUSH2 0x1D4 JUMPI DUP1 PUSH4 0xC967F90F EQ PUSH2 0x1E4 JUMPI DUP1 PUSH4 0xCAD0EBF1 EQ PUSH2 0x200 JUMPI PUSH1 0x0 DUP1 REVERT JUMPDEST DUP1 PUSH4 0x182637B8 GT PUSH2 0xF4 JUMPI DUP1 PUSH4 0x182637B8 EQ PUSH2 0x16F JUMPI DUP1 PUSH4 0x1B5E358C EQ PUSH2 0x190 JUMPI DUP1 PUSH4 0x32DC3B94 EQ PUSH2 0x199 JUMPI DUP1 PUSH4 0x3A061BD3 EQ PUSH2 0x1AA JUMPI DUP1 PUSH4 0x42127EE7 EQ PUSH2 0x1B3 JUMPI PUSH1 0x0 DUP1 REVERT JUMPDEST DUP1 PUSH4 0x976C65D EQ PUSH2 0x126 JUMPI DUP1 PUSH4 0xA0B5E51 EQ PUSH2 0x126 JUMPI DUP1 PUSH4 0xE15561A EQ PUSH2 0x149 JUMPI DUP1 PUSH4 0x158EF93E EQ PUSH2 0x152 JUMPI JUMPDEST PUSH1 0x0 DUP1 REVERT JUMPDEST PUSH2 0x136 PUSH9 0xD5F7A0E3E5D2CC0000 DUP2 JUMP JUMPDEST PUSH1 0x40 MLOAD SWAP1 DUP2 MSTORE PUSH1 0x20 ADD JUMPDEST PUSH1 0x40 MLOAD DUP1 SWAP2 SUB SWAP1 RETURN JUMPDEST PUSH2 0x136 PUSH1 0x2 SLOAD DUP2 JUMP JUMPDEST PUSH1 0x0 SLOAD PUSH2 0x15F SWAP1 PUSH1 0xFF AND DUP2 JUMP JUMPDEST PUSH1 0x40 MLOAD SWAP1 ISZERO ISZERO DUP2 MSTORE PUSH1 0x20 ADD PUSH2 0x140 JUMP JUMPDEST PUSH2 0x178 PUSH2 0xF007 DUP2 JUMP JUMPDEST PUSH1 0x40 MLOAD PUSH1 0x1 PUSH1 0x1 PUSH1 0xA0 SHL SUB SWAP1 SWAP2 AND DUP2 MSTORE PUSH1 0x20 ADD PUSH2 0x140 JUMP JUMPDEST PUSH2 0x178 PUSH2 0xF001 DUP2 JUMP JUMPDEST PUSH2 0x136 PUSH10 0x85BE3CBC1C8D9880000 DUP2 JUMP JUMPDEST PUSH2 0x178 PUSH2 0xF000 DUP2 JUMP JUMPDEST PUSH2 0x136 PUSH2 0xEA60 DUP2 JUMP JUMPDEST PUSH2 0x178 PUSH2 0xF002 DUP2 JUMP JUMPDEST PUSH2 0x136 PUSH8 0xDE0B6B3A7640000 DUP2 JUMP JUMPDEST PUSH2 0x136 PUSH9 0x1BC16D674EC800000 DUP2 JUMP JUMPDEST PUSH2 0x1ED PUSH2 0x2710 DUP2 JUMP JUMPDEST PUSH1 0x40 MLOAD PUSH2 0xFFFF SWAP1 SWAP2 AND DUP2 MSTORE PUSH1 0x20 ADD PUSH2 0x140 JUMP JUMPDEST PUSH2 0x136 PUSH11 0x343E33F80DC000CA00000 DUP2 JUMP JUMPDEST PUSH2 0x136 PUSH2 0x7530 DUP2 JUMP JUMPDEST PUSH2 0x136 PUSH10 0x5396BC536DBD89240000 DUP2 JUMP JUMPDEST PUSH2 0x136 PUSH2 0x2710 DUP2 JUMP JUMPDEST PUSH2 0x23F PUSH3 0x15180 DUP2 JUMP JUMPDEST PUSH1 0x40 MLOAD PUSH8 0xFFFFFFFFFFFFFFFF SWAP1 SWAP2 AND DUP2 MSTORE PUSH1 0x20 ADD PUSH2 0x140 JUMP JUMPDEST PUSH2 0x136 PUSH1 0x1 SLOAD DUP2 JUMP INVALID LOG2 PUSH5 0x6970667358 0x22 SLT KECCAK256 0xBC MUL 0xA9 DUP10 DUP16 MLOAD 0xB0 PUSH4 0x308B4232 NOT LT MULMOD SWAP2 PC SWAP5 0xA9 PC 0xE0 0xA9 SMOD CALLDATACOPY DUP14 0xDF 0x4C SWAP13 0x5E 0x49 CODECOPY 0xB9 PUSH5 0x736F6C6343 STOP ADDMOD GT STOP CALLER "
		},
		"gasEstimates": {
			"creation": {
				"codeDepositCost": "132600",
				"executionCost": "177",
				"totalCost": "132777"
			},
			"external": {
				"BronzeValidatorStaking()": "230",
				"GoldValidatorStaking()": "228",
				"MaxValidators()": "293",
				"MinimalStakingCoin()": "251",
				"PlatinumValidatorStaking()": "295",
				"ProposalAddr()": "239",
				"PunishContractAddr()": "261",
				"SilverValidatorStaking()": "251",
				"SlashingContractAddr()": "239",
				"StakingLockPeriod()": "292",
				"ValidatorContractAddr()": "305",
				"creatorPartPercent()": "250",
				"extraRewardsPerBlock()": "229",
				"initialized()": "2400",
				"minimumValidatorStaking()": "208",
				"rewardFund()": "2394",
				"stakerPartPercent()": "206",
				"totalRewards()": "2352",
				"validatorPartPercent()": "295"
			}
		},
		"methodIdentifiers": {
			"BronzeValidatorStaking()": "0a0b5e51",
			"GoldValidatorStaking()": "d5074883",
			"MaxValidators()": "c967f90f",
			"MinimalStakingCoin()": "be645692",
			"PlatinumValidatorStaking()": "cad0ebf1",
			"ProposalAddr()": "6233be5d",
			"PunishContractAddr()": "1b5e358c",
			"SilverValidatorStaking()": "32dc3b94",
			"SlashingContractAddr()": "182637b8",
			"StakingLockPeriod()": "db78dd28",
			"ValidatorContractAddr()": "3a061bd3",
			"creatorPartPercent()": "daa77ea2",
			"extraRewardsPerBlock()": "8ae53dbd",
			"initialized()": "158ef93e",
			"minimumValidatorStaking()": "0976c65d",
			"rewardFund()": "efe22266",
			"stakerPartPercent()": "cd779d21",
			"totalRewards()": "0e15561a",
			"validatorPartPercent()": "42127ee7"
		}
	},
	"abi": [
		{
			"inputs": [],
			"name": "BronzeValidatorStaking",
			"outputs": [
				{
					"internalType": "uint256",
					"name": "",
					"type": "uint256"
				}
			],
			"stateMutability": "view",
			"type": "function"
		},
		{
			"inputs": [],
			"name": "GoldValidatorStaking",
			"outputs": [
				{
					"internalType": "uint256",
					"name": "",
					"type": "uint256"
				}
			],
			"stateMutability": "view",
			"type": "function"
		},
		{
			"inputs": [],
			"name": "MaxValidators",
			"outputs": [
				{
					"internalType": "uint16",
					"name": "",
					"type": "uint16"
				}
			],
			"stateMutability": "view",
			"type": "function"
		},
		{
			"inputs": [],
			"name": "MinimalStakingCoin",
			"outputs": [
				{
					"internalType": "uint256",
					"name": "",
					"type": "uint256"
				}
			],
			"stateMutability": "view",
			"type": "function"
		},
		{
			"inputs": [],
			"name": "PlatinumValidatorStaking",
			"outputs": [
				{
					"internalType": "uint256",
					"name": "",
					"type": "uint256"
				}
			],
			"stateMutability": "view",
			"type": "function"
		},
		{
			"inputs": [],
			"name": "ProposalAddr",
			"outputs": [
				{
					"internalType": "address",
					"name": "",
					"type": "address"
				}
			],
			"stateMutability": "view",
			"type": "function"
		},
		{
			"inputs": [],
			"name": "PunishContractAddr",
			"outputs": [
				{
					"internalType": "address",
					"name": "",
					"type": "address"
				}
			],
			"stateMutability": "view",
			"type": "function"
		},
		{
			"inputs": [],
			"name": "SilverValidatorStaking",
			"outputs": [
				{
					"internalType": "uint256",
					"name": "",
					"type": "uint256"
				}
			],
			"stateMutability": "view",
			"type": "function"
		},
		{
			"inputs": [],
			"name": "SlashingContractAddr",
			"outputs": [
				{
					"internalType": "address",
					"name": "",
					"type": "address"
				}
			],
			"stateMutability": "view",
			"type": "function"
		},
		{
			"inputs": [],
			"name": "StakingLockPeriod",
			"outputs": [
				{
					"internalType": "uint64",
					"name": "",
					"type": "uint64"
				}
			],
			"stateMutability": "view",
			"type": "function"
		},
		{
			"inputs": [],
			"name": "ValidatorContractAddr",
			"outputs": [
				{
					"internalType": "address payable",
					"name": "",
					"type": "address"
				}
			],
			"stateMutability": "view",
			"type": "function"
		},
		{
			"inputs": [],
			"name": "creatorPartPercent",
			"outputs": [
				{
					"internalType": "uint256",
					"name": "",
					"type": "uint256"
				}
			],
			"stateMutability": "view",
			"type": "function"
		},
		{
			"inputs": [],
			"name": "extraRewardsPerBlock",
			"outputs": [
				{
					"internalType": "uint256",
					"name": "",
					"type": "uint256"
				}
			],
			"stateMutability": "view",
			"type": "function"
		},
		{
			"inputs": [],
			"name": "initialized",
			"outputs": [
				{
					"internalType": "bool",
					"name": "",
					"type": "bool"
				}
			],
			"stateMutability": "view",
			"type": "function"
		},
		{
			"inputs": [],
			"name": "minimumValidatorStaking",
			"outputs": [
				{
					"internalType": "uint256",
					"name": "",
					"type": "uint256"
				}
			],
			"stateMutability": "view",
			"type": "function"
		},
		{
			"inputs": [],
			"name": "rewardFund",
			"outputs": [
				{
					"internalType": "uint256",
					"name": "",
					"type": "uint256"
				}
			],
			"stateMutability": "view",
			"type": "function"
		},
		{
			"inputs": [],
			"name": "stakerPartPercent",
			"outputs": [
				{
					"internalType": "uint256",
					"name": "",
					"type": "uint256"
				}
			],
			"stateMutability": "view",
			"type": "function"
		},
		{
			"inputs": [],
			"name": "totalRewards",
			"outputs": [
				{
					"internalType": "uint256",
					"name": "",
					"type": "uint256"
				}
			],
			"stateMutability": "view",
			"type": "function"
		},
		{
			"inputs": [],
			"name": "validatorPartPercent",
			"outputs": [
				{
					"internalType": "uint256",
					"name": "",
					"type": "uint256"
				}
			],
			"stateMutability": "view",
			"type": "function"
		}
	]
}