{
	"data": {
		"bytecode": {
			"linkReferences": {},
			"object": "608060405234801561001057600080fd5b5061177a806100206000396000f3fe608060405234801561001057600080fd5b50600436106101c45760003560e01c80636e0e16cf116100f9578063cad0ebf111610097578063daa77ea211610071578063daa77ea2146103f7578063db78dd2814610400578063e823c81414610423578063efe222661461042c57600080fd5b8063cad0ebf1146103cb578063cd779d21146103dd578063d5074883146103e657600080fd5b8063a224cee7116100d3578063a224cee714610377578063a4c4d9221461038c578063be6456921461039f578063c967f90f146103af57600080fd5b80636e0e16cf1461032257806382c4b3b2146103455780638ae53dbd1461036857600080fd5b80631db5ade81161016657806332ed5b121161014057806332ed5b12146102e15780633a061bd31461030757806342127ee7146103105780636233be5d1461031957600080fd5b80631db5ade81461024f5780631f4f7d29146102bd57806332dc3b94146102d057600080fd5b8063158ef93e116101a2578063158ef93e146101f557806315ea278114610212578063182637b8146102255780631b5e358c1461024657600080fd5b80630976c65d146101c95780630a0b5e51146101c95780630e15561a146101ec575b600080fd5b6101d968d5f7a0e3e5d2cc000081565b6040519081526020015b60405180910390f35b6101d960025481565b6000546102029060ff1681565b60405190151581526020016101e3565b6102026102203660046111ef565b610435565b61022e61f00781565b6040516001600160a01b0390911681526020016101e3565b61022e61f00181565b61029661025d366004611213565b60076020908152600092835260408084209091529082529020805460018201546002909201546001600160a01b03909116919060ff1683565b604080516001600160a01b03909416845260208401929092521515908201526060016101e3565b6102026102cb36600461123f565b6104ff565b6101d969085be3cbc1c8d988000081565b6102f46102ef3660046112c4565b6107e2565b6040516101e397969594939291906112dd565b61022e61f00081565b6101d961ea6081565b61022e61f00281565b6102026103303660046111ef565b60056020526000908152604090205460ff1681565b6102026103533660046111ef565b60046020526000908152604090205460ff1681565b6101d9670de0b6b3a764000081565b61038a610385366004611377565b6108c0565b005b61020261039a3660046113fa565b610a37565b6101d96801bc16d674ec80000081565b6103b861271081565b60405161ffff90911681526020016101e3565b6101d96a0343e33f80dc000ca0000081565b6101d961753081565b6101d9695396bc536dbd8924000081565b6101d961271081565b61040a6201518081565b60405167ffffffffffffffff90911681526020016101e3565b6101d960035481565b6101d960015481565b60003361f0001461048d5760405162461bcd60e51b815260206004820152601860248201527f56616c696461746f727320636f6e7472616374206f6e6c79000000000000000060448201526064015b60405180910390fd5b6001600160a01b0382166000818152600460209081526040808320805460ff199081169091556005835292819020805490931660011790925590514281527f4e0b191f7f5c32b1b5e3704b68874b1a3980147cae00be8ece271bfb5b92c07a910160405180910390a25060015b919050565b6001600160a01b03831660009081526005602052604081205460ff16156105685760405162461bcd60e51b815260206004820152601760248201527f416c7265616479206163746976652070726f706f73616c0000000000000000006044820152606401610484565b6000338585854260405160200161058395949392919061142a565b60408051601f1981840301815291905280516020909101209050610bb88311156105e25760405162461bcd60e51b815260206004820152601060248201526f44657461696c7320746f6f206c6f6e6760801b6044820152606401610484565b600081815260066020526040902060030154156106415760405162461bcd60e51b815260206004820152601760248201527f50726f706f73616c20616c7265616479206578697374730000000000000000006044820152606401610484565b6040805160e081018252606081830181905260009082018190526080820181905260a0820181905260c08201523381526001600160a01b0387166020808301919091528251601f87018290048202810182019093528583529091908690869081908401838280828437600092018290525060408087019586524260608801526001600160a01b03808d16835260056020908152828420805460ff191660019081179091558a85526006825292909320885181549083166001600160a01b03199182161782559389015192810180549390921692909316919091179055935185949350600284019250610734915082611507565b506060820151600382015560808201516004909101805460a084015160c09094015115156401000000000264ff000000001961ffff958616620100000263ffffffff19909316959094169490941717919091169190911790556040516001600160a01b03871690339084907fc10f2f4d53a0e342536c6af3cce9c6ee25c32dbb323521ce0e1d4494a3e362e8906107ce9042815260200190565b60405180910390a450600195945050505050565b6006602052600090815260409020805460018201546002830180546001600160a01b039384169492909316926108179061147e565b80601f01602080910402602001604051908101604052809291908181526020018280546108439061147e565b80156108905780601f1061086557610100808354040283529160200191610890565b820191906000526020600020905b81548152906001019060200180831161087357829003601f168201915b50505050600383015460049093015491929161ffff80821692506201000082041690640100000000900460ff1687565b60005460ff16156109095760405162461bcd60e51b8152602060048201526013602482015272105b1c9958591e481a5b9a5d1a585b1a5e9959606a1b6044820152606401610484565b62093a80600355600880546001600160a01b031990811661f000179091556009805490911661f00717905560005b81811015610a25576000838383818110610953576109536115c7565b905060200201602081019061096891906111ef565b6001600160a01b0316036109be5760405162461bcd60e51b815260206004820152601960248201527f496e76616c69642076616c696461746f722061646472657373000000000000006044820152606401610484565b6001600460008585858181106109d6576109d66115c7565b90506020020160208101906109eb91906111ef565b6001600160a01b031681526020810191909152604001600020805460ff191691151591909117905580610a1d816115f3565b915050610937565b50506000805460ff1916600117905550565b600854604051631015428760e21b81523360048201526000916001600160a01b0316906340550a1c90602401602060405180830381865afa158015610a80573d6000803e3d6000fd5b505050506040513d601f19601f82011682018060405250810190610aa4919061160c565b610ae15760405162461bcd60e51b815260206004820152600e60248201526d56616c696461746f72206f6e6c7960901b6044820152606401610484565b6000838152600660205260408120600301549003610b365760405162461bcd60e51b8152602060048201526012602482015271141c9bdc1bdcd85b081b9bdd08195e1a5cdd60721b6044820152606401610484565b33600090815260076020908152604080832086845290915290206001015415610bad5760405162461bcd60e51b815260206004820152602360248201527f596f752063616e277420766f746520666f7220612070726f706f73616c20747760448201526269636560e81b6064820152608401610484565b60038054600085815260066020526040902090910154610bcd9190611629565b4210610c0e5760405162461bcd60e51b815260206004820152601060248201526f141c9bdc1bdcd85b08195e1c1a5c995960821b6044820152606401610484565b336000818152600760209081526040808320878452825291829020426001820181905581546001600160a01b031916851782556002909101805460ff191687151590811790915583519081529182015285917f6c59bda68cac318717c60c7c9635a78a0f0613f9887cc18a7157f5745a86d14e910160405180910390a38115610cdc57600083815260066020526040902060040154610cb29061ffff16600161163c565b6000848152600660205260409020600401805461ffff191661ffff92909216919091179055610d32565b600083815260066020526040902060040154610d039062010000900461ffff16600161163c565b6000848152600660205260409020600401805461ffff92909216620100000263ffff0000199092169190911790555b6000838152600660209081526040808320600101546001600160a01b03168352600590915290205460ff161580610d825750600083815260066020526040902060040154640100000000900460ff165b15610d8f575060016111d1565b600854604080516313bce04b60e31b815290516002926001600160a01b031691639de702589160048083019260009291908290030181865afa158015610dd9573d6000803e3d6000fd5b505050506040513d6000823e601f3d908101601f19168201604052610e019190810190611669565b51610e0c9190611722565b610e17906001611629565b60008481526006602052604090206004015461ffff16106110b1576000838152600660208181526040808420600180820180546001600160a01b0390811688526004808752858920805460ff199081169095179055938401805464ff000000001916640100000000179055815481168852600586528488208054909316909255600954968a905294909352925490516314bfb52760e01b81529082169281019290925291909116906314bfb52790602401602060405180830381865afa158015610ee5573d6000803e3d6000fd5b505050506040513d601f19601f82011682018060405250810190610f09919061160c565b15610fd25760095460008481526006602052604090819020600101549051637cafdd7960e01b81526001600160a01b039182166004820152911690637cafdd7990602401600060405180830381600087803b158015610f6757600080fd5b505af1158015610f7b573d6000803e3d6000fd5b5050506000848152600660209081526040918290206001015491514281526001600160a01b0390921692507f4fe1f8abc0c4946308f22844703db0d9d080d6f4f0db9c44fc88f34fe539b897910160405180910390a25b6008546000848152600660205260409081902060010154905163415e9ec960e11b81526001600160a01b0391821660048201529116906382bd3d92906024016020604051808303816000875af1158015611030573d6000803e3d6000fd5b505050506040513d601f19601f82011682018060405250810190611054919061160c565b506000838152600660209081526040918290206001015491514281526001600160a01b039092169185917fc9d96d61eb62031865c523ae107f3c22f5ed445af237636bcd88bea1705c70d5910160405180910390a35060016111d1565b600854604080516313bce04b60e31b815290516002926001600160a01b031691639de702589160048083019260009291908290030181865afa1580156110fb573d6000803e3d6000fd5b505050506040513d6000823e601f3d908101601f191682016040526111239190810190611669565b5161112e9190611722565b611139906001611629565b60008481526006602052604090206004015462010000900461ffff16106111cd576000838152600660205260409081902060048101805464ff0000000019166401000000001790556001015490516001600160a01b039091169084907fec955d77e6e7d74e18b1c91977ef0f6fd5a6d02a28d1979686339fe693997825906111c49042815260200190565b60405180910390a35b5060015b92915050565b6001600160a01b03811681146111ec57600080fd5b50565b60006020828403121561120157600080fd5b813561120c816111d7565b9392505050565b6000806040838503121561122657600080fd5b8235611231816111d7565b946020939093013593505050565b60008060006040848603121561125457600080fd5b833561125f816111d7565b9250602084013567ffffffffffffffff8082111561127c57600080fd5b818601915086601f83011261129057600080fd5b81358181111561129f57600080fd5b8760208285010111156112b157600080fd5b6020830194508093505050509250925092565b6000602082840312156112d657600080fd5b5035919050565b600060018060a01b03808a1683526020818a168185015260e06040850152885191508160e085015260005b828110156113255789810182015185820161010001528101611308565b5050610100600081838601015280601f19601f84011685010192505050856060830152611358608083018661ffff169052565b61ffff841660a083015282151560c08301525b98975050505050505050565b6000806020838503121561138a57600080fd5b823567ffffffffffffffff808211156113a257600080fd5b818501915085601f8301126113b657600080fd5b8135818111156113c557600080fd5b8660208260051b85010111156113da57600080fd5b60209290920196919550909350505050565b80151581146111ec57600080fd5b6000806040838503121561140d57600080fd5b82359150602083013561141f816113ec565b809150509250929050565b60006bffffffffffffffffffffffff19808860601b168352808760601b16601484015250838560288401375060289201918201526048019392505050565b634e487b7160e01b600052604160045260246000fd5b600181811c9082168061149257607f821691505b6020821081036114b257634e487b7160e01b600052602260045260246000fd5b50919050565b601f82111561150257600081815260208120601f850160051c810160208610156114df5750805b601f850160051c820191505b818110156114fe578281556001016114eb565b5050505b505050565b815167ffffffffffffffff81111561152157611521611468565b6115358161152f845461147e565b846114b8565b602080601f83116001811461156a57600084156115525750858301515b600019600386901b1c1916600185901b1785556114fe565b600085815260208120601f198616915b828110156115995788860151825594840194600190910190840161157a565b50858210156115b75787850151600019600388901b60f8161c191681555b5050505050600190811b01905550565b634e487b7160e01b600052603260045260246000fd5b634e487b7160e01b600052601160045260246000fd5b600060018201611605576116056115dd565b5060010190565b60006020828403121561161e57600080fd5b815161120c816113ec565b808201808211156111d1576111d16115dd565b61ffff818116838216019080821115611657576116576115dd565b5092915050565b80516104fa816111d7565b6000602080838503121561167c57600080fd5b825167ffffffffffffffff8082111561169457600080fd5b818501915085601f8301126116a857600080fd5b8151818111156116ba576116ba611468565b8060051b604051601f19603f830116810181811085821117156116df576116df611468565b6040529182528482019250838101850191888311156116fd57600080fd5b938501935b8285101561136b576117138561165e565b84529385019392850192611702565b60008261173f57634e487b7160e01b600052601260045260246000fd5b50049056fea26469706673582212208198dd0766b7718b44bc9f2f694b066103ff13f290f8b81ab0637c32cc9de30b64736f6c63430008110033",
			"opcodes": "PUSH1 0x80 PUSH1 0x40 MSTORE CALLVALUE DUP1 ISZERO PUSH2 0x10 JUMPI PUSH1 0x0 DUP1 REVERT JUMPDEST POP PUSH2 0x177A DUP1 PUSH2 0x20 PUSH1 0x0 CODECOPY PUSH1 0x0 RETURN INVALID PUSH1 0x80 PUSH1 0x40 MSTORE CALLVALUE DUP1 ISZERO PUSH2 0x10 JUMPI PUSH1 0x0 DUP1 REVERT JUMPDEST POP PUSH1 0x4 CALLDATASIZE LT PUSH2 0x1C4 JUMPI PUSH1 0x0 CALLDATALOAD PUSH1 0xE0 SHR DUP1 PUSH4 0x6E0E16CF GT PUSH2 0xF9 JUMPI DUP1 PUSH4 0xCAD0EBF1 GT PUSH2 0x97 JUMPI DUP1 PUSH4 0xDAA77EA2 GT PUSH2 0x71 JUMPI DUP1 PUSH4 0xDAA77EA2 EQ PUSH2 0x3F7 JUMPI DUP1 PUSH4 0xDB78DD28 EQ PUSH2 0x400 JUMPI DUP1 PUSH4 0xE823C814 EQ PUSH2 0x423 JUMPI DUP1 PUSH4 0xEFE22266 EQ PUSH2 0x42C JUMPI PUSH1 0x0 DUP1 REVERT JUMPDEST DUP1 PUSH4 0xCAD0EBF1 EQ PUSH2 0x3CB JUMPI DUP1 PUSH4 0xCD779D21 EQ PUSH2 0x3DD JUMPI DUP1 PUSH4 0xD5074883 EQ PUSH2 0x3E6 JUMPI PUSH1 0x0 DUP1 REVERT JUMPDEST DUP1 PUSH4 0xA224CEE7 GT PUSH2 0xD3 JUMPI DUP1 PUSH4 0xA224CEE7 EQ PUSH2 0x377 JUMPI DUP1 PUSH4 0xA4C4D922 EQ PUSH2 0x38C JUMPI DUP1 PUSH4 0xBE645692 EQ PUSH2 0x39F JUMPI DUP1 PUSH4 0xC967F90F EQ PUSH2 0x3AF JUMPI PUSH1 0x0 DUP1 REVERT JUMPDEST DUP1 PUSH4 0x6E0E16CF EQ PUSH2 0x322 JUMPI DUP1 PUSH4 0x82C4B3B2 EQ PUSH2 0x345 JUMPI DUP1 PUSH4 0x8AE53DBD EQ PUSH2 0x368 JUMPI PUSH1 0x0 DUP1 REVERT JUMPDEST DUP1 PUSH4 0x1DB5ADE8 GT PUSH2 0x166 JUMPI DUP1 PUSH4 0x32ED5B12 GT PUSH2 0x140 JUMPI DUP1 PUSH4 0x32ED5B12 EQ PUSH2 0x2E1 JUMPI DUP1 PUSH4 0x3A061BD3 EQ PUSH2 0x307 JUMPI DUP1 PUSH4 0x42127EE7 EQ PUSH2 0x310 JUMPI DUP1 PUSH4 0x6233BE5D EQ PUSH2 0x319 JUMPI PUSH1 0x0 DUP1 REVERT JUMPDEST DUP1 PUSH4 0x1DB5ADE8 EQ PUSH2 0x24F JUMPI DUP1 PUSH4 0x1F4F7D29 EQ PUSH2 0x2BD JUMPI DUP1 PUSH4 0x32DC3B94 EQ PUSH2 0x2D0 JUMPI PUSH1 0x0 DUP1 REVERT JUMPDEST DUP1 PUSH4 0x158EF93E GT PUSH2 0x1A2 JUMPI DUP1 PUSH4 0x158EF93E EQ PUSH2 0x1F5 JUMPI DUP1 PUSH4 0x15EA2781 EQ PUSH2 0x212 JUMPI DUP1 PUSH4 0x182637B8 EQ PUSH2 0x225 JUMPI DUP1 PUSH4 0x1B5E358C EQ PUSH2 0x246 JUMPI PUSH1 0x0 DUP1 REVERT JUMPDEST DUP1 PUSH4 0x976C65D EQ PUSH2 0x1C9 JUMPI DUP1 PUSH4 0xA0B5E51 EQ PUSH2 0x1C9 JUMPI DUP1 PUSH4 0xE15561A EQ PUSH2 0x1EC JUMPI JUMPDEST PUSH1 0x0 DUP1 REVERT JUMPDEST PUSH2 0x1D9 PUSH9 0xD5F7A0E3E5D2CC0000 DUP2 JUMP JUMPDEST PUSH1 0x40 MLOAD SWAP1 DUP2 MSTORE PUSH1 0x20 ADD JUMPDEST PUSH1 0x40 MLOAD DUP1 SWAP2 SUB SWAP1 RETURN JUMPDEST PUSH2 0x1D9 PUSH1 0x2 SLOAD DUP2 JUMP JUMPDEST PUSH1 0x0 SLOAD PUSH2 0x202 SWAP1 PUSH1 0xFF AND DUP2 JUMP JUMPDEST PUSH1 0x40 MLOAD SWAP1 ISZERO ISZERO DUP2 MSTORE PUSH1 0x20 ADD PUSH2 0x1E3 JUMP JUMPDEST PUSH2 0x202 PUSH2 0x220 CALLDATASIZE PUSH1 0x4 PUSH2 0x11EF JUMP JUMPDEST PUSH2 0x435 JUMP JUMPDEST PUSH2 0x22E PUSH2 0xF007 DUP2 JUMP JUMPDEST PUSH1 0x40 MLOAD PUSH1 0x1 PUSH1 0x1 PUSH1 0xA0 SHL SUB SWAP1 SWAP2 AND DUP2 MSTORE PUSH1 0x20 ADD PUSH2 0x1E3 JUMP JUMPDEST PUSH2 0x22E PUSH2 0xF001 DUP2 JUMP JUMPDEST PUSH2 0x296 PUSH2 0x25D CALLDATASIZE PUSH1 0x4 PUSH2 0x1213 JUMP JUMPDEST PUSH1 0x7 PUSH1 0x20 SWAP1 DUP2 MSTORE PUSH1 0x0 SWAP3 DUP4 MSTORE PUSH1 0x40 DUP1 DUP5 KECCAK256 SWAP1 SWAP2 MSTORE SWAP1 DUP3 MSTORE SWAP1 KECCAK256 DUP1 SLOAD PUSH1 0x1 DUP3 ADD SLOAD PUSH1 0x2 SWAP1 SWAP3 ADD SLOAD PUSH1 0x1 PUSH1 0x1 PUSH1 0xA0 SHL SUB SWAP1 SWAP2 AND SWAP2 SWAP1 PUSH1 0xFF AND DUP4 JUMP JUMPDEST PUSH1 0x40 DUP1 MLOAD PUSH1 0x1 PUSH1 0x1 PUSH1 0xA0 SHL SUB SWAP1 SWAP5 AND DUP5 MSTORE PUSH1 0x20 DUP5 ADD SWAP3 SWAP1 SWAP3 MSTORE ISZERO ISZERO SWAP1 DUP3 ADD MSTORE PUSH1 0x60 ADD PUSH2 0x1E3 JUMP JUMPDEST PUSH2 0x202 PUSH2 0x2CB CALLDATASIZE PUSH1 0x4 PUSH2 0x123F JUMP JUMPDEST PUSH2 0x4FF JUMP JUMPDEST PUSH2 0x1D9 PUSH10 0x85BE3CBC1C8D9880000 DUP2 JUMP JUMPDEST PUSH2 0x2F4 PUSH2 0x2EF CALLDATASIZE PUSH1 0x4 PUSH2 0x12C4 JUMP JUMPDEST PUSH2 0x7E2 JUMP JUMPDEST PUSH1 0x40 MLOAD PUSH2 0x1E3 SWAP8 SWAP7 SWAP6 SWAP5 SWAP4 SWAP3 SWAP2 SWAP1 PUSH2 0x12DD JUMP JUMPDEST PUSH2 0x22E PUSH2 0xF000 DUP2 JUMP JUMPDEST PUSH2 0x1D9 PUSH2 0xEA60 DUP2 JUMP JUMPDEST PUSH2 0x22E PUSH2 0xF002 DUP2 JUMP JUMPDEST PUSH2 0x202 PUSH2 0x330 CALLDATASIZE PUSH1 0x4 PUSH2 0x11EF JUMP JUMPDEST PUSH1 0x5 PUSH1 0x20 MSTORE PUSH1 0x0 SWAP1 DUP2 MSTORE PUSH1 0x40 SWAP1 KECCAK256 SLOAD PUSH1 0xFF AND DUP2 JUMP JUMPDEST PUSH2 0x202 PUSH2 0x353 CALLDATASIZE PUSH1 0x4 PUSH2 0x11EF JUMP JUMPDEST PUSH1 0x4 PUSH1 0x20 MSTORE PUSH1 0x0 SWAP1 DUP2 MSTORE PUSH1 0x40 SWAP1 KECCAK256 SLOAD PUSH1 0xFF AND DUP2 JUMP JUMPDEST PUSH2 0x1D9 PUSH8 0xDE0B6B3A7640000 DUP2 JUMP JUMPDEST PUSH2 0x38A PUSH2 0x385 CALLDATASIZE PUSH1 0x4 PUSH2 0x1377 JUMP JUMPDEST PUSH2 0x8C0 JUMP JUMPDEST STOP JUMPDEST PUSH2 0x202 PUSH2 0x39A CALLDATASIZE PUSH1 0x4 PUSH2 0x13FA JUMP JUMPDEST PUSH2 0xA37 JUMP JUMPDEST PUSH2 0x1D9 PUSH9 0x1BC16D674EC800000 DUP2 JUMP JUMPDEST PUSH2 0x3B8 PUSH2 0x2710 DUP2 JUMP JUMPDEST PUSH1 0x40 MLOAD PUSH2 0xFFFF SWAP1 SWAP2 AND DUP2 MSTORE PUSH1 0x20 ADD PUSH2 0x1E3 JUMP JUMPDEST PUSH2 0x1D9 PUSH11 0x343E33F80DC000CA00000 DUP2 JUMP JUMPDEST PUSH2 0x1D9 PUSH2 0x7530 DUP2 JUMP JUMPDEST PUSH2 0x1D9 PUSH10 0x5396BC536DBD89240000 DUP2 JUMP JUMPDEST PUSH2 0x1D9 PUSH2 0x2710 DUP2 JUMP JUMPDEST PUSH2 0x40A PUSH3 0x15180 DUP2 JUMP JUMPDEST PUSH1 0x40 MLOAD PUSH8 0xFFFFFFFFFFFFFFFF SWAP1 SWAP2 AND DUP2 MSTORE PUSH1 0x20 ADD PUSH2 0x1E3 JUMP JUMPDEST PUSH2 0x1D9 PUSH1 0x3 SLOAD DUP2 JUMP JUMPDEST PUSH2 0x1D9 PUSH1 0x1 SLOAD DUP2 JUMP JUMPDEST PUSH1 0x0 CALLER PUSH2 0xF000 EQ PUSH2 0x48D JUMPI PUSH1 0x40 MLOAD PUSH3 0x461BCD PUSH1 0xE5 SHL DUP2 MSTORE PUSH1 0x20 PUSH1 0x4 DUP3 ADD MSTORE PUSH1 0x18 PUSH1 0x24 DUP3 ADD MSTORE PUSH32 0x56616C696461746F727320636F6E7472616374206F6E6C790000000000000000 PUSH1 0x44 DUP3 ADD MSTORE PUSH1 0x64 ADD JUMPDEST PUSH1 0x40 MLOAD DUP1 SWAP2 SUB SWAP1 REVERT JUMPDEST PUSH1 0x1 PUSH1 0x1 PUSH1 0xA0 SHL SUB DUP3 AND PUSH1 0x0 DUP2 DUP2 MSTORE PUSH1 0x4 PUSH1 0x20 SWAP1 DUP2 MSTORE PUSH1 0x40 DUP1 DUP4 KECCAK256 DUP1 SLOAD PUSH1 0xFF NOT SWAP1 DUP2 AND SWAP1 SWAP2 SSTORE PUSH1 0x5 DUP4 MSTORE SWAP3 DUP2 SWAP1 KECCAK256 DUP1 SLOAD SWAP1 SWAP4 AND PUSH1 0x1 OR SWAP1 SWAP3 SSTORE SWAP1 MLOAD TIMESTAMP DUP2 MSTORE PUSH32 0x4E0B191F7F5C32B1B5E3704B68874B1A3980147CAE00BE8ECE271BFB5B92C07A SWAP2 ADD PUSH1 0x40 MLOAD DUP1 SWAP2 SUB SWAP1 LOG2 POP PUSH1 0x1 JUMPDEST SWAP2 SWAP1 POP JUMP JUMPDEST PUSH1 0x1 PUSH1 0x1 PUSH1 0xA0 SHL SUB DUP4 AND PUSH1 0x0 SWAP1 DUP2 MSTORE PUSH1 0x5 PUSH1 0x20 MSTORE PUSH1 0x40 DUP2 KECCAK256 SLOAD PUSH1 0xFF AND ISZERO PUSH2 0x568 JUMPI PUSH1 0x40 MLOAD PUSH3 0x461BCD PUSH1 0xE5 SHL DUP2 MSTORE PUSH1 0x20 PUSH1 0x4 DUP3 ADD MSTORE PUSH1 0x17 PUSH1 0x24 DUP3 ADD MSTORE PUSH32 0x416C7265616479206163746976652070726F706F73616C000000000000000000 PUSH1 0x44 DUP3 ADD MSTORE PUSH1 0x64 ADD PUSH2 0x484 JUMP JUMPDEST PUSH1 0x0 CALLER DUP6 DUP6 DUP6 TIMESTAMP PUSH1 0x40 MLOAD PUSH1 0x20 ADD PUSH2 0x583 SWAP6 SWAP5 SWAP4 SWAP3 SWAP2 SWAP1 PUSH2 0x142A JUMP JUMPDEST PUSH1 0x40 DUP1 MLOAD PUSH1 0x1F NOT DUP2 DUP5 SUB ADD DUP2 MSTORE SWAP2 SWAP1 MSTORE DUP1 MLOAD PUSH1 0x20 SWAP1 SWAP2 ADD KECCAK256 SWAP1 POP PUSH2 0xBB8 DUP4 GT ISZERO PUSH2 0x5E2 JUMPI PUSH1 0x40 MLOAD PUSH3 0x461BCD PUSH1 0xE5 SHL DUP2 MSTORE PUSH1 0x20 PUSH1 0x4 DUP3 ADD MSTORE PUSH1 0x10 PUSH1 0x24 DUP3 ADD MSTORE PUSH16 0x44657461696C7320746F6F206C6F6E67 PUSH1 0x80 SHL PUSH1 0x44 DUP3 ADD MSTORE PUSH1 0x64 ADD PUSH2 0x484 JUMP JUMPDEST PUSH1 0x0 DUP2 DUP2 MSTORE PUSH1 0x6 PUSH1 0x20 MSTORE PUSH1 0x40 SWAP1 KECCAK256 PUSH1 0x3 ADD SLOAD ISZERO PUSH2 0x641 JUMPI PUSH1 0x40 MLOAD PUSH3 0x461BCD PUSH1 0xE5 SHL DUP2 MSTORE PUSH1 0x20 PUSH1 0x4 DUP3 ADD MSTORE PUSH1 0x17 PUSH1 0x24 DUP3 ADD MSTORE PUSH32 0x50726F706F73616C20616C726561647920657869737473000000000000000000 PUSH1 0x44 DUP3 ADD MSTORE PUSH1 0x64 ADD PUSH2 0x484 JUMP JUMPDEST PUSH1 0x40 DUP1 MLOAD PUSH1 0xE0 DUP2 ADD DUP3 MSTORE PUSH1 0x60 DUP2 DUP4 ADD DUP2 SWAP1 MSTORE PUSH1 0x0 SWAP1 DUP3 ADD DUP2 SWAP1 MSTORE PUSH1 0x80 DUP3 ADD DUP2 SWAP1 MSTORE PUSH1 0xA0 DUP3 ADD DUP2 SWAP1 MSTORE PUSH1 0xC0 DUP3 ADD MSTORE CALLER DUP2 MSTORE PUSH1 0x1 PUSH1 0x1 PUSH1 0xA0 SHL SUB DUP8 AND PUSH1 0x20 DUP1 DUP4 ADD SWAP2 SWAP1 SWAP2 MSTORE DUP3 MLOAD PUSH1 0x1F DUP8 ADD DUP3 SWAP1 DIV DUP3 MUL DUP2 ADD DUP3 ADD SWAP1 SWAP4 MSTORE DUP6 DUP4 MSTORE SWAP1 SWAP2 SWAP1 DUP7 SWAP1 DUP7 SWAP1 DUP2 SWAP1 DUP5 ADD DUP4 DUP3 DUP1 DUP3 DUP5 CALLDATACOPY PUSH1 0x0 SWAP3 ADD DUP3 SWAP1 MSTORE POP PUSH1 0x40 DUP1 DUP8 ADD SWAP6 DUP7 MSTORE TIMESTAMP PUSH1 0x60 DUP9 ADD MSTORE PUSH1 0x1 PUSH1 0x1 PUSH1 0xA0 SHL SUB DUP1 DUP14 AND DUP4 MSTORE PUSH1 0x5 PUSH1 0x20 SWAP1 DUP2 MSTORE DUP3 DUP5 KECCAK256 DUP1 SLOAD PUSH1 0xFF NOT AND PUSH1 0x1 SWAP1 DUP2 OR SWAP1 SWAP2 SSTORE DUP11 DUP6 MSTORE PUSH1 0x6 DUP3 MSTORE SWAP3 SWAP1 SWAP4 KECCAK256 DUP9 MLOAD DUP2 SLOAD SWAP1 DUP4 AND PUSH1 0x1 PUSH1 0x1 PUSH1 0xA0 SHL SUB NOT SWAP2 DUP3 AND OR DUP3 SSTORE SWAP4 DUP10 ADD MLOAD SWAP3 DUP2 ADD DUP1 SLOAD SWAP4 SWAP1 SWAP3 AND SWAP3 SWAP1 SWAP4 AND SWAP2 SWAP1 SWAP2 OR SWAP1 SSTORE SWAP4 MLOAD DUP6 SWAP5 SWAP4 POP PUSH1 0x2 DUP5 ADD SWAP3 POP PUSH2 0x734 SWAP2 POP DUP3 PUSH2 0x1507 JUMP JUMPDEST POP PUSH1 0x60 DUP3 ADD MLOAD PUSH1 0x3 DUP3 ADD SSTORE PUSH1 0x80 DUP3 ADD MLOAD PUSH1 0x4 SWAP1 SWAP2 ADD DUP1 SLOAD PUSH1 0xA0 DUP5 ADD MLOAD PUSH1 0xC0 SWAP1 SWAP5 ADD MLOAD ISZERO ISZERO PUSH5 0x100000000 MUL PUSH5 0xFF00000000 NOT PUSH2 0xFFFF SWAP6 DUP7 AND PUSH3 0x10000 MUL PUSH4 0xFFFFFFFF NOT SWAP1 SWAP4 AND SWAP6 SWAP1 SWAP5 AND SWAP5 SWAP1 SWAP5 OR OR SWAP2 SWAP1 SWAP2 AND SWAP2 SWAP1 SWAP2 OR SWAP1 SSTORE PUSH1 0x40 MLOAD PUSH1 0x1 PUSH1 0x1 PUSH1 0xA0 SHL SUB DUP8 AND SWAP1 CALLER SWAP1 DUP5 SWAP1 PUSH32 0xC10F2F4D53A0E342536C6AF3CCE9C6EE25C32DBB323521CE0E1D4494A3E362E8 SWAP1 PUSH2 0x7CE SWAP1 TIMESTAMP DUP2 MSTORE PUSH1 0x20 ADD SWAP1 JUMP JUMPDEST PUSH1 0x40 MLOAD DUP1 SWAP2 SUB SWAP1 LOG4 POP PUSH1 0x1 SWAP6 SWAP5 POP POP POP POP POP JUMP JUMPDEST PUSH1 0x6 PUSH1 0x20 MSTORE PUSH1 0x0 SWAP1 DUP2 MSTORE PUSH1 0x40 SWAP1 KECCAK256 DUP1 SLOAD PUSH1 0x1 DUP3 ADD SLOAD PUSH1 0x2 DUP4 ADD DUP1 SLOAD PUSH1 0x1 PUSH1 0x1 PUSH1 0xA0 SHL SUB SWAP4 DUP5 AND SWAP5 SWAP3 SWAP1 SWAP4 AND SWAP3 PUSH2 0x817 SWAP1 PUSH2 0x147E JUMP JUMPDEST DUP1 PUSH1 0x1F ADD PUSH1 0x20 DUP1 SWAP2 DIV MUL PUSH1 0x20 ADD PUSH1 0x40 MLOAD SWAP1 DUP2 ADD PUSH1 0x40 MSTORE DUP1 SWAP3 SWAP2 SWAP1 DUP2 DUP2 MSTORE PUSH1 0x20 ADD DUP3 DUP1 SLOAD PUSH2 0x843 SWAP1 PUSH2 0x147E JUMP JUMPDEST DUP1 ISZERO PUSH2 0x890 JUMPI DUP1 PUSH1 0x1F LT PUSH2 0x865 JUMPI PUSH2 0x100 DUP1 DUP4 SLOAD DIV MUL DUP4 MSTORE SWAP2 PUSH1 0x20 ADD SWAP2 PUSH2 0x890 JUMP JUMPDEST DUP3 ADD SWAP2 SWAP1 PUSH1 0x0 MSTORE PUSH1 0x20 PUSH1 0x0 KECCAK256 SWAP1 JUMPDEST DUP2 SLOAD DUP2 MSTORE SWAP1 PUSH1 0x1 ADD SWAP1 PUSH1 0x20 ADD DUP1 DUP4 GT PUSH2 0x873 JUMPI DUP3 SWAP1 SUB PUSH1 0x1F AND DUP3 ADD SWAP2 JUMPDEST POP POP POP POP PUSH1 0x3 DUP4 ADD SLOAD PUSH1 0x4 SWAP1 SWAP4 ADD SLOAD SWAP2 SWAP3 SWAP2 PUSH2 0xFFFF DUP1 DUP3 AND SWAP3 POP PUSH3 0x10000 DUP3 DIV AND SWAP1 PUSH5 0x100000000 SWAP1 DIV PUSH1 0xFF AND DUP8 JUMP JUMPDEST PUSH1 0x0 SLOAD PUSH1 0xFF AND ISZERO PUSH2 0x909 JUMPI PUSH1 0x40 MLOAD PUSH3 0x461BCD PUSH1 0xE5 SHL DUP2 MSTORE PUSH1 0x20 PUSH1 0x4 DUP3 ADD MSTORE PUSH1 0x13 PUSH1 0x24 DUP3 ADD MSTORE PUSH19 0x105B1C9958591E481A5B9A5D1A585B1A5E9959 PUSH1 0x6A SHL PUSH1 0x44 DUP3 ADD MSTORE PUSH1 0x64 ADD PUSH2 0x484 JUMP JUMPDEST PUSH3 0x93A80 PUSH1 0x3 SSTORE PUSH1 0x8 DUP1 SLOAD PUSH1 0x1 PUSH1 0x1 PUSH1 0xA0 SHL SUB NOT SWAP1 DUP2 AND PUSH2 0xF000 OR SWAP1 SWAP2 SSTORE PUSH1 0x9 DUP1 SLOAD SWAP1 SWAP2 AND PUSH2 0xF007 OR SWAP1 SSTORE PUSH1 0x0 JUMPDEST DUP2 DUP2 LT ISZERO PUSH2 0xA25 JUMPI PUSH1 0x0 DUP4 DUP4 DUP4 DUP2 DUP2 LT PUSH2 0x953 JUMPI PUSH2 0x953 PUSH2 0x15C7 JUMP JUMPDEST SWAP1 POP PUSH1 0x20 MUL ADD PUSH1 0x20 DUP2 ADD SWAP1 PUSH2 0x968 SWAP2 SWAP1 PUSH2 0x11EF JUMP JUMPDEST PUSH1 0x1 PUSH1 0x1 PUSH1 0xA0 SHL SUB AND SUB PUSH2 0x9BE JUMPI PUSH1 0x40 MLOAD PUSH3 0x461BCD PUSH1 0xE5 SHL DUP2 MSTORE PUSH1 0x20 PUSH1 0x4 DUP3 ADD MSTORE PUSH1 0x19 PUSH1 0x24 DUP3 ADD MSTORE PUSH32 0x496E76616C69642076616C696461746F72206164647265737300000000000000 PUSH1 0x44 DUP3 ADD MSTORE PUSH1 0x64 ADD PUSH2 0x484 JUMP JUMPDEST PUSH1 0x1 PUSH1 0x4 PUSH1 0x0 DUP6 DUP6 DUP6 DUP2 DUP2 LT PUSH2 0x9D6 JUMPI PUSH2 0x9D6 PUSH2 0x15C7 JUMP JUMPDEST SWAP1 POP PUSH1 0x20 MUL ADD PUSH1 0x20 DUP2 ADD SWAP1 PUSH2 0x9EB SWAP2 SWAP1 PUSH2 0x11EF JUMP JUMPDEST PUSH1 0x1 PUSH1 0x1 PUSH1 0xA0 SHL SUB AND DUP2 MSTORE PUSH1 0x20 DUP2 ADD SWAP2 SWAP1 SWAP2 MSTORE PUSH1 0x40 ADD PUSH1 0x0 KECCAK256 DUP1 SLOAD PUSH1 0xFF NOT AND SWAP2 ISZERO ISZERO SWAP2 SWAP1 SWAP2 OR SWAP1 SSTORE DUP1 PUSH2 0xA1D DUP2 PUSH2 0x15F3 JUMP JUMPDEST SWAP2 POP POP PUSH2 0x937 JUMP JUMPDEST POP POP PUSH1 0x0 DUP1 SLOAD PUSH1 0xFF NOT AND PUSH1 0x1 OR SWAP1 SSTORE POP JUMP JUMPDEST PUSH1 0x8 SLOAD PUSH1 0x40 MLOAD PUSH4 0x10154287 PUSH1 0xE2 SHL DUP2 MSTORE CALLER PUSH1 0x4 DUP3 ADD MSTORE PUSH1 0x0 SWAP2 PUSH1 0x1 PUSH1 0x1 PUSH1 0xA0 SHL SUB AND SWAP1 PUSH4 0x40550A1C SWAP1 PUSH1 0x24 ADD PUSH1 0x20 PUSH1 0x40 MLOAD DUP1 DUP4 SUB DUP2 DUP7 GAS STATICCALL ISZERO DUP1 ISZERO PUSH2 0xA80 JUMPI RETURNDATASIZE PUSH1 0x0 DUP1 RETURNDATACOPY RETURNDATASIZE PUSH1 0x0 REVERT JUMPDEST POP POP POP POP PUSH1 0x40 MLOAD RETURNDATASIZE PUSH1 0x1F NOT PUSH1 0x1F DUP3 ADD AND DUP3 ADD DUP1 PUSH1 0x40 MSTORE POP DUP2 ADD SWAP1 PUSH2 0xAA4 SWAP2 SWAP1 PUSH2 0x160C JUMP JUMPDEST PUSH2 0xAE1 JUMPI PUSH1 0x40 MLOAD PUSH3 0x461BCD PUSH1 0xE5 SHL DUP2 MSTORE PUSH1 0x20 PUSH1 0x4 DUP3 ADD MSTORE PUSH1 0xE PUSH1 0x24 DUP3 ADD MSTORE PUSH14 0x56616C696461746F72206F6E6C79 PUSH1 0x90 SHL PUSH1 0x44 DUP3 ADD MSTORE PUSH1 0x64 ADD PUSH2 0x484 JUMP JUMPDEST PUSH1 0x0 DUP4 DUP2 MSTORE PUSH1 0x6 PUSH1 0x20 MSTORE PUSH1 0x40 DUP2 KECCAK256 PUSH1 0x3 ADD SLOAD SWAP1 SUB PUSH2 0xB36 JUMPI PUSH1 0x40 MLOAD PUSH3 0x461BCD PUSH1 0xE5 SHL DUP2 MSTORE PUSH1 0x20 PUSH1 0x4 DUP3 ADD MSTORE PUSH1 0x12 PUSH1 0x24 DUP3 ADD MSTORE PUSH18 0x141C9BDC1BDCD85B081B9BDD08195E1A5CDD PUSH1 0x72 SHL PUSH1 0x44 DUP3 ADD MSTORE PUSH1 0x64 ADD PUSH2 0x484 JUMP JUMPDEST CALLER PUSH1 0x0 SWAP1 DUP2 MSTORE PUSH1 0x7 PUSH1 0x20 SWAP1 DUP2 MSTORE PUSH1 0x40 DUP1 DUP4 KECCAK256 DUP7 DUP5 MSTORE SWAP1 SWAP2 MSTORE SWAP1 KECCAK256 PUSH1 0x1 ADD SLOAD ISZERO PUSH2 0xBAD JUMPI PUSH1 0x40 MLOAD PUSH3 0x461BCD PUSH1 0xE5 SHL DUP2 MSTORE PUSH1 0x20 PUSH1 0x4 DUP3 ADD MSTORE PUSH1 0x23 PUSH1 0x24 DUP3 ADD MSTORE PUSH32 0x596F752063616E277420766F746520666F7220612070726F706F73616C207477 PUSH1 0x44 DUP3 ADD MSTORE PUSH3 0x696365 PUSH1 0xE8 SHL PUSH1 0x64 DUP3 ADD MSTORE PUSH1 0x84 ADD PUSH2 0x484 JUMP JUMPDEST PUSH1 0x3 DUP1 SLOAD PUSH1 0x0 DUP6 DUP2 MSTORE PUSH1 0x6 PUSH1 0x20 MSTORE PUSH1 0x40 SWAP1 KECCAK256 SWAP1 SWAP2 ADD SLOAD PUSH2 0xBCD SWAP2 SWAP1 PUSH2 0x1629 JUMP JUMPDEST TIMESTAMP LT PUSH2 0xC0E JUMPI PUSH1 0x40 MLOAD PUSH3 0x461BCD PUSH1 0xE5 SHL DUP2 MSTORE PUSH1 0x20 PUSH1 0x4 DUP3 ADD MSTORE PUSH1 0x10 PUSH1 0x24 DUP3 ADD MSTORE PUSH16 0x141C9BDC1BDCD85B08195E1C1A5C9959 PUSH1 0x82 SHL PUSH1 0x44 DUP3 ADD MSTORE PUSH1 0x64 ADD PUSH2 0x484 JUMP JUMPDEST CALLER PUSH1 0x0 DUP2 DUP2 MSTORE PUSH1 0x7 PUSH1 0x20 SWAP1 DUP2 MSTORE PUSH1 0x40 DUP1 DUP4 KECCAK256 DUP8 DUP5 MSTORE DUP3 MSTORE SWAP2 DUP3 SWAP1 KECCAK256 TIMESTAMP PUSH1 0x1 DUP3 ADD DUP2 SWAP1 SSTORE DUP2 SLOAD PUSH1 0x1 PUSH1 0x1 PUSH1 0xA0 SHL SUB NOT AND DUP6 OR DUP3 SSTORE PUSH1 0x2 SWAP1 SWAP2 ADD DUP1 SLOAD PUSH1 0xFF NOT AND DUP8 ISZERO ISZERO SWAP1 DUP2 OR SWAP1 SWAP2 SSTORE DUP4 MLOAD SWAP1 DUP2 MSTORE SWAP2 DUP3 ADD MSTORE DUP6 SWAP2 PUSH32 0x6C59BDA68CAC318717C60C7C9635A78A0F0613F9887CC18A7157F5745A86D14E SWAP2 ADD PUSH1 0x40 MLOAD DUP1 SWAP2 SUB SWAP1 LOG3 DUP2 ISZERO PUSH2 0xCDC JUMPI PUSH1 0x0 DUP4 DUP2 MSTORE PUSH1 0x6 PUSH1 0x20 MSTORE PUSH1 0x40 SWAP1 KECCAK256 PUSH1 0x4 ADD SLOAD PUSH2 0xCB2 SWAP1 PUSH2 0xFFFF AND PUSH1 0x1 PUSH2 0x163C JUMP JUMPDEST PUSH1 0x0 DUP5 DUP2 MSTORE PUSH1 0x6 PUSH1 0x20 MSTORE PUSH1 0x40 SWAP1 KECCAK256 PUSH1 0x4 ADD DUP1 SLOAD PUSH2 0xFFFF NOT AND PUSH2 0xFFFF SWAP3 SWAP1 SWAP3 AND SWAP2 SWAP1 SWAP2 OR SWAP1 SSTORE PUSH2 0xD32 JUMP JUMPDEST PUSH1 0x0 DUP4 DUP2 MSTORE PUSH1 0x6 PUSH1 0x20 MSTORE PUSH1 0x40 SWAP1 KECCAK256 PUSH1 0x4 ADD SLOAD PUSH2 0xD03 SWAP1 PUSH3 0x10000 SWAP1 DIV PUSH2 0xFFFF AND PUSH1 0x1 PUSH2 0x163C JUMP JUMPDEST PUSH1 0x0 DUP5 DUP2 MSTORE PUSH1 0x6 PUSH1 0x20 MSTORE PUSH1 0x40 SWAP1 KECCAK256 PUSH1 0x4 ADD DUP1 SLOAD PUSH2 0xFFFF SWAP3 SWAP1 SWAP3 AND PUSH3 0x10000 MUL PUSH4 0xFFFF0000 NOT SWAP1 SWAP3 AND SWAP2 SWAP1 SWAP2 OR SWAP1 SSTORE JUMPDEST PUSH1 0x0 DUP4 DUP2 MSTORE PUSH1 0x6 PUSH1 0x20 SWAP1 DUP2 MSTORE PUSH1 0x40 DUP1 DUP4 KECCAK256 PUSH1 0x1 ADD SLOAD PUSH1 0x1 PUSH1 0x1 PUSH1 0xA0 SHL SUB AND DUP4 MSTORE PUSH1 0x5 SWAP1 SWAP2 MSTORE SWAP1 KECCAK256 SLOAD PUSH1 0xFF AND ISZERO DUP1 PUSH2 0xD82 JUMPI POP PUSH1 0x0 DUP4 DUP2 MSTORE PUSH1 0x6 PUSH1 0x20 MSTORE PUSH1 0x40 SWAP1 KECCAK256 PUSH1 0x4 ADD SLOAD PUSH5 0x100000000 SWAP1 DIV PUSH1 0xFF AND JUMPDEST ISZERO PUSH2 0xD8F JUMPI POP PUSH1 0x1 PUSH2 0x11D1 JUMP JUMPDEST PUSH1 0x8 SLOAD PUSH1 0x40 DUP1 MLOAD PUSH4 0x13BCE04B PUSH1 0xE3 SHL DUP2 MSTORE SWAP1 MLOAD PUSH1 0x2 SWAP3 PUSH1 0x1 PUSH1 0x1 PUSH1 0xA0 SHL SUB AND SWAP2 PUSH4 0x9DE70258 SWAP2 PUSH1 0x4 DUP1 DUP4 ADD SWAP3 PUSH1 0x0 SWAP3 SWAP2 SWAP1 DUP3 SWAP1 SUB ADD DUP2 DUP7 GAS STATICCALL ISZERO DUP1 ISZERO PUSH2 0xDD9 JUMPI RETURNDATASIZE PUSH1 0x0 DUP1 RETURNDATACOPY RETURNDATASIZE PUSH1 0x0 REVERT JUMPDEST POP POP POP POP PUSH1 0x40 MLOAD RETURNDATASIZE PUSH1 0x0 DUP3 RETURNDATACOPY PUSH1 0x1F RETURNDATASIZE SWAP1 DUP2 ADD PUSH1 0x1F NOT AND DUP3 ADD PUSH1 0x40 MSTORE PUSH2 0xE01 SWAP2 SWAP1 DUP2 ADD SWAP1 PUSH2 0x1669 JUMP JUMPDEST MLOAD PUSH2 0xE0C SWAP2 SWAP1 PUSH2 0x1722 JUMP JUMPDEST PUSH2 0xE17 SWAP1 PUSH1 0x1 PUSH2 0x1629 JUMP JUMPDEST PUSH1 0x0 DUP5 DUP2 MSTORE PUSH1 0x6 PUSH1 0x20 MSTORE PUSH1 0x40 SWAP1 KECCAK256 PUSH1 0x4 ADD SLOAD PUSH2 0xFFFF AND LT PUSH2 0x10B1 JUMPI PUSH1 0x0 DUP4 DUP2 MSTORE PUSH1 0x6 PUSH1 0x20 DUP2 DUP2 MSTORE PUSH1 0x40 DUP1 DUP5 KECCAK256 PUSH1 0x1 DUP1 DUP3 ADD DUP1 SLOAD PUSH1 0x1 PUSH1 0x1 PUSH1 0xA0 SHL SUB SWAP1 DUP2 AND DUP9 MSTORE PUSH1 0x4 DUP1 DUP8 MSTORE DUP6 DUP10 KECCAK256 DUP1 SLOAD PUSH1 0xFF NOT SWAP1 DUP2 AND SWAP1 SWAP6 OR SWAP1 SSTORE SWAP4 DUP5 ADD DUP1 SLOAD PUSH5 0xFF00000000 NOT AND PUSH5 0x100000000 OR SWAP1 SSTORE DUP2 SLOAD DUP2 AND DUP9 MSTORE PUSH1 0x5 DUP7 MSTORE DUP5 DUP9 KECCAK256 DUP1 SLOAD SWAP1 SWAP4 AND SWAP1 SWAP3 SSTORE PUSH1 0x9 SLOAD SWAP7 DUP11 SWAP1 MSTORE SWAP5 SWAP1 SWAP4 MSTORE SWAP3 SLOAD SWAP1 MLOAD PUSH4 0x14BFB527 PUSH1 0xE0 SHL DUP2 MSTORE SWAP1 DUP3 AND SWAP3 DUP2 ADD SWAP3 SWAP1 SWAP3 MSTORE SWAP2 SWAP1 SWAP2 AND SWAP1 PUSH4 0x14BFB527 SWAP1 PUSH1 0x24 ADD PUSH1 0x20 PUSH1 0x40 MLOAD DUP1 DUP4 SUB DUP2 DUP7 GAS STATICCALL ISZERO DUP1 ISZERO PUSH2 0xEE5 JUMPI RETURNDATASIZE PUSH1 0x0 DUP1 RETURNDATACOPY RETURNDATASIZE PUSH1 0x0 REVERT JUMPDEST POP POP POP POP PUSH1 0x40 MLOAD RETURNDATASIZE PUSH1 0x1F NOT PUSH1 0x1F DUP3 ADD AND DUP3 ADD DUP1 PUSH1 0x40 MSTORE POP DUP2 ADD SWAP1 PUSH2 0xF09 SWAP2 SWAP1 PUSH2 0x160C JUMP JUMPDEST ISZERO PUSH2 0xFD2 JUMPI PUSH1 0x9 SLOAD PUSH1 0x0 DUP5 DUP2 MSTORE PUSH1 0x6 PUSH1 0x20 MSTORE PUSH1 0x40 SWAP1 DUP2 SWAP1 KECCAK256 PUSH1 0x1 ADD SLOAD SWAP1 MLOAD PUSH4 0x7CAFDD79 PUSH1 0xE0 SHL DUP2 MSTORE PUSH1 0x1 PUSH1 0x1 PUSH1 0xA0 SHL SUB SWAP2 DUP3 AND PUSH1 0x4 DUP3 ADD MSTORE SWAP2 AND SWAP1 PUSH4 0x7CAFDD79 SWAP1 PUSH1 0x24 ADD PUSH1 0x0 PUSH1 0x40 MLOAD DUP1 DUP4 SUB DUP2 PUSH1 0x0 DUP8 DUP1 EXTCODESIZE ISZERO DUP1 ISZERO PUSH2 0xF67 JUMPI PUSH1 0x0 DUP1 REVERT JUMPDEST POP GAS CALL ISZERO DUP1 ISZERO PUSH2 0xF7B JUMPI RETURNDATASIZE PUSH1 0x0 DUP1 RETURNDATACOPY RETURNDATASIZE PUSH1 0x0 REVERT JUMPDEST POP POP POP PUSH1 0x0 DUP5 DUP2 MSTORE PUSH1 0x6 PUSH1 0x20 SWAP1 DUP2 MSTORE PUSH1 0x40 SWAP2 DUP3 SWAP1 KECCAK256 PUSH1 0x1 ADD SLOAD SWAP2 MLOAD TIMESTAMP DUP2 MSTORE PUSH1 0x1 PUSH1 0x1 PUSH1 0xA0 SHL SUB SWAP1 SWAP3 AND SWAP3 POP PUSH32 0x4FE1F8ABC0C4946308F22844703DB0D9D080D6F4F0DB9C44FC88F34FE539B897 SWAP2 ADD PUSH1 0x40 MLOAD DUP1 SWAP2 SUB SWAP1 LOG2 JUMPDEST PUSH1 0x8 SLOAD PUSH1 0x0 DUP5 DUP2 MSTORE PUSH1 0x6 PUSH1 0x20 MSTORE PUSH1 0x40 SWAP1 DUP2 SWAP1 KECCAK256 PUSH1 0x1 ADD SLOAD SWAP1 MLOAD PUSH4 0x415E9EC9 PUSH1 0xE1 SHL DUP2 MSTORE PUSH1 0x1 PUSH1 0x1 PUSH1 0xA0 SHL SUB SWAP2 DUP3 AND PUSH1 0x4 DUP3 ADD MSTORE SWAP2 AND SWAP1 PUSH4 0x82BD3D92 SWAP1 PUSH1 0x24 ADD PUSH1 0x20 PUSH1 0x40 MLOAD DUP1 DUP4 SUB DUP2 PUSH1 0x0 DUP8 GAS CALL ISZERO DUP1 ISZERO PUSH2 0x1030 JUMPI RETURNDATASIZE PUSH1 0x0 DUP1 RETURNDATACOPY RETURNDATASIZE PUSH1 0x0 REVERT JUMPDEST POP POP POP POP PUSH1 0x40 MLOAD RETURNDATASIZE PUSH1 0x1F NOT PUSH1 0x1F DUP3 ADD AND DUP3 ADD DUP1 PUSH1 0x40 MSTORE POP DUP2 ADD SWAP1 PUSH2 0x1054 SWAP2 SWAP1 PUSH2 0x160C JUMP JUMPDEST POP PUSH1 0x0 DUP4 DUP2 MSTORE PUSH1 0x6 PUSH1 0x20 SWAP1 DUP2 MSTORE PUSH1 0x40 SWAP2 DUP3 SWAP1 KECCAK256 PUSH1 0x1 ADD SLOAD SWAP2 MLOAD TIMESTAMP DUP2 MSTORE PUSH1 0x1 PUSH1 0x1 PUSH1 0xA0 SHL SUB SWAP1 SWAP3 AND SWAP2 DUP6 SWAP2 PUSH32 0xC9D96D61EB62031865C523AE107F3C22F5ED445AF237636BCD88BEA1705C70D5 SWAP2 ADD PUSH1 0x40 MLOAD DUP1 SWAP2 SUB SWAP1 LOG3 POP PUSH1 0x1 PUSH2 0x11D1 JUMP JUMPDEST PUSH1 0x8 SLOAD PUSH1 0x40 DUP1 MLOAD PUSH4 0x13BCE04B PUSH1 0xE3 SHL DUP2 MSTORE SWAP1 MLOAD PUSH1 0x2 SWAP3 PUSH1 0x1 PUSH1 0x1 PUSH1 0xA0 SHL SUB AND SWAP2 PUSH4 0x9DE70258 SWAP2 PUSH1 0x4 DUP1 DUP4 ADD SWAP3 PUSH1 0x0 SWAP3 SWAP2 SWAP1 DUP3 SWAP1 SUB ADD DUP2 DUP7 GAS STATICCALL ISZERO DUP1 ISZERO PUSH2 0x10FB JUMPI RETURNDATASIZE PUSH1 0x0 DUP1 RETURNDATACOPY RETURNDATASIZE PUSH1 0x0 REVERT JUMPDEST POP POP POP POP PUSH1 0x40 MLOAD RETURNDATASIZE PUSH1 0x0 DUP3 RETURNDATACOPY PUSH1 0x1F RETURNDATASIZE SWAP1 DUP2 ADD PUSH1 0x1F NOT AND DUP3 ADD PUSH1 0x40 MSTORE PUSH2 0x1123 SWAP2 SWAP1 DUP2 ADD SWAP1 PUSH2 0x1669 JUMP JUMPDEST MLOAD PUSH2 0x112E SWAP2 SWAP1 PUSH2 0x1722 JUMP JUMPDEST PUSH2 0x1139 SWAP1 PUSH1 0x1 PUSH2 0x1629 JUMP JUMPDEST PUSH1 0x0 DUP5 DUP2 MSTORE PUSH1 0x6 PUSH1 0x20 MSTORE PUSH1 0x40 SWAP1 KECCAK256 PUSH1 0x4 ADD SLOAD PUSH3 0x10000 SWAP1 DIV PUSH2 0xFFFF AND LT PUSH2 0x11CD JUMPI PUSH1 0x0 DUP4 DUP2 MSTORE PUSH1 0x6 PUSH1 0x20 MSTORE PUSH1 0x40 SWAP1 DUP2 SWAP1 KECCAK256 PUSH1 0x4 DUP2 ADD DUP1 SLOAD PUSH5 0xFF00000000 NOT AND PUSH5 0x100000000 OR SWAP1 SSTORE PUSH1 0x1 ADD SLOAD SWAP1 MLOAD PUSH1 0x1 PUSH1 0x1 PUSH1 0xA0 SHL SUB SWAP1 SWAP2 AND SWAP1 DUP5 SWAP1 PUSH32 0xEC955D77E6E7D74E18B1C91977EF0F6FD5A6D02A28D1979686339FE693997825 SWAP1 PUSH2 0x11C4 SWAP1 TIMESTAMP DUP2 MSTORE PUSH1 0x20 ADD SWAP1 JUMP JUMPDEST PUSH1 0x40 MLOAD DUP1 SWAP2 SUB SWAP1 LOG3 JUMPDEST POP PUSH1 0x1 JUMPDEST SWAP3 SWAP2 POP POP JUMP JUMPDEST PUSH1 0x1 PUSH1 0x1 PUSH1 0xA0 SHL SUB DUP2 AND DUP2 EQ PUSH2 0x11EC JUMPI PUSH1 0x0 DUP1 REVERT JUMPDEST POP JUMP JUMPDEST PUSH1 0x0 PUSH1 0x20 DUP3 DUP5 SUB SLT ISZERO PUSH2 0x1201 JUMPI PUSH1 0x0 DUP1 REVERT JUMPDEST DUP2 CALLDATALOAD PUSH2 0x120C DUP2 PUSH2 0x11D7 JUMP JUMPDEST SWAP4 SWAP3 POP POP POP JUMP JUMPDEST PUSH1 0x0 DUP1 PUSH1 0x40 DUP4 DUP6 SUB SLT ISZERO PUSH2 0x1226 JUMPI PUSH1 0x0 DUP1 REVERT JUMPDEST DUP3 CALLDATALOAD PUSH2 0x1231 DUP2 PUSH2 0x11D7 JUMP JUMPDEST SWAP5 PUSH1 0x20 SWAP4 SWAP1 SWAP4 ADD CALLDATALOAD SWAP4 POP POP POP JUMP JUMPDEST PUSH1 0x0 DUP1 PUSH1 0x0 PUSH1 0x40 DUP5 DUP7 SUB SLT ISZERO PUSH2 0x1254 JUMPI PUSH1 0x0 DUP1 REVERT JUMPDEST DUP4 CALLDATALOAD PUSH2 0x125F DUP2 PUSH2 0x11D7 JUMP JUMPDEST SWAP3 POP PUSH1 0x20 DUP5 ADD CALLDATALOAD PUSH8 0xFFFFFFFFFFFFFFFF DUP1 DUP3 GT ISZERO PUSH2 0x127C JUMPI PUSH1 0x0 DUP1 REVERT JUMPDEST DUP2 DUP7 ADD SWAP2 POP DUP7 PUSH1 0x1F DUP4 ADD SLT PUSH2 0x1290 JUMPI PUSH1 0x0 DUP1 REVERT JUMPDEST DUP2 CALLDATALOAD DUP2 DUP2 GT ISZERO PUSH2 0x129F JUMPI PUSH1 0x0 DUP1 REVERT JUMPDEST DUP8 PUSH1 0x20 DUP3 DUP6 ADD ADD GT ISZERO PUSH2 0x12B1 JUMPI PUSH1 0x0 DUP1 REVERT JUMPDEST PUSH1 0x20 DUP4 ADD SWAP5 POP DUP1 SWAP4 POP POP POP POP SWAP3 POP SWAP3 POP SWAP3 JUMP JUMPDEST PUSH1 0x0 PUSH1 0x20 DUP3 DUP5 SUB SLT ISZERO PUSH2 0x12D6 JUMPI PUSH1 0x0 DUP1 REVERT JUMPDEST POP CALLDATALOAD SWAP2 SWAP1 POP JUMP JUMPDEST PUSH1 0x0 PUSH1 0x1 DUP1 PUSH1 0xA0 SHL SUB DUP1 DUP11 AND DUP4 MSTORE PUSH1 0x20 DUP2 DUP11 AND DUP2 DUP6 ADD MSTORE PUSH1 0xE0 PUSH1 0x40 DUP6 ADD MSTORE DUP9 MLOAD SWAP2 POP DUP2 PUSH1 0xE0 DUP6 ADD MSTORE PUSH1 0x0 JUMPDEST DUP3 DUP2 LT ISZERO PUSH2 0x1325 JUMPI DUP10 DUP2 ADD DUP3 ADD MLOAD DUP6 DUP3 ADD PUSH2 0x100 ADD MSTORE DUP2 ADD PUSH2 0x1308 JUMP JUMPDEST POP POP PUSH2 0x100 PUSH1 0x0 DUP2 DUP4 DUP7 ADD ADD MSTORE DUP1 PUSH1 0x1F NOT PUSH1 0x1F DUP5 ADD AND DUP6 ADD ADD SWAP3 POP POP POP DUP6 PUSH1 0x60 DUP4 ADD MSTORE PUSH2 0x1358 PUSH1 0x80 DUP4 ADD DUP7 PUSH2 0xFFFF AND SWAP1 MSTORE JUMP JUMPDEST PUSH2 0xFFFF DUP5 AND PUSH1 0xA0 DUP4 ADD MSTORE DUP3 ISZERO ISZERO PUSH1 0xC0 DUP4 ADD MSTORE JUMPDEST SWAP9 SWAP8 POP POP POP POP POP POP POP POP JUMP JUMPDEST PUSH1 0x0 DUP1 PUSH1 0x20 DUP4 DUP6 SUB SLT ISZERO PUSH2 0x138A JUMPI PUSH1 0x0 DUP1 REVERT JUMPDEST DUP3 CALLDATALOAD PUSH8 0xFFFFFFFFFFFFFFFF DUP1 DUP3 GT ISZERO PUSH2 0x13A2 JUMPI PUSH1 0x0 DUP1 REVERT JUMPDEST DUP2 DUP6 ADD SWAP2 POP DUP6 PUSH1 0x1F DUP4 ADD SLT PUSH2 0x13B6 JUMPI PUSH1 0x0 DUP1 REVERT JUMPDEST DUP2 CALLDATALOAD DUP2 DUP2 GT ISZERO PUSH2 0x13C5 JUMPI PUSH1 0x0 DUP1 REVERT JUMPDEST DUP7 PUSH1 0x20 DUP3 PUSH1 0x5 SHL DUP6 ADD ADD GT ISZERO PUSH2 0x13DA JUMPI PUSH1 0x0 DUP1 REVERT JUMPDEST PUSH1 0x20 SWAP3 SWAP1 SWAP3 ADD SWAP7 SWAP2 SWAP6 POP SWAP1 SWAP4 POP POP POP POP JUMP JUMPDEST DUP1 ISZERO ISZERO DUP2 EQ PUSH2 0x11EC JUMPI PUSH1 0x0 DUP1 REVERT JUMPDEST PUSH1 0x0 DUP1 PUSH1 0x40 DUP4 DUP6 SUB SLT ISZERO PUSH2 0x140D JUMPI PUSH1 0x0 DUP1 REVERT JUMPDEST DUP3 CALLDATALOAD SWAP2 POP PUSH1 0x20 DUP4 ADD CALLDATALOAD PUSH2 0x141F DUP2 PUSH2 0x13EC JUMP JUMPDEST DUP1 SWAP2 POP POP SWAP3 POP SWAP3 SWAP1 POP JUMP JUMPDEST PUSH1 0x0 PUSH12 0xFFFFFFFFFFFFFFFFFFFFFFFF NOT DUP1 DUP9 PUSH1 0x60 SHL AND DUP4 MSTORE DUP1 DUP8 PUSH1 0x60 SHL AND PUSH1 0x14 DUP5 ADD MSTORE POP DUP4 DUP6 PUSH1 0x28 DUP5 ADD CALLDATACOPY POP PUSH1 0x28 SWAP3 ADD SWAP2 DUP3 ADD MSTORE PUSH1 0x48 ADD SWAP4 SWAP3 POP POP POP JUMP JUMPDEST PUSH4 0x4E487B71 PUSH1 0xE0 SHL PUSH1 0x0 MSTORE PUSH1 0x41 PUSH1 0x4 MSTORE PUSH1 0x24 PUSH1 0x0 REVERT JUMPDEST PUSH1 0x1 DUP2 DUP2 SHR SWAP1 DUP3 AND DUP1 PUSH2 0x1492 JUMPI PUSH1 0x7F DUP3 AND SWAP2 POP JUMPDEST PUSH1 0x20 DUP3 LT DUP2 SUB PUSH2 0x14B2 JUMPI PUSH4 0x4E487B71 PUSH1 0xE0 SHL PUSH1 0x0 MSTORE PUSH1 0x22 PUSH1 0x4 MSTORE PUSH1 0x24 PUSH1 0x0 REVERT JUMPDEST POP SWAP2 SWAP1 POP JUMP JUMPDEST PUSH1 0x1F DUP3 GT ISZERO PUSH2 0x1502 JUMPI PUSH1 0x0 DUP2 DUP2 MSTORE PUSH1 0x20 DUP2 KECCAK256 PUSH1 0x1F DUP6 ADD PUSH1 0x5 SHR DUP2 ADD PUSH1 0x20 DUP7 LT ISZERO PUSH2 0x14DF JUMPI POP DUP1 JUMPDEST PUSH1 0x1F DUP6 ADD PUSH1 0x5 SHR DUP3 ADD SWAP2 POP JUMPDEST DUP2 DUP2 LT ISZERO PUSH2 0x14FE JUMPI DUP3 DUP2 SSTORE PUSH1 0x1 ADD PUSH2 0x14EB JUMP JUMPDEST POP POP POP JUMPDEST POP POP POP JUMP JUMPDEST DUP2 MLOAD PUSH8 0xFFFFFFFFFFFFFFFF DUP2 GT ISZERO PUSH2 0x1521 JUMPI PUSH2 0x1521 PUSH2 0x1468 JUMP JUMPDEST PUSH2 0x1535 DUP2 PUSH2 0x152F DUP5 SLOAD PUSH2 0x147E JUMP JUMPDEST DUP5 PUSH2 0x14B8 JUMP JUMPDEST PUSH1 0x20 DUP1 PUSH1 0x1F DUP4 GT PUSH1 0x1 DUP2 EQ PUSH2 0x156A JUMPI PUSH1 0x0 DUP5 ISZERO PUSH2 0x1552 JUMPI POP DUP6 DUP4 ADD MLOAD JUMPDEST PUSH1 0x0 NOT PUSH1 0x3 DUP7 SWAP1 SHL SHR NOT AND PUSH1 0x1 DUP6 SWAP1 SHL OR DUP6 SSTORE PUSH2 0x14FE JUMP JUMPDEST PUSH1 0x0 DUP6 DUP2 MSTORE PUSH1 0x20 DUP2 KECCAK256 PUSH1 0x1F NOT DUP7 AND SWAP2 JUMPDEST DUP3 DUP2 LT ISZERO PUSH2 0x1599 JUMPI DUP9 DUP7 ADD MLOAD DUP3 SSTORE SWAP5 DUP5 ADD SWAP5 PUSH1 0x1 SWAP1 SWAP2 ADD SWAP1 DUP5 ADD PUSH2 0x157A JUMP JUMPDEST POP DUP6 DUP3 LT ISZERO PUSH2 0x15B7 JUMPI DUP8 DUP6 ADD MLOAD PUSH1 0x0 NOT PUSH1 0x3 DUP9 SWAP1 SHL PUSH1 0xF8 AND SHR NOT AND DUP2 SSTORE JUMPDEST POP POP POP POP POP PUSH1 0x1 SWAP1 DUP2 SHL ADD SWAP1 SSTORE POP JUMP JUMPDEST PUSH4 0x4E487B71 PUSH1 0xE0 SHL PUSH1 0x0 MSTORE PUSH1 0x32 PUSH1 0x4 MSTORE PUSH1 0x24 PUSH1 0x0 REVERT JUMPDEST PUSH4 0x4E487B71 PUSH1 0xE0 SHL PUSH1 0x0 MSTORE PUSH1 0x11 PUSH1 0x4 MSTORE PUSH1 0x24 PUSH1 0x0 REVERT JUMPDEST PUSH1 0x0 PUSH1 0x1 DUP3 ADD PUSH2 0x1605 JUMPI PUSH2 0x1605 PUSH2 0x15DD JUMP JUMPDEST POP PUSH1 0x1 ADD SWAP1 JUMP JUMPDEST PUSH1 0x0 PUSH1 0x20 DUP3 DUP5 SUB SLT ISZERO PUSH2 0x161E JUMPI PUSH1 0x0 DUP1 REVERT JUMPDEST DUP2 MLOAD PUSH2 0x120C DUP2 PUSH2 0x13EC JUMP JUMPDEST DUP1 DUP3 ADD DUP1 DUP3 GT ISZERO PUSH2 0x11D1 JUMPI PUSH2 0x11D1 PUSH2 0x15DD JUMP JUMPDEST PUSH2 0xFFFF DUP2 DUP2 AND DUP4 DUP3 AND ADD SWAP1 DUP1 DUP3 GT ISZERO PUSH2 0x1657 JUMPI PUSH2 0x1657 PUSH2 0x15DD JUMP JUMPDEST POP SWAP3 SWAP2 POP POP JUMP JUMPDEST DUP1 MLOAD PUSH2 0x4FA DUP2 PUSH2 0x11D7 JUMP JUMPDEST PUSH1 0x0 PUSH1 0x20 DUP1 DUP4 DUP6 SUB SLT ISZERO PUSH2 0x167C JUMPI PUSH1 0x0 DUP1 REVERT JUMPDEST DUP3 MLOAD PUSH8 0xFFFFFFFFFFFFFFFF DUP1 DUP3 GT ISZERO PUSH2 0x1694 JUMPI PUSH1 0x0 DUP1 REVERT JUMPDEST DUP2 DUP6 ADD SWAP2 POP DUP6 PUSH1 0x1F DUP4 ADD SLT PUSH2 0x16A8 JUMPI PUSH1 0x0 DUP1 REVERT JUMPDEST DUP2 MLOAD DUP2 DUP2 GT ISZERO PUSH2 0x16BA JUMPI PUSH2 0x16BA PUSH2 0x1468 JUMP JUMPDEST DUP1 PUSH1 0x5 SHL PUSH1 0x40 MLOAD PUSH1 0x1F NOT PUSH1 0x3F DUP4 ADD AND DUP2 ADD DUP2 DUP2 LT DUP6 DUP3 GT OR ISZERO PUSH2 0x16DF JUMPI PUSH2 0x16DF PUSH2 0x1468 JUMP JUMPDEST PUSH1 0x40 MSTORE SWAP2 DUP3 MSTORE DUP5 DUP3 ADD SWAP3 POP DUP4 DUP2 ADD DUP6 ADD SWAP2 DUP9 DUP4 GT ISZERO PUSH2 0x16FD JUMPI PUSH1 0x0 DUP1 REVERT JUMPDEST SWAP4 DUP6 ADD SWAP4 JUMPDEST DUP3 DUP6 LT ISZERO PUSH2 0x136B JUMPI PUSH2 0x1713 DUP6 PUSH2 0x165E JUMP JUMPDEST DUP5 MSTORE SWAP4 DUP6 ADD SWAP4 SWAP3 DUP6 ADD SWAP3 PUSH2 0x1702 JUMP JUMPDEST PUSH1 0x0 DUP3 PUSH2 0x173F JUMPI PUSH4 0x4E487B71 PUSH1 0xE0 SHL PUSH1 0x0 MSTORE PUSH1 0x12 PUSH1 0x4 MSTORE PUSH1 0x24 PUSH1 0x0 REVERT JUMPDEST POP DIV SWAP1 JUMP INVALID LOG2 PUSH5 0x6970667358 0x22 SLT KECCAK256 DUP2 SWAP9 0xDD SMOD PUSH7 0xB7718B44BC9F2F PUSH10 0x4B066103FF13F290F8B8 BYTE 0xB0 PUSH4 0x7C32CC9D 0xE3 SIGNEXTEND PUSH5 0x736F6C6343 STOP ADDMOD GT STOP CALLER "
		},
		"gasEstimates": {
			"creation": {
				"codeDepositCost": "1202000",
				"executionCost": "1248",
				"totalCost": "1203248"
			},
			"external": {
				"BronzeValidatorStaking()": "253",
				"GoldValidatorStaking()": "273",
				"MaxValidators()": "315",
				"MinimalStakingCoin()": "273",
				"PlatinumValidatorStaking()": "229",
				"ProposalAddr()": "327",
				"PunishContractAddr()": "328",
				"SilverValidatorStaking()": "274",
				"SlashingContractAddr()": "306",
				"StakingLockPeriod()": "270",
				"ValidatorContractAddr()": "283",
				"createProposal(address,string)": "infinite",
				"creatorPartPercent()": "228",
				"extraRewardsPerBlock()": "274",
				"initialize(address[])": "infinite",
				"initialized()": "2356",
				"lastProposalActive(address)": "2571",
				"minimumValidatorStaking()": "231",
				"pass(address)": "2593",
				"proposalLastingPeriod()": "2372",
				"proposals(bytes32)": "infinite",
				"rewardFund()": "2394",
				"setUnpassed(address)": "50495",
				"stakerPartPercent()": "251",
				"totalRewards()": "2375",
				"validatorPartPercent()": "273",
				"voteProposal(bytes32,bool)": "infinite",
				"votes(address,bytes32)": "6981"
			}
		},
		"methodIdentifiers": {
			"BronzeValidatorStaking()": "0a0b5e51",
			"GoldValidatorStaking()": "d5074883",
			"MaxValidators()": "c967f90f",
			"MinimalStakingCoin()": "be645692",
			"PlatinumValidatorStaking()": "cad0ebf1",
			"ProposalAddr()": "6233be5d",
			"PunishContractAddr()": "1b5e358c",
			"SilverValidatorStaking()": "32dc3b94",
			"SlashingContractAddr()": "182637b8",
			"StakingLockPeriod()": "db78dd28",
			"ValidatorContractAddr()": "3a061bd3",
			"createProposal(address,string)": "1f4f7d29",
			"creatorPartPercent()": "daa77ea2",
			"extraRewardsPerBlock()": "8ae53dbd",
			"initialize(address[])": "a224cee7",
			"initialized()": "158ef93e",
			"lastProposalActive(address)": "6e0e16cf",
			"minimumValidatorStaking()": "0976c65d",
			"pass(address)": "82c4b3b2",
			"proposalLastingPeriod()": "e823c814",
			"proposals(bytes32)": "32ed5b12",
			"rewardFund()": "efe22266",
			"setUnpassed(address)": "15ea2781",
			"stakerPartPercent()": "cd779d21",
			"totalRewards()": "0e15561a",
			"validatorPartPercent()": "42127ee7",
			"voteProposal(bytes32,bool)": "a4c4d922",
			"votes(address,bytes32)": "1db5ade8"
		}
	},
	"abi": [
		{
			"anonymous": false,
			"inputs": [
				{
					"indexed": true,
					"internalType": "bytes32",
					"name": "id",
					"type": "bytes32"
				},
				{
					"indexed": true,
					"internalType": "address",
					"name": "proposer",
					"type": "address"
				},
				{
					"indexed": true,
					"internalType": "address",
					"name": "dst",
					"type": "address"
				},
				{
					"indexed": false,
					"internalType": "uint256",
					"name": "time",
					"type": "uint256"
				}
			],
			"name": "LogCreateProposal",
			"type": "event"
		},
		{
			"anonymous": false,
			"inputs": [
				{
					"indexed": true,
					"internalType": "bytes32",
					"name": "id",
					"type": "bytes32"
				},
				{
					"indexed": true,
					"internalType": "address",
					"name": "dst",
					"type": "address"
				},
				{
					"indexed": false,
					"internalType": "uint256",
					"name": "time",
					"type": "uint256"
				}
			],
			"name": "LogPassProposal",
			"type": "event"
		},
		{
			"anonymous": false,
			"inputs": [
				{
					"indexed": true,
					"internalType": "bytes32",
					"name": "id",
					"type": "bytes32"
				},
				{
					"indexed": true,
					"internalType": "address",
					"name": "dst",
					"type": "address"
				},
				{
					"indexed": false,
					"internalType": "uint256",
					"name": "time",
					"type": "uint256"
				}
			],
			"name": "LogRejectProposal",
			"type": "event"
		},
		{
			"anonymous": false,
			"inputs": [
				{
					"indexed": true,
					"internalType": "address",
					"name": "val",
					"type": "address"
				},
				{
					"indexed": false,
					"internalType": "uint256",
					"name": "time",
					"type": "uint256"
				}
			],
			"name": "LogSetUnpassed",
			"type": "event"
		},
		{
			"anonymous": false,
			"inputs": [
				{
					"indexed": true,
					"internalType": "address",
					"name": "validator",
					"type": "address"
				},
				{
					"indexed": false,
					"internalType": "uint256",
					"name": "time",
					"type": "uint256"
				}
			],
			"name": "LogUnjailValidator",
			"type": "event"
		},
		{
			"anonymous": false,
			"inputs": [
				{
					"indexed": true,
					"internalType": "bytes32",
					"name": "id",
					"type": "bytes32"
				},
				{
					"indexed": true,
					"internalType": "address",
					"name": "voter",
					"type": "address"
				},
				{
					"indexed": false,
					"internalType": "bool",
					"name": "auth",
					"type": "bool"
				},
				{
					"indexed": false,
					"internalType": "uint256",
					"name": "time",
					"type": "uint256"
				}
			],
			"name": "LogVote",
			"type": "event"
		},
		{
			"inputs": [],
			"name": "BronzeValidatorStaking",
			"outputs": [
				{
					"internalType": "uint256",
					"name": "",
					"type": "uint256"
				}
			],
			"stateMutability": "view",
			"type": "function"
		},
		{
			"inputs": [],
			"name": "GoldValidatorStaking",
			"outputs": [
				{
					"internalType": "uint256",
					"name": "",
					"type": "uint256"
				}
			],
			"stateMutability": "view",
			"type": "function"
		},
		{
			"inputs": [],
			"name": "MaxValidators",
			"outputs": [
				{
					"internalType": "uint16",
					"name": "",
					"type": "uint16"
				}
			],
			"stateMutability": "view",
			"type": "function"
		},
		{
			"inputs": [],
			"name": "MinimalStakingCoin",
			"outputs": [
				{
					"internalType": "uint256",
					"name": "",
					"type": "uint256"
				}
			],
			"stateMutability": "view",
			"type": "function"
		},
		{
			"inputs": [],
			"name": "PlatinumValidatorStaking",
			"outputs": [
				{
					"internalType": "uint256",
					"name": "",
					"type": "uint256"
				}
			],
			"stateMutability": "view",
			"type": "function"
		},
		{
			"inputs": [],
			"name": "ProposalAddr",
			"outputs": [
				{
					"internalType": "address",
					"name": "",
					"type": "address"
				}
			],
			"stateMutability": "view",
			"type": "function"
		},
		{
			"inputs": [],
			"name": "PunishContractAddr",
			"outputs": [
				{
					"internalType": "address",
					"name": "",
					"type": "address"
				}
			],
			"stateMutability": "view",
			"type": "function"
		},
		{
			"inputs": [],
			"name": "SilverValidatorStaking",
			"outputs": [
				{
					"internalType": "uint256",
					"name": "",
					"type": "uint256"
				}
			],
			"stateMutability": "view",
			"type": "function"
		},
		{
			"inputs": [],
			"name": "SlashingContractAddr",
			"outputs": [
				{
					"internalType": "address",
					"name": "",
					"type": "address"
				}
			],
			"stateMutability": "view",
			"type": "function"
		},
		{
			"inputs": [],
			"name": "StakingLockPeriod",
			"outputs": [
				{
					"internalType": "uint64",
					"name": "",
					"type": "uint64"
				}
			],
			"stateMutability": "view",
			"type": "function"
		},
		{
			"inputs": [],
			"name": "ValidatorContractAddr",
			"outputs": [
				{
					"internalType": "address payable",
					"name": "",
					"type": "address"
				}
			],
			"stateMutability": "view",
			"type": "function"
		},
		{
			"inputs": [
				{
					"internalType": "address",
					"name": "dst",
					"type": "address"
				},
				{
					"internalType": "string",
					"name": "details",
					"type": "string"
				}
			],
			"name": "createProposal",
			"outputs": [
				{
					"internalType": "bool",
					"name": "",
					"type": "bool"
				}
			],
			"stateMutability": "nonpayable",
			"type": "function"
		},
		{
			"inputs": [],
			"name": "creatorPartPercent",
			"outputs": [
				{
					"internalType": "uint256",
					"name": "",
					"type": "uint256"
				}
			],
			"stateMutability": "view",
			"type": "function"
		},
		{
			"inputs": [],
			"name": "extraRewardsPerBlock",
			"outputs": [
				{
					"internalType": "uint256",
					"name": "",
					"type": "uint256"
				}
			],
			"stateMutability": "view",
			"type": "function"
		},
		{
			"inputs": [
				{
					"internalType": "address[]",
					"name": "vals",
					"type": "address[]"
				}
			],
			"name": "initialize",
			"outputs": [],
			"stateMutability": "nonpayable",
			"type": "function"
		},
		{
			"inputs": [],
			"name": "initialized",
			"outputs": [
				{
					"internalType": "bool",
					"name": "",
					"type": "bool"
				}
			],
			"stateMutability": "view",
			"type": "function"
		},
		{
			"inputs": [
				{
					"internalType": "address",
					"name": "",
					"type": "address"
				}
			],
			"name": "lastProposalActive",
			"outputs": [
				{
					"internalType": "bool",
					"name": "",
					"type": "bool"
				}
			],
			"stateMutability": "view",
			"type": "function"
		},
		{
			"inputs": [],
			"name": "minimumValidatorStaking",
			"outputs": [
				{
					"internalType": "uint256",
					"name": "",
					"type": "uint256"
				}
			],
			"stateMutability": "view",
			"type": "function"
		},
		{
			"inputs": [
				{
					"internalType": "address",
					"name": "",
					"type": "address"
				}
			],
			"name": "pass",
			"outputs": [
				{
					"internalType": "bool",
					"name": "",
					"type": "bool"
				}
			],
			"stateMutability": "view",
			"type": "function"
		},
		{
			"inputs": [],
			"name": "proposalLastingPeriod",
			"outputs": [
				{
					"internalType": "uint256",
					"name": "",
					"type": "uint256"
				}
			],
			"stateMutability": "view",
			"type": "function"
		},
		{
			"inputs": [
				{
					"internalType": "bytes32",
					"name": "",
					"type": "bytes32"
				}
			],
			"name": "proposals",
			"outputs": [
				{
					"internalType": "address",
					"name": "proposer",
					"type": "address"
				},
				{
					"internalType": "address",
					"name": "dst",
					"type": "address"
				},
				{
					"internalType": "string",
					"name": "details",
					"type": "string"
				},
				{
					"internalType": "uint256",
					"name": "createTime",
					"type": "uint256"
				},
				{
					"internalType": "uint16",
					"name": "agree",
					"type": "uint16"
				},
				{
					"internalType": "uint16",
					"name": "reject",
					"type": "uint16"
				},
				{
					"internalType": "bool",
					"name": "resultExist",
					"type": "bool"
				}
			],
			"stateMutability": "view",
			"type": "function"
		},
		{
			"inputs": [],
			"name": "rewardFund",
			"outputs": [
				{
					"internalType": "uint256",
					"name": "",
					"type": "uint256"
				}
			],
			"stateMutability": "view",
			"type": "function"
		},
		{
			"inputs": [
				{
					"internalType": "address",
					"name": "val",
					"type": "address"
				}
			],
			"name": "setUnpassed",
			"outputs": [
				{
					"internalType": "bool",
					"name": "",
					"type": "bool"
				}
			],
			"stateMutability": "nonpayable",
			"type": "function"
		},
		{
			"inputs": [],
			"name": "stakerPartPercent",
			"outputs": [
				{
					"internalType": "uint256",
					"name": "",
					"type": "uint256"
				}
			],
			"stateMutability": "view",
			"type": "function"
		},
		{
			"inputs": [],
			"name": "totalRewards",
			"outputs": [
				{
					"internalType": "uint256",
					"name": "",
					"type": "uint256"
				}
			],
			"stateMutability": "view",
			"type": "function"
		},
		{
			"inputs": [],
			"name": "validatorPartPercent",
			"outputs": [
				{
					"internalType": "uint256",
					"name": "",
					"type": "uint256"
				}
			],
			"stateMutability": "view",
			"type": "function"
		},
		{
			"inputs": [
				{
					"internalType": "bytes32",
					"name": "id",
					"type": "bytes32"
				},
				{
					"internalType": "bool",
					"name": "auth",
					"type": "bool"
				}
			],
			"name": "voteProposal",
			"outputs": [
				{
					"internalType": "bool",
					"name": "",
					"type": "bool"
				}
			],
			"stateMutability": "nonpayable",
			"type": "function"
		},
		{
			"inputs": [
				{
					"internalType": "address",
					"name": "",
					"type": "address"
				},
				{
					"internalType": "bytes32",
					"name": "",
					"type": "bytes32"
				}
			],
			"name": "votes",
			"outputs": [
				{
					"internalType": "address",
					"name": "voter",
					"type": "address"
				},
				{
					"internalType": "uint256",
					"name": "voteTime",
					"type": "uint256"
				},
				{
					"internalType": "bool",
					"name": "auth",
					"type": "bool"
				}
			],
			"stateMutability": "view",
			"type": "function"
		}
	]
}