{
	"data": {
		"bytecode": {
			"linkReferences": {},
			"object": "608060405234801561001057600080fd5b50610daa806100206000396000f3fe608060405234801561001057600080fd5b50600436106101da5760003560e01c80638ae53dbd11610104578063d5074883116100a2578063e0d8ea5311610071578063e0d8ea531461038d578063ea7221a114610395578063efe22266146103a8578063f62af26c146103b157600080fd5b8063d50748831461033d578063d93d2cb91461034e578063daa77ea214610361578063db78dd281461036a57600080fd5b8063c967f90f116100de578063c967f90f146102fd578063cad0ebf114610319578063cb1ea7251461032b578063cd779d211461033457600080fd5b80638ae53dbd146102d6578063be645692146102e5578063be905fbd146102f557600080fd5b806332dc3b941161017c57806344c1aa991161014b57806344c1aa99146102a75780636233be5d146102b057806363e1d451146102b95780638129fc1c146102cc57600080fd5b806332dc3b941461025b57806332f3c17f1461026c5780633a061bd31461029557806342127ee71461029e57600080fd5b8063158ef93e116101b8578063158ef93e1461020b578063182637b8146102285780631b5e358c146102495780632897183d1461025257600080fd5b80630976c65d146101df5780630a0b5e51146101df5780630e15561a14610202575b600080fd5b6101ef68d5f7a0e3e5d2cc000081565b6040519081526020015b60405180910390f35b6101ef60025481565b6000546102189060ff1681565b60405190151581526020016101f9565b61023161f00781565b6040516001600160a01b0390911681526020016101f9565b61023161f00181565b6101ef60055481565b6101ef69085be3cbc1c8d988000081565b6101ef61027a366004610c53565b6001600160a01b031660009081526007602052604090205490565b61023161f00081565b6101ef61ea6081565b6101ef60045481565b61023161f00281565b6102186102c7366004610c53565b6103c4565b6102d46105f0565b005b6101ef670de0b6b3a764000081565b6101ef6801bc16d674ec80000081565b6101ef603281565b61030661271081565b60405161ffff90911681526020016101f9565b6101ef6a0343e33f80dc000ca0000081565b6101ef60035481565b6101ef61753081565b6101ef695396bc536dbd8924000081565b6102d461035c366004610c83565b61066b565b6101ef61271081565b6103746201518081565b60405167ffffffffffffffff90911681526020016101f9565b6008546101ef565b6102d46103a3366004610c53565b610919565b6101ef60015481565b6102316103bf366004610c83565b610c29565b6000805460ff166103f05760405162461bcd60e51b81526004016103e790610c9c565b60405180910390fd5b3361f000146104415760405162461bcd60e51b815260206004820152601860248201527f56616c696461746f727320636f6e7472616374206f6e6c79000000000000000060448201526064016103e7565b6001600160a01b03821660009081526007602052604090205415610479576001600160a01b0382166000908152600760205260408120555b6001600160a01b03821660009081526007602052604090206002015460ff1680156104a5575060085415155b156105e8576008546104b990600190610cd8565b6001600160a01b038316600090815260076020526040902060010154146105895760088054600091906104ee90600190610cd8565b815481106104fe576104fe610cf1565b60009182526020808320909101546001600160a01b038681168452600790925260409092206001015460088054929093169350839291811061054257610542610cf1565b600091825260208083209190910180546001600160a01b0319166001600160a01b039485161790558583168252600790526040808220600190810154949093168252902001555b600880548061059a5761059a610d07565b60008281526020808220830160001990810180546001600160a01b03191690559092019092556001600160a01b038416825260079052604081206001810191909155600201805460ff191690555b506001919050565b60005460ff16156106395760405162461bcd60e51b8152602060048201526013602482015272105b1c9958591e481a5b9a5d1a585b1a5e9959606a1b60448201526064016103e7565b600680546001600160a01b03191661f0001790556030600381905560606004556005556000805460ff19166001179055565b3341146106a75760405162461bcd60e51b815260206004820152600a6024820152694d696e6572206f6e6c7960b01b60448201526064016103e7565b436000908152600a602052604090205460ff16156106fb5760405162461bcd60e51b8152602060048201526011602482015270105b1c9958591e48191958dc99585cd959607a1b60448201526064016103e7565b60005460ff1661071d5760405162461bcd60e51b81526004016103e790610c9c565b806107288143610d33565b156107685760405162461bcd60e51b815260206004820152601060248201526f426c6f636b2065706f6368206f6e6c7960801b60448201526064016103e7565b436000908152600a60205260409020805460ff19166001179055600854156109155760085460009060321061079f576008546107a2565b60325b905060005b818110156108e9576005546004546107bf9190610d47565b60076000600884815481106107d6576107d6610cf1565b60009182526020808320909101546001600160a01b031683528201929092526040019020541115610898576005546004546108119190610d47565b600760006008848154811061082857610828610cf1565b60009182526020808320909101546001600160a01b031683528201929092526040019020546108579190610cd8565b600760006008848154811061086e5761086e610cf1565b60009182526020808320909101546001600160a01b031683528201929092526040019020556108d7565b600060076000600884815481106108b1576108b1610cf1565b60009182526020808320909101546001600160a01b031683528201929092526040019020555b806108e181610d5b565b9150506107a7565b506040517f181d51be54e8e8eaca6eae0eab32d4162099236bd519e7238d015d0870db464190600090a1505b5050565b3341146109555760405162461bcd60e51b815260206004820152600a6024820152694d696e6572206f6e6c7960b01b60448201526064016103e7565b60005460ff166109775760405162461bcd60e51b81526004016103e790610c9c565b4360009081526009602052604090205460ff16156109ca5760405162461bcd60e51b815260206004820152601060248201526f105b1c9958591e481c1d5b9a5cda195960821b60448201526064016103e7565b436000908152600960209081526040808320805460ff191660011790556001600160a01b0384168352600790915290206002015460ff16610a7357600880546001600160a01b038316600081815260076020526040812060018082018590558085019095557ff3f7a9fe364faab93b216da50a3214154f22a0a2b415b23a84c8169e8b636ee390930180546001600160a01b0319168317905552600201805460ff191690911790555b6001600160a01b0381166000908152600760205260408120805491610a9783610d5b565b90915550506004546001600160a01b0382166000908152600760205260408120549091610ac391610d33565b6003546001600160a01b0384166000908152600760205260408120549215935091610aee9190610d33565b1590508115610b11576001600160a01b0383166000908152600760205260408120555b8115610b7b576006546040516340a141ff60e01b81526001600160a01b038581166004830152909116906340a141ff90602401600060405180830381600087803b158015610b5e57600080fd5b505af1158015610b72573d6000803e3d6000fd5b50505050610be1565b8015610be1576006546040516305dd095960e41b81526001600160a01b03858116600483015290911690635dd0959090602401600060405180830381600087803b158015610bc857600080fd5b505af1158015610bdc573d6000803e3d6000fd5b505050505b826001600160a01b03167f770e0cca42c35d00240986ce8d3ed438be04663c91dac6576b79537d7c180f1e42604051610c1c91815260200190565b60405180910390a2505050565b60088181548110610c3957600080fd5b6000918252602090912001546001600160a01b0316905081565b600060208284031215610c6557600080fd5b81356001600160a01b0381168114610c7c57600080fd5b9392505050565b600060208284031215610c9557600080fd5b5035919050565b6020808252600c908201526b139bdd081a5b9a5d081e595d60a21b604082015260600190565b634e487b7160e01b600052601160045260246000fd5b81810381811115610ceb57610ceb610cc2565b92915050565b634e487b7160e01b600052603260045260246000fd5b634e487b7160e01b600052603160045260246000fd5b634e487b7160e01b600052601260045260246000fd5b600082610d4257610d42610d1d565b500690565b600082610d5657610d56610d1d565b500490565b600060018201610d6d57610d6d610cc2565b506001019056fea264697066735822122001fa30801b51c1d76981c0e64e00b9e5cbcdd068753283e22a694f6b2c472e4064736f6c63430008110033",
			"opcodes": "PUSH1 0x80 PUSH1 0x40 MSTORE CALLVALUE DUP1 ISZERO PUSH2 0x10 JUMPI PUSH1 0x0 DUP1 REVERT JUMPDEST POP PUSH2 0xDAA DUP1 PUSH2 0x20 PUSH1 0x0 CODECOPY PUSH1 0x0 RETURN INVALID PUSH1 0x80 PUSH1 0x40 MSTORE CALLVALUE DUP1 ISZERO PUSH2 0x10 JUMPI PUSH1 0x0 DUP1 REVERT JUMPDEST POP PUSH1 0x4 CALLDATASIZE LT PUSH2 0x1DA JUMPI PUSH1 0x0 CALLDATALOAD PUSH1 0xE0 SHR DUP1 PUSH4 0x8AE53DBD GT PUSH2 0x104 JUMPI DUP1 PUSH4 0xD5074883 GT PUSH2 0xA2 JUMPI DUP1 PUSH4 0xE0D8EA53 GT PUSH2 0x71 JUMPI DUP1 PUSH4 0xE0D8EA53 EQ PUSH2 0x38D JUMPI DUP1 PUSH4 0xEA7221A1 EQ PUSH2 0x395 JUMPI DUP1 PUSH4 0xEFE22266 EQ PUSH2 0x3A8 JUMPI DUP1 PUSH4 0xF62AF26C EQ PUSH2 0x3B1 JUMPI PUSH1 0x0 DUP1 REVERT JUMPDEST DUP1 PUSH4 0xD5074883 EQ PUSH2 0x33D JUMPI DUP1 PUSH4 0xD93D2CB9 EQ PUSH2 0x34E JUMPI DUP1 PUSH4 0xDAA77EA2 EQ PUSH2 0x361 JUMPI DUP1 PUSH4 0xDB78DD28 EQ PUSH2 0x36A JUMPI PUSH1 0x0 DUP1 REVERT JUMPDEST DUP1 PUSH4 0xC967F90F GT PUSH2 0xDE JUMPI DUP1 PUSH4 0xC967F90F EQ PUSH2 0x2FD JUMPI DUP1 PUSH4 0xCAD0EBF1 EQ PUSH2 0x319 JUMPI DUP1 PUSH4 0xCB1EA725 EQ PUSH2 0x32B JUMPI DUP1 PUSH4 0xCD779D21 EQ PUSH2 0x334 JUMPI PUSH1 0x0 DUP1 REVERT JUMPDEST DUP1 PUSH4 0x8AE53DBD EQ PUSH2 0x2D6 JUMPI DUP1 PUSH4 0xBE645692 EQ PUSH2 0x2E5 JUMPI DUP1 PUSH4 0xBE905FBD EQ PUSH2 0x2F5 JUMPI PUSH1 0x0 DUP1 REVERT JUMPDEST DUP1 PUSH4 0x32DC3B94 GT PUSH2 0x17C JUMPI DUP1 PUSH4 0x44C1AA99 GT PUSH2 0x14B JUMPI DUP1 PUSH4 0x44C1AA99 EQ PUSH2 0x2A7 JUMPI DUP1 PUSH4 0x6233BE5D EQ PUSH2 0x2B0 JUMPI DUP1 PUSH4 0x63E1D451 EQ PUSH2 0x2B9 JUMPI DUP1 PUSH4 0x8129FC1C EQ PUSH2 0x2CC JUMPI PUSH1 0x0 DUP1 REVERT JUMPDEST DUP1 PUSH4 0x32DC3B94 EQ PUSH2 0x25B JUMPI DUP1 PUSH4 0x32F3C17F EQ PUSH2 0x26C JUMPI DUP1 PUSH4 0x3A061BD3 EQ PUSH2 0x295 JUMPI DUP1 PUSH4 0x42127EE7 EQ PUSH2 0x29E JUMPI PUSH1 0x0 DUP1 REVERT JUMPDEST DUP1 PUSH4 0x158EF93E GT PUSH2 0x1B8 JUMPI DUP1 PUSH4 0x158EF93E EQ PUSH2 0x20B JUMPI DUP1 PUSH4 0x182637B8 EQ PUSH2 0x228 JUMPI DUP1 PUSH4 0x1B5E358C EQ PUSH2 0x249 JUMPI DUP1 PUSH4 0x2897183D EQ PUSH2 0x252 JUMPI PUSH1 0x0 DUP1 REVERT JUMPDEST DUP1 PUSH4 0x976C65D EQ PUSH2 0x1DF JUMPI DUP1 PUSH4 0xA0B5E51 EQ PUSH2 0x1DF JUMPI DUP1 PUSH4 0xE15561A EQ PUSH2 0x202 JUMPI JUMPDEST PUSH1 0x0 DUP1 REVERT JUMPDEST PUSH2 0x1EF PUSH9 0xD5F7A0E3E5D2CC0000 DUP2 JUMP JUMPDEST PUSH1 0x40 MLOAD SWAP1 DUP2 MSTORE PUSH1 0x20 ADD JUMPDEST PUSH1 0x40 MLOAD DUP1 SWAP2 SUB SWAP1 RETURN JUMPDEST PUSH2 0x1EF PUSH1 0x2 SLOAD DUP2 JUMP JUMPDEST PUSH1 0x0 SLOAD PUSH2 0x218 SWAP1 PUSH1 0xFF AND DUP2 JUMP JUMPDEST PUSH1 0x40 MLOAD SWAP1 ISZERO ISZERO DUP2 MSTORE PUSH1 0x20 ADD PUSH2 0x1F9 JUMP JUMPDEST PUSH2 0x231 PUSH2 0xF007 DUP2 JUMP JUMPDEST PUSH1 0x40 MLOAD PUSH1 0x1 PUSH1 0x1 PUSH1 0xA0 SHL SUB SWAP1 SWAP2 AND DUP2 MSTORE PUSH1 0x20 ADD PUSH2 0x1F9 JUMP JUMPDEST PUSH2 0x231 PUSH2 0xF001 DUP2 JUMP JUMPDEST PUSH2 0x1EF PUSH1 0x5 SLOAD DUP2 JUMP JUMPDEST PUSH2 0x1EF PUSH10 0x85BE3CBC1C8D9880000 DUP2 JUMP JUMPDEST PUSH2 0x1EF PUSH2 0x27A CALLDATASIZE PUSH1 0x4 PUSH2 0xC53 JUMP JUMPDEST PUSH1 0x1 PUSH1 0x1 PUSH1 0xA0 SHL SUB AND PUSH1 0x0 SWAP1 DUP2 MSTORE PUSH1 0x7 PUSH1 0x20 MSTORE PUSH1 0x40 SWAP1 KECCAK256 SLOAD SWAP1 JUMP JUMPDEST PUSH2 0x231 PUSH2 0xF000 DUP2 JUMP JUMPDEST PUSH2 0x1EF PUSH2 0xEA60 DUP2 JUMP JUMPDEST PUSH2 0x1EF PUSH1 0x4 SLOAD DUP2 JUMP JUMPDEST PUSH2 0x231 PUSH2 0xF002 DUP2 JUMP JUMPDEST PUSH2 0x218 PUSH2 0x2C7 CALLDATASIZE PUSH1 0x4 PUSH2 0xC53 JUMP JUMPDEST PUSH2 0x3C4 JUMP JUMPDEST PUSH2 0x2D4 PUSH2 0x5F0 JUMP JUMPDEST STOP JUMPDEST PUSH2 0x1EF PUSH8 0xDE0B6B3A7640000 DUP2 JUMP JUMPDEST PUSH2 0x1EF PUSH9 0x1BC16D674EC800000 DUP2 JUMP JUMPDEST PUSH2 0x1EF PUSH1 0x32 DUP2 JUMP JUMPDEST PUSH2 0x306 PUSH2 0x2710 DUP2 JUMP JUMPDEST PUSH1 0x40 MLOAD PUSH2 0xFFFF SWAP1 SWAP2 AND DUP2 MSTORE PUSH1 0x20 ADD PUSH2 0x1F9 JUMP JUMPDEST PUSH2 0x1EF PUSH11 0x343E33F80DC000CA00000 DUP2 JUMP JUMPDEST PUSH2 0x1EF PUSH1 0x3 SLOAD DUP2 JUMP JUMPDEST PUSH2 0x1EF PUSH2 0x7530 DUP2 JUMP JUMPDEST PUSH2 0x1EF PUSH10 0x5396BC536DBD89240000 DUP2 JUMP JUMPDEST PUSH2 0x2D4 PUSH2 0x35C CALLDATASIZE PUSH1 0x4 PUSH2 0xC83 JUMP JUMPDEST PUSH2 0x66B JUMP JUMPDEST PUSH2 0x1EF PUSH2 0x2710 DUP2 JUMP JUMPDEST PUSH2 0x374 PUSH3 0x15180 DUP2 JUMP JUMPDEST PUSH1 0x40 MLOAD PUSH8 0xFFFFFFFFFFFFFFFF SWAP1 SWAP2 AND DUP2 MSTORE PUSH1 0x20 ADD PUSH2 0x1F9 JUMP JUMPDEST PUSH1 0x8 SLOAD PUSH2 0x1EF JUMP JUMPDEST PUSH2 0x2D4 PUSH2 0x3A3 CALLDATASIZE PUSH1 0x4 PUSH2 0xC53 JUMP JUMPDEST PUSH2 0x919 JUMP JUMPDEST PUSH2 0x1EF PUSH1 0x1 SLOAD DUP2 JUMP JUMPDEST PUSH2 0x231 PUSH2 0x3BF CALLDATASIZE PUSH1 0x4 PUSH2 0xC83 JUMP JUMPDEST PUSH2 0xC29 JUMP JUMPDEST PUSH1 0x0 DUP1 SLOAD PUSH1 0xFF AND PUSH2 0x3F0 JUMPI PUSH1 0x40 MLOAD PUSH3 0x461BCD PUSH1 0xE5 SHL DUP2 MSTORE PUSH1 0x4 ADD PUSH2 0x3E7 SWAP1 PUSH2 0xC9C JUMP JUMPDEST PUSH1 0x40 MLOAD DUP1 SWAP2 SUB SWAP1 REVERT JUMPDEST CALLER PUSH2 0xF000 EQ PUSH2 0x441 JUMPI PUSH1 0x40 MLOAD PUSH3 0x461BCD PUSH1 0xE5 SHL DUP2 MSTORE PUSH1 0x20 PUSH1 0x4 DUP3 ADD MSTORE PUSH1 0x18 PUSH1 0x24 DUP3 ADD MSTORE PUSH32 0x56616C696461746F727320636F6E7472616374206F6E6C790000000000000000 PUSH1 0x44 DUP3 ADD MSTORE PUSH1 0x64 ADD PUSH2 0x3E7 JUMP JUMPDEST PUSH1 0x1 PUSH1 0x1 PUSH1 0xA0 SHL SUB DUP3 AND PUSH1 0x0 SWAP1 DUP2 MSTORE PUSH1 0x7 PUSH1 0x20 MSTORE PUSH1 0x40 SWAP1 KECCAK256 SLOAD ISZERO PUSH2 0x479 JUMPI PUSH1 0x1 PUSH1 0x1 PUSH1 0xA0 SHL SUB DUP3 AND PUSH1 0x0 SWAP1 DUP2 MSTORE PUSH1 0x7 PUSH1 0x20 MSTORE PUSH1 0x40 DUP2 KECCAK256 SSTORE JUMPDEST PUSH1 0x1 PUSH1 0x1 PUSH1 0xA0 SHL SUB DUP3 AND PUSH1 0x0 SWAP1 DUP2 MSTORE PUSH1 0x7 PUSH1 0x20 MSTORE PUSH1 0x40 SWAP1 KECCAK256 PUSH1 0x2 ADD SLOAD PUSH1 0xFF AND DUP1 ISZERO PUSH2 0x4A5 JUMPI POP PUSH1 0x8 SLOAD ISZERO ISZERO JUMPDEST ISZERO PUSH2 0x5E8 JUMPI PUSH1 0x8 SLOAD PUSH2 0x4B9 SWAP1 PUSH1 0x1 SWAP1 PUSH2 0xCD8 JUMP JUMPDEST PUSH1 0x1 PUSH1 0x1 PUSH1 0xA0 SHL SUB DUP4 AND PUSH1 0x0 SWAP1 DUP2 MSTORE PUSH1 0x7 PUSH1 0x20 MSTORE PUSH1 0x40 SWAP1 KECCAK256 PUSH1 0x1 ADD SLOAD EQ PUSH2 0x589 JUMPI PUSH1 0x8 DUP1 SLOAD PUSH1 0x0 SWAP2 SWAP1 PUSH2 0x4EE SWAP1 PUSH1 0x1 SWAP1 PUSH2 0xCD8 JUMP JUMPDEST DUP2 SLOAD DUP2 LT PUSH2 0x4FE JUMPI PUSH2 0x4FE PUSH2 0xCF1 JUMP JUMPDEST PUSH1 0x0 SWAP2 DUP3 MSTORE PUSH1 0x20 DUP1 DUP4 KECCAK256 SWAP1 SWAP2 ADD SLOAD PUSH1 0x1 PUSH1 0x1 PUSH1 0xA0 SHL SUB DUP7 DUP2 AND DUP5 MSTORE PUSH1 0x7 SWAP1 SWAP3 MSTORE PUSH1 0x40 SWAP1 SWAP3 KECCAK256 PUSH1 0x1 ADD SLOAD PUSH1 0x8 DUP1 SLOAD SWAP3 SWAP1 SWAP4 AND SWAP4 POP DUP4 SWAP3 SWAP2 DUP2 LT PUSH2 0x542 JUMPI PUSH2 0x542 PUSH2 0xCF1 JUMP JUMPDEST PUSH1 0x0 SWAP2 DUP3 MSTORE PUSH1 0x20 DUP1 DUP4 KECCAK256 SWAP2 SWAP1 SWAP2 ADD DUP1 SLOAD PUSH1 0x1 PUSH1 0x1 PUSH1 0xA0 SHL SUB NOT AND PUSH1 0x1 PUSH1 0x1 PUSH1 0xA0 SHL SUB SWAP5 DUP6 AND OR SWAP1 SSTORE DUP6 DUP4 AND DUP3 MSTORE PUSH1 0x7 SWAP1 MSTORE PUSH1 0x40 DUP1 DUP3 KECCAK256 PUSH1 0x1 SWAP1 DUP2 ADD SLOAD SWAP5 SWAP1 SWAP4 AND DUP3 MSTORE SWAP1 KECCAK256 ADD SSTORE JUMPDEST PUSH1 0x8 DUP1 SLOAD DUP1 PUSH2 0x59A JUMPI PUSH2 0x59A PUSH2 0xD07 JUMP JUMPDEST PUSH1 0x0 DUP3 DUP2 MSTORE PUSH1 0x20 DUP1 DUP3 KECCAK256 DUP4 ADD PUSH1 0x0 NOT SWAP1 DUP2 ADD DUP1 SLOAD PUSH1 0x1 PUSH1 0x1 PUSH1 0xA0 SHL SUB NOT AND SWAP1 SSTORE SWAP1 SWAP3 ADD SWAP1 SWAP3 SSTORE PUSH1 0x1 PUSH1 0x1 PUSH1 0xA0 SHL SUB DUP5 AND DUP3 MSTORE PUSH1 0x7 SWAP1 MSTORE PUSH1 0x40 DUP2 KECCAK256 PUSH1 0x1 DUP2 ADD SWAP2 SWAP1 SWAP2 SSTORE PUSH1 0x2 ADD DUP1 SLOAD PUSH1 0xFF NOT AND SWAP1 SSTORE JUMPDEST POP PUSH1 0x1 SWAP2 SWAP1 POP JUMP JUMPDEST PUSH1 0x0 SLOAD PUSH1 0xFF AND ISZERO PUSH2 0x639 JUMPI PUSH1 0x40 MLOAD PUSH3 0x461BCD PUSH1 0xE5 SHL DUP2 MSTORE PUSH1 0x20 PUSH1 0x4 DUP3 ADD MSTORE PUSH1 0x13 PUSH1 0x24 DUP3 ADD MSTORE PUSH19 0x105B1C9958591E481A5B9A5D1A585B1A5E9959 PUSH1 0x6A SHL PUSH1 0x44 DUP3 ADD MSTORE PUSH1 0x64 ADD PUSH2 0x3E7 JUMP JUMPDEST PUSH1 0x6 DUP1 SLOAD PUSH1 0x1 PUSH1 0x1 PUSH1 0xA0 SHL SUB NOT AND PUSH2 0xF000 OR SWAP1 SSTORE PUSH1 0x30 PUSH1 0x3 DUP2 SWAP1 SSTORE PUSH1 0x60 PUSH1 0x4 SSTORE PUSH1 0x5 SSTORE PUSH1 0x0 DUP1 SLOAD PUSH1 0xFF NOT AND PUSH1 0x1 OR SWAP1 SSTORE JUMP JUMPDEST CALLER COINBASE EQ PUSH2 0x6A7 JUMPI PUSH1 0x40 MLOAD PUSH3 0x461BCD PUSH1 0xE5 SHL DUP2 MSTORE PUSH1 0x20 PUSH1 0x4 DUP3 ADD MSTORE PUSH1 0xA PUSH1 0x24 DUP3 ADD MSTORE PUSH10 0x4D696E6572206F6E6C79 PUSH1 0xB0 SHL PUSH1 0x44 DUP3 ADD MSTORE PUSH1 0x64 ADD PUSH2 0x3E7 JUMP JUMPDEST NUMBER PUSH1 0x0 SWAP1 DUP2 MSTORE PUSH1 0xA PUSH1 0x20 MSTORE PUSH1 0x40 SWAP1 KECCAK256 SLOAD PUSH1 0xFF AND ISZERO PUSH2 0x6FB JUMPI PUSH1 0x40 MLOAD PUSH3 0x461BCD PUSH1 0xE5 SHL DUP2 MSTORE PUSH1 0x20 PUSH1 0x4 DUP3 ADD MSTORE PUSH1 0x11 PUSH1 0x24 DUP3 ADD MSTORE PUSH17 0x105B1C9958591E48191958DC99585CD959 PUSH1 0x7A SHL PUSH1 0x44 DUP3 ADD MSTORE PUSH1 0x64 ADD PUSH2 0x3E7 JUMP JUMPDEST PUSH1 0x0 SLOAD PUSH1 0xFF AND PUSH2 0x71D JUMPI PUSH1 0x40 MLOAD PUSH3 0x461BCD PUSH1 0xE5 SHL DUP2 MSTORE PUSH1 0x4 ADD PUSH2 0x3E7 SWAP1 PUSH2 0xC9C JUMP JUMPDEST DUP1 PUSH2 0x728 DUP2 NUMBER PUSH2 0xD33 JUMP JUMPDEST ISZERO PUSH2 0x768 JUMPI PUSH1 0x40 MLOAD PUSH3 0x461BCD PUSH1 0xE5 SHL DUP2 MSTORE PUSH1 0x20 PUSH1 0x4 DUP3 ADD MSTORE PUSH1 0x10 PUSH1 0x24 DUP3 ADD MSTORE PUSH16 0x426C6F636B2065706F6368206F6E6C79 PUSH1 0x80 SHL PUSH1 0x44 DUP3 ADD MSTORE PUSH1 0x64 ADD PUSH2 0x3E7 JUMP JUMPDEST NUMBER PUSH1 0x0 SWAP1 DUP2 MSTORE PUSH1 0xA PUSH1 0x20 MSTORE PUSH1 0x40 SWAP1 KECCAK256 DUP1 SLOAD PUSH1 0xFF NOT AND PUSH1 0x1 OR SWAP1 SSTORE PUSH1 0x8 SLOAD ISZERO PUSH2 0x915 JUMPI PUSH1 0x8 SLOAD PUSH1 0x0 SWAP1 PUSH1 0x32 LT PUSH2 0x79F JUMPI PUSH1 0x8 SLOAD PUSH2 0x7A2 JUMP JUMPDEST PUSH1 0x32 JUMPDEST SWAP1 POP PUSH1 0x0 JUMPDEST DUP2 DUP2 LT ISZERO PUSH2 0x8E9 JUMPI PUSH1 0x5 SLOAD PUSH1 0x4 SLOAD PUSH2 0x7BF SWAP2 SWAP1 PUSH2 0xD47 JUMP JUMPDEST PUSH1 0x7 PUSH1 0x0 PUSH1 0x8 DUP5 DUP2 SLOAD DUP2 LT PUSH2 0x7D6 JUMPI PUSH2 0x7D6 PUSH2 0xCF1 JUMP JUMPDEST PUSH1 0x0 SWAP2 DUP3 MSTORE PUSH1 0x20 DUP1 DUP4 KECCAK256 SWAP1 SWAP2 ADD SLOAD PUSH1 0x1 PUSH1 0x1 PUSH1 0xA0 SHL SUB AND DUP4 MSTORE DUP3 ADD SWAP3 SWAP1 SWAP3 MSTORE PUSH1 0x40 ADD SWAP1 KECCAK256 SLOAD GT ISZERO PUSH2 0x898 JUMPI PUSH1 0x5 SLOAD PUSH1 0x4 SLOAD PUSH2 0x811 SWAP2 SWAP1 PUSH2 0xD47 JUMP JUMPDEST PUSH1 0x7 PUSH1 0x0 PUSH1 0x8 DUP5 DUP2 SLOAD DUP2 LT PUSH2 0x828 JUMPI PUSH2 0x828 PUSH2 0xCF1 JUMP JUMPDEST PUSH1 0x0 SWAP2 DUP3 MSTORE PUSH1 0x20 DUP1 DUP4 KECCAK256 SWAP1 SWAP2 ADD SLOAD PUSH1 0x1 PUSH1 0x1 PUSH1 0xA0 SHL SUB AND DUP4 MSTORE DUP3 ADD SWAP3 SWAP1 SWAP3 MSTORE PUSH1 0x40 ADD SWAP1 KECCAK256 SLOAD PUSH2 0x857 SWAP2 SWAP1 PUSH2 0xCD8 JUMP JUMPDEST PUSH1 0x7 PUSH1 0x0 PUSH1 0x8 DUP5 DUP2 SLOAD DUP2 LT PUSH2 0x86E JUMPI PUSH2 0x86E PUSH2 0xCF1 JUMP JUMPDEST PUSH1 0x0 SWAP2 DUP3 MSTORE PUSH1 0x20 DUP1 DUP4 KECCAK256 SWAP1 SWAP2 ADD SLOAD PUSH1 0x1 PUSH1 0x1 PUSH1 0xA0 SHL SUB AND DUP4 MSTORE DUP3 ADD SWAP3 SWAP1 SWAP3 MSTORE PUSH1 0x40 ADD SWAP1 KECCAK256 SSTORE PUSH2 0x8D7 JUMP JUMPDEST PUSH1 0x0 PUSH1 0x7 PUSH1 0x0 PUSH1 0x8 DUP5 DUP2 SLOAD DUP2 LT PUSH2 0x8B1 JUMPI PUSH2 0x8B1 PUSH2 0xCF1 JUMP JUMPDEST PUSH1 0x0 SWAP2 DUP3 MSTORE PUSH1 0x20 DUP1 DUP4 KECCAK256 SWAP1 SWAP2 ADD SLOAD PUSH1 0x1 PUSH1 0x1 PUSH1 0xA0 SHL SUB AND DUP4 MSTORE DUP3 ADD SWAP3 SWAP1 SWAP3 MSTORE PUSH1 0x40 ADD SWAP1 KECCAK256 SSTORE JUMPDEST DUP1 PUSH2 0x8E1 DUP2 PUSH2 0xD5B JUMP JUMPDEST SWAP2 POP POP PUSH2 0x7A7 JUMP JUMPDEST POP PUSH1 0x40 MLOAD PUSH32 0x181D51BE54E8E8EACA6EAE0EAB32D4162099236BD519E7238D015D0870DB4641 SWAP1 PUSH1 0x0 SWAP1 LOG1 POP JUMPDEST POP POP JUMP JUMPDEST CALLER COINBASE EQ PUSH2 0x955 JUMPI PUSH1 0x40 MLOAD PUSH3 0x461BCD PUSH1 0xE5 SHL DUP2 MSTORE PUSH1 0x20 PUSH1 0x4 DUP3 ADD MSTORE PUSH1 0xA PUSH1 0x24 DUP3 ADD MSTORE PUSH10 0x4D696E6572206F6E6C79 PUSH1 0xB0 SHL PUSH1 0x44 DUP3 ADD MSTORE PUSH1 0x64 ADD PUSH2 0x3E7 JUMP JUMPDEST PUSH1 0x0 SLOAD PUSH1 0xFF AND PUSH2 0x977 JUMPI PUSH1 0x40 MLOAD PUSH3 0x461BCD PUSH1 0xE5 SHL DUP2 MSTORE PUSH1 0x4 ADD PUSH2 0x3E7 SWAP1 PUSH2 0xC9C JUMP JUMPDEST NUMBER PUSH1 0x0 SWAP1 DUP2 MSTORE PUSH1 0x9 PUSH1 0x20 MSTORE PUSH1 0x40 SWAP1 KECCAK256 SLOAD PUSH1 0xFF AND ISZERO PUSH2 0x9CA JUMPI PUSH1 0x40 MLOAD PUSH3 0x461BCD PUSH1 0xE5 SHL DUP2 MSTORE PUSH1 0x20 PUSH1 0x4 DUP3 ADD MSTORE PUSH1 0x10 PUSH1 0x24 DUP3 ADD MSTORE PUSH16 0x105B1C9958591E481C1D5B9A5CDA1959 PUSH1 0x82 SHL PUSH1 0x44 DUP3 ADD MSTORE PUSH1 0x64 ADD PUSH2 0x3E7 JUMP JUMPDEST NUMBER PUSH1 0x0 SWAP1 DUP2 MSTORE PUSH1 0x9 PUSH1 0x20 SWAP1 DUP2 MSTORE PUSH1 0x40 DUP1 DUP4 KECCAK256 DUP1 SLOAD PUSH1 0xFF NOT AND PUSH1 0x1 OR SWAP1 SSTORE PUSH1 0x1 PUSH1 0x1 PUSH1 0xA0 SHL SUB DUP5 AND DUP4 MSTORE PUSH1 0x7 SWAP1 SWAP2 MSTORE SWAP1 KECCAK256 PUSH1 0x2 ADD SLOAD PUSH1 0xFF AND PUSH2 0xA73 JUMPI PUSH1 0x8 DUP1 SLOAD PUSH1 0x1 PUSH1 0x1 PUSH1 0xA0 SHL SUB DUP4 AND PUSH1 0x0 DUP2 DUP2 MSTORE PUSH1 0x7 PUSH1 0x20 MSTORE PUSH1 0x40 DUP2 KECCAK256 PUSH1 0x1 DUP1 DUP3 ADD DUP6 SWAP1 SSTORE DUP1 DUP6 ADD SWAP1 SWAP6 SSTORE PUSH32 0xF3F7A9FE364FAAB93B216DA50A3214154F22A0A2B415B23A84C8169E8B636EE3 SWAP1 SWAP4 ADD DUP1 SLOAD PUSH1 0x1 PUSH1 0x1 PUSH1 0xA0 SHL SUB NOT AND DUP4 OR SWAP1 SSTORE MSTORE PUSH1 0x2 ADD DUP1 SLOAD PUSH1 0xFF NOT AND SWAP1 SWAP2 OR SWAP1 SSTORE JUMPDEST PUSH1 0x1 PUSH1 0x1 PUSH1 0xA0 SHL SUB DUP2 AND PUSH1 0x0 SWAP1 DUP2 MSTORE PUSH1 0x7 PUSH1 0x20 MSTORE PUSH1 0x40 DUP2 KECCAK256 DUP1 SLOAD SWAP2 PUSH2 0xA97 DUP4 PUSH2 0xD5B JUMP JUMPDEST SWAP1 SWAP2 SSTORE POP POP PUSH1 0x4 SLOAD PUSH1 0x1 PUSH1 0x1 PUSH1 0xA0 SHL SUB DUP3 AND PUSH1 0x0 SWAP1 DUP2 MSTORE PUSH1 0x7 PUSH1 0x20 MSTORE PUSH1 0x40 DUP2 KECCAK256 SLOAD SWAP1 SWAP2 PUSH2 0xAC3 SWAP2 PUSH2 0xD33 JUMP JUMPDEST PUSH1 0x3 SLOAD PUSH1 0x1 PUSH1 0x1 PUSH1 0xA0 SHL SUB DUP5 AND PUSH1 0x0 SWAP1 DUP2 MSTORE PUSH1 0x7 PUSH1 0x20 MSTORE PUSH1 0x40 DUP2 KECCAK256 SLOAD SWAP3 ISZERO SWAP4 POP SWAP2 PUSH2 0xAEE SWAP2 SWAP1 PUSH2 0xD33 JUMP JUMPDEST ISZERO SWAP1 POP DUP2 ISZERO PUSH2 0xB11 JUMPI PUSH1 0x1 PUSH1 0x1 PUSH1 0xA0 SHL SUB DUP4 AND PUSH1 0x0 SWAP1 DUP2 MSTORE PUSH1 0x7 PUSH1 0x20 MSTORE PUSH1 0x40 DUP2 KECCAK256 SSTORE JUMPDEST DUP2 ISZERO PUSH2 0xB7B JUMPI PUSH1 0x6 SLOAD PUSH1 0x40 MLOAD PUSH4 0x40A141FF PUSH1 0xE0 SHL DUP2 MSTORE PUSH1 0x1 PUSH1 0x1 PUSH1 0xA0 SHL SUB DUP6 DUP2 AND PUSH1 0x4 DUP4 ADD MSTORE SWAP1 SWAP2 AND SWAP1 PUSH4 0x40A141FF SWAP1 PUSH1 0x24 ADD PUSH1 0x0 PUSH1 0x40 MLOAD DUP1 DUP4 SUB DUP2 PUSH1 0x0 DUP8 DUP1 EXTCODESIZE ISZERO DUP1 ISZERO PUSH2 0xB5E JUMPI PUSH1 0x0 DUP1 REVERT JUMPDEST POP GAS CALL ISZERO DUP1 ISZERO PUSH2 0xB72 JUMPI RETURNDATASIZE PUSH1 0x0 DUP1 RETURNDATACOPY RETURNDATASIZE PUSH1 0x0 REVERT JUMPDEST POP POP POP POP PUSH2 0xBE1 JUMP JUMPDEST DUP1 ISZERO PUSH2 0xBE1 JUMPI PUSH1 0x6 SLOAD PUSH1 0x40 MLOAD PUSH4 0x5DD0959 PUSH1 0xE4 SHL DUP2 MSTORE PUSH1 0x1 PUSH1 0x1 PUSH1 0xA0 SHL SUB DUP6 DUP2 AND PUSH1 0x4 DUP4 ADD MSTORE SWAP1 SWAP2 AND SWAP1 PUSH4 0x5DD09590 SWAP1 PUSH1 0x24 ADD PUSH1 0x0 PUSH1 0x40 MLOAD DUP1 DUP4 SUB DUP2 PUSH1 0x0 DUP8 DUP1 EXTCODESIZE ISZERO DUP1 ISZERO PUSH2 0xBC8 JUMPI PUSH1 0x0 DUP1 REVERT JUMPDEST POP GAS CALL ISZERO DUP1 ISZERO PUSH2 0xBDC JUMPI RETURNDATASIZE PUSH1 0x0 DUP1 RETURNDATACOPY RETURNDATASIZE PUSH1 0x0 REVERT JUMPDEST POP POP POP POP JUMPDEST DUP3 PUSH1 0x1 PUSH1 0x1 PUSH1 0xA0 SHL SUB AND PUSH32 0x770E0CCA42C35D00240986CE8D3ED438BE04663C91DAC6576B79537D7C180F1E TIMESTAMP PUSH1 0x40 MLOAD PUSH2 0xC1C SWAP2 DUP2 MSTORE PUSH1 0x20 ADD SWAP1 JUMP JUMPDEST PUSH1 0x40 MLOAD DUP1 SWAP2 SUB SWAP1 LOG2 POP POP POP JUMP JUMPDEST PUSH1 0x8 DUP2 DUP2 SLOAD DUP2 LT PUSH2 0xC39 JUMPI PUSH1 0x0 DUP1 REVERT JUMPDEST PUSH1 0x0 SWAP2 DUP3 MSTORE PUSH1 0x20 SWAP1 SWAP2 KECCAK256 ADD SLOAD PUSH1 0x1 PUSH1 0x1 PUSH1 0xA0 SHL SUB AND SWAP1 POP DUP2 JUMP JUMPDEST PUSH1 0x0 PUSH1 0x20 DUP3 DUP5 SUB SLT ISZERO PUSH2 0xC65 JUMPI PUSH1 0x0 DUP1 REVERT JUMPDEST DUP2 CALLDATALOAD PUSH1 0x1 PUSH1 0x1 PUSH1 0xA0 SHL SUB DUP2 AND DUP2 EQ PUSH2 0xC7C JUMPI PUSH1 0x0 DUP1 REVERT JUMPDEST SWAP4 SWAP3 POP POP POP JUMP JUMPDEST PUSH1 0x0 PUSH1 0x20 DUP3 DUP5 SUB SLT ISZERO PUSH2 0xC95 JUMPI PUSH1 0x0 DUP1 REVERT JUMPDEST POP CALLDATALOAD SWAP2 SWAP1 POP JUMP JUMPDEST PUSH1 0x20 DUP1 DUP3 MSTORE PUSH1 0xC SWAP1 DUP3 ADD MSTORE PUSH12 0x139BDD081A5B9A5D081E595D PUSH1 0xA2 SHL PUSH1 0x40 DUP3 ADD MSTORE PUSH1 0x60 ADD SWAP1 JUMP JUMPDEST PUSH4 0x4E487B71 PUSH1 0xE0 SHL PUSH1 0x0 MSTORE PUSH1 0x11 PUSH1 0x4 MSTORE PUSH1 0x24 PUSH1 0x0 REVERT JUMPDEST DUP2 DUP2 SUB DUP2 DUP2 GT ISZERO PUSH2 0xCEB JUMPI PUSH2 0xCEB PUSH2 0xCC2 JUMP JUMPDEST SWAP3 SWAP2 POP POP JUMP JUMPDEST PUSH4 0x4E487B71 PUSH1 0xE0 SHL PUSH1 0x0 MSTORE PUSH1 0x32 PUSH1 0x4 MSTORE PUSH1 0x24 PUSH1 0x0 REVERT JUMPDEST PUSH4 0x4E487B71 PUSH1 0xE0 SHL PUSH1 0x0 MSTORE PUSH1 0x31 PUSH1 0x4 MSTORE PUSH1 0x24 PUSH1 0x0 REVERT JUMPDEST PUSH4 0x4E487B71 PUSH1 0xE0 SHL PUSH1 0x0 MSTORE PUSH1 0x12 PUSH1 0x4 MSTORE PUSH1 0x24 PUSH1 0x0 REVERT JUMPDEST PUSH1 0x0 DUP3 PUSH2 0xD42 JUMPI PUSH2 0xD42 PUSH2 0xD1D JUMP JUMPDEST POP MOD SWAP1 JUMP JUMPDEST PUSH1 0x0 DUP3 PUSH2 0xD56 JUMPI PUSH2 0xD56 PUSH2 0xD1D JUMP JUMPDEST POP DIV SWAP1 JUMP JUMPDEST PUSH1 0x0 PUSH1 0x1 DUP3 ADD PUSH2 0xD6D JUMPI PUSH2 0xD6D PUSH2 0xCC2 JUMP JUMPDEST POP PUSH1 0x1 ADD SWAP1 JUMP INVALID LOG2 PUSH5 0x6970667358 0x22 SLT KECCAK256 ADD STATICCALL ADDRESS DUP1 SHL MLOAD 0xC1 0xD7 PUSH10 0x81C0E64E00B9E5CBCDD0 PUSH9 0x753283E22A694F6B2C SELFBALANCE 0x2E BLOCKHASH PUSH5 0x736F6C6343 STOP ADDMOD GT STOP CALLER "
		},
		"gasEstimates": {
			"creation": {
				"codeDepositCost": "699600",
				"executionCost": "734",
				"totalCost": "700334"
			},
			"external": {
				"BronzeValidatorStaking()": "253",
				"GoldValidatorStaking()": "229",
				"MAX_VALIDATORS_PER_TX()": "274",
				"MaxValidators()": "249",
				"MinimalStakingCoin()": "252",
				"PlatinumValidatorStaking()": "251",
				"ProposalAddr()": "283",
				"PunishContractAddr()": "306",
				"SilverValidatorStaking()": "230",
				"SlashingContractAddr()": "284",
				"StakingLockPeriod()": "315",
				"ValidatorContractAddr()": "306",
				"cleanPunishRecord(address)": "infinite",
				"creatorPartPercent()": "273",
				"decreaseMissedBlocksCounter(uint256)": "infinite",
				"decreaseRate()": "2396",
				"extraRewardsPerBlock()": "230",
				"getPunishRecord(address)": "2559",
				"getPunishValidatorsLen()": "2325",
				"initialize()": "117162",
				"initialized()": "2356",
				"minimumValidatorStaking()": "231",
				"punish(address)": "infinite",
				"punishThreshold()": "2373",
				"punishValidators(uint256)": "4724",
				"removeThreshold()": "2329",
				"rewardFund()": "2372",
				"stakerPartPercent()": "295",
				"totalRewards()": "2375",
				"validatorPartPercent()": "296"
			}
		},
		"methodIdentifiers": {
			"BronzeValidatorStaking()": "0a0b5e51",
			"GoldValidatorStaking()": "d5074883",
			"MAX_VALIDATORS_PER_TX()": "be905fbd",
			"MaxValidators()": "c967f90f",
			"MinimalStakingCoin()": "be645692",
			"PlatinumValidatorStaking()": "cad0ebf1",
			"ProposalAddr()": "6233be5d",
			"PunishContractAddr()": "1b5e358c",
			"SilverValidatorStaking()": "32dc3b94",
			"SlashingContractAddr()": "182637b8",
			"StakingLockPeriod()": "db78dd28",
			"ValidatorContractAddr()": "3a061bd3",
			"cleanPunishRecord(address)": "63e1d451",
			"creatorPartPercent()": "daa77ea2",
			"decreaseMissedBlocksCounter(uint256)": "d93d2cb9",
			"decreaseRate()": "2897183d",
			"extraRewardsPerBlock()": "8ae53dbd",
			"getPunishRecord(address)": "32f3c17f",
			"getPunishValidatorsLen()": "e0d8ea53",
			"initialize()": "8129fc1c",
			"initialized()": "158ef93e",
			"minimumValidatorStaking()": "0976c65d",
			"punish(address)": "ea7221a1",
			"punishThreshold()": "cb1ea725",
			"punishValidators(uint256)": "f62af26c",
			"removeThreshold()": "44c1aa99",
			"rewardFund()": "efe22266",
			"stakerPartPercent()": "cd779d21",
			"totalRewards()": "0e15561a",
			"validatorPartPercent()": "42127ee7"
		}
	},
	"abi": [
		{
			"anonymous": false,
			"inputs": [],
			"name": "LogDecreaseMissedBlocksCounter",
			"type": "event"
		},
		{
			"anonymous": false,
			"inputs": [
				{
					"indexed": true,
					"internalType": "address",
					"name": "val",
					"type": "address"
				},
				{
					"indexed": false,
					"internalType": "uint256",
					"name": "time",
					"type": "uint256"
				}
			],
			"name": "LogPunishValidator",
			"type": "event"
		},
		{
			"inputs": [],
			"name": "BronzeValidatorStaking",
			"outputs": [
				{
					"internalType": "uint256",
					"name": "",
					"type": "uint256"
				}
			],
			"stateMutability": "view",
			"type": "function"
		},
		{
			"inputs": [],
			"name": "GoldValidatorStaking",
			"outputs": [
				{
					"internalType": "uint256",
					"name": "",
					"type": "uint256"
				}
			],
			"stateMutability": "view",
			"type": "function"
		},
		{
			"inputs": [],
			"name": "MAX_VALIDATORS_PER_TX",
			"outputs": [
				{
					"internalType": "uint256",
					"name": "",
					"type": "uint256"
				}
			],
			"stateMutability": "view",
			"type": "function"
		},
		{
			"inputs": [],
			"name": "MaxValidators",
			"outputs": [
				{
					"internalType": "uint16",
					"name": "",
					"type": "uint16"
				}
			],
			"stateMutability": "view",
			"type": "function"
		},
		{
			"inputs": [],
			"name": "MinimalStakingCoin",
			"outputs": [
				{
					"internalType": "uint256",
					"name": "",
					"type": "uint256"
				}
			],
			"stateMutability": "view",
			"type": "function"
		},
		{
			"inputs": [],
			"name": "PlatinumValidatorStaking",
			"outputs": [
				{
					"internalType": "uint256",
					"name": "",
					"type": "uint256"
				}
			],
			"stateMutability": "view",
			"type": "function"
		},
		{
			"inputs": [],
			"name": "ProposalAddr",
			"outputs": [
				{
					"internalType": "address",
					"name": "",
					"type": "address"
				}
			],
			"stateMutability": "view",
			"type": "function"
		},
		{
			"inputs": [],
			"name": "PunishContractAddr",
			"outputs": [
				{
					"internalType": "address",
					"name": "",
					"type": "address"
				}
			],
			"stateMutability": "view",
			"type": "function"
		},
		{
			"inputs": [],
			"name": "SilverValidatorStaking",
			"outputs": [
				{
					"internalType": "uint256",
					"name": "",
					"type": "uint256"
				}
			],
			"stateMutability": "view",
			"type": "function"
		},
		{
			"inputs": [],
			"name": "SlashingContractAddr",
			"outputs": [
				{
					"internalType": "address",
					"name": "",
					"type": "address"
				}
			],
			"stateMutability": "view",
			"type": "function"
		},
		{
			"inputs": [],
			"name": "StakingLockPeriod",
			"outputs": [
				{
					"internalType": "uint64",
					"name": "",
					"type": "uint64"
				}
			],
			"stateMutability": "view",
			"type": "function"
		},
		{
			"inputs": [],
			"name": "ValidatorContractAddr",
			"outputs": [
				{
					"internalType": "address payable",
					"name": "",
					"type": "address"
				}
			],
			"stateMutability": "view",
			"type": "function"
		},
		{
			"inputs": [
				{
					"internalType": "address",
					"name": "val",
					"type": "address"
				}
			],
			"name": "cleanPunishRecord",
			"outputs": [
				{
					"internalType": "bool",
					"name": "",
					"type": "bool"
				}
			],
			"stateMutability": "nonpayable",
			"type": "function"
		},
		{
			"inputs": [],
			"name": "creatorPartPercent",
			"outputs": [
				{
					"internalType": "uint256",
					"name": "",
					"type": "uint256"
				}
			],
			"stateMutability": "view",
			"type": "function"
		},
		{
			"inputs": [
				{
					"internalType": "uint256",
					"name": "epoch",
					"type": "uint256"
				}
			],
			"name": "decreaseMissedBlocksCounter",
			"outputs": [],
			"stateMutability": "nonpayable",
			"type": "function"
		},
		{
			"inputs": [],
			"name": "decreaseRate",
			"outputs": [
				{
					"internalType": "uint256",
					"name": "",
					"type": "uint256"
				}
			],
			"stateMutability": "view",
			"type": "function"
		},
		{
			"inputs": [],
			"name": "extraRewardsPerBlock",
			"outputs": [
				{
					"internalType": "uint256",
					"name": "",
					"type": "uint256"
				}
			],
			"stateMutability": "view",
			"type": "function"
		},
		{
			"inputs": [
				{
					"internalType": "address",
					"name": "val",
					"type": "address"
				}
			],
			"name": "getPunishRecord",
			"outputs": [
				{
					"internalType": "uint256",
					"name": "",
					"type": "uint256"
				}
			],
			"stateMutability": "view",
			"type": "function"
		},
		{
			"inputs": [],
			"name": "getPunishValidatorsLen",
			"outputs": [
				{
					"internalType": "uint256",
					"name": "",
					"type": "uint256"
				}
			],
			"stateMutability": "view",
			"type": "function"
		},
		{
			"inputs": [],
			"name": "initialize",
			"outputs": [],
			"stateMutability": "nonpayable",
			"type": "function"
		},
		{
			"inputs": [],
			"name": "initialized",
			"outputs": [
				{
					"internalType": "bool",
					"name": "",
					"type": "bool"
				}
			],
			"stateMutability": "view",
			"type": "function"
		},
		{
			"inputs": [],
			"name": "minimumValidatorStaking",
			"outputs": [
				{
					"internalType": "uint256",
					"name": "",
					"type": "uint256"
				}
			],
			"stateMutability": "view",
			"type": "function"
		},
		{
			"inputs": [
				{
					"internalType": "address",
					"name": "val",
					"type": "address"
				}
			],
			"name": "punish",
			"outputs": [],
			"stateMutability": "nonpayable",
			"type": "function"
		},
		{
			"inputs": [],
			"name": "punishThreshold",
			"outputs": [
				{
					"internalType": "uint256",
					"name": "",
					"type": "uint256"
				}
			],
			"stateMutability": "view",
			"type": "function"
		},
		{
			"inputs": [
				{
					"internalType": "uint256",
					"name": "",
					"type": "uint256"
				}
			],
			"name": "punishValidators",
			"outputs": [
				{
					"internalType": "address",
					"name": "",
					"type": "address"
				}
			],
			"stateMutability": "view",
			"type": "function"
		},
		{
			"inputs": [],
			"name": "removeThreshold",
			"outputs": [
				{
					"internalType": "uint256",
					"name": "",
					"type": "uint256"
				}
			],
			"stateMutability": "view",
			"type": "function"
		},
		{
			"inputs": [],
			"name": "rewardFund",
			"outputs": [
				{
					"internalType": "uint256",
					"name": "",
					"type": "uint256"
				}
			],
			"stateMutability": "view",
			"type": "function"
		},
		{
			"inputs": [],
			"name": "stakerPartPercent",
			"outputs": [
				{
					"internalType": "uint256",
					"name": "",
					"type": "uint256"
				}
			],
			"stateMutability": "view",
			"type": "function"
		},
		{
			"inputs": [],
			"name": "totalRewards",
			"outputs": [
				{
					"internalType": "uint256",
					"name": "",
					"type": "uint256"
				}
			],
			"stateMutability": "view",
			"type": "function"
		},
		{
			"inputs": [],
			"name": "validatorPartPercent",
			"outputs": [
				{
					"internalType": "uint256",
					"name": "",
					"type": "uint256"
				}
			],
			"stateMutability": "view",
			"type": "function"
		}
	]
}