{
	"data": {
		"bytecode": {
			"linkReferences": {},
			"object": "608060405234801561001057600080fd5b50614851806100206000396000f3fe6080604052600436106103385760003560e01c80636846992a116101ab578063a43569b3116100f7578063cad0ebf111610095578063daa77ea21161006f578063daa77ea214610a22578063db78dd2814610a38578063efe2226614610a68578063f2888dbb14610a7e57600080fd5b8063cad0ebf1146109cf578063cd779d21146109ee578063d507488314610a0457600080fd5b8063bb1c0310116100d1578063bb1c03101461094c578063be6456921461095f578063c253c3841461097c578063c967f90f146109a657600080fd5b8063a43569b3146108ea578063afeea11514610917578063b840019b1461092c57600080fd5b80638ae53dbd1161016457806398e3b6261161013e57806398e3b626146108755780639972f0e6146108955780639de70258146108a8578063a224cee7146108ca57600080fd5b80638ae53dbd1461080b5780638b0e9f3f1461082757806392f2c4371461083d57600080fd5b80636846992a146106eb5780636969a25c1461070b57806372d30a701461072b5780637f4f95fa1461074b57806382bd3d92146107b95780638a11d7c9146107d957600080fd5b80633072abe81161028557806340550a1c116102235780634b3d500b116101fd5780634b3d500b146106655780634f6b77f4146106855780635dd09590146106b55780636233be5d146106d557600080fd5b806340550a1c1461060f57806340a141ff1461062f57806342127ee71461064f57600080fd5b80633a061bd31161025f5780633a061bd31461058a5780633ae898ca146105a05780633b5d441e146105c05780633e4208ef146105ed57600080fd5b80633072abe81461051e57806332dc3b9414610533578063346648461461055157600080fd5b80631303f7cf116102f25780631b5e358c116102cc5780631b5e358c146104b5578063222d3b05146104cb57806326476204146104eb578063304623e2146104fe57600080fd5b80631303f7cf14610457578063158ef93e1461046d578063182637b81461048757600080fd5b8062362a771461035c57806301aec704146103915780630976c65d146103d75780630a0b5e51146103d75780630e15561a146103f45780630e72eedf1461040a57600080fd5b3661035757346001600082825461034f9190614044565b925050819055005b600080fd5b34801561036857600080fd5b5061037c61037736600461406c565b610a9e565b60405190151581526020015b60405180910390f35b34801561039d57600080fd5b506103c96103ac366004614089565b600960209081526000928352604080842090915290825290205481565b604051908152602001610388565b3480156103e357600080fd5b506103c968d5f7a0e3e5d2cc000081565b34801561040057600080fd5b506103c960025481565b34801561041657600080fd5b5061044a61042536600461406c565b6001600160a01b0316600090815260036020526040902054600160a81b900460ff1690565b60405161038891906140ec565b34801561046357600080fd5b506103c960085481565b34801561047957600080fd5b5060005461037c9060ff1681565b34801561049357600080fd5b5061049d61f00781565b6040516001600160a01b039091168152602001610388565b3480156104c157600080fd5b5061049d61f00181565b3480156104d757600080fd5b5061037c6104e636600461406c565b610cc1565b61037c6104f936600461406c565b610ef1565b34801561050a57600080fd5b5061044a6105193660046140fa565b611396565b34801561052a57600080fd5b506103c9606481565b34801561053f57600080fd5b506103c969085be3cbc1c8d988000081565b34801561055d57600080fd5b506103c961056c36600461406c565b6001600160a01b031660009081526003602052604090206001015490565b34801561059657600080fd5b5061049d61f00081565b3480156105ac57600080fd5b506103c96105bb366004614089565b6113ec565b3480156105cc57600080fd5b506103c96105db36600461406c565b600a6020526000908152604090205481565b3480156105f957600080fd5b5061060d610608366004614113565b6114d0565b005b34801561061b57600080fd5b5061037c61062a36600461406c565b61179b565b34801561063b57600080fd5b5061060d61064a36600461406c565b611804565b34801561065b57600080fd5b506103c961ea6081565b34801561067157600080fd5b5061049d6106803660046140fa565b6118cf565b34801561069157600080fd5b506106a56106a036600461406c565b6118f9565b604051610388949392919061414f565b3480156106c157600080fd5b5061060d6106d036600461406c565b6119c1565b3480156106e157600080fd5b5061049d61f00281565b3480156106f757600080fd5b5061060d61070636600461425f565b611a15565b34801561071757600080fd5b5061049d6107263660046140fa565b611be6565b34801561073757600080fd5b5061037c61074636600461406c565b611bf6565b34801561075757600080fd5b5061079e610766366004614089565b6001600160a01b0391821660009081526004602090815260408083209390941682529190915220805460018201546002909201549092565b60408051938452602084019290925290820152606001610388565b3480156107c557600080fd5b5061037c6107d436600461406c565b611da9565b3480156107e557600080fd5b506107f96107f436600461406c565b611fe7565b604051610388969594939291906142e8565b34801561081757600080fd5b506103c9670de0b6b3a764000081565b34801561083357600080fd5b506103c960075481565b34801561084957600080fd5b506103c9610858366004614113565b600b60209081526000928352604080842090915290825290205481565b34801561088157600080fd5b5061037c61089036600461406c565b6121e8565b61037c6108a3366004614335565b612248565b3480156108b457600080fd5b506108bd612596565b60405161038891906143ba565b3480156108d657600080fd5b5061060d6108e53660046143cd565b6125f8565b3480156108f657600080fd5b5061090a61090536600461406c565b612a02565b6040516103889190614442565b34801561092357600080fd5b506108bd612bd3565b34801561093857600080fd5b506103c961094736600461406c565b612c33565b61060d61095a366004614490565b612ca2565b34801561096b57600080fd5b506103c96801bc16d674ec80000081565b34801561098857600080fd5b506109916130a4565b60408051928352602083019190915201610388565b3480156109b257600080fd5b506109bc61271081565b60405161ffff9091168152602001610388565b3480156109db57600080fd5b506103c96a0343e33f80dc000ca0000081565b3480156109fa57600080fd5b506103c961753081565b348015610a1057600080fd5b506103c9695396bc536dbd8924000081565b348015610a2e57600080fd5b506103c961271081565b348015610a4457600080fd5b50610a4f6201518081565b60405167ffffffffffffffff9091168152602001610388565b348015610a7457600080fd5b506103c960015481565b348015610a8a57600080fd5b5061037c610a9936600461406c565b6130b9565b600032816001600160a01b038416600090815260036020526040902054600160a01b900460ff166004811115610ad657610ad66140c2565b03610b1e5760405162461bcd60e51b815260206004820152601360248201527215985b1a59185d1bdc881b9bdd08195e1a5cdd606a1b60448201526064015b60405180910390fd5b6001600160a01b03838116600090815260036020526040902054811690821614610ba15760405162461bcd60e51b815260206004820152602e60248201527f596f7520617265206e6f742074686520666565207265636569766572206f662060448201526d3a3434b9903b30b634b230ba37b960911b6064820152608401610b15565b6001600160a01b0383166000908152600360208190526040909120015480610c0b5760405162461bcd60e51b815260206004820152601a60248201527f596f7520646f6e2774206861766520616e792070726f666974730000000000006044820152606401610b15565b6001600160a01b0384166000908152600360208190526040822001558015610c65576040516001600160a01b0383169082156108fc029083906000818181858888f19350505050158015610c63573d6000803e3d6000fd5b505b610c6e84611bf6565b50604080518281524260208201526001600160a01b0380851692908716917f51a69b4502f660774c9339825c7b5adbf0b8622289134647e29728ec5d9b3bb9910160405180910390a35060019392505050565b3260008181526004602081815260408084206001600160a01b03871685528252808420600390925283205492939290918491600160a01b900460ff1690811115610d0d57610d0d6140c2565b03610d505760405162461bcd60e51b81526020600482015260136024820152721d985b1a59185d1bdc881b9bdd08195e1a5cdd606a1b6044820152606401610b15565b8060010154600003610da45760405162461bcd60e51b815260206004820152601960248201527f596f75206861766520746f20756e7374616b65206669727374000000000000006044820152606401610b15565b60018101544390610db9906201518090614044565b1115610e115760405162461bcd60e51b815260206004820152602160248201527f596f7572207374616b696e6720686176656e277420756e6c6f636b65642079656044820152601d60fa1b6064820152608401610b15565b8054610e5a5760405162461bcd60e51b8152602060048201526018602482015277596f7520646f6e2774206861766520616e79207374616b6560401b6044820152606401610b15565b80546000808355600183018190556040516001600160a01b0385169183156108fc02918491818181858888f19350505050158015610e9c573d6000803e3d6000fd5b50604080518281524260208201526001600160a01b0380881692908616917fa70cd94070cd852339a76b32cf2d95a3c8f2a322269163d276071c1c1495561991015b60405180910390a3506001949350505050565b6000805460ff16610f145760405162461bcd60e51b8152600401610b1590614559565b323460016001600160a01b038516600090815260036020526040902054600160a01b900460ff166004811115610f4c57610f4c6140c2565b1480610f8b575060026001600160a01b038516600090815260036020526040902054600160a01b900460ff166004811115610f8957610f896140c2565b145b610fed5760405162461bcd60e51b815260206004820152602d60248201527f43616e2774207374616b6520746f20612076616c696461746f7220696e20616260448201526c6e6f726d616c2073746174757360981b6064820152608401610b15565b6001600160a01b038083166000908152600460209081526040808320938816835292905220600101541561106e5760405162461bcd60e51b815260206004820152602260248201527f43616e2774207374616b65207768656e20796f752061726520756e7374616b696044820152616e6760f01b6064820152608401610b15565b6001600160a01b038416600090815260036020526040902060018101546801bc16d674ec800000906110a1908490614044565b10156110ef5760405162461bcd60e51b815260206004820152601860248201527f5374616b696e6720636f696e73206e6f7420656e6f75676800000000000000006044820152606401610b15565b6001600160a01b0380841660009081526004602090815260408083209389168352929052908120549003611208576001600160a01b0380841660009081526004602090815260408083209389168352929052908120600201549003611203576005810180546001600160a01b038086166000818152600460209081526040808320948c1680845294825280832060020186905560018601875595825280822090940180546001600160a01b031916909217909155908152600a9091529081205490036111d1576001600160a01b0385166000908152600a602052604090204290555b6001600160a01b038086166000818152600a602090815260408083205494881683526009825280832093835292905220555b611213565b61121185611bf6565b505b8181600101546112239190614044565b600182015560028154600160a01b900460ff166004811115611247576112476140c2565b1461125e57805460ff60a01b1916600160a11b1781555b6112678561353b565b6801bc16d674ec80000081600101541015801561128a57506112888561179b565b155b156112db57600580546001810182556000919091527f036b6384b5eca791c62761152d0c79bb0604c104a5fb6f4eb0703f3154bb3db00180546001600160a01b0319166001600160a01b0387161790555b6112e98582600101546135ae565b6001600160a01b0380841660009081526004602090815260408083209389168352929052205461131a908390614044565b6001600160a01b038085166000908152600460209081526040808320938a168352929052205560075461134e908390614044565b600755604080518381524260208201526001600160a01b0380881692908616917fb9ba725934532316cffe10975da6eb25ad49c2d1c294d982c46c9f8d684ee0759101610ede565b60006a0343e33f80dc000ca0000082106113b257506003919050565b695396bc536dbd8924000082106113cb57506002919050565b69085be3cbc1c8d988000082106113e457506001919050565b506000919050565b6001600160a01b038082166000818152600b60209081526040808320948716835260098252808320848452825280832054835284825280832054938352600a82528083205483529390529182205482916114459161457f565b905080156114c4576001600160a01b038085166000908152600460209081526040808320938716835292815290829020825160608101845281548082526001830154938201939093526002909101549281019290925268056bc75e2d63100000906114b1908490614592565b6114bb91906145bf565b925050506114ca565b60009150505b92915050565b3361f0071461151a5760405162461bcd60e51b8152602060048201526016602482015275536c617368696e6720636f6e7472616374206f6e6c7960501b6044820152606401610b15565b60006001600160a01b038316600090815260036020526040902054600160a01b900460ff166004811115611550576115506140c2565b0361159d5760405162461bcd60e51b815260206004820152601860248201527f56616c696461746f7220646f6573206e6f7420657869737400000000000000006044820152606401610b15565b600081116115f95760405162461bcd60e51b815260206004820152602360248201527f536c61736820616d6f756e74206d75737420626520677265617465722074686160448201526206e20360ec1b6064820152608401610b15565b6001600160a01b0382166000908152600360205260409020600101548111156116645760405162461bcd60e51b815260206004820152601b60248201527f496e73756666696369656e74207374616b6520746f20736c61736800000000006044820152606401610b15565b6001600160a01b0382166000908152600360205260408120600101805483929061168f90849061457f565b9250508190555080600760008282546116a8919061457f565b909155506116b790508261353b565b6001600160a01b0382166000908152600360205260409020600101546801bc16d674ec80000011801561171e575060046001600160a01b038316600090815260036020526040902054600160a01b900460ff16600481111561171b5761171b6140c2565b14155b15611755576001600160a01b0382166000908152600360205260409020805460ff60a01b1916600360a01b17905561175582613878565b60405173d1d6e4f8777393ac4de10067ef6073048da0607d9082156108fc029083906000818181858888f19350505050158015611796573d6000803e3d6000fd5b505050565b6000805b6005548110156117fb57826001600160a01b0316600582815481106117c6576117c66145d3565b6000918252602090912001546001600160a01b0316036117e95750600192915050565b806117f3816145e9565b91505061179f565b50600092915050565b3361f0011461184c5760405162461bcd60e51b815260206004820152601460248201527350756e69736820636f6e7472616374206f6e6c7960601b6044820152606401610b15565b6001600160a01b03811660009081526003602081905260409091200154611872826139d7565b600654600110156118cb5761188682613af1565b604080518281524260208201526001600160a01b038416917fa26de7ab324eac08c596549f421e5c8741213d237d2e9a2c9c0ebde0a7a849fe91015b60405180910390a25b5050565b600681815481106118df57600080fd5b6000918252602090912001546001600160a01b0316905081565b6001600160a01b0381811660008181526003602052604080822060010154600c5491516332f3c17f60e01b815260048101949094529193849384938493909216906332f3c17f90602401602060405180830381865afa158015611960573d6000803e3d6000fd5b505050506040513d601f19601f820116820180604052508101906119849190614602565b6001600160a01b038716600090815260036020526040902054919550935060ff600160a81b820481169350600160a01b9091041690509193509193565b3361f00114611a095760405162461bcd60e51b815260206004820152601460248201527350756e69736820636f6e7472616374206f6e6c7960601b6044820152606401610b15565b611a12816139d7565b50565b334114611a515760405162461bcd60e51b815260206004820152600a6024820152694d696e6572206f6e6c7960b01b6044820152606401610b15565b436000908152600d602090815260408083206001845290915290205460ff1615611abd5760405162461bcd60e51b815260206004820152601a60248201527f56616c696461746f727320616c726561647920757064617465640000000000006044820152606401610b15565b60005460ff16611adf5760405162461bcd60e51b8152600401610b1590614559565b80611aea814361461b565b15611b2a5760405162461bcd60e51b815260206004820152601060248201526f426c6f636b2065706f6368206f6e6c7960801b6044820152606401610b15565b436000908152600d6020908152604080832060018085529252909120805460ff191690911790558251611b965760405162461bcd60e51b815260206004820152601460248201527356616c696461746f722073657420656d7074792160601b6044820152606401610b15565b8251611ba9906005906020860190613fb4565b507feacea8f3c22f06c0b18306bdb04d0a967255129e8ce0094debb0a0ff89d006b583604051611bd991906143ba565b60405180910390a1505050565b600581815481106118df57600080fd5b3260009081526009602090815260408083206001600160a01b0385168452909152812054611c575760405162461bcd60e51b815260206004820152600e60248201526d1b9bdd1a1a5b99c81cdd185ad95960921b6044820152606401610b15565b3260008181526004602090815260408083206001600160a01b038716808552908352818420600b845282852095855260098452828520828652845282852054855285845282852054918552600a845282852054855294909252822054611cbd919061457f565b90508015611d9f57600068056bc75e2d63100000828460000154611ce19190614592565b611ceb91906145bf565b6001600160a01b0386166000818152600a60209081526040808320543280855260098452828520958552949092528083209190915551929350909183156108fc0291849190818181858888f19350505050158015611d4d573d6000803e3d6000fd5b50604080513281526001600160a01b03871660208201529081018290524260608201527f7daf1212d032f2f66db6dbb919bbd591be3d954b5b6ee491709cbb5fbe4f51709060800160405180910390a1505b5060019392505050565b60003361f00214611df55760405162461bcd60e51b815260206004820152601660248201527550726f706f73616c20636f6e7472616374206f6e6c7960501b6044820152606401610b15565b60005460ff16611e175760405162461bcd60e51b8152600401610b1590614559565b60036001600160a01b038316600090815260036020526040902054600160a01b900460ff166004811115611e4d57611e4d6140c2565b14158015611e8f575060046001600160a01b038316600090815260036020526040902054600160a01b900460ff166004811115611e8c57611e8c6140c2565b14155b15611e9c57506001919050565b60046001600160a01b038316600090815260036020526040902054600160a01b900460ff166004811115611ed257611ed26140c2565b03611f8257600c546040516363e1d45160e01b81526001600160a01b038481166004830152909116906363e1d451906024016020604051808303816000875af1158015611f23573d6000803e3d6000fd5b505050506040513d601f19601f82011682018060405250810190611f47919061462f565b611f825760405162461bcd60e51b815260206004820152600c60248201526b18db19585b8819985a5b195960a21b6044820152606401610b15565b6001600160a01b038216600081815260036020908152604091829020805460ff60a01b1916600160a01b17905590514281527fd8b2c426ec1be69ca7583d26b1e893946e3227430d3ebc3bd64d9e1c469cb400910160405180910390a2506001919050565b6001600160a01b0381811660009081526003602090815260408083208151610100810190925280549485168252929384938493849384936060938593909190830190600160a01b900460ff166004811115612044576120446140c2565b6004811115612055576120556140c2565b81528154602090910190600160a81b900460ff16600381111561207a5761207a6140c2565b600381111561208b5761208b6140c2565b815260200160018201548152602001600282016040518060200160405290816000820180546120b990614651565b80601f01602080910402602001604051908101604052809291908181526020018280546120e590614651565b80156121325780601f1061210757610100808354040283529160200191612132565b820191906000526020600020905b81548152906001019060200180831161211557829003601f168201915b50505050508152505081526020016003820154815260200160048201548152602001600582018054806020026020016040519081016040528092919081815260200182805480156121ac57602002820191906000526020600020905b81546001600160a01b0316815260019091019060200180831161218e575b50505091909252505081516020830151606084015160a085015160c086015160e090960151939e929d50909b5099509297509550909350505050565b6000805b6006548110156117fb57826001600160a01b031660068281548110612213576122136145d3565b6000918252602090912001546001600160a01b0316036122365750600192915050565b80612240816145e9565b9150506121ec565b6000805460ff1661226b5760405162461bcd60e51b8152600401610b1590614559565b6001600160a01b0384166122b75760405162461bcd60e51b8152602060048201526013602482015272496e76616c696420666565206164647265737360681b6044820152606401610b15565b60468211156123015760405162461bcd60e51b8152602060048201526016602482015275092dcecc2d8d2c840dadedcd2d6cae440d8cadccee8d60531b6044820152606401610b15565b326000818152600360205260408120548190600160a01b900460ff16600481111561232e5761232e6140c2565b0361236457506001600160a01b0381166000908152600360205260409020805460ff60a01b1916600160a01b1790556001612375565b34156123755760009250505061258f565b6001600160a01b038281166000908152600360205260409020548116908716146123c8576001600160a01b03828116600090815260036020526040902080546001600160a01b0319169188169190911790555b604080516020601f8701819004810282018301835281018681529091829190889088908190850183828082843760009201829052509390945250506001600160a01b0385168152600360205260409020825160029091019150819061242d90826146d9565b50905050801561253a5768d5f7a0e3e5d2cc00003410156124905760405162461bcd60e51b815260206004820152601860248201527f496e76616c69642076616c696461746f7220616d6f756e7400000000000000006044820152606401610b15565b61249934611396565b6001600160a01b03831660009081526003602081905260409091208054909160ff60a81b1990911690600160a81b9084908111156124d9576124d96140c2565b02179055506124e782610ef1565b50856001600160a01b0316826001600160a01b03167f887eec9d757b7247dd8e51198f9d1b8f27979bceb34bdcc1bffd4ec5ec736c224260405161252d91815260200190565b60405180910390a3612588565b856001600160a01b0316826001600160a01b03167fb8421f65501371f54d58de1937ff1e1ccdb76423ef6f84acea1814a0f6362ca04260405161257f91815260200190565b60405180910390a35b6001925050505b9392505050565b606060058054806020026020016040519081016040528092919081815260200182805480156125ee57602002820191906000526020600020905b81546001600160a01b031681526001909101906020018083116125d0575b5050505050905090565b60005460ff16156126415760405162461bcd60e51b8152602060048201526013602482015272105b1c9958591e481a5b9a5d1a585b1a5e9959606a1b6044820152606401610b15565b600c80546001600160a01b03191661f00117905560005b818110156129f0576000838383818110612674576126746145d3565b9050602002016020810190612689919061406c565b6001600160a01b0316036126df5760405162461bcd60e51b815260206004820152601960248201527f496e76616c69642076616c696461746f722061646472657373000000000000006044820152606401610b15565b42600a60008585858181106126f6576126f66145d3565b905060200201602081019061270b919061406c565b6001600160a01b0316815260208101919091526040016000205561274f83838381811061273a5761273a6145d3565b905060200201602081019061062a919061406c565b6127af576005838383818110612767576127676145d3565b905060200201602081019061277c919061406c565b81546001810183556000928352602090922090910180546001600160a01b0319166001600160a01b039092169190911790555b6127d98383838181106127c4576127c46145d3565b9050602002016020810190610890919061406c565b6128395760068383838181106127f1576127f16145d3565b9050602002016020810190612806919061406c565b81546001810183556000928352602090922090910180546001600160a01b0319166001600160a01b039092169190911790555b6000600381858585818110612850576128506145d3565b9050602002016020810190612865919061406c565b6001600160a01b039081168252602082019290925260400160002054160361290b57828282818110612899576128996145d3565b90506020020160208101906128ae919061406c565b600360008585858181106128c4576128c46145d3565b90506020020160208101906128d9919061406c565b6001600160a01b039081168252602082019290925260400160002080546001600160a01b031916929091169190911790555b600060036000858585818110612923576129236145d3565b9050602002016020810190612938919061406c565b6001600160a01b03168152602081019190915260400160002054600160a01b900460ff16600481111561296d5761296d6140c2565b036129de5760026003600085858581811061298a5761298a6145d3565b905060200201602081019061299f919061406c565b6001600160a01b031681526020810191909152604001600020805460ff60a01b1916600160a01b8360048111156129d8576129d86140c2565b02179055505b806129e8816145e9565b915050612658565b50506000805460ff1916600117905550565b6001600160a01b03818116600090815260036020908152604080832081516101008101909252805494851682526060949192909190830190600160a01b900460ff166004811115612a5557612a556140c2565b6004811115612a6657612a666140c2565b81528154602090910190600160a81b900460ff166003811115612a8b57612a8b6140c2565b6003811115612a9c57612a9c6140c2565b81526020016001820154815260200160028201604051806020016040529081600082018054612aca90614651565b80601f0160208091040260200160405190810160405280929190818152602001828054612af690614651565b8015612b435780601f10612b1857610100808354040283529160200191612b43565b820191906000526020600020905b815481529060010190602001808311612b2657829003601f168201915b5050505050815250508152602001600382015481526020016004820154815260200160058201805480602002602001604051908101604052809291908181526020018280548015612bbd57602002820191906000526020600020905b81546001600160a01b03168152600190910190602001808311612b9f575b5050509190925250505060800151519392505050565b606060068054806020026020016040519081016040528092919081815260200182805480156125ee576020028201919060005260206000209081546001600160a01b031681526001909101906020018083116125d0575050505050905090565b600c546040516332f3c17f60e01b81526001600160a01b03838116600483015260009216906332f3c17f90602401602060405180830381865afa158015612c7e573d6000803e3d6000fd5b505050506040513d601f19601f820116820180604052508101906114ca9190614602565b334114612cde5760405162461bcd60e51b815260206004820152600a6024820152694d696e6572206f6e6c7960b01b6044820152606401610b15565b436000908152600d6020908152604080832083805290915290205460ff1615612d495760405162461bcd60e51b815260206004820152601960248201527f426c6f636b20697320616c7265616479207265776172646564000000000000006044820152606401610b15565b60005460ff16612d6b5760405162461bcd60e51b8152600401610b1590614559565b60055460641015612dd15760405162461bcd60e51b815260206004820152602a60248201527f546f6f206d616e792076616c696461746f727320666f722073696e676c6520746044820152693930b739b0b1ba34b7b760b11b6064820152608401610b15565b436000908152600d602090815260408083208380529091528120805460ff19166001179055339034908190620186a0612e0c61ea6084614592565b612e1691906145bf565b9050612e22818361457f565b91506000620186a0612e3661271086614592565b612e4091906145bf565b9050612e4c818461457f565b92508015612e975760405173d1d6e4f8777393ac4de10067ef6073048da0607d9082156108fc029083906000818181858888f19350505050158015612e95573d6000803e3d6000fd5b505b6001600160a01b0385166000818152600b60209081526040808320600a83528184208054855290835281842054948452429055600390915290206001015415612f4d576001600160a01b038616600090815260036020526040902060010154612f098568056bc75e2d63100000614592565b612f1391906145bf565b612f1d9082614044565b6001600160a01b0387166000908152600b60209081526040808320600a8352818420548452909152902055612f87565b6001600160a01b0386166000908152600b60209081526040808320600a83528184205484529091529020819055612f848484614044565b92505b60006001600160a01b038716600090815260036020526040902054600160a01b900460ff166004811115612fbd57612fbd6140c2565b03612fcc575050505050505050565b670de0b6b3a764000060015410158015612fed5750670de0b6b3a764000047115b1561304857670de0b6b3a76400006001600082825461300c919061457f565b92505081905550670de0b6b3a76400006002600082825461302d9190614044565b909155506130459050670de0b6b3a764000084614044565b92505b613053836000613b61565b856001600160a01b03167f1d6ce8f9f300ecd90371399ce90da8388bba45019701a1fd6d6ee08ea580077684428b8b6040516130929493929190614799565b60405180910390a25050505050505050565b6000806130b16000613e9c565b915091509091565b6000805460ff166130dc5760405162461bcd60e51b8152600401610b1590614559565b3260006001600160a01b038416600090815260036020526040902054600160a01b900460ff166004811115613113576131136140c2565b036131565760405162461bcd60e51b815260206004820152601360248201527215985b1a59185d1bdc881b9bdd08195e1a5cdd606a1b6044820152606401610b15565b6001600160a01b0380821660009081526004602090815260408083209387168352928152828220600390915291902081546001830154156131e55760405162461bcd60e51b815260206004820152602360248201527f596f752061726520616c726561647920696e20756e7374616b696e672073746160448201526274757360e81b6064820152608401610b15565b600081116132305760405162461bcd60e51b8152602060048201526018602482015277596f7520646f6e2774206861766520616e79207374616b6560401b6044820152606401610b15565b60065460011480156132465750613246866121e8565b801561326957506801bc16d674ec800000818360010154613267919061457f565b105b156132ea5760405162461bcd60e51b815260206004820152604560248201527f596f752063616e277420756e7374616b652c2076616c696461746f72206c697360448201527f742077696c6c20626520656d7074792061667465722074686973206f7065726160648201526474696f6e2160d81b608482015260a401610b15565b60058201546132fb9060019061457f565b8360020154146133e7576005820180546133179060019061457f565b81548110613327576133276145d3565b9060005260206000200160009054906101000a90046001600160a01b03168260050184600201548154811061335e5761335e6145d3565b9060005260206000200160006101000a8154816001600160a01b0302191690836001600160a01b03160217905550826002015460046000846005018660020154815481106133ae576133ae6145d3565b60009182526020808320909101546001600160a01b0390811684528382019490945260409283018220938b168252929092529020600201555b816005018054806133fa576133fa614805565b600082815260209020810160001990810180546001600160a01b0319169055019055600182015461342c90829061457f565b60018084019190915543908401556000600284015560075461344f90829061457f565b60075560018201546801bc16d674ec8000001180156134a2575060046001600160a01b038716600090815260036020526040902054600160a01b900460ff16600481111561349f5761349f6140c2565b14155b156134c157815460ff60a01b1916600360a01b1782556134c186613878565b6134ca86611bf6565b506001600160a01b038481166000818152600960209081526040808320948b1680845294825280832092909255815185815242918101919091527f449002ae18e748d69a55f38514400d64f966492e593e32d6e9b8b24db98a0bc1910160405180910390a350600195945050505050565b6001600160a01b03811660009081526003602052604081206001015461356090611396565b6001600160a01b038316600090815260036020819052604090912080549293508392909160ff60a81b1990911690600160a81b9084908111156135a5576135a56140c2565b02179055505050565b60005b60065481101561360957826001600160a01b0316600682815481106135d8576135d86145d3565b6000918252602090912001546001600160a01b0316036135f757505050565b80613601816145e9565b9150506135b1565b50600654612710111561369457600680546001810182556000919091527ff652222313e28459528d920b65115c16c04f3efc82aaedc97be59f3f377c0d3f0180546001600160a01b0319166001600160a01b0384169081179091556040514281527f1e3310ad6891b30e03874ec3d1422a6386c5da63d9faf595f5d99eeaf443b99a906020016118c2565b60006003600060066000815481106136ae576136ae6145d3565b60009182526020808320909101546001600160a01b03168352820192909252604001812060019081015492505b600654811015613782578260036000600684815481106136fd576136fd6145d3565b60009182526020808320909101546001600160a01b031683528201929092526040019020600101541015613770576003600060068381548110613742576137426145d3565b60009182526020808320909101546001600160a01b0316835282019290925260400190206001015492509050805b8061377a816145e9565b9150506136db565b508183116137905750505050565b836001600160a01b03167f1e3310ad6891b30e03874ec3d1422a6386c5da63d9faf595f5d99eeaf443b99a426040516137cb91815260200190565b60405180910390a2600681815481106137e6576137e66145d3565b600091825260209182902001546040514281526001600160a01b03909116917f7521e44559c870c316e84e60bc4785d9c034a8ab1d6acdce8134ac03f946c6ed910160405180910390a28360068281548110613844576138446145d3565b9060005260206000200160006101000a8154816001600160a01b0302191690836001600160a01b0316021790555050505050565b60005b6006548110801561388e57506006546001105b156118cb57600681815481106138a6576138a66145d3565b6000918252602090912001546001600160a01b03908116908316036139c5576006546138d49060019061457f565b811461395557600680546138ea9060019061457f565b815481106138fa576138fa6145d3565b600091825260209091200154600680546001600160a01b039092169183908110613926576139266145d3565b9060005260206000200160006101000a8154816001600160a01b0302191690836001600160a01b031602179055505b600680548061396657613966614805565b600082815260209020810160001990810180546001600160a01b03191690550190556040516001600160a01b038316907f7521e44559c870c316e84e60bc4785d9c034a8ab1d6acdce8134ac03f946c6ed906118c29042815260200190565b806139cf816145e9565b91505061387b565b60006001600160a01b038216600090815260036020526040902054600160a01b900460ff166004811115613a0d57613a0d6140c2565b1480613a1c5750600554600110155b15613a245750565b6001600160a01b038116600090815260036020819052604090912001548015613ab157613a518183613b61565b80600854613a5f9190614044565b6008556001600160a01b038216600090815260036020526040902060040154613a89908290614044565b6001600160a01b03831660009081526003602081905260408220600481019390935591909101555b604080518281524260208201526001600160a01b038416917fe294e9d73f8eee23e21b2e1567960625a6b5d339cb127b55d0d09473a995123591016118c2565b60006001600160a01b038216600090815260036020526040902054600160a01b900460ff166004811115613b2757613b276140c2565b03613b2f5750565b6001600160a01b0381166000908152600360205260409020805460ff60a01b1916600160a21b179055611a1281613878565b81600003613b6d575050565b600080613b7983613e9c565b90925090506000819003613b8d5750505050565b60008083600003613d19576000613ba484886145bf565b9050613bb08482614592565b613bba908861457f565b925060005b600554811015613cac57600060058281548110613bde57613bde6145d3565b6000918252602090912001546001600160a01b0316905060046001600160a01b038216600090815260036020526040902054600160a01b900460ff166004811115613c2b57613c2b6140c2565b14158015613c4b5750876001600160a01b0316816001600160a01b031614155b15613c99576001600160a01b03811660009081526003602081905260409091200154613c78908490614044565b6001600160a01b038216600090815260036020819052604090912001559250825b5080613ca4816145e9565b915050613bbf565b50600083118015613cc557506001600160a01b03821615155b15613d10576001600160a01b03821660009081526003602081905260409091200154613cf2908490614044565b6001600160a01b038316600090815260036020819052604090912001555b50505050505050565b6000805b600554811015613e4d57600060058281548110613d3c57613d3c6145d3565b6000918252602090912001546001600160a01b0316905060046001600160a01b038216600090815260036020526040902054600160a01b900460ff166004811115613d8957613d896140c2565b14158015613da95750876001600160a01b0316816001600160a01b031614155b15613e3a576001600160a01b0381166000908152600360205260408120600101548890613dd6908c614592565b613de091906145bf565b9050613dec8185614044565b6001600160a01b0383166000908152600360208190526040909120015492955093508491613e1b908290614044565b6001600160a01b03831660009081526003602081905260409091200155505b5080613e45816145e9565b915050613d1d565b50613e58818861457f565b9250600083118015613cc557506001600160a01b03821615613d10576001600160a01b03821660009081526003602081905260409091200154613cf2908490614044565b60008060005b600554811015613fae5760046003600060058481548110613ec557613ec56145d3565b60009182526020808320909101546001600160a01b0316835282019290925260400190205460ff600160a01b909104166004811115613f0657613f066140c2565b14158015613f3e575060058181548110613f2257613f226145d3565b6000918252602090912001546001600160a01b03858116911614155b15613f9c576003600060058381548110613f5a57613f5a6145d3565b60009182526020808320909101546001600160a01b03168352820192909252604001902060010154613f8c9084614044565b925081613f98816145e9565b9250505b80613fa6816145e9565b915050613ea2565b50915091565b828054828255906000526020600020908101928215614009579160200282015b8281111561400957825182546001600160a01b0319166001600160a01b03909116178255602090920191600190910190613fd4565b50614015929150614019565b5090565b5b80821115614015576000815560010161401a565b634e487b7160e01b600052601160045260246000fd5b808201808211156114ca576114ca61402e565b6001600160a01b0381168114611a1257600080fd5b60006020828403121561407e57600080fd5b813561258f81614057565b6000806040838503121561409c57600080fd5b82356140a781614057565b915060208301356140b781614057565b809150509250929050565b634e487b7160e01b600052602160045260246000fd5b600481106140e8576140e86140c2565b9052565b602081016114ca82846140d8565b60006020828403121561410c57600080fd5b5035919050565b6000806040838503121561412657600080fd5b823561413181614057565b946020939093013593505050565b600581106140e8576140e86140c2565b848152602081018490526080810161416a60408301856140d8565b614177606083018461413f565b95945050505050565b634e487b7160e01b600052604160045260246000fd5b604051601f8201601f1916810167ffffffffffffffff811182821017156141bf576141bf614180565b604052919050565b600067ffffffffffffffff8211156141e1576141e1614180565b5060051b60200190565b600082601f8301126141fc57600080fd5b8135602061421161420c836141c7565b614196565b82815260059290921b8401810191818101908684111561423057600080fd5b8286015b8481101561425457803561424781614057565b8352918301918301614234565b509695505050505050565b6000806040838503121561427257600080fd5b823567ffffffffffffffff81111561428957600080fd5b614295858286016141eb565b95602094909401359450505050565b600081518084526020808501945080840160005b838110156142dd5781516001600160a01b0316875295820195908201906001016142b8565b509495945050505050565b6001600160a01b0387168152614301602082018761413f565b84604082015283606082015282608082015260c060a0820152600061432960c08301846142a4565b98975050505050505050565b60008060006040848603121561434a57600080fd5b833561435581614057565b9250602084013567ffffffffffffffff8082111561437257600080fd5b818601915086601f83011261438657600080fd5b81358181111561439557600080fd5b8760208285010111156143a757600080fd5b6020830194508093505050509250925092565b60208152600061258f60208301846142a4565b600080602083850312156143e057600080fd5b823567ffffffffffffffff808211156143f857600080fd5b818501915085601f83011261440c57600080fd5b81358181111561441b57600080fd5b8660208260051b850101111561443057600080fd5b60209290920196919550909350505050565b600060208083528351808285015260005b8181101561446f57858101830151858201604001528201614453565b506000604082860101526040601f19601f8301168501019250505092915050565b600080604083850312156144a357600080fd5b823567ffffffffffffffff808211156144bb57600080fd5b6144c7868387016141eb565b93506020915081850135818111156144de57600080fd5b8501601f810187136144ef57600080fd5b80356144fd61420c826141c7565b81815260059190911b8201840190848101908983111561451c57600080fd5b928501925b82841015614549578335858116811461453a5760008081fd5b82529285019290850190614521565b8096505050505050509250929050565b6020808252600c908201526b139bdd081a5b9a5d081e595d60a21b604082015260600190565b818103818111156114ca576114ca61402e565b80820281158282048414176114ca576114ca61402e565b634e487b7160e01b600052601260045260246000fd5b6000826145ce576145ce6145a9565b500490565b634e487b7160e01b600052603260045260246000fd5b6000600182016145fb576145fb61402e565b5060010190565b60006020828403121561461457600080fd5b5051919050565b60008261462a5761462a6145a9565b500690565b60006020828403121561464157600080fd5b8151801515811461258f57600080fd5b600181811c9082168061466557607f821691505b60208210810361468557634e487b7160e01b600052602260045260246000fd5b50919050565b601f82111561179657600081815260208120601f850160051c810160208610156146b25750805b601f850160051c820191505b818110156146d1578281556001016146be565b505050505050565b815167ffffffffffffffff8111156146f3576146f3614180565b614707816147018454614651565b8461468b565b602080601f83116001811461473c57600084156147245750858301515b600019600386901b1c1916600185901b1785556146d1565b600085815260208120601f198616915b8281101561476b5788860151825594840194600190910190840161474c565b50858210156147895787850151600019600388901b60f8161c191681555b5050505050600190811b01905550565b848152600060208581840152608060408401526147b960808401866142a4565b838103606085015284518082528286019183019060005b818110156147f657835167ffffffffffffffff16835292840192918401916001016147d0565b50909998505050505050505050565b634e487b7160e01b600052603160045260246000fdfea2646970667358221220b6645a65255cee280e117190eeaee4637b3345d78e8f82e1c8fc87227806527564736f6c63430008110033",
			"opcodes": "PUSH1 0x80 PUSH1 0x40 MSTORE CALLVALUE DUP1 ISZERO PUSH2 0x10 JUMPI PUSH1 0x0 DUP1 REVERT JUMPDEST POP PUSH2 0x4851 DUP1 PUSH2 0x20 PUSH1 0x0 CODECOPY PUSH1 0x0 RETURN INVALID PUSH1 0x80 PUSH1 0x40 MSTORE PUSH1 0x4 CALLDATASIZE LT PUSH2 0x338 JUMPI PUSH1 0x0 CALLDATALOAD PUSH1 0xE0 SHR DUP1 PUSH4 0x6846992A GT PUSH2 0x1AB JUMPI DUP1 PUSH4 0xA43569B3 GT PUSH2 0xF7 JUMPI DUP1 PUSH4 0xCAD0EBF1 GT PUSH2 0x95 JUMPI DUP1 PUSH4 0xDAA77EA2 GT PUSH2 0x6F JUMPI DUP1 PUSH4 0xDAA77EA2 EQ PUSH2 0xA22 JUMPI DUP1 PUSH4 0xDB78DD28 EQ PUSH2 0xA38 JUMPI DUP1 PUSH4 0xEFE22266 EQ PUSH2 0xA68 JUMPI DUP1 PUSH4 0xF2888DBB EQ PUSH2 0xA7E JUMPI PUSH1 0x0 DUP1 REVERT JUMPDEST DUP1 PUSH4 0xCAD0EBF1 EQ PUSH2 0x9CF JUMPI DUP1 PUSH4 0xCD779D21 EQ PUSH2 0x9EE JUMPI DUP1 PUSH4 0xD5074883 EQ PUSH2 0xA04 JUMPI PUSH1 0x0 DUP1 REVERT JUMPDEST DUP1 PUSH4 0xBB1C0310 GT PUSH2 0xD1 JUMPI DUP1 PUSH4 0xBB1C0310 EQ PUSH2 0x94C JUMPI DUP1 PUSH4 0xBE645692 EQ PUSH2 0x95F JUMPI DUP1 PUSH4 0xC253C384 EQ PUSH2 0x97C JUMPI DUP1 PUSH4 0xC967F90F EQ PUSH2 0x9A6 JUMPI PUSH1 0x0 DUP1 REVERT JUMPDEST DUP1 PUSH4 0xA43569B3 EQ PUSH2 0x8EA JUMPI DUP1 PUSH4 0xAFEEA115 EQ PUSH2 0x917 JUMPI DUP1 PUSH4 0xB840019B EQ PUSH2 0x92C JUMPI PUSH1 0x0 DUP1 REVERT JUMPDEST DUP1 PUSH4 0x8AE53DBD GT PUSH2 0x164 JUMPI DUP1 PUSH4 0x98E3B626 GT PUSH2 0x13E JUMPI DUP1 PUSH4 0x98E3B626 EQ PUSH2 0x875 JUMPI DUP1 PUSH4 0x9972F0E6 EQ PUSH2 0x895 JUMPI DUP1 PUSH4 0x9DE70258 EQ PUSH2 0x8A8 JUMPI DUP1 PUSH4 0xA224CEE7 EQ PUSH2 0x8CA JUMPI PUSH1 0x0 DUP1 REVERT JUMPDEST DUP1 PUSH4 0x8AE53DBD EQ PUSH2 0x80B JUMPI DUP1 PUSH4 0x8B0E9F3F EQ PUSH2 0x827 JUMPI DUP1 PUSH4 0x92F2C437 EQ PUSH2 0x83D JUMPI PUSH1 0x0 DUP1 REVERT JUMPDEST DUP1 PUSH4 0x6846992A EQ PUSH2 0x6EB JUMPI DUP1 PUSH4 0x6969A25C EQ PUSH2 0x70B JUMPI DUP1 PUSH4 0x72D30A70 EQ PUSH2 0x72B JUMPI DUP1 PUSH4 0x7F4F95FA EQ PUSH2 0x74B JUMPI DUP1 PUSH4 0x82BD3D92 EQ PUSH2 0x7B9 JUMPI DUP1 PUSH4 0x8A11D7C9 EQ PUSH2 0x7D9 JUMPI PUSH1 0x0 DUP1 REVERT JUMPDEST DUP1 PUSH4 0x3072ABE8 GT PUSH2 0x285 JUMPI DUP1 PUSH4 0x40550A1C GT PUSH2 0x223 JUMPI DUP1 PUSH4 0x4B3D500B GT PUSH2 0x1FD JUMPI DUP1 PUSH4 0x4B3D500B EQ PUSH2 0x665 JUMPI DUP1 PUSH4 0x4F6B77F4 EQ PUSH2 0x685 JUMPI DUP1 PUSH4 0x5DD09590 EQ PUSH2 0x6B5 JUMPI DUP1 PUSH4 0x6233BE5D EQ PUSH2 0x6D5 JUMPI PUSH1 0x0 DUP1 REVERT JUMPDEST DUP1 PUSH4 0x40550A1C EQ PUSH2 0x60F JUMPI DUP1 PUSH4 0x40A141FF EQ PUSH2 0x62F JUMPI DUP1 PUSH4 0x42127EE7 EQ PUSH2 0x64F JUMPI PUSH1 0x0 DUP1 REVERT JUMPDEST DUP1 PUSH4 0x3A061BD3 GT PUSH2 0x25F JUMPI DUP1 PUSH4 0x3A061BD3 EQ PUSH2 0x58A JUMPI DUP1 PUSH4 0x3AE898CA EQ PUSH2 0x5A0 JUMPI DUP1 PUSH4 0x3B5D441E EQ PUSH2 0x5C0 JUMPI DUP1 PUSH4 0x3E4208EF EQ PUSH2 0x5ED JUMPI PUSH1 0x0 DUP1 REVERT JUMPDEST DUP1 PUSH4 0x3072ABE8 EQ PUSH2 0x51E JUMPI DUP1 PUSH4 0x32DC3B94 EQ PUSH2 0x533 JUMPI DUP1 PUSH4 0x34664846 EQ PUSH2 0x551 JUMPI PUSH1 0x0 DUP1 REVERT JUMPDEST DUP1 PUSH4 0x1303F7CF GT PUSH2 0x2F2 JUMPI DUP1 PUSH4 0x1B5E358C GT PUSH2 0x2CC JUMPI DUP1 PUSH4 0x1B5E358C EQ PUSH2 0x4B5 JUMPI DUP1 PUSH4 0x222D3B05 EQ PUSH2 0x4CB JUMPI DUP1 PUSH4 0x26476204 EQ PUSH2 0x4EB JUMPI DUP1 PUSH4 0x304623E2 EQ PUSH2 0x4FE JUMPI PUSH1 0x0 DUP1 REVERT JUMPDEST DUP1 PUSH4 0x1303F7CF EQ PUSH2 0x457 JUMPI DUP1 PUSH4 0x158EF93E EQ PUSH2 0x46D JUMPI DUP1 PUSH4 0x182637B8 EQ PUSH2 0x487 JUMPI PUSH1 0x0 DUP1 REVERT JUMPDEST DUP1 PUSH3 0x362A77 EQ PUSH2 0x35C JUMPI DUP1 PUSH4 0x1AEC704 EQ PUSH2 0x391 JUMPI DUP1 PUSH4 0x976C65D EQ PUSH2 0x3D7 JUMPI DUP1 PUSH4 0xA0B5E51 EQ PUSH2 0x3D7 JUMPI DUP1 PUSH4 0xE15561A EQ PUSH2 0x3F4 JUMPI DUP1 PUSH4 0xE72EEDF EQ PUSH2 0x40A JUMPI PUSH1 0x0 DUP1 REVERT JUMPDEST CALLDATASIZE PUSH2 0x357 JUMPI CALLVALUE PUSH1 0x1 PUSH1 0x0 DUP3 DUP3 SLOAD PUSH2 0x34F SWAP2 SWAP1 PUSH2 0x4044 JUMP JUMPDEST SWAP3 POP POP DUP2 SWAP1 SSTORE STOP JUMPDEST PUSH1 0x0 DUP1 REVERT JUMPDEST CALLVALUE DUP1 ISZERO PUSH2 0x368 JUMPI PUSH1 0x0 DUP1 REVERT JUMPDEST POP PUSH2 0x37C PUSH2 0x377 CALLDATASIZE PUSH1 0x4 PUSH2 0x406C JUMP JUMPDEST PUSH2 0xA9E JUMP JUMPDEST PUSH1 0x40 MLOAD SWAP1 ISZERO ISZERO DUP2 MSTORE PUSH1 0x20 ADD JUMPDEST PUSH1 0x40 MLOAD DUP1 SWAP2 SUB SWAP1 RETURN JUMPDEST CALLVALUE DUP1 ISZERO PUSH2 0x39D JUMPI PUSH1 0x0 DUP1 REVERT JUMPDEST POP PUSH2 0x3C9 PUSH2 0x3AC CALLDATASIZE PUSH1 0x4 PUSH2 0x4089 JUMP JUMPDEST PUSH1 0x9 PUSH1 0x20 SWAP1 DUP2 MSTORE PUSH1 0x0 SWAP3 DUP4 MSTORE PUSH1 0x40 DUP1 DUP5 KECCAK256 SWAP1 SWAP2 MSTORE SWAP1 DUP3 MSTORE SWAP1 KECCAK256 SLOAD DUP2 JUMP JUMPDEST PUSH1 0x40 MLOAD SWAP1 DUP2 MSTORE PUSH1 0x20 ADD PUSH2 0x388 JUMP JUMPDEST CALLVALUE DUP1 ISZERO PUSH2 0x3E3 JUMPI PUSH1 0x0 DUP1 REVERT JUMPDEST POP PUSH2 0x3C9 PUSH9 0xD5F7A0E3E5D2CC0000 DUP2 JUMP JUMPDEST CALLVALUE DUP1 ISZERO PUSH2 0x400 JUMPI PUSH1 0x0 DUP1 REVERT JUMPDEST POP PUSH2 0x3C9 PUSH1 0x2 SLOAD DUP2 JUMP JUMPDEST CALLVALUE DUP1 ISZERO PUSH2 0x416 JUMPI PUSH1 0x0 DUP1 REVERT JUMPDEST POP PUSH2 0x44A PUSH2 0x425 CALLDATASIZE PUSH1 0x4 PUSH2 0x406C JUMP JUMPDEST PUSH1 0x1 PUSH1 0x1 PUSH1 0xA0 SHL SUB AND PUSH1 0x0 SWAP1 DUP2 MSTORE PUSH1 0x3 PUSH1 0x20 MSTORE PUSH1 0x40 SWAP1 KECCAK256 SLOAD PUSH1 0x1 PUSH1 0xA8 SHL SWAP1 DIV PUSH1 0xFF AND SWAP1 JUMP JUMPDEST PUSH1 0x40 MLOAD PUSH2 0x388 SWAP2 SWAP1 PUSH2 0x40EC JUMP JUMPDEST CALLVALUE DUP1 ISZERO PUSH2 0x463 JUMPI PUSH1 0x0 DUP1 REVERT JUMPDEST POP PUSH2 0x3C9 PUSH1 0x8 SLOAD DUP2 JUMP JUMPDEST CALLVALUE DUP1 ISZERO PUSH2 0x479 JUMPI PUSH1 0x0 DUP1 REVERT JUMPDEST POP PUSH1 0x0 SLOAD PUSH2 0x37C SWAP1 PUSH1 0xFF AND DUP2 JUMP JUMPDEST CALLVALUE DUP1 ISZERO PUSH2 0x493 JUMPI PUSH1 0x0 DUP1 REVERT JUMPDEST POP PUSH2 0x49D PUSH2 0xF007 DUP2 JUMP JUMPDEST PUSH1 0x40 MLOAD PUSH1 0x1 PUSH1 0x1 PUSH1 0xA0 SHL SUB SWAP1 SWAP2 AND DUP2 MSTORE PUSH1 0x20 ADD PUSH2 0x388 JUMP JUMPDEST CALLVALUE DUP1 ISZERO PUSH2 0x4C1 JUMPI PUSH1 0x0 DUP1 REVERT JUMPDEST POP PUSH2 0x49D PUSH2 0xF001 DUP2 JUMP JUMPDEST CALLVALUE DUP1 ISZERO PUSH2 0x4D7 JUMPI PUSH1 0x0 DUP1 REVERT JUMPDEST POP PUSH2 0x37C PUSH2 0x4E6 CALLDATASIZE PUSH1 0x4 PUSH2 0x406C JUMP JUMPDEST PUSH2 0xCC1 JUMP JUMPDEST PUSH2 0x37C PUSH2 0x4F9 CALLDATASIZE PUSH1 0x4 PUSH2 0x406C JUMP JUMPDEST PUSH2 0xEF1 JUMP JUMPDEST CALLVALUE DUP1 ISZERO PUSH2 0x50A JUMPI PUSH1 0x0 DUP1 REVERT JUMPDEST POP PUSH2 0x44A PUSH2 0x519 CALLDATASIZE PUSH1 0x4 PUSH2 0x40FA JUMP JUMPDEST PUSH2 0x1396 JUMP JUMPDEST CALLVALUE DUP1 ISZERO PUSH2 0x52A JUMPI PUSH1 0x0 DUP1 REVERT JUMPDEST POP PUSH2 0x3C9 PUSH1 0x64 DUP2 JUMP JUMPDEST CALLVALUE DUP1 ISZERO PUSH2 0x53F JUMPI PUSH1 0x0 DUP1 REVERT JUMPDEST POP PUSH2 0x3C9 PUSH10 0x85BE3CBC1C8D9880000 DUP2 JUMP JUMPDEST CALLVALUE DUP1 ISZERO PUSH2 0x55D JUMPI PUSH1 0x0 DUP1 REVERT JUMPDEST POP PUSH2 0x3C9 PUSH2 0x56C CALLDATASIZE PUSH1 0x4 PUSH2 0x406C JUMP JUMPDEST PUSH1 0x1 PUSH1 0x1 PUSH1 0xA0 SHL SUB AND PUSH1 0x0 SWAP1 DUP2 MSTORE PUSH1 0x3 PUSH1 0x20 MSTORE PUSH1 0x40 SWAP1 KECCAK256 PUSH1 0x1 ADD SLOAD SWAP1 JUMP JUMPDEST CALLVALUE DUP1 ISZERO PUSH2 0x596 JUMPI PUSH1 0x0 DUP1 REVERT JUMPDEST POP PUSH2 0x49D PUSH2 0xF000 DUP2 JUMP JUMPDEST CALLVALUE DUP1 ISZERO PUSH2 0x5AC JUMPI PUSH1 0x0 DUP1 REVERT JUMPDEST POP PUSH2 0x3C9 PUSH2 0x5BB CALLDATASIZE PUSH1 0x4 PUSH2 0x4089 JUMP JUMPDEST PUSH2 0x13EC JUMP JUMPDEST CALLVALUE DUP1 ISZERO PUSH2 0x5CC JUMPI PUSH1 0x0 DUP1 REVERT JUMPDEST POP PUSH2 0x3C9 PUSH2 0x5DB CALLDATASIZE PUSH1 0x4 PUSH2 0x406C JUMP JUMPDEST PUSH1 0xA PUSH1 0x20 MSTORE PUSH1 0x0 SWAP1 DUP2 MSTORE PUSH1 0x40 SWAP1 KECCAK256 SLOAD DUP2 JUMP JUMPDEST CALLVALUE DUP1 ISZERO PUSH2 0x5F9 JUMPI PUSH1 0x0 DUP1 REVERT JUMPDEST POP PUSH2 0x60D PUSH2 0x608 CALLDATASIZE PUSH1 0x4 PUSH2 0x4113 JUMP JUMPDEST PUSH2 0x14D0 JUMP JUMPDEST STOP JUMPDEST CALLVALUE DUP1 ISZERO PUSH2 0x61B JUMPI PUSH1 0x0 DUP1 REVERT JUMPDEST POP PUSH2 0x37C PUSH2 0x62A CALLDATASIZE PUSH1 0x4 PUSH2 0x406C JUMP JUMPDEST PUSH2 0x179B JUMP JUMPDEST CALLVALUE DUP1 ISZERO PUSH2 0x63B JUMPI PUSH1 0x0 DUP1 REVERT JUMPDEST POP PUSH2 0x60D PUSH2 0x64A CALLDATASIZE PUSH1 0x4 PUSH2 0x406C JUMP JUMPDEST PUSH2 0x1804 JUMP JUMPDEST CALLVALUE DUP1 ISZERO PUSH2 0x65B JUMPI PUSH1 0x0 DUP1 REVERT JUMPDEST POP PUSH2 0x3C9 PUSH2 0xEA60 DUP2 JUMP JUMPDEST CALLVALUE DUP1 ISZERO PUSH2 0x671 JUMPI PUSH1 0x0 DUP1 REVERT JUMPDEST POP PUSH2 0x49D PUSH2 0x680 CALLDATASIZE PUSH1 0x4 PUSH2 0x40FA JUMP JUMPDEST PUSH2 0x18CF JUMP JUMPDEST CALLVALUE DUP1 ISZERO PUSH2 0x691 JUMPI PUSH1 0x0 DUP1 REVERT JUMPDEST POP PUSH2 0x6A5 PUSH2 0x6A0 CALLDATASIZE PUSH1 0x4 PUSH2 0x406C JUMP JUMPDEST PUSH2 0x18F9 JUMP JUMPDEST PUSH1 0x40 MLOAD PUSH2 0x388 SWAP5 SWAP4 SWAP3 SWAP2 SWAP1 PUSH2 0x414F JUMP JUMPDEST CALLVALUE DUP1 ISZERO PUSH2 0x6C1 JUMPI PUSH1 0x0 DUP1 REVERT JUMPDEST POP PUSH2 0x60D PUSH2 0x6D0 CALLDATASIZE PUSH1 0x4 PUSH2 0x406C JUMP JUMPDEST PUSH2 0x19C1 JUMP JUMPDEST CALLVALUE DUP1 ISZERO PUSH2 0x6E1 JUMPI PUSH1 0x0 DUP1 REVERT JUMPDEST POP PUSH2 0x49D PUSH2 0xF002 DUP2 JUMP JUMPDEST CALLVALUE DUP1 ISZERO PUSH2 0x6F7 JUMPI PUSH1 0x0 DUP1 REVERT JUMPDEST POP PUSH2 0x60D PUSH2 0x706 CALLDATASIZE PUSH1 0x4 PUSH2 0x425F JUMP JUMPDEST PUSH2 0x1A15 JUMP JUMPDEST CALLVALUE DUP1 ISZERO PUSH2 0x717 JUMPI PUSH1 0x0 DUP1 REVERT JUMPDEST POP PUSH2 0x49D PUSH2 0x726 CALLDATASIZE PUSH1 0x4 PUSH2 0x40FA JUMP JUMPDEST PUSH2 0x1BE6 JUMP JUMPDEST CALLVALUE DUP1 ISZERO PUSH2 0x737 JUMPI PUSH1 0x0 DUP1 REVERT JUMPDEST POP PUSH2 0x37C PUSH2 0x746 CALLDATASIZE PUSH1 0x4 PUSH2 0x406C JUMP JUMPDEST PUSH2 0x1BF6 JUMP JUMPDEST CALLVALUE DUP1 ISZERO PUSH2 0x757 JUMPI PUSH1 0x0 DUP1 REVERT JUMPDEST POP PUSH2 0x79E PUSH2 0x766 CALLDATASIZE PUSH1 0x4 PUSH2 0x4089 JUMP JUMPDEST PUSH1 0x1 PUSH1 0x1 PUSH1 0xA0 SHL SUB SWAP2 DUP3 AND PUSH1 0x0 SWAP1 DUP2 MSTORE PUSH1 0x4 PUSH1 0x20 SWAP1 DUP2 MSTORE PUSH1 0x40 DUP1 DUP4 KECCAK256 SWAP4 SWAP1 SWAP5 AND DUP3 MSTORE SWAP2 SWAP1 SWAP2 MSTORE KECCAK256 DUP1 SLOAD PUSH1 0x1 DUP3 ADD SLOAD PUSH1 0x2 SWAP1 SWAP3 ADD SLOAD SWAP1 SWAP3 JUMP JUMPDEST PUSH1 0x40 DUP1 MLOAD SWAP4 DUP5 MSTORE PUSH1 0x20 DUP5 ADD SWAP3 SWAP1 SWAP3 MSTORE SWAP1 DUP3 ADD MSTORE PUSH1 0x60 ADD PUSH2 0x388 JUMP JUMPDEST CALLVALUE DUP1 ISZERO PUSH2 0x7C5 JUMPI PUSH1 0x0 DUP1 REVERT JUMPDEST POP PUSH2 0x37C PUSH2 0x7D4 CALLDATASIZE PUSH1 0x4 PUSH2 0x406C JUMP JUMPDEST PUSH2 0x1DA9 JUMP JUMPDEST CALLVALUE DUP1 ISZERO PUSH2 0x7E5 JUMPI PUSH1 0x0 DUP1 REVERT JUMPDEST POP PUSH2 0x7F9 PUSH2 0x7F4 CALLDATASIZE PUSH1 0x4 PUSH2 0x406C JUMP JUMPDEST PUSH2 0x1FE7 JUMP JUMPDEST PUSH1 0x40 MLOAD PUSH2 0x388 SWAP7 SWAP6 SWAP5 SWAP4 SWAP3 SWAP2 SWAP1 PUSH2 0x42E8 JUMP JUMPDEST CALLVALUE DUP1 ISZERO PUSH2 0x817 JUMPI PUSH1 0x0 DUP1 REVERT JUMPDEST POP PUSH2 0x3C9 PUSH8 0xDE0B6B3A7640000 DUP2 JUMP JUMPDEST CALLVALUE DUP1 ISZERO PUSH2 0x833 JUMPI PUSH1 0x0 DUP1 REVERT JUMPDEST POP PUSH2 0x3C9 PUSH1 0x7 SLOAD DUP2 JUMP JUMPDEST CALLVALUE DUP1 ISZERO PUSH2 0x849 JUMPI PUSH1 0x0 DUP1 REVERT JUMPDEST POP PUSH2 0x3C9 PUSH2 0x858 CALLDATASIZE PUSH1 0x4 PUSH2 0x4113 JUMP JUMPDEST PUSH1 0xB PUSH1 0x20 SWAP1 DUP2 MSTORE PUSH1 0x0 SWAP3 DUP4 MSTORE PUSH1 0x40 DUP1 DUP5 KECCAK256 SWAP1 SWAP2 MSTORE SWAP1 DUP3 MSTORE SWAP1 KECCAK256 SLOAD DUP2 JUMP JUMPDEST CALLVALUE DUP1 ISZERO PUSH2 0x881 JUMPI PUSH1 0x0 DUP1 REVERT JUMPDEST POP PUSH2 0x37C PUSH2 0x890 CALLDATASIZE PUSH1 0x4 PUSH2 0x406C JUMP JUMPDEST PUSH2 0x21E8 JUMP JUMPDEST PUSH2 0x37C PUSH2 0x8A3 CALLDATASIZE PUSH1 0x4 PUSH2 0x4335 JUMP JUMPDEST PUSH2 0x2248 JUMP JUMPDEST CALLVALUE DUP1 ISZERO PUSH2 0x8B4 JUMPI PUSH1 0x0 DUP1 REVERT JUMPDEST POP PUSH2 0x8BD PUSH2 0x2596 JUMP JUMPDEST PUSH1 0x40 MLOAD PUSH2 0x388 SWAP2 SWAP1 PUSH2 0x43BA JUMP JUMPDEST CALLVALUE DUP1 ISZERO PUSH2 0x8D6 JUMPI PUSH1 0x0 DUP1 REVERT JUMPDEST POP PUSH2 0x60D PUSH2 0x8E5 CALLDATASIZE PUSH1 0x4 PUSH2 0x43CD JUMP JUMPDEST PUSH2 0x25F8 JUMP JUMPDEST CALLVALUE DUP1 ISZERO PUSH2 0x8F6 JUMPI PUSH1 0x0 DUP1 REVERT JUMPDEST POP PUSH2 0x90A PUSH2 0x905 CALLDATASIZE PUSH1 0x4 PUSH2 0x406C JUMP JUMPDEST PUSH2 0x2A02 JUMP JUMPDEST PUSH1 0x40 MLOAD PUSH2 0x388 SWAP2 SWAP1 PUSH2 0x4442 JUMP JUMPDEST CALLVALUE DUP1 ISZERO PUSH2 0x923 JUMPI PUSH1 0x0 DUP1 REVERT JUMPDEST POP PUSH2 0x8BD PUSH2 0x2BD3 JUMP JUMPDEST CALLVALUE DUP1 ISZERO PUSH2 0x938 JUMPI PUSH1 0x0 DUP1 REVERT JUMPDEST POP PUSH2 0x3C9 PUSH2 0x947 CALLDATASIZE PUSH1 0x4 PUSH2 0x406C JUMP JUMPDEST PUSH2 0x2C33 JUMP JUMPDEST PUSH2 0x60D PUSH2 0x95A CALLDATASIZE PUSH1 0x4 PUSH2 0x4490 JUMP JUMPDEST PUSH2 0x2CA2 JUMP JUMPDEST CALLVALUE DUP1 ISZERO PUSH2 0x96B JUMPI PUSH1 0x0 DUP1 REVERT JUMPDEST POP PUSH2 0x3C9 PUSH9 0x1BC16D674EC800000 DUP2 JUMP JUMPDEST CALLVALUE DUP1 ISZERO PUSH2 0x988 JUMPI PUSH1 0x0 DUP1 REVERT JUMPDEST POP PUSH2 0x991 PUSH2 0x30A4 JUMP JUMPDEST PUSH1 0x40 DUP1 MLOAD SWAP3 DUP4 MSTORE PUSH1 0x20 DUP4 ADD SWAP2 SWAP1 SWAP2 MSTORE ADD PUSH2 0x388 JUMP JUMPDEST CALLVALUE DUP1 ISZERO PUSH2 0x9B2 JUMPI PUSH1 0x0 DUP1 REVERT JUMPDEST POP PUSH2 0x9BC PUSH2 0x2710 DUP2 JUMP JUMPDEST PUSH1 0x40 MLOAD PUSH2 0xFFFF SWAP1 SWAP2 AND DUP2 MSTORE PUSH1 0x20 ADD PUSH2 0x388 JUMP JUMPDEST CALLVALUE DUP1 ISZERO PUSH2 0x9DB JUMPI PUSH1 0x0 DUP1 REVERT JUMPDEST POP PUSH2 0x3C9 PUSH11 0x343E33F80DC000CA00000 DUP2 JUMP JUMPDEST CALLVALUE DUP1 ISZERO PUSH2 0x9FA JUMPI PUSH1 0x0 DUP1 REVERT JUMPDEST POP PUSH2 0x3C9 PUSH2 0x7530 DUP2 JUMP JUMPDEST CALLVALUE DUP1 ISZERO PUSH2 0xA10 JUMPI PUSH1 0x0 DUP1 REVERT JUMPDEST POP PUSH2 0x3C9 PUSH10 0x5396BC536DBD89240000 DUP2 JUMP JUMPDEST CALLVALUE DUP1 ISZERO PUSH2 0xA2E JUMPI PUSH1 0x0 DUP1 REVERT JUMPDEST POP PUSH2 0x3C9 PUSH2 0x2710 DUP2 JUMP JUMPDEST CALLVALUE DUP1 ISZERO PUSH2 0xA44 JUMPI PUSH1 0x0 DUP1 REVERT JUMPDEST POP PUSH2 0xA4F PUSH3 0x15180 DUP2 JUMP JUMPDEST PUSH1 0x40 MLOAD PUSH8 0xFFFFFFFFFFFFFFFF SWAP1 SWAP2 AND DUP2 MSTORE PUSH1 0x20 ADD PUSH2 0x388 JUMP JUMPDEST CALLVALUE DUP1 ISZERO PUSH2 0xA74 JUMPI PUSH1 0x0 DUP1 REVERT JUMPDEST POP PUSH2 0x3C9 PUSH1 0x1 SLOAD DUP2 JUMP JUMPDEST CALLVALUE DUP1 ISZERO PUSH2 0xA8A JUMPI PUSH1 0x0 DUP1 REVERT JUMPDEST POP PUSH2 0x37C PUSH2 0xA99 CALLDATASIZE PUSH1 0x4 PUSH2 0x406C JUMP JUMPDEST PUSH2 0x30B9 JUMP JUMPDEST PUSH1 0x0 ORIGIN DUP2 PUSH1 0x1 PUSH1 0x1 PUSH1 0xA0 SHL SUB DUP5 AND PUSH1 0x0 SWAP1 DUP2 MSTORE PUSH1 0x3 PUSH1 0x20 MSTORE PUSH1 0x40 SWAP1 KECCAK256 SLOAD PUSH1 0x1 PUSH1 0xA0 SHL SWAP1 DIV PUSH1 0xFF AND PUSH1 0x4 DUP2 GT ISZERO PUSH2 0xAD6 JUMPI PUSH2 0xAD6 PUSH2 0x40C2 JUMP JUMPDEST SUB PUSH2 0xB1E JUMPI PUSH1 0x40 MLOAD PUSH3 0x461BCD PUSH1 0xE5 SHL DUP2 MSTORE PUSH1 0x20 PUSH1 0x4 DUP3 ADD MSTORE PUSH1 0x13 PUSH1 0x24 DUP3 ADD MSTORE PUSH19 0x15985B1A59185D1BDC881B9BDD08195E1A5CDD PUSH1 0x6A SHL PUSH1 0x44 DUP3 ADD MSTORE PUSH1 0x64 ADD JUMPDEST PUSH1 0x40 MLOAD DUP1 SWAP2 SUB SWAP1 REVERT JUMPDEST PUSH1 0x1 PUSH1 0x1 PUSH1 0xA0 SHL SUB DUP4 DUP2 AND PUSH1 0x0 SWAP1 DUP2 MSTORE PUSH1 0x3 PUSH1 0x20 MSTORE PUSH1 0x40 SWAP1 KECCAK256 SLOAD DUP2 AND SWAP1 DUP3 AND EQ PUSH2 0xBA1 JUMPI PUSH1 0x40 MLOAD PUSH3 0x461BCD PUSH1 0xE5 SHL DUP2 MSTORE PUSH1 0x20 PUSH1 0x4 DUP3 ADD MSTORE PUSH1 0x2E PUSH1 0x24 DUP3 ADD MSTORE PUSH32 0x596F7520617265206E6F742074686520666565207265636569766572206F6620 PUSH1 0x44 DUP3 ADD MSTORE PUSH14 0x3A3434B9903B30B634B230BA37B9 PUSH1 0x91 SHL PUSH1 0x64 DUP3 ADD MSTORE PUSH1 0x84 ADD PUSH2 0xB15 JUMP JUMPDEST PUSH1 0x1 PUSH1 0x1 PUSH1 0xA0 SHL SUB DUP4 AND PUSH1 0x0 SWAP1 DUP2 MSTORE PUSH1 0x3 PUSH1 0x20 DUP2 SWAP1 MSTORE PUSH1 0x40 SWAP1 SWAP2 KECCAK256 ADD SLOAD DUP1 PUSH2 0xC0B JUMPI PUSH1 0x40 MLOAD PUSH3 0x461BCD PUSH1 0xE5 SHL DUP2 MSTORE PUSH1 0x20 PUSH1 0x4 DUP3 ADD MSTORE PUSH1 0x1A PUSH1 0x24 DUP3 ADD MSTORE PUSH32 0x596F7520646F6E2774206861766520616E792070726F66697473000000000000 PUSH1 0x44 DUP3 ADD MSTORE PUSH1 0x64 ADD PUSH2 0xB15 JUMP JUMPDEST PUSH1 0x1 PUSH1 0x1 PUSH1 0xA0 SHL SUB DUP5 AND PUSH1 0x0 SWAP1 DUP2 MSTORE PUSH1 0x3 PUSH1 0x20 DUP2 SWAP1 MSTORE PUSH1 0x40 DUP3 KECCAK256 ADD SSTORE DUP1 ISZERO PUSH2 0xC65 JUMPI PUSH1 0x40 MLOAD PUSH1 0x1 PUSH1 0x1 PUSH1 0xA0 SHL SUB DUP4 AND SWAP1 DUP3 ISZERO PUSH2 0x8FC MUL SWAP1 DUP4 SWAP1 PUSH1 0x0 DUP2 DUP2 DUP2 DUP6 DUP9 DUP9 CALL SWAP4 POP POP POP POP ISZERO DUP1 ISZERO PUSH2 0xC63 JUMPI RETURNDATASIZE PUSH1 0x0 DUP1 RETURNDATACOPY RETURNDATASIZE PUSH1 0x0 REVERT JUMPDEST POP JUMPDEST PUSH2 0xC6E DUP5 PUSH2 0x1BF6 JUMP JUMPDEST POP PUSH1 0x40 DUP1 MLOAD DUP3 DUP2 MSTORE TIMESTAMP PUSH1 0x20 DUP3 ADD MSTORE PUSH1 0x1 PUSH1 0x1 PUSH1 0xA0 SHL SUB DUP1 DUP6 AND SWAP3 SWAP1 DUP8 AND SWAP2 PUSH32 0x51A69B4502F660774C9339825C7B5ADBF0B8622289134647E29728EC5D9B3BB9 SWAP2 ADD PUSH1 0x40 MLOAD DUP1 SWAP2 SUB SWAP1 LOG3 POP PUSH1 0x1 SWAP4 SWAP3 POP POP POP JUMP JUMPDEST ORIGIN PUSH1 0x0 DUP2 DUP2 MSTORE PUSH1 0x4 PUSH1 0x20 DUP2 DUP2 MSTORE PUSH1 0x40 DUP1 DUP5 KECCAK256 PUSH1 0x1 PUSH1 0x1 PUSH1 0xA0 SHL SUB DUP8 AND DUP6 MSTORE DUP3 MSTORE DUP1 DUP5 KECCAK256 PUSH1 0x3 SWAP1 SWAP3 MSTORE DUP4 KECCAK256 SLOAD SWAP3 SWAP4 SWAP3 SWAP1 SWAP2 DUP5 SWAP2 PUSH1 0x1 PUSH1 0xA0 SHL SWAP1 DIV PUSH1 0xFF AND SWAP1 DUP2 GT ISZERO PUSH2 0xD0D JUMPI PUSH2 0xD0D PUSH2 0x40C2 JUMP JUMPDEST SUB PUSH2 0xD50 JUMPI PUSH1 0x40 MLOAD PUSH3 0x461BCD PUSH1 0xE5 SHL DUP2 MSTORE PUSH1 0x20 PUSH1 0x4 DUP3 ADD MSTORE PUSH1 0x13 PUSH1 0x24 DUP3 ADD MSTORE PUSH19 0x1D985B1A59185D1BDC881B9BDD08195E1A5CDD PUSH1 0x6A SHL PUSH1 0x44 DUP3 ADD MSTORE PUSH1 0x64 ADD PUSH2 0xB15 JUMP JUMPDEST DUP1 PUSH1 0x1 ADD SLOAD PUSH1 0x0 SUB PUSH2 0xDA4 JUMPI PUSH1 0x40 MLOAD PUSH3 0x461BCD PUSH1 0xE5 SHL DUP2 MSTORE PUSH1 0x20 PUSH1 0x4 DUP3 ADD MSTORE PUSH1 0x19 PUSH1 0x24 DUP3 ADD MSTORE PUSH32 0x596F75206861766520746F20756E7374616B6520666972737400000000000000 PUSH1 0x44 DUP3 ADD MSTORE PUSH1 0x64 ADD PUSH2 0xB15 JUMP JUMPDEST PUSH1 0x1 DUP2 ADD SLOAD NUMBER SWAP1 PUSH2 0xDB9 SWAP1 PUSH3 0x15180 SWAP1 PUSH2 0x4044 JUMP JUMPDEST GT ISZERO PUSH2 0xE11 JUMPI PUSH1 0x40 MLOAD PUSH3 0x461BCD PUSH1 0xE5 SHL DUP2 MSTORE PUSH1 0x20 PUSH1 0x4 DUP3 ADD MSTORE PUSH1 0x21 PUSH1 0x24 DUP3 ADD MSTORE PUSH32 0x596F7572207374616B696E6720686176656E277420756E6C6F636B6564207965 PUSH1 0x44 DUP3 ADD MSTORE PUSH1 0x1D PUSH1 0xFA SHL PUSH1 0x64 DUP3 ADD MSTORE PUSH1 0x84 ADD PUSH2 0xB15 JUMP JUMPDEST DUP1 SLOAD PUSH2 0xE5A JUMPI PUSH1 0x40 MLOAD PUSH3 0x461BCD PUSH1 0xE5 SHL DUP2 MSTORE PUSH1 0x20 PUSH1 0x4 DUP3 ADD MSTORE PUSH1 0x18 PUSH1 0x24 DUP3 ADD MSTORE PUSH24 0x596F7520646F6E2774206861766520616E79207374616B65 PUSH1 0x40 SHL PUSH1 0x44 DUP3 ADD MSTORE PUSH1 0x64 ADD PUSH2 0xB15 JUMP JUMPDEST DUP1 SLOAD PUSH1 0x0 DUP1 DUP4 SSTORE PUSH1 0x1 DUP4 ADD DUP2 SWAP1 SSTORE PUSH1 0x40 MLOAD PUSH1 0x1 PUSH1 0x1 PUSH1 0xA0 SHL SUB DUP6 AND SWAP2 DUP4 ISZERO PUSH2 0x8FC MUL SWAP2 DUP5 SWAP2 DUP2 DUP2 DUP2 DUP6 DUP9 DUP9 CALL SWAP4 POP POP POP POP ISZERO DUP1 ISZERO PUSH2 0xE9C JUMPI RETURNDATASIZE PUSH1 0x0 DUP1 RETURNDATACOPY RETURNDATASIZE PUSH1 0x0 REVERT JUMPDEST POP PUSH1 0x40 DUP1 MLOAD DUP3 DUP2 MSTORE TIMESTAMP PUSH1 0x20 DUP3 ADD MSTORE PUSH1 0x1 PUSH1 0x1 PUSH1 0xA0 SHL SUB DUP1 DUP9 AND SWAP3 SWAP1 DUP7 AND SWAP2 PUSH32 0xA70CD94070CD852339A76B32CF2D95A3C8F2A322269163D276071C1C14955619 SWAP2 ADD JUMPDEST PUSH1 0x40 MLOAD DUP1 SWAP2 SUB SWAP1 LOG3 POP PUSH1 0x1 SWAP5 SWAP4 POP POP POP POP JUMP JUMPDEST PUSH1 0x0 DUP1 SLOAD PUSH1 0xFF AND PUSH2 0xF14 JUMPI PUSH1 0x40 MLOAD PUSH3 0x461BCD PUSH1 0xE5 SHL DUP2 MSTORE PUSH1 0x4 ADD PUSH2 0xB15 SWAP1 PUSH2 0x4559 JUMP JUMPDEST ORIGIN CALLVALUE PUSH1 0x1 PUSH1 0x1 PUSH1 0x1 PUSH1 0xA0 SHL SUB DUP6 AND PUSH1 0x0 SWAP1 DUP2 MSTORE PUSH1 0x3 PUSH1 0x20 MSTORE PUSH1 0x40 SWAP1 KECCAK256 SLOAD PUSH1 0x1 PUSH1 0xA0 SHL SWAP1 DIV PUSH1 0xFF AND PUSH1 0x4 DUP2 GT ISZERO PUSH2 0xF4C JUMPI PUSH2 0xF4C PUSH2 0x40C2 JUMP JUMPDEST EQ DUP1 PUSH2 0xF8B JUMPI POP PUSH1 0x2 PUSH1 0x1 PUSH1 0x1 PUSH1 0xA0 SHL SUB DUP6 AND PUSH1 0x0 SWAP1 DUP2 MSTORE PUSH1 0x3 PUSH1 0x20 MSTORE PUSH1 0x40 SWAP1 KECCAK256 SLOAD PUSH1 0x1 PUSH1 0xA0 SHL SWAP1 DIV PUSH1 0xFF AND PUSH1 0x4 DUP2 GT ISZERO PUSH2 0xF89 JUMPI PUSH2 0xF89 PUSH2 0x40C2 JUMP JUMPDEST EQ JUMPDEST PUSH2 0xFED JUMPI PUSH1 0x40 MLOAD PUSH3 0x461BCD PUSH1 0xE5 SHL DUP2 MSTORE PUSH1 0x20 PUSH1 0x4 DUP3 ADD MSTORE PUSH1 0x2D PUSH1 0x24 DUP3 ADD MSTORE PUSH32 0x43616E2774207374616B6520746F20612076616C696461746F7220696E206162 PUSH1 0x44 DUP3 ADD MSTORE PUSH13 0x6E6F726D616C20737461747573 PUSH1 0x98 SHL PUSH1 0x64 DUP3 ADD MSTORE PUSH1 0x84 ADD PUSH2 0xB15 JUMP JUMPDEST PUSH1 0x1 PUSH1 0x1 PUSH1 0xA0 SHL SUB DUP1 DUP4 AND PUSH1 0x0 SWAP1 DUP2 MSTORE PUSH1 0x4 PUSH1 0x20 SWAP1 DUP2 MSTORE PUSH1 0x40 DUP1 DUP4 KECCAK256 SWAP4 DUP9 AND DUP4 MSTORE SWAP3 SWAP1 MSTORE KECCAK256 PUSH1 0x1 ADD SLOAD ISZERO PUSH2 0x106E JUMPI PUSH1 0x40 MLOAD PUSH3 0x461BCD PUSH1 0xE5 SHL DUP2 MSTORE PUSH1 0x20 PUSH1 0x4 DUP3 ADD MSTORE PUSH1 0x22 PUSH1 0x24 DUP3 ADD MSTORE PUSH32 0x43616E2774207374616B65207768656E20796F752061726520756E7374616B69 PUSH1 0x44 DUP3 ADD MSTORE PUSH2 0x6E67 PUSH1 0xF0 SHL PUSH1 0x64 DUP3 ADD MSTORE PUSH1 0x84 ADD PUSH2 0xB15 JUMP JUMPDEST PUSH1 0x1 PUSH1 0x1 PUSH1 0xA0 SHL SUB DUP5 AND PUSH1 0x0 SWAP1 DUP2 MSTORE PUSH1 0x3 PUSH1 0x20 MSTORE PUSH1 0x40 SWAP1 KECCAK256 PUSH1 0x1 DUP2 ADD SLOAD PUSH9 0x1BC16D674EC800000 SWAP1 PUSH2 0x10A1 SWAP1 DUP5 SWAP1 PUSH2 0x4044 JUMP JUMPDEST LT ISZERO PUSH2 0x10EF JUMPI PUSH1 0x40 MLOAD PUSH3 0x461BCD PUSH1 0xE5 SHL DUP2 MSTORE PUSH1 0x20 PUSH1 0x4 DUP3 ADD MSTORE PUSH1 0x18 PUSH1 0x24 DUP3 ADD MSTORE PUSH32 0x5374616B696E6720636F696E73206E6F7420656E6F7567680000000000000000 PUSH1 0x44 DUP3 ADD MSTORE PUSH1 0x64 ADD PUSH2 0xB15 JUMP JUMPDEST PUSH1 0x1 PUSH1 0x1 PUSH1 0xA0 SHL SUB DUP1 DUP5 AND PUSH1 0x0 SWAP1 DUP2 MSTORE PUSH1 0x4 PUSH1 0x20 SWAP1 DUP2 MSTORE PUSH1 0x40 DUP1 DUP4 KECCAK256 SWAP4 DUP10 AND DUP4 MSTORE SWAP3 SWAP1 MSTORE SWAP1 DUP2 KECCAK256 SLOAD SWAP1 SUB PUSH2 0x1208 JUMPI PUSH1 0x1 PUSH1 0x1 PUSH1 0xA0 SHL SUB DUP1 DUP5 AND PUSH1 0x0 SWAP1 DUP2 MSTORE PUSH1 0x4 PUSH1 0x20 SWAP1 DUP2 MSTORE PUSH1 0x40 DUP1 DUP4 KECCAK256 SWAP4 DUP10 AND DUP4 MSTORE SWAP3 SWAP1 MSTORE SWAP1 DUP2 KECCAK256 PUSH1 0x2 ADD SLOAD SWAP1 SUB PUSH2 0x1203 JUMPI PUSH1 0x5 DUP2 ADD DUP1 SLOAD PUSH1 0x1 PUSH1 0x1 PUSH1 0xA0 SHL SUB DUP1 DUP7 AND PUSH1 0x0 DUP2 DUP2 MSTORE PUSH1 0x4 PUSH1 0x20 SWAP1 DUP2 MSTORE PUSH1 0x40 DUP1 DUP4 KECCAK256 SWAP5 DUP13 AND DUP1 DUP5 MSTORE SWAP5 DUP3 MSTORE DUP1 DUP4 KECCAK256 PUSH1 0x2 ADD DUP7 SWAP1 SSTORE PUSH1 0x1 DUP7 ADD DUP8 SSTORE SWAP6 DUP3 MSTORE DUP1 DUP3 KECCAK256 SWAP1 SWAP5 ADD DUP1 SLOAD PUSH1 0x1 PUSH1 0x1 PUSH1 0xA0 SHL SUB NOT AND SWAP1 SWAP3 OR SWAP1 SWAP2 SSTORE SWAP1 DUP2 MSTORE PUSH1 0xA SWAP1 SWAP2 MSTORE SWAP1 DUP2 KECCAK256 SLOAD SWAP1 SUB PUSH2 0x11D1 JUMPI PUSH1 0x1 PUSH1 0x1 PUSH1 0xA0 SHL SUB DUP6 AND PUSH1 0x0 SWAP1 DUP2 MSTORE PUSH1 0xA PUSH1 0x20 MSTORE PUSH1 0x40 SWAP1 KECCAK256 TIMESTAMP SWAP1 SSTORE JUMPDEST PUSH1 0x1 PUSH1 0x1 PUSH1 0xA0 SHL SUB DUP1 DUP7 AND PUSH1 0x0 DUP2 DUP2 MSTORE PUSH1 0xA PUSH1 0x20 SWAP1 DUP2 MSTORE PUSH1 0x40 DUP1 DUP4 KECCAK256 SLOAD SWAP5 DUP9 AND DUP4 MSTORE PUSH1 0x9 DUP3 MSTORE DUP1 DUP4 KECCAK256 SWAP4 DUP4 MSTORE SWAP3 SWAP1 MSTORE KECCAK256 SSTORE JUMPDEST PUSH2 0x1213 JUMP JUMPDEST PUSH2 0x1211 DUP6 PUSH2 0x1BF6 JUMP JUMPDEST POP JUMPDEST DUP2 DUP2 PUSH1 0x1 ADD SLOAD PUSH2 0x1223 SWAP2 SWAP1 PUSH2 0x4044 JUMP JUMPDEST PUSH1 0x1 DUP3 ADD SSTORE PUSH1 0x2 DUP2 SLOAD PUSH1 0x1 PUSH1 0xA0 SHL SWAP1 DIV PUSH1 0xFF AND PUSH1 0x4 DUP2 GT ISZERO PUSH2 0x1247 JUMPI PUSH2 0x1247 PUSH2 0x40C2 JUMP JUMPDEST EQ PUSH2 0x125E JUMPI DUP1 SLOAD PUSH1 0xFF PUSH1 0xA0 SHL NOT AND PUSH1 0x1 PUSH1 0xA1 SHL OR DUP2 SSTORE JUMPDEST PUSH2 0x1267 DUP6 PUSH2 0x353B JUMP JUMPDEST PUSH9 0x1BC16D674EC800000 DUP2 PUSH1 0x1 ADD SLOAD LT ISZERO DUP1 ISZERO PUSH2 0x128A JUMPI POP PUSH2 0x1288 DUP6 PUSH2 0x179B JUMP JUMPDEST ISZERO JUMPDEST ISZERO PUSH2 0x12DB JUMPI PUSH1 0x5 DUP1 SLOAD PUSH1 0x1 DUP2 ADD DUP3 SSTORE PUSH1 0x0 SWAP2 SWAP1 SWAP2 MSTORE PUSH32 0x36B6384B5ECA791C62761152D0C79BB0604C104A5FB6F4EB0703F3154BB3DB0 ADD DUP1 SLOAD PUSH1 0x1 PUSH1 0x1 PUSH1 0xA0 SHL SUB NOT AND PUSH1 0x1 PUSH1 0x1 PUSH1 0xA0 SHL SUB DUP8 AND OR SWAP1 SSTORE JUMPDEST PUSH2 0x12E9 DUP6 DUP3 PUSH1 0x1 ADD SLOAD PUSH2 0x35AE JUMP JUMPDEST PUSH1 0x1 PUSH1 0x1 PUSH1 0xA0 SHL SUB DUP1 DUP5 AND PUSH1 0x0 SWAP1 DUP2 MSTORE PUSH1 0x4 PUSH1 0x20 SWAP1 DUP2 MSTORE PUSH1 0x40 DUP1 DUP4 KECCAK256 SWAP4 DUP10 AND DUP4 MSTORE SWAP3 SWAP1 MSTORE KECCAK256 SLOAD PUSH2 0x131A SWAP1 DUP4 SWAP1 PUSH2 0x4044 JUMP JUMPDEST PUSH1 0x1 PUSH1 0x1 PUSH1 0xA0 SHL SUB DUP1 DUP6 AND PUSH1 0x0 SWAP1 DUP2 MSTORE PUSH1 0x4 PUSH1 0x20 SWAP1 DUP2 MSTORE PUSH1 0x40 DUP1 DUP4 KECCAK256 SWAP4 DUP11 AND DUP4 MSTORE SWAP3 SWAP1 MSTORE KECCAK256 SSTORE PUSH1 0x7 SLOAD PUSH2 0x134E SWAP1 DUP4 SWAP1 PUSH2 0x4044 JUMP JUMPDEST PUSH1 0x7 SSTORE PUSH1 0x40 DUP1 MLOAD DUP4 DUP2 MSTORE TIMESTAMP PUSH1 0x20 DUP3 ADD MSTORE PUSH1 0x1 PUSH1 0x1 PUSH1 0xA0 SHL SUB DUP1 DUP9 AND SWAP3 SWAP1 DUP7 AND SWAP2 PUSH32 0xB9BA725934532316CFFE10975DA6EB25AD49C2D1C294D982C46C9F8D684EE075 SWAP2 ADD PUSH2 0xEDE JUMP JUMPDEST PUSH1 0x0 PUSH11 0x343E33F80DC000CA00000 DUP3 LT PUSH2 0x13B2 JUMPI POP PUSH1 0x3 SWAP2 SWAP1 POP JUMP JUMPDEST PUSH10 0x5396BC536DBD89240000 DUP3 LT PUSH2 0x13CB JUMPI POP PUSH1 0x2 SWAP2 SWAP1 POP JUMP JUMPDEST PUSH10 0x85BE3CBC1C8D9880000 DUP3 LT PUSH2 0x13E4 JUMPI POP PUSH1 0x1 SWAP2 SWAP1 POP JUMP JUMPDEST POP PUSH1 0x0 SWAP2 SWAP1 POP JUMP JUMPDEST PUSH1 0x1 PUSH1 0x1 PUSH1 0xA0 SHL SUB DUP1 DUP3 AND PUSH1 0x0 DUP2 DUP2 MSTORE PUSH1 0xB PUSH1 0x20 SWAP1 DUP2 MSTORE PUSH1 0x40 DUP1 DUP4 KECCAK256 SWAP5 DUP8 AND DUP4 MSTORE PUSH1 0x9 DUP3 MSTORE DUP1 DUP4 KECCAK256 DUP5 DUP5 MSTORE DUP3 MSTORE DUP1 DUP4 KECCAK256 SLOAD DUP4 MSTORE DUP5 DUP3 MSTORE DUP1 DUP4 KECCAK256 SLOAD SWAP4 DUP4 MSTORE PUSH1 0xA DUP3 MSTORE DUP1 DUP4 KECCAK256 SLOAD DUP4 MSTORE SWAP4 SWAP1 MSTORE SWAP2 DUP3 KECCAK256 SLOAD DUP3 SWAP2 PUSH2 0x1445 SWAP2 PUSH2 0x457F JUMP JUMPDEST SWAP1 POP DUP1 ISZERO PUSH2 0x14C4 JUMPI PUSH1 0x1 PUSH1 0x1 PUSH1 0xA0 SHL SUB DUP1 DUP6 AND PUSH1 0x0 SWAP1 DUP2 MSTORE PUSH1 0x4 PUSH1 0x20 SWAP1 DUP2 MSTORE PUSH1 0x40 DUP1 DUP4 KECCAK256 SWAP4 DUP8 AND DUP4 MSTORE SWAP3 DUP2 MSTORE SWAP1 DUP3 SWAP1 KECCAK256 DUP3 MLOAD PUSH1 0x60 DUP2 ADD DUP5 MSTORE DUP2 SLOAD DUP1 DUP3 MSTORE PUSH1 0x1 DUP4 ADD SLOAD SWAP4 DUP3 ADD SWAP4 SWAP1 SWAP4 MSTORE PUSH1 0x2 SWAP1 SWAP2 ADD SLOAD SWAP3 DUP2 ADD SWAP3 SWAP1 SWAP3 MSTORE PUSH9 0x56BC75E2D63100000 SWAP1 PUSH2 0x14B1 SWAP1 DUP5 SWAP1 PUSH2 0x4592 JUMP JUMPDEST PUSH2 0x14BB SWAP2 SWAP1 PUSH2 0x45BF JUMP JUMPDEST SWAP3 POP POP POP PUSH2 0x14CA JUMP JUMPDEST PUSH1 0x0 SWAP2 POP POP JUMPDEST SWAP3 SWAP2 POP POP JUMP JUMPDEST CALLER PUSH2 0xF007 EQ PUSH2 0x151A JUMPI PUSH1 0x40 MLOAD PUSH3 0x461BCD PUSH1 0xE5 SHL DUP2 MSTORE PUSH1 0x20 PUSH1 0x4 DUP3 ADD MSTORE PUSH1 0x16 PUSH1 0x24 DUP3 ADD MSTORE PUSH22 0x536C617368696E6720636F6E7472616374206F6E6C79 PUSH1 0x50 SHL PUSH1 0x44 DUP3 ADD MSTORE PUSH1 0x64 ADD PUSH2 0xB15 JUMP JUMPDEST PUSH1 0x0 PUSH1 0x1 PUSH1 0x1 PUSH1 0xA0 SHL SUB DUP4 AND PUSH1 0x0 SWAP1 DUP2 MSTORE PUSH1 0x3 PUSH1 0x20 MSTORE PUSH1 0x40 SWAP1 KECCAK256 SLOAD PUSH1 0x1 PUSH1 0xA0 SHL SWAP1 DIV PUSH1 0xFF AND PUSH1 0x4 DUP2 GT ISZERO PUSH2 0x1550 JUMPI PUSH2 0x1550 PUSH2 0x40C2 JUMP JUMPDEST SUB PUSH2 0x159D JUMPI PUSH1 0x40 MLOAD PUSH3 0x461BCD PUSH1 0xE5 SHL DUP2 MSTORE PUSH1 0x20 PUSH1 0x4 DUP3 ADD MSTORE PUSH1 0x18 PUSH1 0x24 DUP3 ADD MSTORE PUSH32 0x56616C696461746F7220646F6573206E6F742065786973740000000000000000 PUSH1 0x44 DUP3 ADD MSTORE PUSH1 0x64 ADD PUSH2 0xB15 JUMP JUMPDEST PUSH1 0x0 DUP2 GT PUSH2 0x15F9 JUMPI PUSH1 0x40 MLOAD PUSH3 0x461BCD PUSH1 0xE5 SHL DUP2 MSTORE PUSH1 0x20 PUSH1 0x4 DUP3 ADD MSTORE PUSH1 0x23 PUSH1 0x24 DUP3 ADD MSTORE PUSH32 0x536C61736820616D6F756E74206D757374206265206772656174657220746861 PUSH1 0x44 DUP3 ADD MSTORE PUSH3 0x6E203 PUSH1 0xEC SHL PUSH1 0x64 DUP3 ADD MSTORE PUSH1 0x84 ADD PUSH2 0xB15 JUMP JUMPDEST PUSH1 0x1 PUSH1 0x1 PUSH1 0xA0 SHL SUB DUP3 AND PUSH1 0x0 SWAP1 DUP2 MSTORE PUSH1 0x3 PUSH1 0x20 MSTORE PUSH1 0x40 SWAP1 KECCAK256 PUSH1 0x1 ADD SLOAD DUP2 GT ISZERO PUSH2 0x1664 JUMPI PUSH1 0x40 MLOAD PUSH3 0x461BCD PUSH1 0xE5 SHL DUP2 MSTORE PUSH1 0x20 PUSH1 0x4 DUP3 ADD MSTORE PUSH1 0x1B PUSH1 0x24 DUP3 ADD MSTORE PUSH32 0x496E73756666696369656E74207374616B6520746F20736C6173680000000000 PUSH1 0x44 DUP3 ADD MSTORE PUSH1 0x64 ADD PUSH2 0xB15 JUMP JUMPDEST PUSH1 0x1 PUSH1 0x1 PUSH1 0xA0 SHL SUB DUP3 AND PUSH1 0x0 SWAP1 DUP2 MSTORE PUSH1 0x3 PUSH1 0x20 MSTORE PUSH1 0x40 DUP2 KECCAK256 PUSH1 0x1 ADD DUP1 SLOAD DUP4 SWAP3 SWAP1 PUSH2 0x168F SWAP1 DUP5 SWAP1 PUSH2 0x457F JUMP JUMPDEST SWAP3 POP POP DUP2 SWAP1 SSTORE POP DUP1 PUSH1 0x7 PUSH1 0x0 DUP3 DUP3 SLOAD PUSH2 0x16A8 SWAP2 SWAP1 PUSH2 0x457F JUMP JUMPDEST SWAP1 SWAP2 SSTORE POP PUSH2 0x16B7 SWAP1 POP DUP3 PUSH2 0x353B JUMP JUMPDEST PUSH1 0x1 PUSH1 0x1 PUSH1 0xA0 SHL SUB DUP3 AND PUSH1 0x0 SWAP1 DUP2 MSTORE PUSH1 0x3 PUSH1 0x20 MSTORE PUSH1 0x40 SWAP1 KECCAK256 PUSH1 0x1 ADD SLOAD PUSH9 0x1BC16D674EC800000 GT DUP1 ISZERO PUSH2 0x171E JUMPI POP PUSH1 0x4 PUSH1 0x1 PUSH1 0x1 PUSH1 0xA0 SHL SUB DUP4 AND PUSH1 0x0 SWAP1 DUP2 MSTORE PUSH1 0x3 PUSH1 0x20 MSTORE PUSH1 0x40 SWAP1 KECCAK256 SLOAD PUSH1 0x1 PUSH1 0xA0 SHL SWAP1 DIV PUSH1 0xFF AND PUSH1 0x4 DUP2 GT ISZERO PUSH2 0x171B JUMPI PUSH2 0x171B PUSH2 0x40C2 JUMP JUMPDEST EQ ISZERO JUMPDEST ISZERO PUSH2 0x1755 JUMPI PUSH1 0x1 PUSH1 0x1 PUSH1 0xA0 SHL SUB DUP3 AND PUSH1 0x0 SWAP1 DUP2 MSTORE PUSH1 0x3 PUSH1 0x20 MSTORE PUSH1 0x40 SWAP1 KECCAK256 DUP1 SLOAD PUSH1 0xFF PUSH1 0xA0 SHL NOT AND PUSH1 0x3 PUSH1 0xA0 SHL OR SWAP1 SSTORE PUSH2 0x1755 DUP3 PUSH2 0x3878 JUMP JUMPDEST PUSH1 0x40 MLOAD PUSH20 0xD1D6E4F8777393AC4DE10067EF6073048DA0607D SWAP1 DUP3 ISZERO PUSH2 0x8FC MUL SWAP1 DUP4 SWAP1 PUSH1 0x0 DUP2 DUP2 DUP2 DUP6 DUP9 DUP9 CALL SWAP4 POP POP POP POP ISZERO DUP1 ISZERO PUSH2 0x1796 JUMPI RETURNDATASIZE PUSH1 0x0 DUP1 RETURNDATACOPY RETURNDATASIZE PUSH1 0x0 REVERT JUMPDEST POP POP POP JUMP JUMPDEST PUSH1 0x0 DUP1 JUMPDEST PUSH1 0x5 SLOAD DUP2 LT ISZERO PUSH2 0x17FB JUMPI DUP3 PUSH1 0x1 PUSH1 0x1 PUSH1 0xA0 SHL SUB AND PUSH1 0x5 DUP3 DUP2 SLOAD DUP2 LT PUSH2 0x17C6 JUMPI PUSH2 0x17C6 PUSH2 0x45D3 JUMP JUMPDEST PUSH1 0x0 SWAP2 DUP3 MSTORE PUSH1 0x20 SWAP1 SWAP2 KECCAK256 ADD SLOAD PUSH1 0x1 PUSH1 0x1 PUSH1 0xA0 SHL SUB AND SUB PUSH2 0x17E9 JUMPI POP PUSH1 0x1 SWAP3 SWAP2 POP POP JUMP JUMPDEST DUP1 PUSH2 0x17F3 DUP2 PUSH2 0x45E9 JUMP JUMPDEST SWAP2 POP POP PUSH2 0x179F JUMP JUMPDEST POP PUSH1 0x0 SWAP3 SWAP2 POP POP JUMP JUMPDEST CALLER PUSH2 0xF001 EQ PUSH2 0x184C JUMPI PUSH1 0x40 MLOAD PUSH3 0x461BCD PUSH1 0xE5 SHL DUP2 MSTORE PUSH1 0x20 PUSH1 0x4 DUP3 ADD MSTORE PUSH1 0x14 PUSH1 0x24 DUP3 ADD MSTORE PUSH20 0x50756E69736820636F6E7472616374206F6E6C79 PUSH1 0x60 SHL PUSH1 0x44 DUP3 ADD MSTORE PUSH1 0x64 ADD PUSH2 0xB15 JUMP JUMPDEST PUSH1 0x1 PUSH1 0x1 PUSH1 0xA0 SHL SUB DUP2 AND PUSH1 0x0 SWAP1 DUP2 MSTORE PUSH1 0x3 PUSH1 0x20 DUP2 SWAP1 MSTORE PUSH1 0x40 SWAP1 SWAP2 KECCAK256 ADD SLOAD PUSH2 0x1872 DUP3 PUSH2 0x39D7 JUMP JUMPDEST PUSH1 0x6 SLOAD PUSH1 0x1 LT ISZERO PUSH2 0x18CB JUMPI PUSH2 0x1886 DUP3 PUSH2 0x3AF1 JUMP JUMPDEST PUSH1 0x40 DUP1 MLOAD DUP3 DUP2 MSTORE TIMESTAMP PUSH1 0x20 DUP3 ADD MSTORE PUSH1 0x1 PUSH1 0x1 PUSH1 0xA0 SHL SUB DUP5 AND SWAP2 PUSH32 0xA26DE7AB324EAC08C596549F421E5C8741213D237D2E9A2C9C0EBDE0A7A849FE SWAP2 ADD JUMPDEST PUSH1 0x40 MLOAD DUP1 SWAP2 SUB SWAP1 LOG2 JUMPDEST POP POP JUMP JUMPDEST PUSH1 0x6 DUP2 DUP2 SLOAD DUP2 LT PUSH2 0x18DF JUMPI PUSH1 0x0 DUP1 REVERT JUMPDEST PUSH1 0x0 SWAP2 DUP3 MSTORE PUSH1 0x20 SWAP1 SWAP2 KECCAK256 ADD SLOAD PUSH1 0x1 PUSH1 0x1 PUSH1 0xA0 SHL SUB AND SWAP1 POP DUP2 JUMP JUMPDEST PUSH1 0x1 PUSH1 0x1 PUSH1 0xA0 SHL SUB DUP2 DUP2 AND PUSH1 0x0 DUP2 DUP2 MSTORE PUSH1 0x3 PUSH1 0x20 MSTORE PUSH1 0x40 DUP1 DUP3 KECCAK256 PUSH1 0x1 ADD SLOAD PUSH1 0xC SLOAD SWAP2 MLOAD PUSH4 0x32F3C17F PUSH1 0xE0 SHL DUP2 MSTORE PUSH1 0x4 DUP2 ADD SWAP5 SWAP1 SWAP5 MSTORE SWAP2 SWAP4 DUP5 SWAP4 DUP5 SWAP4 DUP5 SWAP4 SWAP1 SWAP3 AND SWAP1 PUSH4 0x32F3C17F SWAP1 PUSH1 0x24 ADD PUSH1 0x20 PUSH1 0x40 MLOAD DUP1 DUP4 SUB DUP2 DUP7 GAS STATICCALL ISZERO DUP1 ISZERO PUSH2 0x1960 JUMPI RETURNDATASIZE PUSH1 0x0 DUP1 RETURNDATACOPY RETURNDATASIZE PUSH1 0x0 REVERT JUMPDEST POP POP POP POP PUSH1 0x40 MLOAD RETURNDATASIZE PUSH1 0x1F NOT PUSH1 0x1F DUP3 ADD AND DUP3 ADD DUP1 PUSH1 0x40 MSTORE POP DUP2 ADD SWAP1 PUSH2 0x1984 SWAP2 SWAP1 PUSH2 0x4602 JUMP JUMPDEST PUSH1 0x1 PUSH1 0x1 PUSH1 0xA0 SHL SUB DUP8 AND PUSH1 0x0 SWAP1 DUP2 MSTORE PUSH1 0x3 PUSH1 0x20 MSTORE PUSH1 0x40 SWAP1 KECCAK256 SLOAD SWAP2 SWAP6 POP SWAP4 POP PUSH1 0xFF PUSH1 0x1 PUSH1 0xA8 SHL DUP3 DIV DUP2 AND SWAP4 POP PUSH1 0x1 PUSH1 0xA0 SHL SWAP1 SWAP2 DIV AND SWAP1 POP SWAP2 SWAP4 POP SWAP2 SWAP4 JUMP JUMPDEST CALLER PUSH2 0xF001 EQ PUSH2 0x1A09 JUMPI PUSH1 0x40 MLOAD PUSH3 0x461BCD PUSH1 0xE5 SHL DUP2 MSTORE PUSH1 0x20 PUSH1 0x4 DUP3 ADD MSTORE PUSH1 0x14 PUSH1 0x24 DUP3 ADD MSTORE PUSH20 0x50756E69736820636F6E7472616374206F6E6C79 PUSH1 0x60 SHL PUSH1 0x44 DUP3 ADD MSTORE PUSH1 0x64 ADD PUSH2 0xB15 JUMP JUMPDEST PUSH2 0x1A12 DUP2 PUSH2 0x39D7 JUMP JUMPDEST POP JUMP JUMPDEST CALLER COINBASE EQ PUSH2 0x1A51 JUMPI PUSH1 0x40 MLOAD PUSH3 0x461BCD PUSH1 0xE5 SHL DUP2 MSTORE PUSH1 0x20 PUSH1 0x4 DUP3 ADD MSTORE PUSH1 0xA PUSH1 0x24 DUP3 ADD MSTORE PUSH10 0x4D696E6572206F6E6C79 PUSH1 0xB0 SHL PUSH1 0x44 DUP3 ADD MSTORE PUSH1 0x64 ADD PUSH2 0xB15 JUMP JUMPDEST NUMBER PUSH1 0x0 SWAP1 DUP2 MSTORE PUSH1 0xD PUSH1 0x20 SWAP1 DUP2 MSTORE PUSH1 0x40 DUP1 DUP4 KECCAK256 PUSH1 0x1 DUP5 MSTORE SWAP1 SWAP2 MSTORE SWAP1 KECCAK256 SLOAD PUSH1 0xFF AND ISZERO PUSH2 0x1ABD JUMPI PUSH1 0x40 MLOAD PUSH3 0x461BCD PUSH1 0xE5 SHL DUP2 MSTORE PUSH1 0x20 PUSH1 0x4 DUP3 ADD MSTORE PUSH1 0x1A PUSH1 0x24 DUP3 ADD MSTORE PUSH32 0x56616C696461746F727320616C72656164792075706461746564000000000000 PUSH1 0x44 DUP3 ADD MSTORE PUSH1 0x64 ADD PUSH2 0xB15 JUMP JUMPDEST PUSH1 0x0 SLOAD PUSH1 0xFF AND PUSH2 0x1ADF JUMPI PUSH1 0x40 MLOAD PUSH3 0x461BCD PUSH1 0xE5 SHL DUP2 MSTORE PUSH1 0x4 ADD PUSH2 0xB15 SWAP1 PUSH2 0x4559 JUMP JUMPDEST DUP1 PUSH2 0x1AEA DUP2 NUMBER PUSH2 0x461B JUMP JUMPDEST ISZERO PUSH2 0x1B2A JUMPI PUSH1 0x40 MLOAD PUSH3 0x461BCD PUSH1 0xE5 SHL DUP2 MSTORE PUSH1 0x20 PUSH1 0x4 DUP3 ADD MSTORE PUSH1 0x10 PUSH1 0x24 DUP3 ADD MSTORE PUSH16 0x426C6F636B2065706F6368206F6E6C79 PUSH1 0x80 SHL PUSH1 0x44 DUP3 ADD MSTORE PUSH1 0x64 ADD PUSH2 0xB15 JUMP JUMPDEST NUMBER PUSH1 0x0 SWAP1 DUP2 MSTORE PUSH1 0xD PUSH1 0x20 SWAP1 DUP2 MSTORE PUSH1 0x40 DUP1 DUP4 KECCAK256 PUSH1 0x1 DUP1 DUP6 MSTORE SWAP3 MSTORE SWAP1 SWAP2 KECCAK256 DUP1 SLOAD PUSH1 0xFF NOT AND SWAP1 SWAP2 OR SWAP1 SSTORE DUP3 MLOAD PUSH2 0x1B96 JUMPI PUSH1 0x40 MLOAD PUSH3 0x461BCD PUSH1 0xE5 SHL DUP2 MSTORE PUSH1 0x20 PUSH1 0x4 DUP3 ADD MSTORE PUSH1 0x14 PUSH1 0x24 DUP3 ADD MSTORE PUSH20 0x56616C696461746F722073657420656D70747921 PUSH1 0x60 SHL PUSH1 0x44 DUP3 ADD MSTORE PUSH1 0x64 ADD PUSH2 0xB15 JUMP JUMPDEST DUP3 MLOAD PUSH2 0x1BA9 SWAP1 PUSH1 0x5 SWAP1 PUSH1 0x20 DUP7 ADD SWAP1 PUSH2 0x3FB4 JUMP JUMPDEST POP PUSH32 0xEACEA8F3C22F06C0B18306BDB04D0A967255129E8CE0094DEBB0A0FF89D006B5 DUP4 PUSH1 0x40 MLOAD PUSH2 0x1BD9 SWAP2 SWAP1 PUSH2 0x43BA JUMP JUMPDEST PUSH1 0x40 MLOAD DUP1 SWAP2 SUB SWAP1 LOG1 POP POP POP JUMP JUMPDEST PUSH1 0x5 DUP2 DUP2 SLOAD DUP2 LT PUSH2 0x18DF JUMPI PUSH1 0x0 DUP1 REVERT JUMPDEST ORIGIN PUSH1 0x0 SWAP1 DUP2 MSTORE PUSH1 0x9 PUSH1 0x20 SWAP1 DUP2 MSTORE PUSH1 0x40 DUP1 DUP4 KECCAK256 PUSH1 0x1 PUSH1 0x1 PUSH1 0xA0 SHL SUB DUP6 AND DUP5 MSTORE SWAP1 SWAP2 MSTORE DUP2 KECCAK256 SLOAD PUSH2 0x1C57 JUMPI PUSH1 0x40 MLOAD PUSH3 0x461BCD PUSH1 0xE5 SHL DUP2 MSTORE PUSH1 0x20 PUSH1 0x4 DUP3 ADD MSTORE PUSH1 0xE PUSH1 0x24 DUP3 ADD MSTORE PUSH14 0x1B9BDD1A1A5B99C81CDD185AD959 PUSH1 0x92 SHL PUSH1 0x44 DUP3 ADD MSTORE PUSH1 0x64 ADD PUSH2 0xB15 JUMP JUMPDEST ORIGIN PUSH1 0x0 DUP2 DUP2 MSTORE PUSH1 0x4 PUSH1 0x20 SWAP1 DUP2 MSTORE PUSH1 0x40 DUP1 DUP4 KECCAK256 PUSH1 0x1 PUSH1 0x1 PUSH1 0xA0 SHL SUB DUP8 AND DUP1 DUP6 MSTORE SWAP1 DUP4 MSTORE DUP2 DUP5 KECCAK256 PUSH1 0xB DUP5 MSTORE DUP3 DUP6 KECCAK256 SWAP6 DUP6 MSTORE PUSH1 0x9 DUP5 MSTORE DUP3 DUP6 KECCAK256 DUP3 DUP7 MSTORE DUP5 MSTORE DUP3 DUP6 KECCAK256 SLOAD DUP6 MSTORE DUP6 DUP5 MSTORE DUP3 DUP6 KECCAK256 SLOAD SWAP2 DUP6 MSTORE PUSH1 0xA DUP5 MSTORE DUP3 DUP6 KECCAK256 SLOAD DUP6 MSTORE SWAP5 SWAP1 SWAP3 MSTORE DUP3 KECCAK256 SLOAD PUSH2 0x1CBD SWAP2 SWAP1 PUSH2 0x457F JUMP JUMPDEST SWAP1 POP DUP1 ISZERO PUSH2 0x1D9F JUMPI PUSH1 0x0 PUSH9 0x56BC75E2D63100000 DUP3 DUP5 PUSH1 0x0 ADD SLOAD PUSH2 0x1CE1 SWAP2 SWAP1 PUSH2 0x4592 JUMP JUMPDEST PUSH2 0x1CEB SWAP2 SWAP1 PUSH2 0x45BF JUMP JUMPDEST PUSH1 0x1 PUSH1 0x1 PUSH1 0xA0 SHL SUB DUP7 AND PUSH1 0x0 DUP2 DUP2 MSTORE PUSH1 0xA PUSH1 0x20 SWAP1 DUP2 MSTORE PUSH1 0x40 DUP1 DUP4 KECCAK256 SLOAD ORIGIN DUP1 DUP6 MSTORE PUSH1 0x9 DUP5 MSTORE DUP3 DUP6 KECCAK256 SWAP6 DUP6 MSTORE SWAP5 SWAP1 SWAP3 MSTORE DUP1 DUP4 KECCAK256 SWAP2 SWAP1 SWAP2 SSTORE MLOAD SWAP3 SWAP4 POP SWAP1 SWAP2 DUP4 ISZERO PUSH2 0x8FC MUL SWAP2 DUP5 SWAP2 SWAP1 DUP2 DUP2 DUP2 DUP6 DUP9 DUP9 CALL SWAP4 POP POP POP POP ISZERO DUP1 ISZERO PUSH2 0x1D4D JUMPI RETURNDATASIZE PUSH1 0x0 DUP1 RETURNDATACOPY RETURNDATASIZE PUSH1 0x0 REVERT JUMPDEST POP PUSH1 0x40 DUP1 MLOAD ORIGIN DUP2 MSTORE PUSH1 0x1 PUSH1 0x1 PUSH1 0xA0 SHL SUB DUP8 AND PUSH1 0x20 DUP3 ADD MSTORE SWAP1 DUP2 ADD DUP3 SWAP1 MSTORE TIMESTAMP PUSH1 0x60 DUP3 ADD MSTORE PUSH32 0x7DAF1212D032F2F66DB6DBB919BBD591BE3D954B5B6EE491709CBB5FBE4F5170 SWAP1 PUSH1 0x80 ADD PUSH1 0x40 MLOAD DUP1 SWAP2 SUB SWAP1 LOG1 POP JUMPDEST POP PUSH1 0x1 SWAP4 SWAP3 POP POP POP JUMP JUMPDEST PUSH1 0x0 CALLER PUSH2 0xF002 EQ PUSH2 0x1DF5 JUMPI PUSH1 0x40 MLOAD PUSH3 0x461BCD PUSH1 0xE5 SHL DUP2 MSTORE PUSH1 0x20 PUSH1 0x4 DUP3 ADD MSTORE PUSH1 0x16 PUSH1 0x24 DUP3 ADD MSTORE PUSH22 0x50726F706F73616C20636F6E7472616374206F6E6C79 PUSH1 0x50 SHL PUSH1 0x44 DUP3 ADD MSTORE PUSH1 0x64 ADD PUSH2 0xB15 JUMP JUMPDEST PUSH1 0x0 SLOAD PUSH1 0xFF AND PUSH2 0x1E17 JUMPI PUSH1 0x40 MLOAD PUSH3 0x461BCD PUSH1 0xE5 SHL DUP2 MSTORE PUSH1 0x4 ADD PUSH2 0xB15 SWAP1 PUSH2 0x4559 JUMP JUMPDEST PUSH1 0x3 PUSH1 0x1 PUSH1 0x1 PUSH1 0xA0 SHL SUB DUP4 AND PUSH1 0x0 SWAP1 DUP2 MSTORE PUSH1 0x3 PUSH1 0x20 MSTORE PUSH1 0x40 SWAP1 KECCAK256 SLOAD PUSH1 0x1 PUSH1 0xA0 SHL SWAP1 DIV PUSH1 0xFF AND PUSH1 0x4 DUP2 GT ISZERO PUSH2 0x1E4D JUMPI PUSH2 0x1E4D PUSH2 0x40C2 JUMP JUMPDEST EQ ISZERO DUP1 ISZERO PUSH2 0x1E8F JUMPI POP PUSH1 0x4 PUSH1 0x1 PUSH1 0x1 PUSH1 0xA0 SHL SUB DUP4 AND PUSH1 0x0 SWAP1 DUP2 MSTORE PUSH1 0x3 PUSH1 0x20 MSTORE PUSH1 0x40 SWAP1 KECCAK256 SLOAD PUSH1 0x1 PUSH1 0xA0 SHL SWAP1 DIV PUSH1 0xFF AND PUSH1 0x4 DUP2 GT ISZERO PUSH2 0x1E8C JUMPI PUSH2 0x1E8C PUSH2 0x40C2 JUMP JUMPDEST EQ ISZERO JUMPDEST ISZERO PUSH2 0x1E9C JUMPI POP PUSH1 0x1 SWAP2 SWAP1 POP JUMP JUMPDEST PUSH1 0x4 PUSH1 0x1 PUSH1 0x1 PUSH1 0xA0 SHL SUB DUP4 AND PUSH1 0x0 SWAP1 DUP2 MSTORE PUSH1 0x3 PUSH1 0x20 MSTORE PUSH1 0x40 SWAP1 KECCAK256 SLOAD PUSH1 0x1 PUSH1 0xA0 SHL SWAP1 DIV PUSH1 0xFF AND PUSH1 0x4 DUP2 GT ISZERO PUSH2 0x1ED2 JUMPI PUSH2 0x1ED2 PUSH2 0x40C2 JUMP JUMPDEST SUB PUSH2 0x1F82 JUMPI PUSH1 0xC SLOAD PUSH1 0x40 MLOAD PUSH4 0x63E1D451 PUSH1 0xE0 SHL DUP2 MSTORE PUSH1 0x1 PUSH1 0x1 PUSH1 0xA0 SHL SUB DUP5 DUP2 AND PUSH1 0x4 DUP4 ADD MSTORE SWAP1 SWAP2 AND SWAP1 PUSH4 0x63E1D451 SWAP1 PUSH1 0x24 ADD PUSH1 0x20 PUSH1 0x40 MLOAD DUP1 DUP4 SUB DUP2 PUSH1 0x0 DUP8 GAS CALL ISZERO DUP1 ISZERO PUSH2 0x1F23 JUMPI RETURNDATASIZE PUSH1 0x0 DUP1 RETURNDATACOPY RETURNDATASIZE PUSH1 0x0 REVERT JUMPDEST POP POP POP POP PUSH1 0x40 MLOAD RETURNDATASIZE PUSH1 0x1F NOT PUSH1 0x1F DUP3 ADD AND DUP3 ADD DUP1 PUSH1 0x40 MSTORE POP DUP2 ADD SWAP1 PUSH2 0x1F47 SWAP2 SWAP1 PUSH2 0x462F JUMP JUMPDEST PUSH2 0x1F82 JUMPI PUSH1 0x40 MLOAD PUSH3 0x461BCD PUSH1 0xE5 SHL DUP2 MSTORE PUSH1 0x20 PUSH1 0x4 DUP3 ADD MSTORE PUSH1 0xC PUSH1 0x24 DUP3 ADD MSTORE PUSH12 0x18DB19585B8819985A5B1959 PUSH1 0xA2 SHL PUSH1 0x44 DUP3 ADD MSTORE PUSH1 0x64 ADD PUSH2 0xB15 JUMP JUMPDEST PUSH1 0x1 PUSH1 0x1 PUSH1 0xA0 SHL SUB DUP3 AND PUSH1 0x0 DUP2 DUP2 MSTORE PUSH1 0x3 PUSH1 0x20 SWAP1 DUP2 MSTORE PUSH1 0x40 SWAP2 DUP3 SWAP1 KECCAK256 DUP1 SLOAD PUSH1 0xFF PUSH1 0xA0 SHL NOT AND PUSH1 0x1 PUSH1 0xA0 SHL OR SWAP1 SSTORE SWAP1 MLOAD TIMESTAMP DUP2 MSTORE PUSH32 0xD8B2C426EC1BE69CA7583D26B1E893946E3227430D3EBC3BD64D9E1C469CB400 SWAP2 ADD PUSH1 0x40 MLOAD DUP1 SWAP2 SUB SWAP1 LOG2 POP PUSH1 0x1 SWAP2 SWAP1 POP JUMP JUMPDEST PUSH1 0x1 PUSH1 0x1 PUSH1 0xA0 SHL SUB DUP2 DUP2 AND PUSH1 0x0 SWAP1 DUP2 MSTORE PUSH1 0x3 PUSH1 0x20 SWAP1 DUP2 MSTORE PUSH1 0x40 DUP1 DUP4 KECCAK256 DUP2 MLOAD PUSH2 0x100 DUP2 ADD SWAP1 SWAP3 MSTORE DUP1 SLOAD SWAP5 DUP6 AND DUP3 MSTORE SWAP3 SWAP4 DUP5 SWAP4 DUP5 SWAP4 DUP5 SWAP4 DUP5 SWAP4 PUSH1 0x60 SWAP4 DUP6 SWAP4 SWAP1 SWAP2 SWAP1 DUP4 ADD SWAP1 PUSH1 0x1 PUSH1 0xA0 SHL SWAP1 DIV PUSH1 0xFF AND PUSH1 0x4 DUP2 GT ISZERO PUSH2 0x2044 JUMPI PUSH2 0x2044 PUSH2 0x40C2 JUMP JUMPDEST PUSH1 0x4 DUP2 GT ISZERO PUSH2 0x2055 JUMPI PUSH2 0x2055 PUSH2 0x40C2 JUMP JUMPDEST DUP2 MSTORE DUP2 SLOAD PUSH1 0x20 SWAP1 SWAP2 ADD SWAP1 PUSH1 0x1 PUSH1 0xA8 SHL SWAP1 DIV PUSH1 0xFF AND PUSH1 0x3 DUP2 GT ISZERO PUSH2 0x207A JUMPI PUSH2 0x207A PUSH2 0x40C2 JUMP JUMPDEST PUSH1 0x3 DUP2 GT ISZERO PUSH2 0x208B JUMPI PUSH2 0x208B PUSH2 0x40C2 JUMP JUMPDEST DUP2 MSTORE PUSH1 0x20 ADD PUSH1 0x1 DUP3 ADD SLOAD DUP2 MSTORE PUSH1 0x20 ADD PUSH1 0x2 DUP3 ADD PUSH1 0x40 MLOAD DUP1 PUSH1 0x20 ADD PUSH1 0x40 MSTORE SWAP1 DUP2 PUSH1 0x0 DUP3 ADD DUP1 SLOAD PUSH2 0x20B9 SWAP1 PUSH2 0x4651 JUMP JUMPDEST DUP1 PUSH1 0x1F ADD PUSH1 0x20 DUP1 SWAP2 DIV MUL PUSH1 0x20 ADD PUSH1 0x40 MLOAD SWAP1 DUP2 ADD PUSH1 0x40 MSTORE DUP1 SWAP3 SWAP2 SWAP1 DUP2 DUP2 MSTORE PUSH1 0x20 ADD DUP3 DUP1 SLOAD PUSH2 0x20E5 SWAP1 PUSH2 0x4651 JUMP JUMPDEST DUP1 ISZERO PUSH2 0x2132 JUMPI DUP1 PUSH1 0x1F LT PUSH2 0x2107 JUMPI PUSH2 0x100 DUP1 DUP4 SLOAD DIV MUL DUP4 MSTORE SWAP2 PUSH1 0x20 ADD SWAP2 PUSH2 0x2132 JUMP JUMPDEST DUP3 ADD SWAP2 SWAP1 PUSH1 0x0 MSTORE PUSH1 0x20 PUSH1 0x0 KECCAK256 SWAP1 JUMPDEST DUP2 SLOAD DUP2 MSTORE SWAP1 PUSH1 0x1 ADD SWAP1 PUSH1 0x20 ADD DUP1 DUP4 GT PUSH2 0x2115 JUMPI DUP3 SWAP1 SUB PUSH1 0x1F AND DUP3 ADD SWAP2 JUMPDEST POP POP POP POP POP DUP2 MSTORE POP POP DUP2 MSTORE PUSH1 0x20 ADD PUSH1 0x3 DUP3 ADD SLOAD DUP2 MSTORE PUSH1 0x20 ADD PUSH1 0x4 DUP3 ADD SLOAD DUP2 MSTORE PUSH1 0x20 ADD PUSH1 0x5 DUP3 ADD DUP1 SLOAD DUP1 PUSH1 0x20 MUL PUSH1 0x20 ADD PUSH1 0x40 MLOAD SWAP1 DUP2 ADD PUSH1 0x40 MSTORE DUP1 SWAP3 SWAP2 SWAP1 DUP2 DUP2 MSTORE PUSH1 0x20 ADD DUP3 DUP1 SLOAD DUP1 ISZERO PUSH2 0x21AC JUMPI PUSH1 0x20 MUL DUP3 ADD SWAP2 SWAP1 PUSH1 0x0 MSTORE PUSH1 0x20 PUSH1 0x0 KECCAK256 SWAP1 JUMPDEST DUP2 SLOAD PUSH1 0x1 PUSH1 0x1 PUSH1 0xA0 SHL SUB AND DUP2 MSTORE PUSH1 0x1 SWAP1 SWAP2 ADD SWAP1 PUSH1 0x20 ADD DUP1 DUP4 GT PUSH2 0x218E JUMPI JUMPDEST POP POP POP SWAP2 SWAP1 SWAP3 MSTORE POP POP DUP2 MLOAD PUSH1 0x20 DUP4 ADD MLOAD PUSH1 0x60 DUP5 ADD MLOAD PUSH1 0xA0 DUP6 ADD MLOAD PUSH1 0xC0 DUP7 ADD MLOAD PUSH1 0xE0 SWAP1 SWAP7 ADD MLOAD SWAP4 SWAP15 SWAP3 SWAP14 POP SWAP1 SWAP12 POP SWAP10 POP SWAP3 SWAP8 POP SWAP6 POP SWAP1 SWAP4 POP POP POP POP JUMP JUMPDEST PUSH1 0x0 DUP1 JUMPDEST PUSH1 0x6 SLOAD DUP2 LT ISZERO PUSH2 0x17FB JUMPI DUP3 PUSH1 0x1 PUSH1 0x1 PUSH1 0xA0 SHL SUB AND PUSH1 0x6 DUP3 DUP2 SLOAD DUP2 LT PUSH2 0x2213 JUMPI PUSH2 0x2213 PUSH2 0x45D3 JUMP JUMPDEST PUSH1 0x0 SWAP2 DUP3 MSTORE PUSH1 0x20 SWAP1 SWAP2 KECCAK256 ADD SLOAD PUSH1 0x1 PUSH1 0x1 PUSH1 0xA0 SHL SUB AND SUB PUSH2 0x2236 JUMPI POP PUSH1 0x1 SWAP3 SWAP2 POP POP JUMP JUMPDEST DUP1 PUSH2 0x2240 DUP2 PUSH2 0x45E9 JUMP JUMPDEST SWAP2 POP POP PUSH2 0x21EC JUMP JUMPDEST PUSH1 0x0 DUP1 SLOAD PUSH1 0xFF AND PUSH2 0x226B JUMPI PUSH1 0x40 MLOAD PUSH3 0x461BCD PUSH1 0xE5 SHL DUP2 MSTORE PUSH1 0x4 ADD PUSH2 0xB15 SWAP1 PUSH2 0x4559 JUMP JUMPDEST PUSH1 0x1 PUSH1 0x1 PUSH1 0xA0 SHL SUB DUP5 AND PUSH2 0x22B7 JUMPI PUSH1 0x40 MLOAD PUSH3 0x461BCD PUSH1 0xE5 SHL DUP2 MSTORE PUSH1 0x20 PUSH1 0x4 DUP3 ADD MSTORE PUSH1 0x13 PUSH1 0x24 DUP3 ADD MSTORE PUSH19 0x496E76616C6964206665652061646472657373 PUSH1 0x68 SHL PUSH1 0x44 DUP3 ADD MSTORE PUSH1 0x64 ADD PUSH2 0xB15 JUMP JUMPDEST PUSH1 0x46 DUP3 GT ISZERO PUSH2 0x2301 JUMPI PUSH1 0x40 MLOAD PUSH3 0x461BCD PUSH1 0xE5 SHL DUP2 MSTORE PUSH1 0x20 PUSH1 0x4 DUP3 ADD MSTORE PUSH1 0x16 PUSH1 0x24 DUP3 ADD MSTORE PUSH22 0x92DCECC2D8D2C840DADEDCD2D6CAE440D8CADCCEE8D PUSH1 0x53 SHL PUSH1 0x44 DUP3 ADD MSTORE PUSH1 0x64 ADD PUSH2 0xB15 JUMP JUMPDEST ORIGIN PUSH1 0x0 DUP2 DUP2 MSTORE PUSH1 0x3 PUSH1 0x20 MSTORE PUSH1 0x40 DUP2 KECCAK256 SLOAD DUP2 SWAP1 PUSH1 0x1 PUSH1 0xA0 SHL SWAP1 DIV PUSH1 0xFF AND PUSH1 0x4 DUP2 GT ISZERO PUSH2 0x232E JUMPI PUSH2 0x232E PUSH2 0x40C2 JUMP JUMPDEST SUB PUSH2 0x2364 JUMPI POP PUSH1 0x1 PUSH1 0x1 PUSH1 0xA0 SHL SUB DUP2 AND PUSH1 0x0 SWAP1 DUP2 MSTORE PUSH1 0x3 PUSH1 0x20 MSTORE PUSH1 0x40 SWAP1 KECCAK256 DUP1 SLOAD PUSH1 0xFF PUSH1 0xA0 SHL NOT AND PUSH1 0x1 PUSH1 0xA0 SHL OR SWAP1 SSTORE PUSH1 0x1 PUSH2 0x2375 JUMP JUMPDEST CALLVALUE ISZERO PUSH2 0x2375 JUMPI PUSH1 0x0 SWAP3 POP POP POP PUSH2 0x258F JUMP JUMPDEST PUSH1 0x1 PUSH1 0x1 PUSH1 0xA0 SHL SUB DUP3 DUP2 AND PUSH1 0x0 SWAP1 DUP2 MSTORE PUSH1 0x3 PUSH1 0x20 MSTORE PUSH1 0x40 SWAP1 KECCAK256 SLOAD DUP2 AND SWAP1 DUP8 AND EQ PUSH2 0x23C8 JUMPI PUSH1 0x1 PUSH1 0x1 PUSH1 0xA0 SHL SUB DUP3 DUP2 AND PUSH1 0x0 SWAP1 DUP2 MSTORE PUSH1 0x3 PUSH1 0x20 MSTORE PUSH1 0x40 SWAP1 KECCAK256 DUP1 SLOAD PUSH1 0x1 PUSH1 0x1 PUSH1 0xA0 SHL SUB NOT AND SWAP2 DUP9 AND SWAP2 SWAP1 SWAP2 OR SWAP1 SSTORE JUMPDEST PUSH1 0x40 DUP1 MLOAD PUSH1 0x20 PUSH1 0x1F DUP8 ADD DUP2 SWAP1 DIV DUP2 MUL DUP3 ADD DUP4 ADD DUP4 MSTORE DUP2 ADD DUP7 DUP2 MSTORE SWAP1 SWAP2 DUP3 SWAP2 SWAP1 DUP9 SWAP1 DUP9 SWAP1 DUP2 SWAP1 DUP6 ADD DUP4 DUP3 DUP1 DUP3 DUP5 CALLDATACOPY PUSH1 0x0 SWAP3 ADD DUP3 SWAP1 MSTORE POP SWAP4 SWAP1 SWAP5 MSTORE POP POP PUSH1 0x1 PUSH1 0x1 PUSH1 0xA0 SHL SUB DUP6 AND DUP2 MSTORE PUSH1 0x3 PUSH1 0x20 MSTORE PUSH1 0x40 SWAP1 KECCAK256 DUP3 MLOAD PUSH1 0x2 SWAP1 SWAP2 ADD SWAP2 POP DUP2 SWAP1 PUSH2 0x242D SWAP1 DUP3 PUSH2 0x46D9 JUMP JUMPDEST POP SWAP1 POP POP DUP1 ISZERO PUSH2 0x253A JUMPI PUSH9 0xD5F7A0E3E5D2CC0000 CALLVALUE LT ISZERO PUSH2 0x2490 JUMPI PUSH1 0x40 MLOAD PUSH3 0x461BCD PUSH1 0xE5 SHL DUP2 MSTORE PUSH1 0x20 PUSH1 0x4 DUP3 ADD MSTORE PUSH1 0x18 PUSH1 0x24 DUP3 ADD MSTORE PUSH32 0x496E76616C69642076616C696461746F7220616D6F756E740000000000000000 PUSH1 0x44 DUP3 ADD MSTORE PUSH1 0x64 ADD PUSH2 0xB15 JUMP JUMPDEST PUSH2 0x2499 CALLVALUE PUSH2 0x1396 JUMP JUMPDEST PUSH1 0x1 PUSH1 0x1 PUSH1 0xA0 SHL SUB DUP4 AND PUSH1 0x0 SWAP1 DUP2 MSTORE PUSH1 0x3 PUSH1 0x20 DUP2 SWAP1 MSTORE PUSH1 0x40 SWAP1 SWAP2 KECCAK256 DUP1 SLOAD SWAP1 SWAP2 PUSH1 0xFF PUSH1 0xA8 SHL NOT SWAP1 SWAP2 AND SWAP1 PUSH1 0x1 PUSH1 0xA8 SHL SWAP1 DUP5 SWAP1 DUP2 GT ISZERO PUSH2 0x24D9 JUMPI PUSH2 0x24D9 PUSH2 0x40C2 JUMP JUMPDEST MUL OR SWAP1 SSTORE POP PUSH2 0x24E7 DUP3 PUSH2 0xEF1 JUMP JUMPDEST POP DUP6 PUSH1 0x1 PUSH1 0x1 PUSH1 0xA0 SHL SUB AND DUP3 PUSH1 0x1 PUSH1 0x1 PUSH1 0xA0 SHL SUB AND PUSH32 0x887EEC9D757B7247DD8E51198F9D1B8F27979BCEB34BDCC1BFFD4EC5EC736C22 TIMESTAMP PUSH1 0x40 MLOAD PUSH2 0x252D SWAP2 DUP2 MSTORE PUSH1 0x20 ADD SWAP1 JUMP JUMPDEST PUSH1 0x40 MLOAD DUP1 SWAP2 SUB SWAP1 LOG3 PUSH2 0x2588 JUMP JUMPDEST DUP6 PUSH1 0x1 PUSH1 0x1 PUSH1 0xA0 SHL SUB AND DUP3 PUSH1 0x1 PUSH1 0x1 PUSH1 0xA0 SHL SUB AND PUSH32 0xB8421F65501371F54D58DE1937FF1E1CCDB76423EF6F84ACEA1814A0F6362CA0 TIMESTAMP PUSH1 0x40 MLOAD PUSH2 0x257F SWAP2 DUP2 MSTORE PUSH1 0x20 ADD SWAP1 JUMP JUMPDEST PUSH1 0x40 MLOAD DUP1 SWAP2 SUB SWAP1 LOG3 JUMPDEST PUSH1 0x1 SWAP3 POP POP POP JUMPDEST SWAP4 SWAP3 POP POP POP JUMP JUMPDEST PUSH1 0x60 PUSH1 0x5 DUP1 SLOAD DUP1 PUSH1 0x20 MUL PUSH1 0x20 ADD PUSH1 0x40 MLOAD SWAP1 DUP2 ADD PUSH1 0x40 MSTORE DUP1 SWAP3 SWAP2 SWAP1 DUP2 DUP2 MSTORE PUSH1 0x20 ADD DUP3 DUP1 SLOAD DUP1 ISZERO PUSH2 0x25EE JUMPI PUSH1 0x20 MUL DUP3 ADD SWAP2 SWAP1 PUSH1 0x0 MSTORE PUSH1 0x20 PUSH1 0x0 KECCAK256 SWAP1 JUMPDEST DUP2 SLOAD PUSH1 0x1 PUSH1 0x1 PUSH1 0xA0 SHL SUB AND DUP2 MSTORE PUSH1 0x1 SWAP1 SWAP2 ADD SWAP1 PUSH1 0x20 ADD DUP1 DUP4 GT PUSH2 0x25D0 JUMPI JUMPDEST POP POP POP POP POP SWAP1 POP SWAP1 JUMP JUMPDEST PUSH1 0x0 SLOAD PUSH1 0xFF AND ISZERO PUSH2 0x2641 JUMPI PUSH1 0x40 MLOAD PUSH3 0x461BCD PUSH1 0xE5 SHL DUP2 MSTORE PUSH1 0x20 PUSH1 0x4 DUP3 ADD MSTORE PUSH1 0x13 PUSH1 0x24 DUP3 ADD MSTORE PUSH19 0x105B1C9958591E481A5B9A5D1A585B1A5E9959 PUSH1 0x6A SHL PUSH1 0x44 DUP3 ADD MSTORE PUSH1 0x64 ADD PUSH2 0xB15 JUMP JUMPDEST PUSH1 0xC DUP1 SLOAD PUSH1 0x1 PUSH1 0x1 PUSH1 0xA0 SHL SUB NOT AND PUSH2 0xF001 OR SWAP1 SSTORE PUSH1 0x0 JUMPDEST DUP2 DUP2 LT ISZERO PUSH2 0x29F0 JUMPI PUSH1 0x0 DUP4 DUP4 DUP4 DUP2 DUP2 LT PUSH2 0x2674 JUMPI PUSH2 0x2674 PUSH2 0x45D3 JUMP JUMPDEST SWAP1 POP PUSH1 0x20 MUL ADD PUSH1 0x20 DUP2 ADD SWAP1 PUSH2 0x2689 SWAP2 SWAP1 PUSH2 0x406C JUMP JUMPDEST PUSH1 0x1 PUSH1 0x1 PUSH1 0xA0 SHL SUB AND SUB PUSH2 0x26DF JUMPI PUSH1 0x40 MLOAD PUSH3 0x461BCD PUSH1 0xE5 SHL DUP2 MSTORE PUSH1 0x20 PUSH1 0x4 DUP3 ADD MSTORE PUSH1 0x19 PUSH1 0x24 DUP3 ADD MSTORE PUSH32 0x496E76616C69642076616C696461746F72206164647265737300000000000000 PUSH1 0x44 DUP3 ADD MSTORE PUSH1 0x64 ADD PUSH2 0xB15 JUMP JUMPDEST TIMESTAMP PUSH1 0xA PUSH1 0x0 DUP6 DUP6 DUP6 DUP2 DUP2 LT PUSH2 0x26F6 JUMPI PUSH2 0x26F6 PUSH2 0x45D3 JUMP JUMPDEST SWAP1 POP PUSH1 0x20 MUL ADD PUSH1 0x20 DUP2 ADD SWAP1 PUSH2 0x270B SWAP2 SWAP1 PUSH2 0x406C JUMP JUMPDEST PUSH1 0x1 PUSH1 0x1 PUSH1 0xA0 SHL SUB AND DUP2 MSTORE PUSH1 0x20 DUP2 ADD SWAP2 SWAP1 SWAP2 MSTORE PUSH1 0x40 ADD PUSH1 0x0 KECCAK256 SSTORE PUSH2 0x274F DUP4 DUP4 DUP4 DUP2 DUP2 LT PUSH2 0x273A JUMPI PUSH2 0x273A PUSH2 0x45D3 JUMP JUMPDEST SWAP1 POP PUSH1 0x20 MUL ADD PUSH1 0x20 DUP2 ADD SWAP1 PUSH2 0x62A SWAP2 SWAP1 PUSH2 0x406C JUMP JUMPDEST PUSH2 0x27AF JUMPI PUSH1 0x5 DUP4 DUP4 DUP4 DUP2 DUP2 LT PUSH2 0x2767 JUMPI PUSH2 0x2767 PUSH2 0x45D3 JUMP JUMPDEST SWAP1 POP PUSH1 0x20 MUL ADD PUSH1 0x20 DUP2 ADD SWAP1 PUSH2 0x277C SWAP2 SWAP1 PUSH2 0x406C JUMP JUMPDEST DUP2 SLOAD PUSH1 0x1 DUP2 ADD DUP4 SSTORE PUSH1 0x0 SWAP3 DUP4 MSTORE PUSH1 0x20 SWAP1 SWAP3 KECCAK256 SWAP1 SWAP2 ADD DUP1 SLOAD PUSH1 0x1 PUSH1 0x1 PUSH1 0xA0 SHL SUB NOT AND PUSH1 0x1 PUSH1 0x1 PUSH1 0xA0 SHL SUB SWAP1 SWAP3 AND SWAP2 SWAP1 SWAP2 OR SWAP1 SSTORE JUMPDEST PUSH2 0x27D9 DUP4 DUP4 DUP4 DUP2 DUP2 LT PUSH2 0x27C4 JUMPI PUSH2 0x27C4 PUSH2 0x45D3 JUMP JUMPDEST SWAP1 POP PUSH1 0x20 MUL ADD PUSH1 0x20 DUP2 ADD SWAP1 PUSH2 0x890 SWAP2 SWAP1 PUSH2 0x406C JUMP JUMPDEST PUSH2 0x2839 JUMPI PUSH1 0x6 DUP4 DUP4 DUP4 DUP2 DUP2 LT PUSH2 0x27F1 JUMPI PUSH2 0x27F1 PUSH2 0x45D3 JUMP JUMPDEST SWAP1 POP PUSH1 0x20 MUL ADD PUSH1 0x20 DUP2 ADD SWAP1 PUSH2 0x2806 SWAP2 SWAP1 PUSH2 0x406C JUMP JUMPDEST DUP2 SLOAD PUSH1 0x1 DUP2 ADD DUP4 SSTORE PUSH1 0x0 SWAP3 DUP4 MSTORE PUSH1 0x20 SWAP1 SWAP3 KECCAK256 SWAP1 SWAP2 ADD DUP1 SLOAD PUSH1 0x1 PUSH1 0x1 PUSH1 0xA0 SHL SUB NOT AND PUSH1 0x1 PUSH1 0x1 PUSH1 0xA0 SHL SUB SWAP1 SWAP3 AND SWAP2 SWAP1 SWAP2 OR SWAP1 SSTORE JUMPDEST PUSH1 0x0 PUSH1 0x3 DUP2 DUP6 DUP6 DUP6 DUP2 DUP2 LT PUSH2 0x2850 JUMPI PUSH2 0x2850 PUSH2 0x45D3 JUMP JUMPDEST SWAP1 POP PUSH1 0x20 MUL ADD PUSH1 0x20 DUP2 ADD SWAP1 PUSH2 0x2865 SWAP2 SWAP1 PUSH2 0x406C JUMP JUMPDEST PUSH1 0x1 PUSH1 0x1 PUSH1 0xA0 SHL SUB SWAP1 DUP2 AND DUP3 MSTORE PUSH1 0x20 DUP3 ADD SWAP3 SWAP1 SWAP3 MSTORE PUSH1 0x40 ADD PUSH1 0x0 KECCAK256 SLOAD AND SUB PUSH2 0x290B JUMPI DUP3 DUP3 DUP3 DUP2 DUP2 LT PUSH2 0x2899 JUMPI PUSH2 0x2899 PUSH2 0x45D3 JUMP JUMPDEST SWAP1 POP PUSH1 0x20 MUL ADD PUSH1 0x20 DUP2 ADD SWAP1 PUSH2 0x28AE SWAP2 SWAP1 PUSH2 0x406C JUMP JUMPDEST PUSH1 0x3 PUSH1 0x0 DUP6 DUP6 DUP6 DUP2 DUP2 LT PUSH2 0x28C4 JUMPI PUSH2 0x28C4 PUSH2 0x45D3 JUMP JUMPDEST SWAP1 POP PUSH1 0x20 MUL ADD PUSH1 0x20 DUP2 ADD SWAP1 PUSH2 0x28D9 SWAP2 SWAP1 PUSH2 0x406C JUMP JUMPDEST PUSH1 0x1 PUSH1 0x1 PUSH1 0xA0 SHL SUB SWAP1 DUP2 AND DUP3 MSTORE PUSH1 0x20 DUP3 ADD SWAP3 SWAP1 SWAP3 MSTORE PUSH1 0x40 ADD PUSH1 0x0 KECCAK256 DUP1 SLOAD PUSH1 0x1 PUSH1 0x1 PUSH1 0xA0 SHL SUB NOT AND SWAP3 SWAP1 SWAP2 AND SWAP2 SWAP1 SWAP2 OR SWAP1 SSTORE JUMPDEST PUSH1 0x0 PUSH1 0x3 PUSH1 0x0 DUP6 DUP6 DUP6 DUP2 DUP2 LT PUSH2 0x2923 JUMPI PUSH2 0x2923 PUSH2 0x45D3 JUMP JUMPDEST SWAP1 POP PUSH1 0x20 MUL ADD PUSH1 0x20 DUP2 ADD SWAP1 PUSH2 0x2938 SWAP2 SWAP1 PUSH2 0x406C JUMP JUMPDEST PUSH1 0x1 PUSH1 0x1 PUSH1 0xA0 SHL SUB AND DUP2 MSTORE PUSH1 0x20 DUP2 ADD SWAP2 SWAP1 SWAP2 MSTORE PUSH1 0x40 ADD PUSH1 0x0 KECCAK256 SLOAD PUSH1 0x1 PUSH1 0xA0 SHL SWAP1 DIV PUSH1 0xFF AND PUSH1 0x4 DUP2 GT ISZERO PUSH2 0x296D JUMPI PUSH2 0x296D PUSH2 0x40C2 JUMP JUMPDEST SUB PUSH2 0x29DE JUMPI PUSH1 0x2 PUSH1 0x3 PUSH1 0x0 DUP6 DUP6 DUP6 DUP2 DUP2 LT PUSH2 0x298A JUMPI PUSH2 0x298A PUSH2 0x45D3 JUMP JUMPDEST SWAP1 POP PUSH1 0x20 MUL ADD PUSH1 0x20 DUP2 ADD SWAP1 PUSH2 0x299F SWAP2 SWAP1 PUSH2 0x406C JUMP JUMPDEST PUSH1 0x1 PUSH1 0x1 PUSH1 0xA0 SHL SUB AND DUP2 MSTORE PUSH1 0x20 DUP2 ADD SWAP2 SWAP1 SWAP2 MSTORE PUSH1 0x40 ADD PUSH1 0x0 KECCAK256 DUP1 SLOAD PUSH1 0xFF PUSH1 0xA0 SHL NOT AND PUSH1 0x1 PUSH1 0xA0 SHL DUP4 PUSH1 0x4 DUP2 GT ISZERO PUSH2 0x29D8 JUMPI PUSH2 0x29D8 PUSH2 0x40C2 JUMP JUMPDEST MUL OR SWAP1 SSTORE POP JUMPDEST DUP1 PUSH2 0x29E8 DUP2 PUSH2 0x45E9 JUMP JUMPDEST SWAP2 POP POP PUSH2 0x2658 JUMP JUMPDEST POP POP PUSH1 0x0 DUP1 SLOAD PUSH1 0xFF NOT AND PUSH1 0x1 OR SWAP1 SSTORE POP JUMP JUMPDEST PUSH1 0x1 PUSH1 0x1 PUSH1 0xA0 SHL SUB DUP2 DUP2 AND PUSH1 0x0 SWAP1 DUP2 MSTORE PUSH1 0x3 PUSH1 0x20 SWAP1 DUP2 MSTORE PUSH1 0x40 DUP1 DUP4 KECCAK256 DUP2 MLOAD PUSH2 0x100 DUP2 ADD SWAP1 SWAP3 MSTORE DUP1 SLOAD SWAP5 DUP6 AND DUP3 MSTORE PUSH1 0x60 SWAP5 SWAP2 SWAP3 SWAP1 SWAP2 SWAP1 DUP4 ADD SWAP1 PUSH1 0x1 PUSH1 0xA0 SHL SWAP1 DIV PUSH1 0xFF AND PUSH1 0x4 DUP2 GT ISZERO PUSH2 0x2A55 JUMPI PUSH2 0x2A55 PUSH2 0x40C2 JUMP JUMPDEST PUSH1 0x4 DUP2 GT ISZERO PUSH2 0x2A66 JUMPI PUSH2 0x2A66 PUSH2 0x40C2 JUMP JUMPDEST DUP2 MSTORE DUP2 SLOAD PUSH1 0x20 SWAP1 SWAP2 ADD SWAP1 PUSH1 0x1 PUSH1 0xA8 SHL SWAP1 DIV PUSH1 0xFF AND PUSH1 0x3 DUP2 GT ISZERO PUSH2 0x2A8B JUMPI PUSH2 0x2A8B PUSH2 0x40C2 JUMP JUMPDEST PUSH1 0x3 DUP2 GT ISZERO PUSH2 0x2A9C JUMPI PUSH2 0x2A9C PUSH2 0x40C2 JUMP JUMPDEST DUP2 MSTORE PUSH1 0x20 ADD PUSH1 0x1 DUP3 ADD SLOAD DUP2 MSTORE PUSH1 0x20 ADD PUSH1 0x2 DUP3 ADD PUSH1 0x40 MLOAD DUP1 PUSH1 0x20 ADD PUSH1 0x40 MSTORE SWAP1 DUP2 PUSH1 0x0 DUP3 ADD DUP1 SLOAD PUSH2 0x2ACA SWAP1 PUSH2 0x4651 JUMP JUMPDEST DUP1 PUSH1 0x1F ADD PUSH1 0x20 DUP1 SWAP2 DIV MUL PUSH1 0x20 ADD PUSH1 0x40 MLOAD SWAP1 DUP2 ADD PUSH1 0x40 MSTORE DUP1 SWAP3 SWAP2 SWAP1 DUP2 DUP2 MSTORE PUSH1 0x20 ADD DUP3 DUP1 SLOAD PUSH2 0x2AF6 SWAP1 PUSH2 0x4651 JUMP JUMPDEST DUP1 ISZERO PUSH2 0x2B43 JUMPI DUP1 PUSH1 0x1F LT PUSH2 0x2B18 JUMPI PUSH2 0x100 DUP1 DUP4 SLOAD DIV MUL DUP4 MSTORE SWAP2 PUSH1 0x20 ADD SWAP2 PUSH2 0x2B43 JUMP JUMPDEST DUP3 ADD SWAP2 SWAP1 PUSH1 0x0 MSTORE PUSH1 0x20 PUSH1 0x0 KECCAK256 SWAP1 JUMPDEST DUP2 SLOAD DUP2 MSTORE SWAP1 PUSH1 0x1 ADD SWAP1 PUSH1 0x20 ADD DUP1 DUP4 GT PUSH2 0x2B26 JUMPI DUP3 SWAP1 SUB PUSH1 0x1F AND DUP3 ADD SWAP2 JUMPDEST POP POP POP POP POP DUP2 MSTORE POP POP DUP2 MSTORE PUSH1 0x20 ADD PUSH1 0x3 DUP3 ADD SLOAD DUP2 MSTORE PUSH1 0x20 ADD PUSH1 0x4 DUP3 ADD SLOAD DUP2 MSTORE PUSH1 0x20 ADD PUSH1 0x5 DUP3 ADD DUP1 SLOAD DUP1 PUSH1 0x20 MUL PUSH1 0x20 ADD PUSH1 0x40 MLOAD SWAP1 DUP2 ADD PUSH1 0x40 MSTORE DUP1 SWAP3 SWAP2 SWAP1 DUP2 DUP2 MSTORE PUSH1 0x20 ADD DUP3 DUP1 SLOAD DUP1 ISZERO PUSH2 0x2BBD JUMPI PUSH1 0x20 MUL DUP3 ADD SWAP2 SWAP1 PUSH1 0x0 MSTORE PUSH1 0x20 PUSH1 0x0 KECCAK256 SWAP1 JUMPDEST DUP2 SLOAD PUSH1 0x1 PUSH1 0x1 PUSH1 0xA0 SHL SUB AND DUP2 MSTORE PUSH1 0x1 SWAP1 SWAP2 ADD SWAP1 PUSH1 0x20 ADD DUP1 DUP4 GT PUSH2 0x2B9F JUMPI JUMPDEST POP POP POP SWAP2 SWAP1 SWAP3 MSTORE POP POP POP PUSH1 0x80 ADD MLOAD MLOAD SWAP4 SWAP3 POP POP POP JUMP JUMPDEST PUSH1 0x60 PUSH1 0x6 DUP1 SLOAD DUP1 PUSH1 0x20 MUL PUSH1 0x20 ADD PUSH1 0x40 MLOAD SWAP1 DUP2 ADD PUSH1 0x40 MSTORE DUP1 SWAP3 SWAP2 SWAP1 DUP2 DUP2 MSTORE PUSH1 0x20 ADD DUP3 DUP1 SLOAD DUP1 ISZERO PUSH2 0x25EE JUMPI PUSH1 0x20 MUL DUP3 ADD SWAP2 SWAP1 PUSH1 0x0 MSTORE PUSH1 0x20 PUSH1 0x0 KECCAK256 SWAP1 DUP2 SLOAD PUSH1 0x1 PUSH1 0x1 PUSH1 0xA0 SHL SUB AND DUP2 MSTORE PUSH1 0x1 SWAP1 SWAP2 ADD SWAP1 PUSH1 0x20 ADD DUP1 DUP4 GT PUSH2 0x25D0 JUMPI POP POP POP POP POP SWAP1 POP SWAP1 JUMP JUMPDEST PUSH1 0xC SLOAD PUSH1 0x40 MLOAD PUSH4 0x32F3C17F PUSH1 0xE0 SHL DUP2 MSTORE PUSH1 0x1 PUSH1 0x1 PUSH1 0xA0 SHL SUB DUP4 DUP2 AND PUSH1 0x4 DUP4 ADD MSTORE PUSH1 0x0 SWAP3 AND SWAP1 PUSH4 0x32F3C17F SWAP1 PUSH1 0x24 ADD PUSH1 0x20 PUSH1 0x40 MLOAD DUP1 DUP4 SUB DUP2 DUP7 GAS STATICCALL ISZERO DUP1 ISZERO PUSH2 0x2C7E JUMPI RETURNDATASIZE PUSH1 0x0 DUP1 RETURNDATACOPY RETURNDATASIZE PUSH1 0x0 REVERT JUMPDEST POP POP POP POP PUSH1 0x40 MLOAD RETURNDATASIZE PUSH1 0x1F NOT PUSH1 0x1F DUP3 ADD AND DUP3 ADD DUP1 PUSH1 0x40 MSTORE POP DUP2 ADD SWAP1 PUSH2 0x14CA SWAP2 SWAP1 PUSH2 0x4602 JUMP JUMPDEST CALLER COINBASE EQ PUSH2 0x2CDE JUMPI PUSH1 0x40 MLOAD PUSH3 0x461BCD PUSH1 0xE5 SHL DUP2 MSTORE PUSH1 0x20 PUSH1 0x4 DUP3 ADD MSTORE PUSH1 0xA PUSH1 0x24 DUP3 ADD MSTORE PUSH10 0x4D696E6572206F6E6C79 PUSH1 0xB0 SHL PUSH1 0x44 DUP3 ADD MSTORE PUSH1 0x64 ADD PUSH2 0xB15 JUMP JUMPDEST NUMBER PUSH1 0x0 SWAP1 DUP2 MSTORE PUSH1 0xD PUSH1 0x20 SWAP1 DUP2 MSTORE PUSH1 0x40 DUP1 DUP4 KECCAK256 DUP4 DUP1 MSTORE SWAP1 SWAP2 MSTORE SWAP1 KECCAK256 SLOAD PUSH1 0xFF AND ISZERO PUSH2 0x2D49 JUMPI PUSH1 0x40 MLOAD PUSH3 0x461BCD PUSH1 0xE5 SHL DUP2 MSTORE PUSH1 0x20 PUSH1 0x4 DUP3 ADD MSTORE PUSH1 0x19 PUSH1 0x24 DUP3 ADD MSTORE PUSH32 0x426C6F636B20697320616C726561647920726577617264656400000000000000 PUSH1 0x44 DUP3 ADD MSTORE PUSH1 0x64 ADD PUSH2 0xB15 JUMP JUMPDEST PUSH1 0x0 SLOAD PUSH1 0xFF AND PUSH2 0x2D6B JUMPI PUSH1 0x40 MLOAD PUSH3 0x461BCD PUSH1 0xE5 SHL DUP2 MSTORE PUSH1 0x4 ADD PUSH2 0xB15 SWAP1 PUSH2 0x4559 JUMP JUMPDEST PUSH1 0x5 SLOAD PUSH1 0x64 LT ISZERO PUSH2 0x2DD1 JUMPI PUSH1 0x40 MLOAD PUSH3 0x461BCD PUSH1 0xE5 SHL DUP2 MSTORE PUSH1 0x20 PUSH1 0x4 DUP3 ADD MSTORE PUSH1 0x2A PUSH1 0x24 DUP3 ADD MSTORE PUSH32 0x546F6F206D616E792076616C696461746F727320666F722073696E676C652074 PUSH1 0x44 DUP3 ADD MSTORE PUSH10 0x3930B739B0B1BA34B7B7 PUSH1 0xB1 SHL PUSH1 0x64 DUP3 ADD MSTORE PUSH1 0x84 ADD PUSH2 0xB15 JUMP JUMPDEST NUMBER PUSH1 0x0 SWAP1 DUP2 MSTORE PUSH1 0xD PUSH1 0x20 SWAP1 DUP2 MSTORE PUSH1 0x40 DUP1 DUP4 KECCAK256 DUP4 DUP1 MSTORE SWAP1 SWAP2 MSTORE DUP2 KECCAK256 DUP1 SLOAD PUSH1 0xFF NOT AND PUSH1 0x1 OR SWAP1 SSTORE CALLER SWAP1 CALLVALUE SWAP1 DUP2 SWAP1 PUSH3 0x186A0 PUSH2 0x2E0C PUSH2 0xEA60 DUP5 PUSH2 0x4592 JUMP JUMPDEST PUSH2 0x2E16 SWAP2 SWAP1 PUSH2 0x45BF JUMP JUMPDEST SWAP1 POP PUSH2 0x2E22 DUP2 DUP4 PUSH2 0x457F JUMP JUMPDEST SWAP2 POP PUSH1 0x0 PUSH3 0x186A0 PUSH2 0x2E36 PUSH2 0x2710 DUP7 PUSH2 0x4592 JUMP JUMPDEST PUSH2 0x2E40 SWAP2 SWAP1 PUSH2 0x45BF JUMP JUMPDEST SWAP1 POP PUSH2 0x2E4C DUP2 DUP5 PUSH2 0x457F JUMP JUMPDEST SWAP3 POP DUP1 ISZERO PUSH2 0x2E97 JUMPI PUSH1 0x40 MLOAD PUSH20 0xD1D6E4F8777393AC4DE10067EF6073048DA0607D SWAP1 DUP3 ISZERO PUSH2 0x8FC MUL SWAP1 DUP4 SWAP1 PUSH1 0x0 DUP2 DUP2 DUP2 DUP6 DUP9 DUP9 CALL SWAP4 POP POP POP POP ISZERO DUP1 ISZERO PUSH2 0x2E95 JUMPI RETURNDATASIZE PUSH1 0x0 DUP1 RETURNDATACOPY RETURNDATASIZE PUSH1 0x0 REVERT JUMPDEST POP JUMPDEST PUSH1 0x1 PUSH1 0x1 PUSH1 0xA0 SHL SUB DUP6 AND PUSH1 0x0 DUP2 DUP2 MSTORE PUSH1 0xB PUSH1 0x20 SWAP1 DUP2 MSTORE PUSH1 0x40 DUP1 DUP4 KECCAK256 PUSH1 0xA DUP4 MSTORE DUP2 DUP5 KECCAK256 DUP1 SLOAD DUP6 MSTORE SWAP1 DUP4 MSTORE DUP2 DUP5 KECCAK256 SLOAD SWAP5 DUP5 MSTORE TIMESTAMP SWAP1 SSTORE PUSH1 0x3 SWAP1 SWAP2 MSTORE SWAP1 KECCAK256 PUSH1 0x1 ADD SLOAD ISZERO PUSH2 0x2F4D JUMPI PUSH1 0x1 PUSH1 0x1 PUSH1 0xA0 SHL SUB DUP7 AND PUSH1 0x0 SWAP1 DUP2 MSTORE PUSH1 0x3 PUSH1 0x20 MSTORE PUSH1 0x40 SWAP1 KECCAK256 PUSH1 0x1 ADD SLOAD PUSH2 0x2F09 DUP6 PUSH9 0x56BC75E2D63100000 PUSH2 0x4592 JUMP JUMPDEST PUSH2 0x2F13 SWAP2 SWAP1 PUSH2 0x45BF JUMP JUMPDEST PUSH2 0x2F1D SWAP1 DUP3 PUSH2 0x4044 JUMP JUMPDEST PUSH1 0x1 PUSH1 0x1 PUSH1 0xA0 SHL SUB DUP8 AND PUSH1 0x0 SWAP1 DUP2 MSTORE PUSH1 0xB PUSH1 0x20 SWAP1 DUP2 MSTORE PUSH1 0x40 DUP1 DUP4 KECCAK256 PUSH1 0xA DUP4 MSTORE DUP2 DUP5 KECCAK256 SLOAD DUP5 MSTORE SWAP1 SWAP2 MSTORE SWAP1 KECCAK256 SSTORE PUSH2 0x2F87 JUMP JUMPDEST PUSH1 0x1 PUSH1 0x1 PUSH1 0xA0 SHL SUB DUP7 AND PUSH1 0x0 SWAP1 DUP2 MSTORE PUSH1 0xB PUSH1 0x20 SWAP1 DUP2 MSTORE PUSH1 0x40 DUP1 DUP4 KECCAK256 PUSH1 0xA DUP4 MSTORE DUP2 DUP5 KECCAK256 SLOAD DUP5 MSTORE SWAP1 SWAP2 MSTORE SWAP1 KECCAK256 DUP2 SWAP1 SSTORE PUSH2 0x2F84 DUP5 DUP5 PUSH2 0x4044 JUMP JUMPDEST SWAP3 POP JUMPDEST PUSH1 0x0 PUSH1 0x1 PUSH1 0x1 PUSH1 0xA0 SHL SUB DUP8 AND PUSH1 0x0 SWAP1 DUP2 MSTORE PUSH1 0x3 PUSH1 0x20 MSTORE PUSH1 0x40 SWAP1 KECCAK256 SLOAD PUSH1 0x1 PUSH1 0xA0 SHL SWAP1 DIV PUSH1 0xFF AND PUSH1 0x4 DUP2 GT ISZERO PUSH2 0x2FBD JUMPI PUSH2 0x2FBD PUSH2 0x40C2 JUMP JUMPDEST SUB PUSH2 0x2FCC JUMPI POP POP POP POP POP POP POP POP JUMP JUMPDEST PUSH8 0xDE0B6B3A7640000 PUSH1 0x1 SLOAD LT ISZERO DUP1 ISZERO PUSH2 0x2FED JUMPI POP PUSH8 0xDE0B6B3A7640000 SELFBALANCE GT JUMPDEST ISZERO PUSH2 0x3048 JUMPI PUSH8 0xDE0B6B3A7640000 PUSH1 0x1 PUSH1 0x0 DUP3 DUP3 SLOAD PUSH2 0x300C SWAP2 SWAP1 PUSH2 0x457F JUMP JUMPDEST SWAP3 POP POP DUP2 SWAP1 SSTORE POP PUSH8 0xDE0B6B3A7640000 PUSH1 0x2 PUSH1 0x0 DUP3 DUP3 SLOAD PUSH2 0x302D SWAP2 SWAP1 PUSH2 0x4044 JUMP JUMPDEST SWAP1 SWAP2 SSTORE POP PUSH2 0x3045 SWAP1 POP PUSH8 0xDE0B6B3A7640000 DUP5 PUSH2 0x4044 JUMP JUMPDEST SWAP3 POP JUMPDEST PUSH2 0x3053 DUP4 PUSH1 0x0 PUSH2 0x3B61 JUMP JUMPDEST DUP6 PUSH1 0x1 PUSH1 0x1 PUSH1 0xA0 SHL SUB AND PUSH32 0x1D6CE8F9F300ECD90371399CE90DA8388BBA45019701A1FD6D6EE08EA5800776 DUP5 TIMESTAMP DUP12 DUP12 PUSH1 0x40 MLOAD PUSH2 0x3092 SWAP5 SWAP4 SWAP3 SWAP2 SWAP1 PUSH2 0x4799 JUMP JUMPDEST PUSH1 0x40 MLOAD DUP1 SWAP2 SUB SWAP1 LOG2 POP POP POP POP POP POP POP POP JUMP JUMPDEST PUSH1 0x0 DUP1 PUSH2 0x30B1 PUSH1 0x0 PUSH2 0x3E9C JUMP JUMPDEST SWAP2 POP SWAP2 POP SWAP1 SWAP2 JUMP JUMPDEST PUSH1 0x0 DUP1 SLOAD PUSH1 0xFF AND PUSH2 0x30DC JUMPI PUSH1 0x40 MLOAD PUSH3 0x461BCD PUSH1 0xE5 SHL DUP2 MSTORE PUSH1 0x4 ADD PUSH2 0xB15 SWAP1 PUSH2 0x4559 JUMP JUMPDEST ORIGIN PUSH1 0x0 PUSH1 0x1 PUSH1 0x1 PUSH1 0xA0 SHL SUB DUP5 AND PUSH1 0x0 SWAP1 DUP2 MSTORE PUSH1 0x3 PUSH1 0x20 MSTORE PUSH1 0x40 SWAP1 KECCAK256 SLOAD PUSH1 0x1 PUSH1 0xA0 SHL SWAP1 DIV PUSH1 0xFF AND PUSH1 0x4 DUP2 GT ISZERO PUSH2 0x3113 JUMPI PUSH2 0x3113 PUSH2 0x40C2 JUMP JUMPDEST SUB PUSH2 0x3156 JUMPI PUSH1 0x40 MLOAD PUSH3 0x461BCD PUSH1 0xE5 SHL DUP2 MSTORE PUSH1 0x20 PUSH1 0x4 DUP3 ADD MSTORE PUSH1 0x13 PUSH1 0x24 DUP3 ADD MSTORE PUSH19 0x15985B1A59185D1BDC881B9BDD08195E1A5CDD PUSH1 0x6A SHL PUSH1 0x44 DUP3 ADD MSTORE PUSH1 0x64 ADD PUSH2 0xB15 JUMP JUMPDEST PUSH1 0x1 PUSH1 0x1 PUSH1 0xA0 SHL SUB DUP1 DUP3 AND PUSH1 0x0 SWAP1 DUP2 MSTORE PUSH1 0x4 PUSH1 0x20 SWAP1 DUP2 MSTORE PUSH1 0x40 DUP1 DUP4 KECCAK256 SWAP4 DUP8 AND DUP4 MSTORE SWAP3 DUP2 MSTORE DUP3 DUP3 KECCAK256 PUSH1 0x3 SWAP1 SWAP2 MSTORE SWAP2 SWAP1 KECCAK256 DUP2 SLOAD PUSH1 0x1 DUP4 ADD SLOAD ISZERO PUSH2 0x31E5 JUMPI PUSH1 0x40 MLOAD PUSH3 0x461BCD PUSH1 0xE5 SHL DUP2 MSTORE PUSH1 0x20 PUSH1 0x4 DUP3 ADD MSTORE PUSH1 0x23 PUSH1 0x24 DUP3 ADD MSTORE PUSH32 0x596F752061726520616C726561647920696E20756E7374616B696E6720737461 PUSH1 0x44 DUP3 ADD MSTORE PUSH3 0x747573 PUSH1 0xE8 SHL PUSH1 0x64 DUP3 ADD MSTORE PUSH1 0x84 ADD PUSH2 0xB15 JUMP JUMPDEST PUSH1 0x0 DUP2 GT PUSH2 0x3230 JUMPI PUSH1 0x40 MLOAD PUSH3 0x461BCD PUSH1 0xE5 SHL DUP2 MSTORE PUSH1 0x20 PUSH1 0x4 DUP3 ADD MSTORE PUSH1 0x18 PUSH1 0x24 DUP3 ADD MSTORE PUSH24 0x596F7520646F6E2774206861766520616E79207374616B65 PUSH1 0x40 SHL PUSH1 0x44 DUP3 ADD MSTORE PUSH1 0x64 ADD PUSH2 0xB15 JUMP JUMPDEST PUSH1 0x6 SLOAD PUSH1 0x1 EQ DUP1 ISZERO PUSH2 0x3246 JUMPI POP PUSH2 0x3246 DUP7 PUSH2 0x21E8 JUMP JUMPDEST DUP1 ISZERO PUSH2 0x3269 JUMPI POP PUSH9 0x1BC16D674EC800000 DUP2 DUP4 PUSH1 0x1 ADD SLOAD PUSH2 0x3267 SWAP2 SWAP1 PUSH2 0x457F JUMP JUMPDEST LT JUMPDEST ISZERO PUSH2 0x32EA JUMPI PUSH1 0x40 MLOAD PUSH3 0x461BCD PUSH1 0xE5 SHL DUP2 MSTORE PUSH1 0x20 PUSH1 0x4 DUP3 ADD MSTORE PUSH1 0x45 PUSH1 0x24 DUP3 ADD MSTORE PUSH32 0x596F752063616E277420756E7374616B652C2076616C696461746F72206C6973 PUSH1 0x44 DUP3 ADD MSTORE PUSH32 0x742077696C6C20626520656D7074792061667465722074686973206F70657261 PUSH1 0x64 DUP3 ADD MSTORE PUSH5 0x74696F6E21 PUSH1 0xD8 SHL PUSH1 0x84 DUP3 ADD MSTORE PUSH1 0xA4 ADD PUSH2 0xB15 JUMP JUMPDEST PUSH1 0x5 DUP3 ADD SLOAD PUSH2 0x32FB SWAP1 PUSH1 0x1 SWAP1 PUSH2 0x457F JUMP JUMPDEST DUP4 PUSH1 0x2 ADD SLOAD EQ PUSH2 0x33E7 JUMPI PUSH1 0x5 DUP3 ADD DUP1 SLOAD PUSH2 0x3317 SWAP1 PUSH1 0x1 SWAP1 PUSH2 0x457F JUMP JUMPDEST DUP2 SLOAD DUP2 LT PUSH2 0x3327 JUMPI PUSH2 0x3327 PUSH2 0x45D3 JUMP JUMPDEST SWAP1 PUSH1 0x0 MSTORE PUSH1 0x20 PUSH1 0x0 KECCAK256 ADD PUSH1 0x0 SWAP1 SLOAD SWAP1 PUSH2 0x100 EXP SWAP1 DIV PUSH1 0x1 PUSH1 0x1 PUSH1 0xA0 SHL SUB AND DUP3 PUSH1 0x5 ADD DUP5 PUSH1 0x2 ADD SLOAD DUP2 SLOAD DUP2 LT PUSH2 0x335E JUMPI PUSH2 0x335E PUSH2 0x45D3 JUMP JUMPDEST SWAP1 PUSH1 0x0 MSTORE PUSH1 0x20 PUSH1 0x0 KECCAK256 ADD PUSH1 0x0 PUSH2 0x100 EXP DUP2 SLOAD DUP2 PUSH1 0x1 PUSH1 0x1 PUSH1 0xA0 SHL SUB MUL NOT AND SWAP1 DUP4 PUSH1 0x1 PUSH1 0x1 PUSH1 0xA0 SHL SUB AND MUL OR SWAP1 SSTORE POP DUP3 PUSH1 0x2 ADD SLOAD PUSH1 0x4 PUSH1 0x0 DUP5 PUSH1 0x5 ADD DUP7 PUSH1 0x2 ADD SLOAD DUP2 SLOAD DUP2 LT PUSH2 0x33AE JUMPI PUSH2 0x33AE PUSH2 0x45D3 JUMP JUMPDEST PUSH1 0x0 SWAP2 DUP3 MSTORE PUSH1 0x20 DUP1 DUP4 KECCAK256 SWAP1 SWAP2 ADD SLOAD PUSH1 0x1 PUSH1 0x1 PUSH1 0xA0 SHL SUB SWAP1 DUP2 AND DUP5 MSTORE DUP4 DUP3 ADD SWAP5 SWAP1 SWAP5 MSTORE PUSH1 0x40 SWAP3 DUP4 ADD DUP3 KECCAK256 SWAP4 DUP12 AND DUP3 MSTORE SWAP3 SWAP1 SWAP3 MSTORE SWAP1 KECCAK256 PUSH1 0x2 ADD SSTORE JUMPDEST DUP2 PUSH1 0x5 ADD DUP1 SLOAD DUP1 PUSH2 0x33FA JUMPI PUSH2 0x33FA PUSH2 0x4805 JUMP JUMPDEST PUSH1 0x0 DUP3 DUP2 MSTORE PUSH1 0x20 SWAP1 KECCAK256 DUP2 ADD PUSH1 0x0 NOT SWAP1 DUP2 ADD DUP1 SLOAD PUSH1 0x1 PUSH1 0x1 PUSH1 0xA0 SHL SUB NOT AND SWAP1 SSTORE ADD SWAP1 SSTORE PUSH1 0x1 DUP3 ADD SLOAD PUSH2 0x342C SWAP1 DUP3 SWAP1 PUSH2 0x457F JUMP JUMPDEST PUSH1 0x1 DUP1 DUP5 ADD SWAP2 SWAP1 SWAP2 SSTORE NUMBER SWAP1 DUP5 ADD SSTORE PUSH1 0x0 PUSH1 0x2 DUP5 ADD SSTORE PUSH1 0x7 SLOAD PUSH2 0x344F SWAP1 DUP3 SWAP1 PUSH2 0x457F JUMP JUMPDEST PUSH1 0x7 SSTORE PUSH1 0x1 DUP3 ADD SLOAD PUSH9 0x1BC16D674EC800000 GT DUP1 ISZERO PUSH2 0x34A2 JUMPI POP PUSH1 0x4 PUSH1 0x1 PUSH1 0x1 PUSH1 0xA0 SHL SUB DUP8 AND PUSH1 0x0 SWAP1 DUP2 MSTORE PUSH1 0x3 PUSH1 0x20 MSTORE PUSH1 0x40 SWAP1 KECCAK256 SLOAD PUSH1 0x1 PUSH1 0xA0 SHL SWAP1 DIV PUSH1 0xFF AND PUSH1 0x4 DUP2 GT ISZERO PUSH2 0x349F JUMPI PUSH2 0x349F PUSH2 0x40C2 JUMP JUMPDEST EQ ISZERO JUMPDEST ISZERO PUSH2 0x34C1 JUMPI DUP2 SLOAD PUSH1 0xFF PUSH1 0xA0 SHL NOT AND PUSH1 0x3 PUSH1 0xA0 SHL OR DUP3 SSTORE PUSH2 0x34C1 DUP7 PUSH2 0x3878 JUMP JUMPDEST PUSH2 0x34CA DUP7 PUSH2 0x1BF6 JUMP JUMPDEST POP PUSH1 0x1 PUSH1 0x1 PUSH1 0xA0 SHL SUB DUP5 DUP2 AND PUSH1 0x0 DUP2 DUP2 MSTORE PUSH1 0x9 PUSH1 0x20 SWAP1 DUP2 MSTORE PUSH1 0x40 DUP1 DUP4 KECCAK256 SWAP5 DUP12 AND DUP1 DUP5 MSTORE SWAP5 DUP3 MSTORE DUP1 DUP4 KECCAK256 SWAP3 SWAP1 SWAP3 SSTORE DUP2 MLOAD DUP6 DUP2 MSTORE TIMESTAMP SWAP2 DUP2 ADD SWAP2 SWAP1 SWAP2 MSTORE PUSH32 0x449002AE18E748D69A55F38514400D64F966492E593E32D6E9B8B24DB98A0BC1 SWAP2 ADD PUSH1 0x40 MLOAD DUP1 SWAP2 SUB SWAP1 LOG3 POP PUSH1 0x1 SWAP6 SWAP5 POP POP POP POP POP JUMP JUMPDEST PUSH1 0x1 PUSH1 0x1 PUSH1 0xA0 SHL SUB DUP2 AND PUSH1 0x0 SWAP1 DUP2 MSTORE PUSH1 0x3 PUSH1 0x20 MSTORE PUSH1 0x40 DUP2 KECCAK256 PUSH1 0x1 ADD SLOAD PUSH2 0x3560 SWAP1 PUSH2 0x1396 JUMP JUMPDEST PUSH1 0x1 PUSH1 0x1 PUSH1 0xA0 SHL SUB DUP4 AND PUSH1 0x0 SWAP1 DUP2 MSTORE PUSH1 0x3 PUSH1 0x20 DUP2 SWAP1 MSTORE PUSH1 0x40 SWAP1 SWAP2 KECCAK256 DUP1 SLOAD SWAP3 SWAP4 POP DUP4 SWAP3 SWAP1 SWAP2 PUSH1 0xFF PUSH1 0xA8 SHL NOT SWAP1 SWAP2 AND SWAP1 PUSH1 0x1 PUSH1 0xA8 SHL SWAP1 DUP5 SWAP1 DUP2 GT ISZERO PUSH2 0x35A5 JUMPI PUSH2 0x35A5 PUSH2 0x40C2 JUMP JUMPDEST MUL OR SWAP1 SSTORE POP POP POP JUMP JUMPDEST PUSH1 0x0 JUMPDEST PUSH1 0x6 SLOAD DUP2 LT ISZERO PUSH2 0x3609 JUMPI DUP3 PUSH1 0x1 PUSH1 0x1 PUSH1 0xA0 SHL SUB AND PUSH1 0x6 DUP3 DUP2 SLOAD DUP2 LT PUSH2 0x35D8 JUMPI PUSH2 0x35D8 PUSH2 0x45D3 JUMP JUMPDEST PUSH1 0x0 SWAP2 DUP3 MSTORE PUSH1 0x20 SWAP1 SWAP2 KECCAK256 ADD SLOAD PUSH1 0x1 PUSH1 0x1 PUSH1 0xA0 SHL SUB AND SUB PUSH2 0x35F7 JUMPI POP POP POP JUMP JUMPDEST DUP1 PUSH2 0x3601 DUP2 PUSH2 0x45E9 JUMP JUMPDEST SWAP2 POP POP PUSH2 0x35B1 JUMP JUMPDEST POP PUSH1 0x6 SLOAD PUSH2 0x2710 GT ISZERO PUSH2 0x3694 JUMPI PUSH1 0x6 DUP1 SLOAD PUSH1 0x1 DUP2 ADD DUP3 SSTORE PUSH1 0x0 SWAP2 SWAP1 SWAP2 MSTORE PUSH32 0xF652222313E28459528D920B65115C16C04F3EFC82AAEDC97BE59F3F377C0D3F ADD DUP1 SLOAD PUSH1 0x1 PUSH1 0x1 PUSH1 0xA0 SHL SUB NOT AND PUSH1 0x1 PUSH1 0x1 PUSH1 0xA0 SHL SUB DUP5 AND SWAP1 DUP2 OR SWAP1 SWAP2 SSTORE PUSH1 0x40 MLOAD TIMESTAMP DUP2 MSTORE PUSH32 0x1E3310AD6891B30E03874EC3D1422A6386C5DA63D9FAF595F5D99EEAF443B99A SWAP1 PUSH1 0x20 ADD PUSH2 0x18C2 JUMP JUMPDEST PUSH1 0x0 PUSH1 0x3 PUSH1 0x0 PUSH1 0x6 PUSH1 0x0 DUP2 SLOAD DUP2 LT PUSH2 0x36AE JUMPI PUSH2 0x36AE PUSH2 0x45D3 JUMP JUMPDEST PUSH1 0x0 SWAP2 DUP3 MSTORE PUSH1 0x20 DUP1 DUP4 KECCAK256 SWAP1 SWAP2 ADD SLOAD PUSH1 0x1 PUSH1 0x1 PUSH1 0xA0 SHL SUB AND DUP4 MSTORE DUP3 ADD SWAP3 SWAP1 SWAP3 MSTORE PUSH1 0x40 ADD DUP2 KECCAK256 PUSH1 0x1 SWAP1 DUP2 ADD SLOAD SWAP3 POP JUMPDEST PUSH1 0x6 SLOAD DUP2 LT ISZERO PUSH2 0x3782 JUMPI DUP3 PUSH1 0x3 PUSH1 0x0 PUSH1 0x6 DUP5 DUP2 SLOAD DUP2 LT PUSH2 0x36FD JUMPI PUSH2 0x36FD PUSH2 0x45D3 JUMP JUMPDEST PUSH1 0x0 SWAP2 DUP3 MSTORE PUSH1 0x20 DUP1 DUP4 KECCAK256 SWAP1 SWAP2 ADD SLOAD PUSH1 0x1 PUSH1 0x1 PUSH1 0xA0 SHL SUB AND DUP4 MSTORE DUP3 ADD SWAP3 SWAP1 SWAP3 MSTORE PUSH1 0x40 ADD SWAP1 KECCAK256 PUSH1 0x1 ADD SLOAD LT ISZERO PUSH2 0x3770 JUMPI PUSH1 0x3 PUSH1 0x0 PUSH1 0x6 DUP4 DUP2 SLOAD DUP2 LT PUSH2 0x3742 JUMPI PUSH2 0x3742 PUSH2 0x45D3 JUMP JUMPDEST PUSH1 0x0 SWAP2 DUP3 MSTORE PUSH1 0x20 DUP1 DUP4 KECCAK256 SWAP1 SWAP2 ADD SLOAD PUSH1 0x1 PUSH1 0x1 PUSH1 0xA0 SHL SUB AND DUP4 MSTORE DUP3 ADD SWAP3 SWAP1 SWAP3 MSTORE PUSH1 0x40 ADD SWAP1 KECCAK256 PUSH1 0x1 ADD SLOAD SWAP3 POP SWAP1 POP DUP1 JUMPDEST DUP1 PUSH2 0x377A DUP2 PUSH2 0x45E9 JUMP JUMPDEST SWAP2 POP POP PUSH2 0x36DB JUMP JUMPDEST POP DUP2 DUP4 GT PUSH2 0x3790 JUMPI POP POP POP POP JUMP JUMPDEST DUP4 PUSH1 0x1 PUSH1 0x1 PUSH1 0xA0 SHL SUB AND PUSH32 0x1E3310AD6891B30E03874EC3D1422A6386C5DA63D9FAF595F5D99EEAF443B99A TIMESTAMP PUSH1 0x40 MLOAD PUSH2 0x37CB SWAP2 DUP2 MSTORE PUSH1 0x20 ADD SWAP1 JUMP JUMPDEST PUSH1 0x40 MLOAD DUP1 SWAP2 SUB SWAP1 LOG2 PUSH1 0x6 DUP2 DUP2 SLOAD DUP2 LT PUSH2 0x37E6 JUMPI PUSH2 0x37E6 PUSH2 0x45D3 JUMP JUMPDEST PUSH1 0x0 SWAP2 DUP3 MSTORE PUSH1 0x20 SWAP2 DUP3 SWAP1 KECCAK256 ADD SLOAD PUSH1 0x40 MLOAD TIMESTAMP DUP2 MSTORE PUSH1 0x1 PUSH1 0x1 PUSH1 0xA0 SHL SUB SWAP1 SWAP2 AND SWAP2 PUSH32 0x7521E44559C870C316E84E60BC4785D9C034A8AB1D6ACDCE8134AC03F946C6ED SWAP2 ADD PUSH1 0x40 MLOAD DUP1 SWAP2 SUB SWAP1 LOG2 DUP4 PUSH1 0x6 DUP3 DUP2 SLOAD DUP2 LT PUSH2 0x3844 JUMPI PUSH2 0x3844 PUSH2 0x45D3 JUMP JUMPDEST SWAP1 PUSH1 0x0 MSTORE PUSH1 0x20 PUSH1 0x0 KECCAK256 ADD PUSH1 0x0 PUSH2 0x100 EXP DUP2 SLOAD DUP2 PUSH1 0x1 PUSH1 0x1 PUSH1 0xA0 SHL SUB MUL NOT AND SWAP1 DUP4 PUSH1 0x1 PUSH1 0x1 PUSH1 0xA0 SHL SUB AND MUL OR SWAP1 SSTORE POP POP POP POP POP JUMP JUMPDEST PUSH1 0x0 JUMPDEST PUSH1 0x6 SLOAD DUP2 LT DUP1 ISZERO PUSH2 0x388E JUMPI POP PUSH1 0x6 SLOAD PUSH1 0x1 LT JUMPDEST ISZERO PUSH2 0x18CB JUMPI PUSH1 0x6 DUP2 DUP2 SLOAD DUP2 LT PUSH2 0x38A6 JUMPI PUSH2 0x38A6 PUSH2 0x45D3 JUMP JUMPDEST PUSH1 0x0 SWAP2 DUP3 MSTORE PUSH1 0x20 SWAP1 SWAP2 KECCAK256 ADD SLOAD PUSH1 0x1 PUSH1 0x1 PUSH1 0xA0 SHL SUB SWAP1 DUP2 AND SWAP1 DUP4 AND SUB PUSH2 0x39C5 JUMPI PUSH1 0x6 SLOAD PUSH2 0x38D4 SWAP1 PUSH1 0x1 SWAP1 PUSH2 0x457F JUMP JUMPDEST DUP2 EQ PUSH2 0x3955 JUMPI PUSH1 0x6 DUP1 SLOAD PUSH2 0x38EA SWAP1 PUSH1 0x1 SWAP1 PUSH2 0x457F JUMP JUMPDEST DUP2 SLOAD DUP2 LT PUSH2 0x38FA JUMPI PUSH2 0x38FA PUSH2 0x45D3 JUMP JUMPDEST PUSH1 0x0 SWAP2 DUP3 MSTORE PUSH1 0x20 SWAP1 SWAP2 KECCAK256 ADD SLOAD PUSH1 0x6 DUP1 SLOAD PUSH1 0x1 PUSH1 0x1 PUSH1 0xA0 SHL SUB SWAP1 SWAP3 AND SWAP2 DUP4 SWAP1 DUP2 LT PUSH2 0x3926 JUMPI PUSH2 0x3926 PUSH2 0x45D3 JUMP JUMPDEST SWAP1 PUSH1 0x0 MSTORE PUSH1 0x20 PUSH1 0x0 KECCAK256 ADD PUSH1 0x0 PUSH2 0x100 EXP DUP2 SLOAD DUP2 PUSH1 0x1 PUSH1 0x1 PUSH1 0xA0 SHL SUB MUL NOT AND SWAP1 DUP4 PUSH1 0x1 PUSH1 0x1 PUSH1 0xA0 SHL SUB AND MUL OR SWAP1 SSTORE POP JUMPDEST PUSH1 0x6 DUP1 SLOAD DUP1 PUSH2 0x3966 JUMPI PUSH2 0x3966 PUSH2 0x4805 JUMP JUMPDEST PUSH1 0x0 DUP3 DUP2 MSTORE PUSH1 0x20 SWAP1 KECCAK256 DUP2 ADD PUSH1 0x0 NOT SWAP1 DUP2 ADD DUP1 SLOAD PUSH1 0x1 PUSH1 0x1 PUSH1 0xA0 SHL SUB NOT AND SWAP1 SSTORE ADD SWAP1 SSTORE PUSH1 0x40 MLOAD PUSH1 0x1 PUSH1 0x1 PUSH1 0xA0 SHL SUB DUP4 AND SWAP1 PUSH32 0x7521E44559C870C316E84E60BC4785D9C034A8AB1D6ACDCE8134AC03F946C6ED SWAP1 PUSH2 0x18C2 SWAP1 TIMESTAMP DUP2 MSTORE PUSH1 0x20 ADD SWAP1 JUMP JUMPDEST DUP1 PUSH2 0x39CF DUP2 PUSH2 0x45E9 JUMP JUMPDEST SWAP2 POP POP PUSH2 0x387B JUMP JUMPDEST PUSH1 0x0 PUSH1 0x1 PUSH1 0x1 PUSH1 0xA0 SHL SUB DUP3 AND PUSH1 0x0 SWAP1 DUP2 MSTORE PUSH1 0x3 PUSH1 0x20 MSTORE PUSH1 0x40 SWAP1 KECCAK256 SLOAD PUSH1 0x1 PUSH1 0xA0 SHL SWAP1 DIV PUSH1 0xFF AND PUSH1 0x4 DUP2 GT ISZERO PUSH2 0x3A0D JUMPI PUSH2 0x3A0D PUSH2 0x40C2 JUMP JUMPDEST EQ DUP1 PUSH2 0x3A1C JUMPI POP PUSH1 0x5 SLOAD PUSH1 0x1 LT ISZERO JUMPDEST ISZERO PUSH2 0x3A24 JUMPI POP JUMP JUMPDEST PUSH1 0x1 PUSH1 0x1 PUSH1 0xA0 SHL SUB DUP2 AND PUSH1 0x0 SWAP1 DUP2 MSTORE PUSH1 0x3 PUSH1 0x20 DUP2 SWAP1 MSTORE PUSH1 0x40 SWAP1 SWAP2 KECCAK256 ADD SLOAD DUP1 ISZERO PUSH2 0x3AB1 JUMPI PUSH2 0x3A51 DUP2 DUP4 PUSH2 0x3B61 JUMP JUMPDEST DUP1 PUSH1 0x8 SLOAD PUSH2 0x3A5F SWAP2 SWAP1 PUSH2 0x4044 JUMP JUMPDEST PUSH1 0x8 SSTORE PUSH1 0x1 PUSH1 0x1 PUSH1 0xA0 SHL SUB DUP3 AND PUSH1 0x0 SWAP1 DUP2 MSTORE PUSH1 0x3 PUSH1 0x20 MSTORE PUSH1 0x40 SWAP1 KECCAK256 PUSH1 0x4 ADD SLOAD PUSH2 0x3A89 SWAP1 DUP3 SWAP1 PUSH2 0x4044 JUMP JUMPDEST PUSH1 0x1 PUSH1 0x1 PUSH1 0xA0 SHL SUB DUP4 AND PUSH1 0x0 SWAP1 DUP2 MSTORE PUSH1 0x3 PUSH1 0x20 DUP2 SWAP1 MSTORE PUSH1 0x40 DUP3 KECCAK256 PUSH1 0x4 DUP2 ADD SWAP4 SWAP1 SWAP4 SSTORE SWAP2 SWAP1 SWAP2 ADD SSTORE JUMPDEST PUSH1 0x40 DUP1 MLOAD DUP3 DUP2 MSTORE TIMESTAMP PUSH1 0x20 DUP3 ADD MSTORE PUSH1 0x1 PUSH1 0x1 PUSH1 0xA0 SHL SUB DUP5 AND SWAP2 PUSH32 0xE294E9D73F8EEE23E21B2E1567960625A6B5D339CB127B55D0D09473A9951235 SWAP2 ADD PUSH2 0x18C2 JUMP JUMPDEST PUSH1 0x0 PUSH1 0x1 PUSH1 0x1 PUSH1 0xA0 SHL SUB DUP3 AND PUSH1 0x0 SWAP1 DUP2 MSTORE PUSH1 0x3 PUSH1 0x20 MSTORE PUSH1 0x40 SWAP1 KECCAK256 SLOAD PUSH1 0x1 PUSH1 0xA0 SHL SWAP1 DIV PUSH1 0xFF AND PUSH1 0x4 DUP2 GT ISZERO PUSH2 0x3B27 JUMPI PUSH2 0x3B27 PUSH2 0x40C2 JUMP JUMPDEST SUB PUSH2 0x3B2F JUMPI POP JUMP JUMPDEST PUSH1 0x1 PUSH1 0x1 PUSH1 0xA0 SHL SUB DUP2 AND PUSH1 0x0 SWAP1 DUP2 MSTORE PUSH1 0x3 PUSH1 0x20 MSTORE PUSH1 0x40 SWAP1 KECCAK256 DUP1 SLOAD PUSH1 0xFF PUSH1 0xA0 SHL NOT AND PUSH1 0x1 PUSH1 0xA2 SHL OR SWAP1 SSTORE PUSH2 0x1A12 DUP2 PUSH2 0x3878 JUMP JUMPDEST DUP2 PUSH1 0x0 SUB PUSH2 0x3B6D JUMPI POP POP JUMP JUMPDEST PUSH1 0x0 DUP1 PUSH2 0x3B79 DUP4 PUSH2 0x3E9C JUMP JUMPDEST SWAP1 SWAP3 POP SWAP1 POP PUSH1 0x0 DUP2 SWAP1 SUB PUSH2 0x3B8D JUMPI POP POP POP POP JUMP JUMPDEST PUSH1 0x0 DUP1 DUP4 PUSH1 0x0 SUB PUSH2 0x3D19 JUMPI PUSH1 0x0 PUSH2 0x3BA4 DUP5 DUP9 PUSH2 0x45BF JUMP JUMPDEST SWAP1 POP PUSH2 0x3BB0 DUP5 DUP3 PUSH2 0x4592 JUMP JUMPDEST PUSH2 0x3BBA SWAP1 DUP9 PUSH2 0x457F JUMP JUMPDEST SWAP3 POP PUSH1 0x0 JUMPDEST PUSH1 0x5 SLOAD DUP2 LT ISZERO PUSH2 0x3CAC JUMPI PUSH1 0x0 PUSH1 0x5 DUP3 DUP2 SLOAD DUP2 LT PUSH2 0x3BDE JUMPI PUSH2 0x3BDE PUSH2 0x45D3 JUMP JUMPDEST PUSH1 0x0 SWAP2 DUP3 MSTORE PUSH1 0x20 SWAP1 SWAP2 KECCAK256 ADD SLOAD PUSH1 0x1 PUSH1 0x1 PUSH1 0xA0 SHL SUB AND SWAP1 POP PUSH1 0x4 PUSH1 0x1 PUSH1 0x1 PUSH1 0xA0 SHL SUB DUP3 AND PUSH1 0x0 SWAP1 DUP2 MSTORE PUSH1 0x3 PUSH1 0x20 MSTORE PUSH1 0x40 SWAP1 KECCAK256 SLOAD PUSH1 0x1 PUSH1 0xA0 SHL SWAP1 DIV PUSH1 0xFF AND PUSH1 0x4 DUP2 GT ISZERO PUSH2 0x3C2B JUMPI PUSH2 0x3C2B PUSH2 0x40C2 JUMP JUMPDEST EQ ISZERO DUP1 ISZERO PUSH2 0x3C4B JUMPI POP DUP8 PUSH1 0x1 PUSH1 0x1 PUSH1 0xA0 SHL SUB AND DUP2 PUSH1 0x1 PUSH1 0x1 PUSH1 0xA0 SHL SUB AND EQ ISZERO JUMPDEST ISZERO PUSH2 0x3C99 JUMPI PUSH1 0x1 PUSH1 0x1 PUSH1 0xA0 SHL SUB DUP2 AND PUSH1 0x0 SWAP1 DUP2 MSTORE PUSH1 0x3 PUSH1 0x20 DUP2 SWAP1 MSTORE PUSH1 0x40 SWAP1 SWAP2 KECCAK256 ADD SLOAD PUSH2 0x3C78 SWAP1 DUP5 SWAP1 PUSH2 0x4044 JUMP JUMPDEST PUSH1 0x1 PUSH1 0x1 PUSH1 0xA0 SHL SUB DUP3 AND PUSH1 0x0 SWAP1 DUP2 MSTORE PUSH1 0x3 PUSH1 0x20 DUP2 SWAP1 MSTORE PUSH1 0x40 SWAP1 SWAP2 KECCAK256 ADD SSTORE SWAP3 POP DUP3 JUMPDEST POP DUP1 PUSH2 0x3CA4 DUP2 PUSH2 0x45E9 JUMP JUMPDEST SWAP2 POP POP PUSH2 0x3BBF JUMP JUMPDEST POP PUSH1 0x0 DUP4 GT DUP1 ISZERO PUSH2 0x3CC5 JUMPI POP PUSH1 0x1 PUSH1 0x1 PUSH1 0xA0 SHL SUB DUP3 AND ISZERO ISZERO JUMPDEST ISZERO PUSH2 0x3D10 JUMPI PUSH1 0x1 PUSH1 0x1 PUSH1 0xA0 SHL SUB DUP3 AND PUSH1 0x0 SWAP1 DUP2 MSTORE PUSH1 0x3 PUSH1 0x20 DUP2 SWAP1 MSTORE PUSH1 0x40 SWAP1 SWAP2 KECCAK256 ADD SLOAD PUSH2 0x3CF2 SWAP1 DUP5 SWAP1 PUSH2 0x4044 JUMP JUMPDEST PUSH1 0x1 PUSH1 0x1 PUSH1 0xA0 SHL SUB DUP4 AND PUSH1 0x0 SWAP1 DUP2 MSTORE PUSH1 0x3 PUSH1 0x20 DUP2 SWAP1 MSTORE PUSH1 0x40 SWAP1 SWAP2 KECCAK256 ADD SSTORE JUMPDEST POP POP POP POP POP POP POP JUMP JUMPDEST PUSH1 0x0 DUP1 JUMPDEST PUSH1 0x5 SLOAD DUP2 LT ISZERO PUSH2 0x3E4D JUMPI PUSH1 0x0 PUSH1 0x5 DUP3 DUP2 SLOAD DUP2 LT PUSH2 0x3D3C JUMPI PUSH2 0x3D3C PUSH2 0x45D3 JUMP JUMPDEST PUSH1 0x0 SWAP2 DUP3 MSTORE PUSH1 0x20 SWAP1 SWAP2 KECCAK256 ADD SLOAD PUSH1 0x1 PUSH1 0x1 PUSH1 0xA0 SHL SUB AND SWAP1 POP PUSH1 0x4 PUSH1 0x1 PUSH1 0x1 PUSH1 0xA0 SHL SUB DUP3 AND PUSH1 0x0 SWAP1 DUP2 MSTORE PUSH1 0x3 PUSH1 0x20 MSTORE PUSH1 0x40 SWAP1 KECCAK256 SLOAD PUSH1 0x1 PUSH1 0xA0 SHL SWAP1 DIV PUSH1 0xFF AND PUSH1 0x4 DUP2 GT ISZERO PUSH2 0x3D89 JUMPI PUSH2 0x3D89 PUSH2 0x40C2 JUMP JUMPDEST EQ ISZERO DUP1 ISZERO PUSH2 0x3DA9 JUMPI POP DUP8 PUSH1 0x1 PUSH1 0x1 PUSH1 0xA0 SHL SUB AND DUP2 PUSH1 0x1 PUSH1 0x1 PUSH1 0xA0 SHL SUB AND EQ ISZERO JUMPDEST ISZERO PUSH2 0x3E3A JUMPI PUSH1 0x1 PUSH1 0x1 PUSH1 0xA0 SHL SUB DUP2 AND PUSH1 0x0 SWAP1 DUP2 MSTORE PUSH1 0x3 PUSH1 0x20 MSTORE PUSH1 0x40 DUP2 KECCAK256 PUSH1 0x1 ADD SLOAD DUP9 SWAP1 PUSH2 0x3DD6 SWAP1 DUP13 PUSH2 0x4592 JUMP JUMPDEST PUSH2 0x3DE0 SWAP2 SWAP1 PUSH2 0x45BF JUMP JUMPDEST SWAP1 POP PUSH2 0x3DEC DUP2 DUP6 PUSH2 0x4044 JUMP JUMPDEST PUSH1 0x1 PUSH1 0x1 PUSH1 0xA0 SHL SUB DUP4 AND PUSH1 0x0 SWAP1 DUP2 MSTORE PUSH1 0x3 PUSH1 0x20 DUP2 SWAP1 MSTORE PUSH1 0x40 SWAP1 SWAP2 KECCAK256 ADD SLOAD SWAP3 SWAP6 POP SWAP4 POP DUP5 SWAP2 PUSH2 0x3E1B SWAP1 DUP3 SWAP1 PUSH2 0x4044 JUMP JUMPDEST PUSH1 0x1 PUSH1 0x1 PUSH1 0xA0 SHL SUB DUP4 AND PUSH1 0x0 SWAP1 DUP2 MSTORE PUSH1 0x3 PUSH1 0x20 DUP2 SWAP1 MSTORE PUSH1 0x40 SWAP1 SWAP2 KECCAK256 ADD SSTORE POP JUMPDEST POP DUP1 PUSH2 0x3E45 DUP2 PUSH2 0x45E9 JUMP JUMPDEST SWAP2 POP POP PUSH2 0x3D1D JUMP JUMPDEST POP PUSH2 0x3E58 DUP2 DUP9 PUSH2 0x457F JUMP JUMPDEST SWAP3 POP PUSH1 0x0 DUP4 GT DUP1 ISZERO PUSH2 0x3CC5 JUMPI POP PUSH1 0x1 PUSH1 0x1 PUSH1 0xA0 SHL SUB DUP3 AND ISZERO PUSH2 0x3D10 JUMPI PUSH1 0x1 PUSH1 0x1 PUSH1 0xA0 SHL SUB DUP3 AND PUSH1 0x0 SWAP1 DUP2 MSTORE PUSH1 0x3 PUSH1 0x20 DUP2 SWAP1 MSTORE PUSH1 0x40 SWAP1 SWAP2 KECCAK256 ADD SLOAD PUSH2 0x3CF2 SWAP1 DUP5 SWAP1 PUSH2 0x4044 JUMP JUMPDEST PUSH1 0x0 DUP1 PUSH1 0x0 JUMPDEST PUSH1 0x5 SLOAD DUP2 LT ISZERO PUSH2 0x3FAE JUMPI PUSH1 0x4 PUSH1 0x3 PUSH1 0x0 PUSH1 0x5 DUP5 DUP2 SLOAD DUP2 LT PUSH2 0x3EC5 JUMPI PUSH2 0x3EC5 PUSH2 0x45D3 JUMP JUMPDEST PUSH1 0x0 SWAP2 DUP3 MSTORE PUSH1 0x20 DUP1 DUP4 KECCAK256 SWAP1 SWAP2 ADD SLOAD PUSH1 0x1 PUSH1 0x1 PUSH1 0xA0 SHL SUB AND DUP4 MSTORE DUP3 ADD SWAP3 SWAP1 SWAP3 MSTORE PUSH1 0x40 ADD SWAP1 KECCAK256 SLOAD PUSH1 0xFF PUSH1 0x1 PUSH1 0xA0 SHL SWAP1 SWAP2 DIV AND PUSH1 0x4 DUP2 GT ISZERO PUSH2 0x3F06 JUMPI PUSH2 0x3F06 PUSH2 0x40C2 JUMP JUMPDEST EQ ISZERO DUP1 ISZERO PUSH2 0x3F3E JUMPI POP PUSH1 0x5 DUP2 DUP2 SLOAD DUP2 LT PUSH2 0x3F22 JUMPI PUSH2 0x3F22 PUSH2 0x45D3 JUMP JUMPDEST PUSH1 0x0 SWAP2 DUP3 MSTORE PUSH1 0x20 SWAP1 SWAP2 KECCAK256 ADD SLOAD PUSH1 0x1 PUSH1 0x1 PUSH1 0xA0 SHL SUB DUP6 DUP2 AND SWAP2 AND EQ ISZERO JUMPDEST ISZERO PUSH2 0x3F9C JUMPI PUSH1 0x3 PUSH1 0x0 PUSH1 0x5 DUP4 DUP2 SLOAD DUP2 LT PUSH2 0x3F5A JUMPI PUSH2 0x3F5A PUSH2 0x45D3 JUMP JUMPDEST PUSH1 0x0 SWAP2 DUP3 MSTORE PUSH1 0x20 DUP1 DUP4 KECCAK256 SWAP1 SWAP2 ADD SLOAD PUSH1 0x1 PUSH1 0x1 PUSH1 0xA0 SHL SUB AND DUP4 MSTORE DUP3 ADD SWAP3 SWAP1 SWAP3 MSTORE PUSH1 0x40 ADD SWAP1 KECCAK256 PUSH1 0x1 ADD SLOAD PUSH2 0x3F8C SWAP1 DUP5 PUSH2 0x4044 JUMP JUMPDEST SWAP3 POP DUP2 PUSH2 0x3F98 DUP2 PUSH2 0x45E9 JUMP JUMPDEST SWAP3 POP POP JUMPDEST DUP1 PUSH2 0x3FA6 DUP2 PUSH2 0x45E9 JUMP JUMPDEST SWAP2 POP POP PUSH2 0x3EA2 JUMP JUMPDEST POP SWAP2 POP SWAP2 JUMP JUMPDEST DUP3 DUP1 SLOAD DUP3 DUP3 SSTORE SWAP1 PUSH1 0x0 MSTORE PUSH1 0x20 PUSH1 0x0 KECCAK256 SWAP1 DUP2 ADD SWAP3 DUP3 ISZERO PUSH2 0x4009 JUMPI SWAP2 PUSH1 0x20 MUL DUP3 ADD JUMPDEST DUP3 DUP2 GT ISZERO PUSH2 0x4009 JUMPI DUP3 MLOAD DUP3 SLOAD PUSH1 0x1 PUSH1 0x1 PUSH1 0xA0 SHL SUB NOT AND PUSH1 0x1 PUSH1 0x1 PUSH1 0xA0 SHL SUB SWAP1 SWAP2 AND OR DUP3 SSTORE PUSH1 0x20 SWAP1 SWAP3 ADD SWAP2 PUSH1 0x1 SWAP1 SWAP2 ADD SWAP1 PUSH2 0x3FD4 JUMP JUMPDEST POP PUSH2 0x4015 SWAP3 SWAP2 POP PUSH2 0x4019 JUMP JUMPDEST POP SWAP1 JUMP JUMPDEST JUMPDEST DUP1 DUP3 GT ISZERO PUSH2 0x4015 JUMPI PUSH1 0x0 DUP2 SSTORE PUSH1 0x1 ADD PUSH2 0x401A JUMP JUMPDEST PUSH4 0x4E487B71 PUSH1 0xE0 SHL PUSH1 0x0 MSTORE PUSH1 0x11 PUSH1 0x4 MSTORE PUSH1 0x24 PUSH1 0x0 REVERT JUMPDEST DUP1 DUP3 ADD DUP1 DUP3 GT ISZERO PUSH2 0x14CA JUMPI PUSH2 0x14CA PUSH2 0x402E JUMP JUMPDEST PUSH1 0x1 PUSH1 0x1 PUSH1 0xA0 SHL SUB DUP2 AND DUP2 EQ PUSH2 0x1A12 JUMPI PUSH1 0x0 DUP1 REVERT JUMPDEST PUSH1 0x0 PUSH1 0x20 DUP3 DUP5 SUB SLT ISZERO PUSH2 0x407E JUMPI PUSH1 0x0 DUP1 REVERT JUMPDEST DUP2 CALLDATALOAD PUSH2 0x258F DUP2 PUSH2 0x4057 JUMP JUMPDEST PUSH1 0x0 DUP1 PUSH1 0x40 DUP4 DUP6 SUB SLT ISZERO PUSH2 0x409C JUMPI PUSH1 0x0 DUP1 REVERT JUMPDEST DUP3 CALLDATALOAD PUSH2 0x40A7 DUP2 PUSH2 0x4057 JUMP JUMPDEST SWAP2 POP PUSH1 0x20 DUP4 ADD CALLDATALOAD PUSH2 0x40B7 DUP2 PUSH2 0x4057 JUMP JUMPDEST DUP1 SWAP2 POP POP SWAP3 POP SWAP3 SWAP1 POP JUMP JUMPDEST PUSH4 0x4E487B71 PUSH1 0xE0 SHL PUSH1 0x0 MSTORE PUSH1 0x21 PUSH1 0x4 MSTORE PUSH1 0x24 PUSH1 0x0 REVERT JUMPDEST PUSH1 0x4 DUP2 LT PUSH2 0x40E8 JUMPI PUSH2 0x40E8 PUSH2 0x40C2 JUMP JUMPDEST SWAP1 MSTORE JUMP JUMPDEST PUSH1 0x20 DUP2 ADD PUSH2 0x14CA DUP3 DUP5 PUSH2 0x40D8 JUMP JUMPDEST PUSH1 0x0 PUSH1 0x20 DUP3 DUP5 SUB SLT ISZERO PUSH2 0x410C JUMPI PUSH1 0x0 DUP1 REVERT JUMPDEST POP CALLDATALOAD SWAP2 SWAP1 POP JUMP JUMPDEST PUSH1 0x0 DUP1 PUSH1 0x40 DUP4 DUP6 SUB SLT ISZERO PUSH2 0x4126 JUMPI PUSH1 0x0 DUP1 REVERT JUMPDEST DUP3 CALLDATALOAD PUSH2 0x4131 DUP2 PUSH2 0x4057 JUMP JUMPDEST SWAP5 PUSH1 0x20 SWAP4 SWAP1 SWAP4 ADD CALLDATALOAD SWAP4 POP POP POP JUMP JUMPDEST PUSH1 0x5 DUP2 LT PUSH2 0x40E8 JUMPI PUSH2 0x40E8 PUSH2 0x40C2 JUMP JUMPDEST DUP5 DUP2 MSTORE PUSH1 0x20 DUP2 ADD DUP5 SWAP1 MSTORE PUSH1 0x80 DUP2 ADD PUSH2 0x416A PUSH1 0x40 DUP4 ADD DUP6 PUSH2 0x40D8 JUMP JUMPDEST PUSH2 0x4177 PUSH1 0x60 DUP4 ADD DUP5 PUSH2 0x413F JUMP JUMPDEST SWAP6 SWAP5 POP POP POP POP POP JUMP JUMPDEST PUSH4 0x4E487B71 PUSH1 0xE0 SHL PUSH1 0x0 MSTORE PUSH1 0x41 PUSH1 0x4 MSTORE PUSH1 0x24 PUSH1 0x0 REVERT JUMPDEST PUSH1 0x40 MLOAD PUSH1 0x1F DUP3 ADD PUSH1 0x1F NOT AND DUP2 ADD PUSH8 0xFFFFFFFFFFFFFFFF DUP2 GT DUP3 DUP3 LT OR ISZERO PUSH2 0x41BF JUMPI PUSH2 0x41BF PUSH2 0x4180 JUMP JUMPDEST PUSH1 0x40 MSTORE SWAP2 SWAP1 POP JUMP JUMPDEST PUSH1 0x0 PUSH8 0xFFFFFFFFFFFFFFFF DUP3 GT ISZERO PUSH2 0x41E1 JUMPI PUSH2 0x41E1 PUSH2 0x4180 JUMP JUMPDEST POP PUSH1 0x5 SHL PUSH1 0x20 ADD SWAP1 JUMP JUMPDEST PUSH1 0x0 DUP3 PUSH1 0x1F DUP4 ADD SLT PUSH2 0x41FC JUMPI PUSH1 0x0 DUP1 REVERT JUMPDEST DUP2 CALLDATALOAD PUSH1 0x20 PUSH2 0x4211 PUSH2 0x420C DUP4 PUSH2 0x41C7 JUMP JUMPDEST PUSH2 0x4196 JUMP JUMPDEST DUP3 DUP2 MSTORE PUSH1 0x5 SWAP3 SWAP1 SWAP3 SHL DUP5 ADD DUP2 ADD SWAP2 DUP2 DUP2 ADD SWAP1 DUP7 DUP5 GT ISZERO PUSH2 0x4230 JUMPI PUSH1 0x0 DUP1 REVERT JUMPDEST DUP3 DUP7 ADD JUMPDEST DUP5 DUP2 LT ISZERO PUSH2 0x4254 JUMPI DUP1 CALLDATALOAD PUSH2 0x4247 DUP2 PUSH2 0x4057 JUMP JUMPDEST DUP4 MSTORE SWAP2 DUP4 ADD SWAP2 DUP4 ADD PUSH2 0x4234 JUMP JUMPDEST POP SWAP7 SWAP6 POP POP POP POP POP POP JUMP JUMPDEST PUSH1 0x0 DUP1 PUSH1 0x40 DUP4 DUP6 SUB SLT ISZERO PUSH2 0x4272 JUMPI PUSH1 0x0 DUP1 REVERT JUMPDEST DUP3 CALLDATALOAD PUSH8 0xFFFFFFFFFFFFFFFF DUP2 GT ISZERO PUSH2 0x4289 JUMPI PUSH1 0x0 DUP1 REVERT JUMPDEST PUSH2 0x4295 DUP6 DUP3 DUP7 ADD PUSH2 0x41EB JUMP JUMPDEST SWAP6 PUSH1 0x20 SWAP5 SWAP1 SWAP5 ADD CALLDATALOAD SWAP5 POP POP POP POP JUMP JUMPDEST PUSH1 0x0 DUP2 MLOAD DUP1 DUP5 MSTORE PUSH1 0x20 DUP1 DUP6 ADD SWAP5 POP DUP1 DUP5 ADD PUSH1 0x0 JUMPDEST DUP4 DUP2 LT ISZERO PUSH2 0x42DD JUMPI DUP2 MLOAD PUSH1 0x1 PUSH1 0x1 PUSH1 0xA0 SHL SUB AND DUP8 MSTORE SWAP6 DUP3 ADD SWAP6 SWAP1 DUP3 ADD SWAP1 PUSH1 0x1 ADD PUSH2 0x42B8 JUMP JUMPDEST POP SWAP5 SWAP6 SWAP5 POP POP POP POP POP JUMP JUMPDEST PUSH1 0x1 PUSH1 0x1 PUSH1 0xA0 SHL SUB DUP8 AND DUP2 MSTORE PUSH2 0x4301 PUSH1 0x20 DUP3 ADD DUP8 PUSH2 0x413F JUMP JUMPDEST DUP5 PUSH1 0x40 DUP3 ADD MSTORE DUP4 PUSH1 0x60 DUP3 ADD MSTORE DUP3 PUSH1 0x80 DUP3 ADD MSTORE PUSH1 0xC0 PUSH1 0xA0 DUP3 ADD MSTORE PUSH1 0x0 PUSH2 0x4329 PUSH1 0xC0 DUP4 ADD DUP5 PUSH2 0x42A4 JUMP JUMPDEST SWAP9 SWAP8 POP POP POP POP POP POP POP POP JUMP JUMPDEST PUSH1 0x0 DUP1 PUSH1 0x0 PUSH1 0x40 DUP5 DUP7 SUB SLT ISZERO PUSH2 0x434A JUMPI PUSH1 0x0 DUP1 REVERT JUMPDEST DUP4 CALLDATALOAD PUSH2 0x4355 DUP2 PUSH2 0x4057 JUMP JUMPDEST SWAP3 POP PUSH1 0x20 DUP5 ADD CALLDATALOAD PUSH8 0xFFFFFFFFFFFFFFFF DUP1 DUP3 GT ISZERO PUSH2 0x4372 JUMPI PUSH1 0x0 DUP1 REVERT JUMPDEST DUP2 DUP7 ADD SWAP2 POP DUP7 PUSH1 0x1F DUP4 ADD SLT PUSH2 0x4386 JUMPI PUSH1 0x0 DUP1 REVERT JUMPDEST DUP2 CALLDATALOAD DUP2 DUP2 GT ISZERO PUSH2 0x4395 JUMPI PUSH1 0x0 DUP1 REVERT JUMPDEST DUP8 PUSH1 0x20 DUP3 DUP6 ADD ADD GT ISZERO PUSH2 0x43A7 JUMPI PUSH1 0x0 DUP1 REVERT JUMPDEST PUSH1 0x20 DUP4 ADD SWAP5 POP DUP1 SWAP4 POP POP POP POP SWAP3 POP SWAP3 POP SWAP3 JUMP JUMPDEST PUSH1 0x20 DUP2 MSTORE PUSH1 0x0 PUSH2 0x258F PUSH1 0x20 DUP4 ADD DUP5 PUSH2 0x42A4 JUMP JUMPDEST PUSH1 0x0 DUP1 PUSH1 0x20 DUP4 DUP6 SUB SLT ISZERO PUSH2 0x43E0 JUMPI PUSH1 0x0 DUP1 REVERT JUMPDEST DUP3 CALLDATALOAD PUSH8 0xFFFFFFFFFFFFFFFF DUP1 DUP3 GT ISZERO PUSH2 0x43F8 JUMPI PUSH1 0x0 DUP1 REVERT JUMPDEST DUP2 DUP6 ADD SWAP2 POP DUP6 PUSH1 0x1F DUP4 ADD SLT PUSH2 0x440C JUMPI PUSH1 0x0 DUP1 REVERT JUMPDEST DUP2 CALLDATALOAD DUP2 DUP2 GT ISZERO PUSH2 0x441B JUMPI PUSH1 0x0 DUP1 REVERT JUMPDEST DUP7 PUSH1 0x20 DUP3 PUSH1 0x5 SHL DUP6 ADD ADD GT ISZERO PUSH2 0x4430 JUMPI PUSH1 0x0 DUP1 REVERT JUMPDEST PUSH1 0x20 SWAP3 SWAP1 SWAP3 ADD SWAP7 SWAP2 SWAP6 POP SWAP1 SWAP4 POP POP POP POP JUMP JUMPDEST PUSH1 0x0 PUSH1 0x20 DUP1 DUP4 MSTORE DUP4 MLOAD DUP1 DUP3 DUP6 ADD MSTORE PUSH1 0x0 JUMPDEST DUP2 DUP2 LT ISZERO PUSH2 0x446F JUMPI DUP6 DUP2 ADD DUP4 ADD MLOAD DUP6 DUP3 ADD PUSH1 0x40 ADD MSTORE DUP3 ADD PUSH2 0x4453 JUMP JUMPDEST POP PUSH1 0x0 PUSH1 0x40 DUP3 DUP7 ADD ADD MSTORE PUSH1 0x40 PUSH1 0x1F NOT PUSH1 0x1F DUP4 ADD AND DUP6 ADD ADD SWAP3 POP POP POP SWAP3 SWAP2 POP POP JUMP JUMPDEST PUSH1 0x0 DUP1 PUSH1 0x40 DUP4 DUP6 SUB SLT ISZERO PUSH2 0x44A3 JUMPI PUSH1 0x0 DUP1 REVERT JUMPDEST DUP3 CALLDATALOAD PUSH8 0xFFFFFFFFFFFFFFFF DUP1 DUP3 GT ISZERO PUSH2 0x44BB JUMPI PUSH1 0x0 DUP1 REVERT JUMPDEST PUSH2 0x44C7 DUP7 DUP4 DUP8 ADD PUSH2 0x41EB JUMP JUMPDEST SWAP4 POP PUSH1 0x20 SWAP2 POP DUP2 DUP6 ADD CALLDATALOAD DUP2 DUP2 GT ISZERO PUSH2 0x44DE JUMPI PUSH1 0x0 DUP1 REVERT JUMPDEST DUP6 ADD PUSH1 0x1F DUP2 ADD DUP8 SGT PUSH2 0x44EF JUMPI PUSH1 0x0 DUP1 REVERT JUMPDEST DUP1 CALLDATALOAD PUSH2 0x44FD PUSH2 0x420C DUP3 PUSH2 0x41C7 JUMP JUMPDEST DUP2 DUP2 MSTORE PUSH1 0x5 SWAP2 SWAP1 SWAP2 SHL DUP3 ADD DUP5 ADD SWAP1 DUP5 DUP2 ADD SWAP1 DUP10 DUP4 GT ISZERO PUSH2 0x451C JUMPI PUSH1 0x0 DUP1 REVERT JUMPDEST SWAP3 DUP6 ADD SWAP3 JUMPDEST DUP3 DUP5 LT ISZERO PUSH2 0x4549 JUMPI DUP4 CALLDATALOAD DUP6 DUP2 AND DUP2 EQ PUSH2 0x453A JUMPI PUSH1 0x0 DUP1 DUP2 REVERT JUMPDEST DUP3 MSTORE SWAP3 DUP6 ADD SWAP3 SWAP1 DUP6 ADD SWAP1 PUSH2 0x4521 JUMP JUMPDEST DUP1 SWAP7 POP POP POP POP POP POP POP SWAP3 POP SWAP3 SWAP1 POP JUMP JUMPDEST PUSH1 0x20 DUP1 DUP3 MSTORE PUSH1 0xC SWAP1 DUP3 ADD MSTORE PUSH12 0x139BDD081A5B9A5D081E595D PUSH1 0xA2 SHL PUSH1 0x40 DUP3 ADD MSTORE PUSH1 0x60 ADD SWAP1 JUMP JUMPDEST DUP2 DUP2 SUB DUP2 DUP2 GT ISZERO PUSH2 0x14CA JUMPI PUSH2 0x14CA PUSH2 0x402E JUMP JUMPDEST DUP1 DUP3 MUL DUP2 ISZERO DUP3 DUP3 DIV DUP5 EQ OR PUSH2 0x14CA JUMPI PUSH2 0x14CA PUSH2 0x402E JUMP JUMPDEST PUSH4 0x4E487B71 PUSH1 0xE0 SHL PUSH1 0x0 MSTORE PUSH1 0x12 PUSH1 0x4 MSTORE PUSH1 0x24 PUSH1 0x0 REVERT JUMPDEST PUSH1 0x0 DUP3 PUSH2 0x45CE JUMPI PUSH2 0x45CE PUSH2 0x45A9 JUMP JUMPDEST POP DIV SWAP1 JUMP JUMPDEST PUSH4 0x4E487B71 PUSH1 0xE0 SHL PUSH1 0x0 MSTORE PUSH1 0x32 PUSH1 0x4 MSTORE PUSH1 0x24 PUSH1 0x0 REVERT JUMPDEST PUSH1 0x0 PUSH1 0x1 DUP3 ADD PUSH2 0x45FB JUMPI PUSH2 0x45FB PUSH2 0x402E JUMP JUMPDEST POP PUSH1 0x1 ADD SWAP1 JUMP JUMPDEST PUSH1 0x0 PUSH1 0x20 DUP3 DUP5 SUB SLT ISZERO PUSH2 0x4614 JUMPI PUSH1 0x0 DUP1 REVERT JUMPDEST POP MLOAD SWAP2 SWAP1 POP JUMP JUMPDEST PUSH1 0x0 DUP3 PUSH2 0x462A JUMPI PUSH2 0x462A PUSH2 0x45A9 JUMP JUMPDEST POP MOD SWAP1 JUMP JUMPDEST PUSH1 0x0 PUSH1 0x20 DUP3 DUP5 SUB SLT ISZERO PUSH2 0x4641 JUMPI PUSH1 0x0 DUP1 REVERT JUMPDEST DUP2 MLOAD DUP1 ISZERO ISZERO DUP2 EQ PUSH2 0x258F JUMPI PUSH1 0x0 DUP1 REVERT JUMPDEST PUSH1 0x1 DUP2 DUP2 SHR SWAP1 DUP3 AND DUP1 PUSH2 0x4665 JUMPI PUSH1 0x7F DUP3 AND SWAP2 POP JUMPDEST PUSH1 0x20 DUP3 LT DUP2 SUB PUSH2 0x4685 JUMPI PUSH4 0x4E487B71 PUSH1 0xE0 SHL PUSH1 0x0 MSTORE PUSH1 0x22 PUSH1 0x4 MSTORE PUSH1 0x24 PUSH1 0x0 REVERT JUMPDEST POP SWAP2 SWAP1 POP JUMP JUMPDEST PUSH1 0x1F DUP3 GT ISZERO PUSH2 0x1796 JUMPI PUSH1 0x0 DUP2 DUP2 MSTORE PUSH1 0x20 DUP2 KECCAK256 PUSH1 0x1F DUP6 ADD PUSH1 0x5 SHR DUP2 ADD PUSH1 0x20 DUP7 LT ISZERO PUSH2 0x46B2 JUMPI POP DUP1 JUMPDEST PUSH1 0x1F DUP6 ADD PUSH1 0x5 SHR DUP3 ADD SWAP2 POP JUMPDEST DUP2 DUP2 LT ISZERO PUSH2 0x46D1 JUMPI DUP3 DUP2 SSTORE PUSH1 0x1 ADD PUSH2 0x46BE JUMP JUMPDEST POP POP POP POP POP POP JUMP JUMPDEST DUP2 MLOAD PUSH8 0xFFFFFFFFFFFFFFFF DUP2 GT ISZERO PUSH2 0x46F3 JUMPI PUSH2 0x46F3 PUSH2 0x4180 JUMP JUMPDEST PUSH2 0x4707 DUP2 PUSH2 0x4701 DUP5 SLOAD PUSH2 0x4651 JUMP JUMPDEST DUP5 PUSH2 0x468B JUMP JUMPDEST PUSH1 0x20 DUP1 PUSH1 0x1F DUP4 GT PUSH1 0x1 DUP2 EQ PUSH2 0x473C JUMPI PUSH1 0x0 DUP5 ISZERO PUSH2 0x4724 JUMPI POP DUP6 DUP4 ADD MLOAD JUMPDEST PUSH1 0x0 NOT PUSH1 0x3 DUP7 SWAP1 SHL SHR NOT AND PUSH1 0x1 DUP6 SWAP1 SHL OR DUP6 SSTORE PUSH2 0x46D1 JUMP JUMPDEST PUSH1 0x0 DUP6 DUP2 MSTORE PUSH1 0x20 DUP2 KECCAK256 PUSH1 0x1F NOT DUP7 AND SWAP2 JUMPDEST DUP3 DUP2 LT ISZERO PUSH2 0x476B JUMPI DUP9 DUP7 ADD MLOAD DUP3 SSTORE SWAP5 DUP5 ADD SWAP5 PUSH1 0x1 SWAP1 SWAP2 ADD SWAP1 DUP5 ADD PUSH2 0x474C JUMP JUMPDEST POP DUP6 DUP3 LT ISZERO PUSH2 0x4789 JUMPI DUP8 DUP6 ADD MLOAD PUSH1 0x0 NOT PUSH1 0x3 DUP9 SWAP1 SHL PUSH1 0xF8 AND SHR NOT AND DUP2 SSTORE JUMPDEST POP POP POP POP POP PUSH1 0x1 SWAP1 DUP2 SHL ADD SWAP1 SSTORE POP JUMP JUMPDEST DUP5 DUP2 MSTORE PUSH1 0x0 PUSH1 0x20 DUP6 DUP2 DUP5 ADD MSTORE PUSH1 0x80 PUSH1 0x40 DUP5 ADD MSTORE PUSH2 0x47B9 PUSH1 0x80 DUP5 ADD DUP7 PUSH2 0x42A4 JUMP JUMPDEST DUP4 DUP2 SUB PUSH1 0x60 DUP6 ADD MSTORE DUP5 MLOAD DUP1 DUP3 MSTORE DUP3 DUP7 ADD SWAP2 DUP4 ADD SWAP1 PUSH1 0x0 JUMPDEST DUP2 DUP2 LT ISZERO PUSH2 0x47F6 JUMPI DUP4 MLOAD PUSH8 0xFFFFFFFFFFFFFFFF AND DUP4 MSTORE SWAP3 DUP5 ADD SWAP3 SWAP2 DUP5 ADD SWAP2 PUSH1 0x1 ADD PUSH2 0x47D0 JUMP JUMPDEST POP SWAP1 SWAP10 SWAP9 POP POP POP POP POP POP POP POP POP JUMP JUMPDEST PUSH4 0x4E487B71 PUSH1 0xE0 SHL PUSH1 0x0 MSTORE PUSH1 0x31 PUSH1 0x4 MSTORE PUSH1 0x24 PUSH1 0x0 REVERT INVALID LOG2 PUSH5 0x6970667358 0x22 SLT KECCAK256 0xB6 PUSH5 0x5A65255CEE 0x28 0xE GT PUSH18 0x90EEAEE4637B3345D78E8F82E1C8FC872278 MOD MSTORE PUSH22 0x64736F6C634300081100330000000000000000000000 "
		},
		"gasEstimates": {
			"creation": {
				"codeDepositCost": "3702600",
				"executionCost": "4179",
				"totalCost": "3706779"
			},
			"external": {
				"BronzeValidatorStaking()": "308",
				"GoldValidatorStaking()": "306",
				"MAX_REWARD_VALIDATORS()": "264",
				"MaxValidators()": "337",
				"MinimalStakingCoin()": "284",
				"PlatinumValidatorStaking()": "262",
				"ProposalAddr()": "349",
				"PunishContractAddr()": "284",
				"SilverValidatorStaking()": "286",
				"SlashingContractAddr()": "329",
				"StakingLockPeriod()": "292",
				"ValidatorContractAddr()": "284",
				"createOrEditValidator(address,string)": "infinite",
				"creatorPartPercent()": "261",
				"currentValidatorSet(uint256)": "4682",
				"distributeBlockReward(address[],uint64[])": "infinite",
				"extraRewardsPerBlock()": "263",
				"getActiveValidators()": "infinite",
				"getStakingInfo(address,address)": "infinite",
				"getTopValidators()": "infinite",
				"getTotalStakeOfActiveValidators()": "infinite",
				"getValidatorDescription(address)": "infinite",
				"getValidatorInfo(address)": "infinite",
				"getValidatorMissedBlocks(address)": "infinite",
				"getValidatorPerformanceMetrics(address)": "infinite",
				"getValidatorStake(address)": "2650",
				"getValidatorTier(address)": "2792",
				"getValidatorTier(uint256)": "578",
				"highestValidatorsSet(uint256)": "4681",
				"initialize(address[])": "infinite",
				"initialized()": "2390",
				"isActiveValidator(address)": "infinite",
				"isTopValidator(address)": "infinite",
				"lastRewardTime(address)": "2625",
				"minimumValidatorStaking()": "286",
				"reflectionPercentSum(address,uint256)": "2718",
				"removeValidator(address)": "infinite",
				"removeValidatorIncoming(address)": "infinite",
				"rewardFund()": "2405",
				"slashValidator(address,uint256)": "infinite",
				"stake(address)": "infinite",
				"stakeTime(address,address)": "infinite",
				"stakerPartPercent()": "284",
				"totalJailedHB()": "2364",
				"totalRewards()": "2430",
				"totalStake()": "2385",
				"tryReactive(address)": "infinite",
				"unstake(address)": "infinite",
				"updateActiveValidatorSet(address[],uint256)": "infinite",
				"validatorPartPercent()": "307",
				"viewStakeReward(address,address)": "infinite",
				"withdrawProfits(address)": "infinite",
				"withdrawStaking(address)": "infinite",
				"withdrawStakingReward(address)": "infinite"
			},
			"internal": {
				"addProfitsToActiveValidatorsByStakePercentExcept(uint256,address)": "infinite",
				"getTotalStakeOfActiveValidatorsExcept(address)": "infinite",
				"tryAddValidatorToHighestSet(address,uint256)": "infinite",
				"tryJailValidator(address)": "infinite",
				"tryRemoveValidatorInHighestSet(address)": "infinite",
				"tryRemoveValidatorIncoming(address)": "infinite",
				"updateValidatorTier(address)": "26727"
			}
		},
		"methodIdentifiers": {
			"BronzeValidatorStaking()": "0a0b5e51",
			"GoldValidatorStaking()": "d5074883",
			"MAX_REWARD_VALIDATORS()": "3072abe8",
			"MaxValidators()": "c967f90f",
			"MinimalStakingCoin()": "be645692",
			"PlatinumValidatorStaking()": "cad0ebf1",
			"ProposalAddr()": "6233be5d",
			"PunishContractAddr()": "1b5e358c",
			"SilverValidatorStaking()": "32dc3b94",
			"SlashingContractAddr()": "182637b8",
			"StakingLockPeriod()": "db78dd28",
			"ValidatorContractAddr()": "3a061bd3",
			"createOrEditValidator(address,string)": "9972f0e6",
			"creatorPartPercent()": "daa77ea2",
			"currentValidatorSet(uint256)": "6969a25c",
			"distributeBlockReward(address[],uint64[])": "bb1c0310",
			"extraRewardsPerBlock()": "8ae53dbd",
			"getActiveValidators()": "9de70258",
			"getStakingInfo(address,address)": "7f4f95fa",
			"getTopValidators()": "afeea115",
			"getTotalStakeOfActiveValidators()": "c253c384",
			"getValidatorDescription(address)": "a43569b3",
			"getValidatorInfo(address)": "8a11d7c9",
			"getValidatorMissedBlocks(address)": "b840019b",
			"getValidatorPerformanceMetrics(address)": "4f6b77f4",
			"getValidatorStake(address)": "34664846",
			"getValidatorTier(address)": "0e72eedf",
			"getValidatorTier(uint256)": "304623e2",
			"highestValidatorsSet(uint256)": "4b3d500b",
			"initialize(address[])": "a224cee7",
			"initialized()": "158ef93e",
			"isActiveValidator(address)": "40550a1c",
			"isTopValidator(address)": "98e3b626",
			"lastRewardTime(address)": "3b5d441e",
			"minimumValidatorStaking()": "0976c65d",
			"reflectionPercentSum(address,uint256)": "92f2c437",
			"removeValidator(address)": "40a141ff",
			"removeValidatorIncoming(address)": "5dd09590",
			"rewardFund()": "efe22266",
			"slashValidator(address,uint256)": "3e4208ef",
			"stake(address)": "26476204",
			"stakeTime(address,address)": "01aec704",
			"stakerPartPercent()": "cd779d21",
			"totalJailedHB()": "1303f7cf",
			"totalRewards()": "0e15561a",
			"totalStake()": "8b0e9f3f",
			"tryReactive(address)": "82bd3d92",
			"unstake(address)": "f2888dbb",
			"updateActiveValidatorSet(address[],uint256)": "6846992a",
			"validatorPartPercent()": "42127ee7",
			"viewStakeReward(address,address)": "3ae898ca",
			"withdrawProfits(address)": "00362a77",
			"withdrawStaking(address)": "222d3b05",
			"withdrawStakingReward(address)": "72d30a70"
		}
	},
	"abi": [
		{
			"anonymous": false,
			"inputs": [
				{
					"indexed": true,
					"internalType": "address",
					"name": "val",
					"type": "address"
				},
				{
					"indexed": false,
					"internalType": "uint256",
					"name": "time",
					"type": "uint256"
				}
			],
			"name": "LogAddToTopValidators",
			"type": "event"
		},
		{
			"anonymous": false,
			"inputs": [
				{
					"indexed": true,
					"internalType": "address",
					"name": "val",
					"type": "address"
				},
				{
					"indexed": true,
					"internalType": "address",
					"name": "fee",
					"type": "address"
				},
				{
					"indexed": false,
					"internalType": "uint256",
					"name": "time",
					"type": "uint256"
				}
			],
			"name": "LogCreateValidator",
			"type": "event"
		},
		{
			"anonymous": false,
			"inputs": [
				{
					"indexed": true,
					"internalType": "address",
					"name": "coinbase",
					"type": "address"
				},
				{
					"indexed": false,
					"internalType": "uint256",
					"name": "blockReward",
					"type": "uint256"
				},
				{
					"indexed": false,
					"internalType": "uint256",
					"name": "time",
					"type": "uint256"
				},
				{
					"indexed": false,
					"internalType": "address[]",
					"name": "To",
					"type": "address[]"
				},
				{
					"indexed": false,
					"internalType": "uint64[]",
					"name": "Gass",
					"type": "uint64[]"
				}
			],
			"name": "LogDistributeBlockReward",
			"type": "event"
		},
		{
			"anonymous": false,
			"inputs": [
				{
					"indexed": true,
					"internalType": "address",
					"name": "val",
					"type": "address"
				},
				{
					"indexed": true,
					"internalType": "address",
					"name": "fee",
					"type": "address"
				},
				{
					"indexed": false,
					"internalType": "uint256",
					"name": "time",
					"type": "uint256"
				}
			],
			"name": "LogEditValidator",
			"type": "event"
		},
		{
			"anonymous": false,
			"inputs": [
				{
					"indexed": true,
					"internalType": "address",
					"name": "val",
					"type": "address"
				},
				{
					"indexed": false,
					"internalType": "uint256",
					"name": "time",
					"type": "uint256"
				}
			],
			"name": "LogReactive",
			"type": "event"
		},
		{
			"anonymous": false,
			"inputs": [
				{
					"indexed": true,
					"internalType": "address",
					"name": "val",
					"type": "address"
				},
				{
					"indexed": false,
					"internalType": "uint256",
					"name": "time",
					"type": "uint256"
				}
			],
			"name": "LogRemoveFromTopValidators",
			"type": "event"
		},
		{
			"anonymous": false,
			"inputs": [
				{
					"indexed": true,
					"internalType": "address",
					"name": "val",
					"type": "address"
				},
				{
					"indexed": false,
					"internalType": "uint256",
					"name": "hb",
					"type": "uint256"
				},
				{
					"indexed": false,
					"internalType": "uint256",
					"name": "time",
					"type": "uint256"
				}
			],
			"name": "LogRemoveValidator",
			"type": "event"
		},
		{
			"anonymous": false,
			"inputs": [
				{
					"indexed": true,
					"internalType": "address",
					"name": "val",
					"type": "address"
				},
				{
					"indexed": false,
					"internalType": "uint256",
					"name": "hb",
					"type": "uint256"
				},
				{
					"indexed": false,
					"internalType": "uint256",
					"name": "time",
					"type": "uint256"
				}
			],
			"name": "LogRemoveValidatorIncoming",
			"type": "event"
		},
		{
			"anonymous": false,
			"inputs": [
				{
					"indexed": true,
					"internalType": "address",
					"name": "staker",
					"type": "address"
				},
				{
					"indexed": true,
					"internalType": "address",
					"name": "val",
					"type": "address"
				},
				{
					"indexed": false,
					"internalType": "uint256",
					"name": "staking",
					"type": "uint256"
				},
				{
					"indexed": false,
					"internalType": "uint256",
					"name": "time",
					"type": "uint256"
				}
			],
			"name": "LogStake",
			"type": "event"
		},
		{
			"anonymous": false,
			"inputs": [
				{
					"indexed": true,
					"internalType": "address",
					"name": "staker",
					"type": "address"
				},
				{
					"indexed": true,
					"internalType": "address",
					"name": "val",
					"type": "address"
				},
				{
					"indexed": false,
					"internalType": "uint256",
					"name": "amount",
					"type": "uint256"
				},
				{
					"indexed": false,
					"internalType": "uint256",
					"name": "time",
					"type": "uint256"
				}
			],
			"name": "LogUnstake",
			"type": "event"
		},
		{
			"anonymous": false,
			"inputs": [
				{
					"indexed": false,
					"internalType": "address[]",
					"name": "newSet",
					"type": "address[]"
				}
			],
			"name": "LogUpdateValidator",
			"type": "event"
		},
		{
			"anonymous": false,
			"inputs": [
				{
					"indexed": true,
					"internalType": "address",
					"name": "val",
					"type": "address"
				},
				{
					"indexed": true,
					"internalType": "address",
					"name": "fee",
					"type": "address"
				},
				{
					"indexed": false,
					"internalType": "uint256",
					"name": "hb",
					"type": "uint256"
				},
				{
					"indexed": false,
					"internalType": "uint256",
					"name": "time",
					"type": "uint256"
				}
			],
			"name": "LogWithdrawProfits",
			"type": "event"
		},
		{
			"anonymous": false,
			"inputs": [
				{
					"indexed": true,
					"internalType": "address",
					"name": "staker",
					"type": "address"
				},
				{
					"indexed": true,
					"internalType": "address",
					"name": "val",
					"type": "address"
				},
				{
					"indexed": false,
					"internalType": "uint256",
					"name": "amount",
					"type": "uint256"
				},
				{
					"indexed": false,
					"internalType": "uint256",
					"name": "time",
					"type": "uint256"
				}
			],
			"name": "LogWithdrawStaking",
			"type": "event"
		},
		{
			"anonymous": false,
			"inputs": [
				{
					"indexed": false,
					"internalType": "address",
					"name": "user",
					"type": "address"
				},
				{
					"indexed": false,
					"internalType": "address",
					"name": "validator",
					"type": "address"
				},
				{
					"indexed": false,
					"internalType": "uint256",
					"name": "reward",
					"type": "uint256"
				},
				{
					"indexed": false,
					"internalType": "uint256",
					"name": "timeStamp",
					"type": "uint256"
				}
			],
			"name": "withdrawStakingRewardEv",
			"type": "event"
		},
		{
			"inputs": [],
			"name": "BronzeValidatorStaking",
			"outputs": [
				{
					"internalType": "uint256",
					"name": "",
					"type": "uint256"
				}
			],
			"stateMutability": "view",
			"type": "function"
		},
		{
			"inputs": [],
			"name": "GoldValidatorStaking",
			"outputs": [
				{
					"internalType": "uint256",
					"name": "",
					"type": "uint256"
				}
			],
			"stateMutability": "view",
			"type": "function"
		},
		{
			"inputs": [],
			"name": "MAX_REWARD_VALIDATORS",
			"outputs": [
				{
					"internalType": "uint256",
					"name": "",
					"type": "uint256"
				}
			],
			"stateMutability": "view",
			"type": "function"
		},
		{
			"inputs": [],
			"name": "MaxValidators",
			"outputs": [
				{
					"internalType": "uint16",
					"name": "",
					"type": "uint16"
				}
			],
			"stateMutability": "view",
			"type": "function"
		},
		{
			"inputs": [],
			"name": "MinimalStakingCoin",
			"outputs": [
				{
					"internalType": "uint256",
					"name": "",
					"type": "uint256"
				}
			],
			"stateMutability": "view",
			"type": "function"
		},
		{
			"inputs": [],
			"name": "PlatinumValidatorStaking",
			"outputs": [
				{
					"internalType": "uint256",
					"name": "",
					"type": "uint256"
				}
			],
			"stateMutability": "view",
			"type": "function"
		},
		{
			"inputs": [],
			"name": "ProposalAddr",
			"outputs": [
				{
					"internalType": "address",
					"name": "",
					"type": "address"
				}
			],
			"stateMutability": "view",
			"type": "function"
		},
		{
			"inputs": [],
			"name": "PunishContractAddr",
			"outputs": [
				{
					"internalType": "address",
					"name": "",
					"type": "address"
				}
			],
			"stateMutability": "view",
			"type": "function"
		},
		{
			"inputs": [],
			"name": "SilverValidatorStaking",
			"outputs": [
				{
					"internalType": "uint256",
					"name": "",
					"type": "uint256"
				}
			],
			"stateMutability": "view",
			"type": "function"
		},
		{
			"inputs": [],
			"name": "SlashingContractAddr",
			"outputs": [
				{
					"internalType": "address",
					"name": "",
					"type": "address"
				}
			],
			"stateMutability": "view",
			"type": "function"
		},
		{
			"inputs": [],
			"name": "StakingLockPeriod",
			"outputs": [
				{
					"internalType": "uint64",
					"name": "",
					"type": "uint64"
				}
			],
			"stateMutability": "view",
			"type": "function"
		},
		{
			"inputs": [],
			"name": "ValidatorContractAddr",
			"outputs": [
				{
					"internalType": "address payable",
					"name": "",
					"type": "address"
				}
			],
			"stateMutability": "view",
			"type": "function"
		},
		{
			"inputs": [
				{
					"internalType": "address payable",
					"name": "feeAddr",
					"type": "address"
				},
				{
					"internalType": "string",
					"name": "moniker",
					"type": "string"
				}
			],
			"name": "createOrEditValidator",
			"outputs": [
				{
					"internalType": "bool",
					"name": "",
					"type": "bool"
				}
			],
			"stateMutability": "payable",
			"type": "function"
		},
		{
			"inputs": [],
			"name": "creatorPartPercent",
			"outputs": [
				{
					"internalType": "uint256",
					"name": "",
					"type": "uint256"
				}
			],
			"stateMutability": "view",
			"type": "function"
		},
		{
			"inputs": [
				{
					"internalType": "uint256",
					"name": "",
					"type": "uint256"
				}
			],
			"name": "currentValidatorSet",
			"outputs": [
				{
					"internalType": "address",
					"name": "",
					"type": "address"
				}
			],
			"stateMutability": "view",
			"type": "function"
		},
		{
			"inputs": [
				{
					"internalType": "address[]",
					"name": "_to",
					"type": "address[]"
				},
				{
					"internalType": "uint64[]",
					"name": "_gass",
					"type": "uint64[]"
				}
			],
			"name": "distributeBlockReward",
			"outputs": [],
			"stateMutability": "payable",
			"type": "function"
		},
		{
			"inputs": [],
			"name": "extraRewardsPerBlock",
			"outputs": [
				{
					"internalType": "uint256",
					"name": "",
					"type": "uint256"
				}
			],
			"stateMutability": "view",
			"type": "function"
		},
		{
			"inputs": [],
			"name": "getActiveValidators",
			"outputs": [
				{
					"internalType": "address[]",
					"name": "",
					"type": "address[]"
				}
			],
			"stateMutability": "view",
			"type": "function"
		},
		{
			"inputs": [
				{
					"internalType": "address",
					"name": "staker",
					"type": "address"
				},
				{
					"internalType": "address",
					"name": "val",
					"type": "address"
				}
			],
			"name": "getStakingInfo",
			"outputs": [
				{
					"internalType": "uint256",
					"name": "",
					"type": "uint256"
				},
				{
					"internalType": "uint256",
					"name": "",
					"type": "uint256"
				},
				{
					"internalType": "uint256",
					"name": "",
					"type": "uint256"
				}
			],
			"stateMutability": "view",
			"type": "function"
		},
		{
			"inputs": [],
			"name": "getTopValidators",
			"outputs": [
				{
					"internalType": "address[]",
					"name": "",
					"type": "address[]"
				}
			],
			"stateMutability": "view",
			"type": "function"
		},
		{
			"inputs": [],
			"name": "getTotalStakeOfActiveValidators",
			"outputs": [
				{
					"internalType": "uint256",
					"name": "total",
					"type": "uint256"
				},
				{
					"internalType": "uint256",
					"name": "len",
					"type": "uint256"
				}
			],
			"stateMutability": "view",
			"type": "function"
		},
		{
			"inputs": [
				{
					"internalType": "address",
					"name": "val",
					"type": "address"
				}
			],
			"name": "getValidatorDescription",
			"outputs": [
				{
					"internalType": "string",
					"name": "",
					"type": "string"
				}
			],
			"stateMutability": "view",
			"type": "function"
		},
		{
			"inputs": [
				{
					"internalType": "address",
					"name": "val",
					"type": "address"
				}
			],
			"name": "getValidatorInfo",
			"outputs": [
				{
					"internalType": "address payable",
					"name": "",
					"type": "address"
				},
				{
					"internalType": "enum Validators.Status",
					"name": "",
					"type": "uint8"
				},
				{
					"internalType": "uint256",
					"name": "",
					"type": "uint256"
				},
				{
					"internalType": "uint256",
					"name": "",
					"type": "uint256"
				},
				{
					"internalType": "uint256",
					"name": "",
					"type": "uint256"
				},
				{
					"internalType": "address[]",
					"name": "",
					"type": "address[]"
				}
			],
			"stateMutability": "view",
			"type": "function"
		},
		{
			"inputs": [
				{
					"internalType": "address",
					"name": "validator",
					"type": "address"
				}
			],
			"name": "getValidatorMissedBlocks",
			"outputs": [
				{
					"internalType": "uint256",
					"name": "",
					"type": "uint256"
				}
			],
			"stateMutability": "view",
			"type": "function"
		},
		{
			"inputs": [
				{
					"internalType": "address",
					"name": "validator",
					"type": "address"
				}
			],
			"name": "getValidatorPerformanceMetrics",
			"outputs": [
				{
					"internalType": "uint256",
					"name": "stakeAmount",
					"type": "uint256"
				},
				{
					"internalType": "uint256",
					"name": "missedBlocks",
					"type": "uint256"
				},
				{
					"internalType": "enum Validators.ValidatorTier",
					"name": "tier",
					"type": "uint8"
				},
				{
					"internalType": "enum Validators.Status",
					"name": "status",
					"type": "uint8"
				}
			],
			"stateMutability": "view",
			"type": "function"
		},
		{
			"inputs": [
				{
					"internalType": "address",
					"name": "validator",
					"type": "address"
				}
			],
			"name": "getValidatorStake",
			"outputs": [
				{
					"internalType": "uint256",
					"name": "",
					"type": "uint256"
				}
			],
			"stateMutability": "view",
			"type": "function"
		},
		{
			"inputs": [
				{
					"internalType": "address",
					"name": "val",
					"type": "address"
				}
			],
			"name": "getValidatorTier",
			"outputs": [
				{
					"internalType": "enum Validators.ValidatorTier",
					"name": "",
					"type": "uint8"
				}
			],
			"stateMutability": "view",
			"type": "function"
		},
		{
			"inputs": [
				{
					"internalType": "uint256",
					"name": "stakingAmount",
					"type": "uint256"
				}
			],
			"name": "getValidatorTier",
			"outputs": [
				{
					"internalType": "enum Validators.ValidatorTier",
					"name": "",
					"type": "uint8"
				}
			],
			"stateMutability": "pure",
			"type": "function"
		},
		{
			"inputs": [
				{
					"internalType": "uint256",
					"name": "",
					"type": "uint256"
				}
			],
			"name": "highestValidatorsSet",
			"outputs": [
				{
					"internalType": "address",
					"name": "",
					"type": "address"
				}
			],
			"stateMutability": "view",
			"type": "function"
		},
		{
			"inputs": [
				{
					"internalType": "address[]",
					"name": "vals",
					"type": "address[]"
				}
			],
			"name": "initialize",
			"outputs": [],
			"stateMutability": "nonpayable",
			"type": "function"
		},
		{
			"inputs": [],
			"name": "initialized",
			"outputs": [
				{
					"internalType": "bool",
					"name": "",
					"type": "bool"
				}
			],
			"stateMutability": "view",
			"type": "function"
		},
		{
			"inputs": [
				{
					"internalType": "address",
					"name": "who",
					"type": "address"
				}
			],
			"name": "isActiveValidator",
			"outputs": [
				{
					"internalType": "bool",
					"name": "",
					"type": "bool"
				}
			],
			"stateMutability": "view",
			"type": "function"
		},
		{
			"inputs": [
				{
					"internalType": "address",
					"name": "who",
					"type": "address"
				}
			],
			"name": "isTopValidator",
			"outputs": [
				{
					"internalType": "bool",
					"name": "",
					"type": "bool"
				}
			],
			"stateMutability": "view",
			"type": "function"
		},
		{
			"inputs": [
				{
					"internalType": "address",
					"name": "",
					"type": "address"
				}
			],
			"name": "lastRewardTime",
			"outputs": [
				{
					"internalType": "uint256",
					"name": "",
					"type": "uint256"
				}
			],
			"stateMutability": "view",
			"type": "function"
		},
		{
			"inputs": [],
			"name": "minimumValidatorStaking",
			"outputs": [
				{
					"internalType": "uint256",
					"name": "",
					"type": "uint256"
				}
			],
			"stateMutability": "view",
			"type": "function"
		},
		{
			"inputs": [
				{
					"internalType": "address",
					"name": "",
					"type": "address"
				},
				{
					"internalType": "uint256",
					"name": "",
					"type": "uint256"
				}
			],
			"name": "reflectionPercentSum",
			"outputs": [
				{
					"internalType": "uint256",
					"name": "",
					"type": "uint256"
				}
			],
			"stateMutability": "view",
			"type": "function"
		},
		{
			"inputs": [
				{
					"internalType": "address",
					"name": "val",
					"type": "address"
				}
			],
			"name": "removeValidator",
			"outputs": [],
			"stateMutability": "nonpayable",
			"type": "function"
		},
		{
			"inputs": [
				{
					"internalType": "address",
					"name": "val",
					"type": "address"
				}
			],
			"name": "removeValidatorIncoming",
			"outputs": [],
			"stateMutability": "nonpayable",
			"type": "function"
		},
		{
			"inputs": [],
			"name": "rewardFund",
			"outputs": [
				{
					"internalType": "uint256",
					"name": "",
					"type": "uint256"
				}
			],
			"stateMutability": "view",
			"type": "function"
		},
		{
			"inputs": [
				{
					"internalType": "address",
					"name": "validator",
					"type": "address"
				},
				{
					"internalType": "uint256",
					"name": "slashAmount",
					"type": "uint256"
				}
			],
			"name": "slashValidator",
			"outputs": [],
			"stateMutability": "nonpayable",
			"type": "function"
		},
		{
			"inputs": [
				{
					"internalType": "address",
					"name": "validator",
					"type": "address"
				}
			],
			"name": "stake",
			"outputs": [
				{
					"internalType": "bool",
					"name": "",
					"type": "bool"
				}
			],
			"stateMutability": "payable",
			"type": "function"
		},
		{
			"inputs": [
				{
					"internalType": "address",
					"name": "",
					"type": "address"
				},
				{
					"internalType": "address",
					"name": "",
					"type": "address"
				}
			],
			"name": "stakeTime",
			"outputs": [
				{
					"internalType": "uint256",
					"name": "",
					"type": "uint256"
				}
			],
			"stateMutability": "view",
			"type": "function"
		},
		{
			"inputs": [],
			"name": "stakerPartPercent",
			"outputs": [
				{
					"internalType": "uint256",
					"name": "",
					"type": "uint256"
				}
			],
			"stateMutability": "view",
			"type": "function"
		},
		{
			"inputs": [],
			"name": "totalJailedHB",
			"outputs": [
				{
					"internalType": "uint256",
					"name": "",
					"type": "uint256"
				}
			],
			"stateMutability": "view",
			"type": "function"
		},
		{
			"inputs": [],
			"name": "totalRewards",
			"outputs": [
				{
					"internalType": "uint256",
					"name": "",
					"type": "uint256"
				}
			],
			"stateMutability": "view",
			"type": "function"
		},
		{
			"inputs": [],
			"name": "totalStake",
			"outputs": [
				{
					"internalType": "uint256",
					"name": "",
					"type": "uint256"
				}
			],
			"stateMutability": "view",
			"type": "function"
		},
		{
			"inputs": [
				{
					"internalType": "address",
					"name": "validator",
					"type": "address"
				}
			],
			"name": "tryReactive",
			"outputs": [
				{
					"internalType": "bool",
					"name": "",
					"type": "bool"
				}
			],
			"stateMutability": "nonpayable",
			"type": "function"
		},
		{
			"inputs": [
				{
					"internalType": "address",
					"name": "validator",
					"type": "address"
				}
			],
			"name": "unstake",
			"outputs": [
				{
					"internalType": "bool",
					"name": "",
					"type": "bool"
				}
			],
			"stateMutability": "nonpayable",
			"type": "function"
		},
		{
			"inputs": [
				{
					"internalType": "address[]",
					"name": "newSet",
					"type": "address[]"
				},
				{
					"internalType": "uint256",
					"name": "epoch",
					"type": "uint256"
				}
			],
			"name": "updateActiveValidatorSet",
			"outputs": [],
			"stateMutability": "nonpayable",
			"type": "function"
		},
		{
			"inputs": [],
			"name": "validatorPartPercent",
			"outputs": [
				{
					"internalType": "uint256",
					"name": "",
					"type": "uint256"
				}
			],
			"stateMutability": "view",
			"type": "function"
		},
		{
			"inputs": [
				{
					"internalType": "address",
					"name": "_staker",
					"type": "address"
				},
				{
					"internalType": "address",
					"name": "_validator",
					"type": "address"
				}
			],
			"name": "viewStakeReward",
			"outputs": [
				{
					"internalType": "uint256",
					"name": "",
					"type": "uint256"
				}
			],
			"stateMutability": "view",
			"type": "function"
		},
		{
			"inputs": [
				{
					"internalType": "address",
					"name": "validator",
					"type": "address"
				}
			],
			"name": "withdrawProfits",
			"outputs": [
				{
					"internalType": "bool",
					"name": "",
					"type": "bool"
				}
			],
			"stateMutability": "nonpayable",
			"type": "function"
		},
		{
			"inputs": [
				{
					"internalType": "address",
					"name": "validator",
					"type": "address"
				}
			],
			"name": "withdrawStaking",
			"outputs": [
				{
					"internalType": "bool",
					"name": "",
					"type": "bool"
				}
			],
			"stateMutability": "nonpayable",
			"type": "function"
		},
		{
			"inputs": [
				{
					"internalType": "address",
					"name": "validator",
					"type": "address"
				}
			],
			"name": "withdrawStakingReward",
			"outputs": [
				{
					"internalType": "bool",
					"name": "",
					"type": "bool"
				}
			],
			"stateMutability": "nonpayable",
			"type": "function"
		},
		{
			"stateMutability": "payable",
			"type": "receive"
		}
	]
}